:020000040800F2
:10000000882000206D0200082D3200088F22000891
:1000100029320008AB0600089D33000800000000EC
:10002000000000000000000000000000D5010008F2
:10003000AF0600080000000019020008693200083D
:10004000870200088702000887020008870200086C
:10005000870200088702000887020008870200085C
:10006000870200088702000887020008870200084C
:10007000870200088702000887020008870200083C
:10008000870200088702000887020008870200082C
:10009000870200088702000887020008870200081C
:1000A000870200088702000887020008870200080C
:1000B00087020008870200088702000887020008FC
:1000C00087020008870200088702000887020008EC
:1000D00087020008870200088702000887020008DC
:1000E00087020008870200088702000887020008CC
:1000F000F132000887020008870200088702000822
:1001000087020008870200088702000887020008AB
:10011000870200088702000887020008870200089B
:10012000870200088702000887020008870200088B
:1001300000F002F800F03FF80AA090E8000C8244BA
:100140008344AAF10107DA4501D100F034F8AFF297
:10015000090EBAE80F0013F0010F18BFFB1A43F0A5
:1001600001031847308D0000508D0000103A24BF65
:1001700078C878C1FAD8520724BF30C830C144BF0C
:1001800004680C607047000000230024002500264E
:10019000103A28BF78C1FBD8520728BF30C148BFEA
:1001A0000B607047642900F0C980002070471FB5BC
:1001B0001FBD10B510BD00F03EFA1146FFF7F7FF66
:1001C00003F014F900F05CFA03B4FFF7F2FF03BC8C
:1001D00000F064FA224B19680868B0E8F00F80F369
:1001E0000988BFF36F8F4FF0000080F311884EF045
:1001F0000D0E70470000000006480068006880F39C
:10020000088862B661B6BFF34F8FBFF36F8F00DF10
:1002100000BF00BF08ED00E0EFF30980BFF36F8F70
:100220000F4B1A6820E9F00F106008B54FF050002E
:1002300080F31188BFF34F8FBFF36F8F04F0AAF9DB
:100240004FF0000080F31188BDE808401968086885
:10025000B0E8F00F80F30988BFF36F8F704700BFDD
:100260001C000020EFF3058070470000094880471C
:1002700009480047FEE7FEE7FEE7FEE7FEE7FEE788
:10028000FEE7FEE7FEE7FEE704480549054A064BA0
:1002900070470000ED32000831010008881A002084
:1002A00088200020881C0020881C00200FB41CB56A
:1002B000074B06AA7B4469460090059800F04FF969
:1002C0000020694600F05EF91CBC5DF814FB0000DC
:1002D000CD0200002DE9F0410E46044600202062C8
:1002E0002046E168884730B3252805D0D4E90121AC
:1002F0009047206A401CF2E7E168204600278847C3
:10030000050018D0A5F14100192802D820354FF476
:1003100000673246294620462760FFF743FF40B179
:10032000012804D0F61D26F007060836D8E7361D4A
:10033000D6E72846DAE7206ABDE8F0812DE9F041EA
:100340000646002410687529314616A510D0AFF373
:100350000080002802DA404213A507E031688A07CE
:1003600001D512A502E0490704D511A5012401E039
:10037000AFF3008000210A2206F1240709E0B0FB58
:10038000F2FCB0FBF2F302FB1C003030785418464C
:10039000491C0028F3D123462A463046BDE8F041E7
:1003A00000F07FB8000000002D0000002B000000CE
:1003B00020000000032A40F2308010F0030C00F00F
:1003C000158011F8013BBCF1020F624498BF11F88F
:1003D00001CB00F8013B38BF11F8013BA2F1040248
:1003E00098BF00F801CB38BF00F8013B11F00303C0
:1003F00000F0CD80083AC0F0088051F8043B083A7C
:1004000051F804CBA0E80810F5E7121D5CBF51F8C5
:10041000043B40F8043BAFF30080D20724BF11F83F
:10042000013B11F801CB48BF11F8012B24BF00F8A4
:10043000013B00F801CB48BF00F8012B704702F0E8
:10044000FF0343EA032242EA024200F0D4B84FF02D
:10045000000200B5134694469646203922BFA0E814
:100460000C50A0E80C50B1F12001BFF4F7AF090720
:1004700028BFA0E80C5048BF0CC05DF804EB890011
:1004800028BF40F8042B08BF704748BF20F8022B54
:1004900011F0804F18BF00F8012B7047704770476C
:1004A00070472DE9F0470D4699469246044600F103
:1004B00024080168880604D5E06921F01001216054
:1004C00000E00120A84201DD471B00E00027A169F0
:1004D0007A1902EB0900081AA0612078C00602D43C
:1004E0002046AFF30080002608E0D4E901211AF885
:1004F00006009047206A401C761C20624E45F4DBC3
:100500002078C0060AD52046AFF3008006E0D4E983
:10051000012130209047206A401C2062381EA7F13C
:100520000107F4DC07E0D4E9012118F80500904741
:10053000206A401C2062281EA5F10105F3DC20463C
:10054000AFF300802078000602D50220BDE8F087D6
:100550000120FBE701694A1C02610878704700B579
:100560008FB0CDE901310021059105497944CDE9EC
:10057000031011466846FFF7ADFE0FB000BD000046
:10058000E5FFFFFF0A6802F8010B0A60704710B52B
:10059000203AC0F00B80B1E81850203AA0E818507B
:1005A000B1E81850A0E81850BFF4F5AF5FEA027C3C
:1005B00024BFB1E81850A0E8185044BF18C918C0AB
:1005C000BDE810405FEA827C24BF51F8043B40F84C
:1005D000043B08BF7047D20728BF31F8023B48BF31
:1005E00011F8012B28BF20F8023B48BF00F8012B6F
:1005F00070474FF000020429C0F0128010F0030C85
:100600003FF427AFCCF1040CBCF1020F18BF00F887
:10061000012BA8BF20F8022BA1EB0C01FFF719BF9B
:100620005FEAC17C24BF00F8012B00F8012B48BF12
:1006300000F8012B7047754600F02CF8AE46050017
:100640006946534620F00700854618B020B5FFF7ED
:100650001BFEBDE820404FF000064FF000074FF0B2
:1006600000084FF0000B21F00701AC46ACE8C009D0
:10067000ACE8C009ACE8C009ACE8C0098D467047D9
:1006800010B50446AFF300802046BDE81040FFF7E8
:100690009BBD000000487047241A00200149182023
:1006A000ABBEFEE726000200704700BFFEE77047C2
:1006B00001B502E00098401E009000980028F9D192
:1006C00008BD72B600BFFEE72DE9F04106460C46B4
:1006D00015461F4617B1B7F5804F00D104E040F230
:1006E000731139A002F081FEB7F5804F65D14448FF
:1006F000864200D104E040F2791133A002F075FE89
:1007000020680F2800D804E04FF4BD712EA002F03D
:100710006CFE606818B160680F2800D804E040F2F1
:100720007B1129A002F061FEA06818B1A068FF2823
:1007300000D804E04FF4BE7123A002F056FEE0683A
:100740000F2800D804E04FF4BF711FA002F04DFE47
:10075000A06958B1A069B0F1805F07D0A069B0F17D
:10076000005F03D0A069B0F1405F00D104E040F227
:10077000831115A002F039FE2DB1022D03D0042DF6
:1007800001D0062D00D104E04FF4C2710EA002F09A
:100790002CFED4E9000140EA0110A16840EA0120E2
:1007A000A1690843A18940EA014056F82510154A7D
:1007B0001140084346F8250003E06FF0704046F80A
:1007C00025000020BDE8F0812E2E2F447269766549
:1007D00072732F53544D3332463178785F48414C11
:1007E0005F4472697665722F5372632F73746D3331
:1007F00032663178785F6C6C5F66736D632E630070
:10080000040100A00000F0CF2DE9F04105460C46A0
:10081000B5F1204F00D103E0D72176A002F0E5FD2D
:10082000206840B12068022805D02068042802D042
:100830002068062800D103E0D8216EA002F0D5FD83
:10084000606810B16068022800D103E0D92169A076
:1008500002F0CBFDA06828B1A068042802D0A068EF
:10086000082800D103E0DA2162A002F0BEFDE068B2
:1008700028B1E068102802D0E068202800D103E009
:10088000DB215CA002F0B1FD206918B12069B0F550
:10089000807F00D103E0DC2156A002F0A6FD606954
:1008A00018B16069B0F5007F00D103E0DD2151A0EF
:1008B00002F09BFDA06918B1A069B0F5806F00D16E
:1008C00003E0DE214BA002F090FDE06918B1E06981
:1008D000B0F5006F00D103E0DF2146A002F085FDF6
:1008E000206A18B1206AB0F5805F00D103E0E021F2
:1008F00040A002F07AFD606A18B1606AB0F5005F4E
:1009000000D103E0E1213BA002F06FFDA06A18B125
:10091000A06AB0F5804F00D103E0E22135A002F0DB
:1009200064FDE06A18B1E06AB0F5004F00D103E061
:10093000E32130A002F059FD206B18B1206BB0F517
:10094000002F00D103E0E4212AA002F04EFD606BED
:1009500078B1606BB0F5803F0BD0606BB0F5003FB5
:1009600007D0606BB0F5403F03D0606BB0F5802FCF
:1009700000D103E0E5211FA002F037FD206855F803
:10098000200020F00100216845F82100A068082817
:1009900001D1402600E0002660683043A16808438A
:1009A000E16808432169084361690843E169084334
:1009B000216A0843616A0843A16A0843E16A08435F
:1009C000216B40EA0107A0690743606B0743DFF82A
:1009D0005C8048F4806848F4E028206855F82000DE
:1009E00020EA08003843216845F821000020BDE8CE
:1009F000F08100002E2E2F447269766572732F539A
:100A0000544D3332463178785F48414C5F447269C7
:100A10007665722F5372632F73746D33326631783B
:100A2000785F6C6C5F66736D632E63007FFB0800FC
:100A300070B506460C461546B6F1204F00D104E0CD
:100A40004FF4A67141A002F0D0FC20680F2800D816
:100A500004E040F24D113DA002F0C7FC606818B1FF
:100A600060680F2800D804E04FF4A77137A002F0A7
:100A7000BCFCA06818B1A068FF2800D804E040F2D0
:100A80004F1132A002F0B1FCE0680F2800D804E05A
:100A90004FF4A8712DA002F0A8FC2069012803D909
:100AA0002069102800D804E040F2511127A002F07C
:100AB0009CFC6069012803D96069112800D804E012
:100AC0004FF4A97121A002F090FCA06958B1A0696F
:100AD000B0F1805F07D0A069B0F1005F03D0A069DA
:100AE000B0F1405F00D104E040F2531117A002F0D2
:100AF0007CFC2DB1022D03D0042D01D0062D00D198
:100B000004E04FF4AA7111A002F06FFCD4E90001D7
:100B100040EA0110A16840EA0120A18940EA0141B0
:100B2000208A401E41EA0051207D801E41EA00607B
:100B3000A1690843691C56F8211001F0404108439F
:100B4000691C46F82100002070BD00002E2E2F44A5
:100B50007269766572732F53544D3332463178780B
:100B60005F48414C5F4472697665722F5372632F00
:100B700073746D3332663178785F6C6C5F66736D59
:100B8000632E630000B585B00020019002900390B1
:100B900004901748006808B105B000BD0120144951
:100BA000086000BF1348406940F4807011494861F3
:100BB0000846406900F48070009000BF00BF4FF607
:100BC00080700190022002900320049001A90A483D
:100BD00000F016F84CF6B37001900220029003204A
:100BE000049001A9054800F00BF800BFD4E700000D
:100BF00004000020001002400018014000140140D1
:100C00002DE9FC5F05460C46002700200190E648D0
:100C1000854211D0E54885420ED0E54885420BD08B
:100C2000E448854208D0E448854205D0E34885423F
:100C300002D0E348854200D103E0BD21E1A002F0EB
:100C4000D4FB208880B220B120686FF30F0000B978
:100C500003E0BE21DBA002F0C8FB606830B360682F
:100C6000012823D06068112820D0606802281DD098
:100C7000606812281AD0E2496068884216D0E149BB
:100C80006068884212D0E049606888420ED0DF492F
:100C9000606888420AD0DE496068884206D0DD4933
:100CA0006068884202D06068032800D103E0BF2159
:100CB000C4A002F09AFB6FE1012000FA07F8206857
:100CC00000EA0806464575D1B748854211D0B748B5
:100CD00085420ED0B64885420BD0B648854208D032
:100CE000B548854205D0B548854202D0B448854212
:100CF00000D103E0CD21B3A002F077FBC04A6068C9
:100D0000811A90426AD00EDC032875D006DC0028D8
:100D100063D0012819D002286FD139E0112825D0DD
:100D20001228F9D147E0B1F5881F5BD006DCB1F598
:100D3000803F56D0B1F5801F79D150E0B1F5001F4A
:100D40004ED0B1F5041F72D14DE0E068022805D005
:100D5000E068012802D0E068032800D103E0D52133
:100D600098A002F042FBE068019061E0E068022890
:100D700005D0E068012802D0E068032800D103E034
:100D8000DC2190A002F031FBE068001D01904FE0F3
:100D9000E068022805D0E068012802D0E068032856
:100DA00000D103E0E32187A002F01FFBE0680830D8
:100DB00001903DE0D2E0E068022805D0E06801281B
:100DC00002D0E068032800D103E0EA217DA002F010
:100DD0000CFBE0680C3001902AE000BF00BF00BFB0
:100DE00000BF00BF00BFA06828B1A068012802D0E2
:100DF000A068022802D105E016E018E0F72171A0F2
:100E000002F0F3FAA06810B9042001900BE0A0688A
:100E1000012804D108200190C5F8108003E00820C3
:100E20000190C5F8148003E00020019000E000BFAD
:100E300000BFFF2E01D8284600E0281D8246FF2E65
:100E400001D8B80002E0A7F1080080008346DAF874
:100E500000000F2101FA0BF18843019901FA0BF10F
:100E60000843CAF80000606800F08050B0F1805F6D
:100E700074D100BF6848806940F00100664988610C
:100E80000846806900F00100009000BF00BF4FEAF3
:100E9000B130B90850F82190B807010F0F208840F1
:100EA00029EA00094048854201D1002019E03F4865
:100EB000854201D1012014E03D48854201D1022044
:100EC0000FE03C48854201D103200AE03A488542C0
:100ED00001D1042005E03948854201D1052000E018
:100EE0000620B907090F884040EA09094B48B908AC
:100EF00040F82190606800F48030B0F5803F05D163
:100F00004748006830434649086004E044480068A8
:100F1000B04343490860606800F40030B0F5003F1A
:100F200007D13F48001D006830433D49091D086056
:100F300006E03B48001D0068B0433949091D0860C0
:100F4000606800F48010B0F5801F08D13448083084
:100F50000068304332490831086007E01BE0304840
:100F600008300068B0432E4908310860606800F41A
:100F70000010B0F5001F07D129480C30006830433D
:100F800027490C31086006E025480C300068B04362
:100F900023490C3108607F1C2068F84000287FF44A
:100FA0008BAEBDE8FC9F000000080140000C014032
:100FB000001001400014014000180140001C0140D5
:100FC000002001402E2E2F447269766572732F53D4
:100FD000544D3332463178785F48414C5F447269F2
:100FE0007665722F5372632F73746D333266317866
:100FF000785F68616C5F6770696F2E630000000046
:10100000000011100000211000003110000012102B
:1010100000002210000032100010024008000140C1
:101020000004014070B506460C461546A0B218B142
:10103000200C000400B904E04FF4EA7108A002F0AB
:10104000D4F90DB1012D00D104E040F2D51104A076
:1010500002F0CBF90DB1346101E02004306170BDC4
:101060002E2E2F447269766572732F53544D33328E
:10107000463178785F48414C5F4472697665722FDB
:101080005372632F73746D3332663178785F6861A1
:101090006C5F6770696F2E63000000000148006894
:1010A000704700000C0000200348006803490978DD
:1010B00008440149086070470C000020140000201B
:1010C00010B50848006840F0100006490860032089
:1010D00000F01EF90F2000F007F800F049F800209A
:1010E00010BD00000020024070B588B00446002505
:1010F0000026002221462C2000F0A0F82C2000F031
:1011000067F800BF1648806940F4005014498861B0
:101110000846806900F40050019000BF00BF02A99A
:1011200003A800F09DFA00F0EFFA05460D48B5FB64
:10113000F0F0461E0C480D49086040F2E7310B48BC
:10114000C160466000210161816000F083FE20B92A
:10115000064800F033FF08B070BD0120FBE7000037
:101160000010024040420F000034014008010020FE
:1011700008B500BF1448806940F001001249886139
:101180000846806900F00100009000BF00BF00BF6A
:101190000846C06940F08050C8610846C06900F048
:1011A0008050009000BF00BF00220F21901E00F071
:1011B00045F800BF0549486820F0E06040F0007045
:1011C000486000BF08BD0000001002400000014060
:1011D00010B50446002C00DB03E0BE2108A002F09D
:1011E00004F92046002809DB00F01F02012191408C
:1011F0004209920002F1E022C2F8001100BF10BDC6
:101200002E2E2F447269766572732F53544D3332EC
:10121000463178785F48414C5F4472697665722F39
:101220005372632F73746D3332663178785F6861FF
:101230006C5F636F727465782E6300002DE9F05F58
:1012400080460C4615460027102D00D203E0AA2147
:1012500020A002F0CAF8102C00D203E0AB211DA0A0
:1012600002F0C3F802F09CF80746394622462B46A6
:1012700001F00700C0F1070ABAF1040F02D94FF0DC
:10128000040A01E0C0F1070AD14600F1040ABAF1EC
:10129000070F02D24FF0000A01E0A0F1030AD44682
:1012A0004FF0010A0AFA09FAAAF1010A0AEA020A47
:1012B0000AFA0CFA4FF0010B0BFA0CFBABF1010B25
:1012C0000BEA030B4AEA0B063146404602F070F87F
:1012D000BDE8F09F2E2E2F447269766572732F53EE
:1012E000544D3332463178785F48414C5F447269DF
:1012F0007665722F5372632F73746D333266317853
:10130000785F68616C5F636F727465782E6300004C
:1013100010B50446072C07D0062C05D0052C03D0A9
:10132000042C01D0032C00D103E0922109A002F08B
:101330005CF800BF04F00701154A10684FF6FF0281
:101340001040144A024342EA0120114A106000BFD3
:1013500010BD00002E2E2F447269766572732F53D4
:10136000544D3332463178785F48414C5F4472695E
:101370007665722F5372632F73746D3332663178D2
:10138000785F68616C5F636F727465782E630000CC
:101390000CED00E00000FA0570B504460D460CB9EE
:1013A000012070BD207800F0010070B9207800F0B5
:1013B0000200022809D0207800F00400042804D09C
:1013C000207800F00800082800D104E04FF44E71A6
:1013D00090A002F00AF81DB1012D01D0022D00D11C
:1013E00004E040F239318BA001F0FFFF974800681C
:1013F00000F00700A8420ED29448006820F00700D1
:101400002843924908600846006800F00700A84297
:1014100001D00120C5E7207800F0020002283DD16C
:10142000207800F00400042805D18948406840F481
:10143000E06087494860207800F00800082805D15E
:101440008348406840F4605081494860A068B8B162
:10145000A068802814D0A068902811D0A068A02887
:101460000ED0A068B0280BD0A068C02808D0A06813
:10147000D02805D0A068E02802D0A068F02800D1CC
:1014800004E040F25F3163A001F0AFFF70484068B4
:1014900020F0F000A16808436D494860207800F012
:1014A0000100002845D0606828B16068012802D09A
:1014B0006068022800D104E040F2663155A001F0D6
:1014C00094FF6068012806D16148006800F400308C
:1014D00090B9012065E76068022806D15C48006881
:1014E00000F0007040B901205BE75948006800F047
:1014F000020008B9012054E75548406820F0030075
:101500006168084352494860FFF7C8FD064608E095
:10151000FFF7C4FD801B41F28831884201D90320C6
:101520003FE74B48406800F00C006168B0EB810F6A
:10153000EED14648006800F00700A8420ED94348A3
:10154000006820F00700284340490860084600680A
:1015500000F00700A84201D0012022E7207800F027
:10156000040004281FD1E06878B1E068B0F5806F0E
:101570000BD0E068B0F5A06F07D0E068B0F5C06FA1
:1015800003D0E068B0F5E06F00D104E04FF469717A
:1015900020A001F02AFF2E48406820F4E060E168B6
:1015A00008432B494860207800F00800082820D123
:1015B000206978B12069B0F5806F0BD02069B0F553
:1015C000A06F07D02069B0F5C06F03D02069B0F5D7
:1015D000E06F00D104E040F2AB310EA001F005FF56
:1015E0001B48406820F46050216940EAC100184956
:1015F000486000F099F816494968C1F30311154A8B
:10160000515CC8401449086014480068FFF76CFD3D
:101610000020C6E62E2E2F447269766572732F5312
:10162000544D3332463178785F48414C5F4472699B
:101630007665722F5372632F73746D33326631780F
:10164000785F68616C5F7263632E63000020024004
:101650000010024014530008180000201000002061
:1016600070B504460D4604B104E040F2235113A0C6
:1016700001F0BBFE05B104E040F224510FA001F0DF
:10168000B4FE0F2020601B48406800F0030060603B
:101690001848406800F0F000A0601648406800F468
:1016A000E060E0601348406800F46050C0082061CA
:1016B0001148006800F00700286070BD2E2E2F44EE
:1016C0007269766572732F53544D33324631787890
:1016D0005F48414C5F4472697665722F5372632F85
:1016E00073746D3332663178785F68616C5F7263F2
:1016F000632E630000100240002002400148006891
:10170000704700001800002000B5FFF7F7FF0449FC
:101710004968C1F3C221034A515CC84000BD0000C2
:101720000010024024530008F0B585B00FF26C0C95
:101730009CE8E01001A8A0E8E0101CA52D68009529
:1017400000210022002300240020194D696801F0C7
:101750000C05F5B1042D02D0082D19D101E0154872
:1017600019E001ADC1F38346AC5D01F4803555B19C
:101770000F4D6D68C5F340451DF805200D4D6543BF
:10178000B5FBF2F302E00C4D04FB05F3184602E052
:1017900000BF084800BF00BF05B0F0BD020304054C
:1017A000060708090A0B0C0D0E0F101001020000AD
:1017B0000010024000127A0000093D00F8B504460E
:1017C0000CB90120F8BD206890B1207800F001002C
:1017D00070B9207800F00200022809D0207800F0CB
:1017E0000800082804D0207800F00400042800D164
:1017F00004E040F26711FAA001F0F7FD207800F054
:101800000100002870D0606838B16068B0F5803F92
:1018100003D06068B0F5A02F00D104E040F26D1154
:10182000EFA001F0E2FDFC48406800F00C00042845
:101830000CD0F948406800F00C00082811D1F64897
:10184000406800F48030B0F5803F0AD1F24800686B
:1018500000F40030002860D0606800285DD10120CD
:10186000B0E700BF6068B0F5803F06D1EA48006885
:1018700040F48030E849086028E0606858B9E648DC
:10188000006820F48030E44908600846006820F4CD
:10189000802008601AE06068B0F5A02F0BD1DE4808
:1018A000006840F48020DC4908600846006840F485
:1018B000803008600AE0D848006820F48030D649BB
:1018C00008600846006820F48020086000BF606857
:1018D00090B1FFF7E3FB054607E0FFF7DFFB401B96
:1018E000642802D903206DE717E0CB48006800F4B4
:1018F00000300028F1D010E0FFF7D0FB054606E0ED
:10190000FFF7CCFB401B642801D903205AE7C248EB
:10191000006800F400300028F2D1207800F00200C6
:1019200002286BD1206910B12069012800D104E0A0
:1019300040F2A111AAA001F058FD60691F2800D84B
:1019400004E04FF4D171A6A001F04FFDB248406809
:1019500000F00C0050B1B048406800F00C000828BE
:1019600018D1AD48406800F4803098B9AA480068A2
:1019700000F0020020B12069012801D0012021E7F8
:10198000A548006820F0F800616940EAC100A2495A
:10199000086033E02069E8B10120A0490860FFF742
:1019A0007DFB054606E0FFF779FB401B022801D9C5
:1019B000032007E79848006800F002000028F2D0F2
:1019C0009548006820F0F800616940EAC10092493A
:1019D000086013E0002091490860FFF75FFB0546AF
:1019E00006E0FFF75BFB401B022801D90320E9E674
:1019F0008948006800F002000028F2D1207800F049
:101A00000800082838D1A06910B1A069012800D1C8
:101A100004E04FF4F17172A001F0E7FCA069B8B1E5
:101A200001207F490860FFF739FB054606E0FFF714
:101A300035FB401B022801D90320C3E67648406AE3
:101A400000F002000028F2D0012001F0F1FB13E0C9
:101A5000002073490860FFF721FB054606E0FFF709
:101A60001DFB401B022801D90320ABE66A48406AEF
:101A700000F002000028F2D1207800F004000428D1
:101A800078D10027E06828B1E068012802D0E0683A
:101A9000052800D104E040F2112151A001F0A5FC7D
:101AA0005D48C06900F0805070B900BF5A48C069F5
:101AB00040F080505849C8610846C06900F0805025
:101AC000009000BF00BF01275648006800F48070F6
:101AD000B0B95448006840F4807052490860FFF77C
:101AE000DDFA054606E0FFF7D9FA401B642801D964
:101AF000032067E64B48006800F480700028F2D0AD
:101B000000BFE068012806D14348006A40F00100A8
:101B10004149086227E0E06858B93F48006A20F070
:101B200001003D4908620846006A20F0040008628E
:101B300019E0E06805280BD13748006A40F004003E
:101B4000354908620846006A40F0010008620AE070
:101B50003148006A20F001002F4908620846006AF7
:101B600020F00400086200BFE068A0B1FFF796FA19
:101B7000054609E02BE0FFF791FA401B41F288315E
:101B8000884201D903201DE62348006A00F00200C4
:101B90000028F0D012E0FFF781FA054608E0FFF7D1
:101BA0007DFA401B41F28831884201D9032009E6C1
:101BB0001948006A00F002000028F0D1012F05D179
:101BC0001548C06920F080501349C86100BFE06922
:101BD00028B1E069012802D0E069022824D129E077
:101BE0002E2E2F447269766572732F53544D333203
:101BF000463178785F48414C5F4472697665722F50
:101C00005372632F73746D3332663178785F686115
:101C10006C5F7263632E630000100240000042425A
:101C2000800442420070004040F2AF21AFF2500009
:101C300001F0DBFBE069002875D06748406800F0E0
:101C40000C00082870D0E06902286ED1206A18B113
:101C5000206AB0F5803F00D105E04FF42E71AFF25D
:101C6000800001F0C2FB606AB8B3606AB0F5802FF3
:101C700033D0606AB0F5002F2FD0606AB0F5402FE6
:101C80002BD0606AB0F5801F27D0606AB0F5A01F26
:101C900023D0606AB0F5C01F1FD0606AB0F5E01FA6
:101CA0001BD0606AB0F5001F17D0606AB0F5101F36
:101CB00013D0606AB0F5201F0FD0606AB0F5301FF6
:101CC0000BD0606AB0F5401F07D0606AB0F5501FB6
:101CD00003D0606AB0F5601F00D105E040F2B92181
:101CE000AFF2041001F081FB00203C490866FFF7C9
:101CF000D5F9054606E0FFF7D1F9401B022801D9C6
:101D000003205FE53448006800F000700028F2D13D
:101D1000206AB0F5803F17D1A06818B1A068B0F56F
:101D2000003F03D108E055E042E02CE040F2CF2133
:101D3000AFF2541001F059FB2748406820F40030FE
:101D4000A168084324494860D4E9080108432249AE
:101D5000496821F4741108431F49486001201F4954
:101D60000866FFF79BF9054606E0FFF797F9401B69
:101D7000022801D9032025E51748006800F000700B
:101D80000028F2D026E0002014490866FFF786F903
:101D9000054606E0FFF782F9401B022801D903201F
:101DA00010E50D48006800F000700028F2D111E045
:101DB000E069012800D105E50748466806F480314E
:101DC000206A814204D106F47011606A814201D018
:101DD0000120F7E40020F5E4001002400000424238
:101DE00070B504460E4615461CB1A069B0F5807F5B
:101DF00001D1012070BD94F8410028B9002084F879
:101E00004000204600F01FF804F108012068FEF7AA
:101E1000FBFC3146A2682068FEF70AFE2946236BC8
:101E2000D4E90102FEF750FCA168206850F82100B7
:101E300040F00100A268216841F82200012084F8E6
:101E400041000020D6E710B50446FEF79BFE10BD0A
:101E50007047704710B504460CB9012010BD4149C8
:101E6000206888421BD040492068884217D02068EB
:101E7000B0F1804F13D03D49206888420FD03C49D3
:101E8000206888420BD03B492068884207D03A49F5
:101E90002068884203D039492068884200D104E094
:101EA00040F2131136A001F0A0FAA06858B1A06862
:101EB000102808D0A068202805D0A068402802D0AB
:101EC000A068602800D104E04FF48A712CA001F0D2
:101ED0008CFA206938B12069B0F5807F03D0206981
:101EE000B0F5007F00D104E040F2151124A001F00C
:101EF0007CFAA06910B1A069802800D104E04FF4F9
:101F00008B711FA001F071FA94F83D0028B90020F0
:101F100084F83C00204600F04FF8022084F83D0091
:101F2000211D206801F0ECF9012084F8460000BF73
:101F300084F83E0001213F200155402001554120F9
:101F4000015500BF00BF012084F842004320015525
:101F5000442001554520015500BF012084F83D0073
:101F600000207BE7002C01400034014000040040C9
:101F700000080040000C0040001000400014004029
:101F80002E2E2F447269766572732F53544D33325F
:101F9000463178785F48414C5F4472697665722FAC
:101FA0005372632F73746D3332663178785F686172
:101FB0006C5F74696D2E63007047000070B5044655
:101FC0003049206888421BD02F492068884217D0AA
:101FD0002068B0F1804F13D02C49206888420FD080
:101FE0002B49206888420BD02A492068884207D0B4
:101FF00029492068884203D028492068884200D1B6
:1020000004E040F2CF1126A001F0EFF994F83D0072
:10201000012801D0012070BD022084F83D00206815
:10202000C06840F001002168C860164920688842F5
:1020300013D01549206888420FD02068B0F1804F36
:102040000BD012492068884207D011492068884285
:1020500003D01049206888420CD12068806800F0C5
:102060000705062D0CD02068006840F001002168AB
:10207000086005E02068006840F001002168086001
:102080000020C8E7002C014000340140000400405B
:1020900000080040000C0040001000400014004008
:1020A0002E2E2F447269766572732F53544D33323E
:1020B000463178785F48414C5F4472697665722F8B
:1020C0005372632F73746D3332663178785F686151
:1020D0006C5F74696D2E6300704710B5044620680C
:1020E0000069C0F34000D8B12068C068C0F3400068
:1020F000B0B16FF0020021680861012020772068EC
:10210000806900F0030018B12046FFF7E5FF05E005
:10211000204600F0ADF8204600F0ABF80020207714
:1021200020680069C0F38000D8B12068C068C0F39F
:102130008000B0B16FF004002168086102202077B0
:102140002068806900F4407018B12046FFF7C4FF92
:1021500005E0204600F08CF8204600F08AF80020C8
:10216000207720680069C0F3C000D8B12068C0683B
:10217000C0F3C000B0B16FF008002168086104200E
:1021800020772068C06900F0030018B12046FFF7EF
:10219000A3FF05E0204600F06BF8204600F069F848
:1021A0000020207720680069C0F30010D8B12068B3
:1021B000C068C0F30010B0B16FF010002168086172
:1021C000082020772068C06900F4407018B12046CC
:1021D000FFF782FF05E0204600F04AF8204600F0B5
:1021E00048F8002020772068006900F0010058B10D
:1021F0002068C06800F0010030B16FF00100216874
:102200000861204600F036F820680069C0F3C0106D
:1022100058B12068C068C0F3C01030B16FF08000C2
:10222000216808612046FFF713FE20680069C0F3AB
:10223000801058B12068C068C0F3801030B16FF0D2
:10224000400021680861204600F020F820680069FD
:10225000C0F3401058B12068C068C0F3401030B1DE
:102260006FF02000216808612046FFF7F2FD10BDE5
:102270007047704710B5044603492068884201D171
:10228000FEF712FF10BD000000340140704700BF90
:10229000FEE7000020B14FF08051044A116003E0D6
:1022A0004FF48051014A1160704700001014014042
:1022B0002DE9F04106460F4614461D462B462246A0
:1022C0003946304600F054FA04FB05F0024909880B
:1022D00000F0BEF9BDE8F081A200002001B502E0E7
:1022E0000098401E009000980028F9D108BD000019
:1022F0002DE9F05F804689461646A6F120001FFAB8
:1023000080FA1E49096889881C4A1268D28801FB34
:1023100002F0C11700EB5171C1F3C70717480068FD
:1023200000680AFB070B15480068C388134800685B
:1023300082884946404600F01BFA2C2000F0E8FC59
:10234000002416E0002510E01BF80400802129413C
:10235000084020B10A48008800F0DEFC03E009488C
:10236000008800F0D9FC681CC5B2082DECDB601CAD
:10237000C4B2BC42E6DBBDE8F09F00009C00002038
:10238000A0000020A200002070B504460D460026E3
:1023900024E03046134909688988084412490988AD
:1023A000884205DD00260F480068C088204484B2BA
:1023B00020460C490968C98808440C4909888842A4
:1023C00001DD002600242A7821463046FFF790FFE1
:1023D0006D1C044800688088304486B22878002844
:1023E000D7D170BD9C0000209400002096000020F2
:1023F0002DE9F05F05460E4691469B4600240FFAF4
:1024000089F70320A0EB49000FFA80FA87E0BBF1BF
:10241000000F40D0A0463BE006EB080291B22A191B
:1024200090B200F059FC06EB080291B22A1B90B260
:1024300000F052FC321991B2A5EB080290B200F004
:102440004BFC321B91B2A5EB080290B200F044FCA9
:10245000A6EB080291B22A1B90B200F03DFCA6EB5D
:10246000080291B22A1990B200F036FC321B91B2E8
:1024700005EB080290B200F02FFC321991B205EB87
:10248000080290B200F028FC08F101000FFA80F871
:10249000B845C1DD2FE0F21991B22A1990B200F0CF
:1024A0001BFCF21991B22A1B90B200F015FC3219F4
:1024B00091B2EA1B90B200F00FFC321B91B2EA1B02
:1024C00090B200F009FCF21B91B22A1B90B200F00E
:1024D00003FCF21B91B22A1990B200F0FDFB321BF3
:1024E00091B2EA1990B200F0F7FB321991B2EA19F1
:1024F00090B200F0F1FB601C04B2BAF1000F05DAF3
:10250000A000801D50440FFA80FA07E0E01B800015
:102510000A3050440FFA80FA781E07B200BFBC425E
:102520007FF775AFBDE8F09F2DE9FF4F83B081467F
:102530004FF0000AD3460598A0EB090504990698C8
:10254000461ACDF8049004980090002D01DD012773
:1025500005E00DB9002702E04FF0FF376D42002E75
:1025600002DD4FF0010806E016B94FF0000802E066
:102570004FF0FF387642B54201DD2C4600E034468C
:102580000020029019E0DDE9001000F0A5FBAA444C
:10259000B344A24505DDAAEB040A0198384480B291
:1025A0000190A34505DDABEB040B0098404480B2DD
:1025B00000900298401C80B20290611C02988842F0
:1025C000E1DD07B0BDE8F08F2DE9F04104460D468E
:1025D00016461F46DDF81880B8F1000F0CD03B46B8
:1025E00032462946204600F0C3F806FB07F017499B
:1025F000098800F02DF827E0A019401E82B22B4672
:1026000029462046FFF790FFE819401E83B2A01923
:10261000401E82B2E819401E81B22046FFF784FFB7
:10262000E819401E83B2224629462046FFF77CFF68
:10263000E919491E8BB2A119491E8AB2A119491E76
:1026400088B22946FFF770FFBDE8F081A0000020A6
:1026500070B504460D4600262C2000F059FB00BF43
:1026600003E0284600F058FB761CA642F9D370BD63
:1026700010B50446072C00DD10BD3148047020461B
:1026800004EBD0714910A4EB410139B9F0202D4978
:1026900008804FF4A0702C49088006E04FF4A07029
:1026A00028490880F02028490880362000F030FBB7
:1026B0002648008849F24131884205D1082141EA83
:1026C000441000F029FB0AE02048008848F25251EB
:1026D000884204D1002141EA441000F01DFB2A2069
:1026E00000F016FB002000F017FB002000F014FBA8
:1026F00014490988491EC1F3072000F00DFB114958
:102700000978491EC8B200F007FB2B2000F000FB3F
:10271000002000F001FB002000F0FEFA0A490988C1
:10272000491EC1F3072000F0F7FA07490978491E4E
:10273000C8B200F0F1FA2C2000F0EAFA00BF9BE7E3
:102740009800002094000020960000209A000020AD
:1027500010B50120FFF79EFD00F0A0FA00F038F858
:1027600002480078FFF784FF10BD000098000020A9
:102770002DE9F04104460D4616461F462A2000F07A
:10278000C7FA201200F0C8FAE0B200F0C5FAA119A9
:10279000491EC1F30F2000F0BFFAA119491EC8B2AB
:1027A00000F0BAFA2B2000F0B3FA281200F0B4FAC5
:1027B000E8B200F0B1FAE919491EC1F30F2000F0A8
:1027C000ABFAE919491EC8B200F0A6FABDE8F081DB
:1027D00010B500F025FAFE4908800846008849F245
:1027E000413188427ED1CF2000F092FA002000F0E3
:1027F00093FA812000F090FA302000F08DFAED205D
:1028000000F086FA642000F087FA032000F084FAD2
:10281000122000F081FA812000F07EFAE82000F01A
:1028200077FA852000F078FA102000F075FA782009
:1028300000F072FACB2000F06BFA392000F06CFA4D
:102840002C2000F069FA002000F066FA342000F035
:1028500063FA032000F060FAF72000F059FA202014
:1028600000F05AFAEA2000F053FA002000F054FA7F
:10287000002000F051FAB12000F04AFA002000F0E8
:102880004BFA1B2000F048FAB62000F041FA0A206B
:1028900000F042FAA22000F03FFAC02000F038FA1F
:1028A000352000F039FAC12000F032FA112000F092
:1028B00033FAC52000F02CFA452000F02DFA45200F
:1028C00000F02AFAC72000F023FAA22000F024FA30
:1028D000F22000F01DFA002000F01EFA262000F081
:1028E00017FA00E096E0012000F016FAE02000F070
:1028F0000FFA0F2000F010FA262000F00DFA242025
:1029000000F00AFA0B2000F007FA0E2000F004FA9B
:10291000092000F001FA542000F0FEF9A82000F090
:10292000FBF9462000F0F8F90C2000F0F5F917202B
:1029300000F0F2F9092000F0EFF90F2000F0ECF9B7
:10294000072000F0E9F9002000F0E6F9E12000F0AE
:10295000DFF9002000F0E0F9192000F0DDF91B207C
:1029600000F0DAF9042000F0D7F9102000F0D4F9D3
:10297000072000F0D1F92A2000F0CEF9472000F01E
:10298000CBF9392000F0C8F9032000F0C5F9062082
:1029900000F0C2F9062000F0BFF9302000F0BCF9C9
:1029A000382000F0B9F90F2000F0B6F9362000F019
:1029B000AFF9C82000F0B0F92A2000F0A9F90020F2
:1029C00000F0AAF9002000F0A7F9002000F0A4F917
:1029D000EF2000F0A1F92B2000F09AF9002000F080
:1029E0009BF9002000F098F9012000F095F93F20B4
:1029F00000F092F93A2000F08BF9552000F08CF9A4
:102A0000112000F085F97348FFF768FC292000F0D9
:102A10007FF901E16E48008848F252518842F8D1AE
:102A2000CF2000F075F9002000F076F9C12000F009
:102A300073F9302000F070F9ED2000F069F964209E
:102A400000F06AF9032000F067F9122000F064F941
:102A5000812000F061F9E82000F05AF9852000F0AB
:102A60005BF9102000F058F9782000F055F9CB20E0
:102A700000F04EF9392000F04FF92C2000F04CF90D
:102A8000002000F049F9342000F046F9022000F05F
:102A900043F9F72000F03CF9202000F03DF9EA204E
:102AA00000F036F9002000F037F9002000F034F98A
:102AB000C02000F02DF9212000F02EF9C12000F0F7
:102AC00027F9112000F028F9C52000F021F92D2068
:102AD00000F022F9332000F01FF9362000F018F939
:102AE000002000F019F93A2000F012F9552000F00A
:102AF00013F9B12000F00CF9002000F00DF91720B7
:102B000000F00AF9B62000F003F90A2000F004F9F9
:102B1000A22000F001F9F62000F0FAF8012000F000
:102B2000FBF8302000F0F8F8F22000F0F1F8002077
:102B300000F0F2F8262000F0EBF8012000F0ECF8AD
:102B4000E02000F0E5F8D02000F0E6F8002000F0EA
:102B5000E3F8022000F0E0F8072000F0DDF80B2099
:102B600000F0DAF81A2000F0D7F8312000F0D4F89D
:102B7000542000F0D1F8402000F0CEF8292000F0D9
:102B8000CBF8122000F0C8F8122000F0C5F812208F
:102B900000F0C2F8172000F0BFF8E12000F0B8F80C
:102BA000D02000F0B9F8002000F0B6F8022000F0C4
:102BB000B3F8072000F0B0F8052000F0ADF82520AC
:102BC00000F0AAF82D2000F0A7F8442004E000004F
:102BD0009A000020FCBF020000F09EF8452000F0A3
:102BE0009BF81C2000F098F8182000F095F81620AB
:102BF00000F092F81C2000F08FF81D2000F08CF8F7
:102C0000112000F085F80548FFF768FB292000F047
:102C10007FF82C2000F07CF810BD0000FCBF020003
:102C200010B50024042000F073F800BF1748008896
:102C300000BF1648008800F02BF804464FF6FF70DE
:102C400000EA042400F024F8044348F2525084427D
:102C500001D1204610BDD32000F05AF800BF0B4828
:102C6000008800BF0948008800F012F804464FF6BB
:102C7000FF7000EA042400F00BF8044349F24130ED
:102C8000844201D12046E5E70020E3E7000002602E
:102C900001480088704700000000026010B54FF442
:102CA00000300749086040F6FF20FFF717FB0220BD
:102CB0000349086040F6FF20FFF710FB10BD00003D
:102CC0001018014070B504460D4601231A462946E6
:102CD0002046FFF74DFD70BD70B505460C4609480E
:102CE000008885420CDA08480088844208DA2146C8
:102CF0002846FFF7E7FF054801880120FFF7A8FCF9
:102D000070BD00009400002096000020A00000206C
:102D10004FF0C041088070470149088070470000AB
:102D20000000026070B5044600F00CF8C5882B4620
:102D30000348028821460020FFF7BAFA70BD000060
:102D40009400002001480068704700009C000020AB
:102D5000024A1080024A118070470000A000002043
:102D6000A200002001490860704700009C0000207C
:102D70000149088070470000A000002010B59AB0FB
:102D8000A1480078401CA0490870A048FFF7EAFF5E
:102D900000214FF47840FFF7DBFF9D4803889D48F2
:102DA000028800210846FFF783FAFFF7CBFF0024D3
:102DB00099A12046FFF7E8FAFFF7C4FFC4889CA159
:102DC0002046FFF7E1FAA148008849F241318842E4
:102DD00009D1FFF7B7FFC0884004040C9CA120462E
:102DE000FFF7D2FA0EE09948008848F25251884223
:102DF00008D1FFF7A7FFC0884004040C99A1204622
:102E0000FFF7C2FAFFF79EFFC08800EB400084B2D4
:102E100099A12046FFF7B8FA9E48FFF7A3FF4FF4A9
:102E2000FC60FFF7A5FF784802789BA101A8FDF799
:102E30003DFAFFF787FFC0888004040C2046FFF7A7
:102E400071FFFFF77FFFC0888004040C01A92046B2
:102E5000FFF79AFA9348FFF785FFFFF773FFC088E3
:102E60008004040C2046FFF75DFF1F20FFF780FF62
:102E7000FFF768FFC0888004040C8BA12046FFF791
:102E800083FA4FF47840FFF773FFE623D222AA219A
:102E90003220FFF749FBF023D222C8213220FFF76E
:102EA00043FB4FF4FC60FFF763FFE623C822AA212F
:102EB0006420FFF739FBF023DC22C8210846FFF726
:102EC00033FB1F20FFF754FFE6236E22AA21104692
:102ED000FFF72AFBF023DC22C8218220FFF724FB26
:102EE0006FF07F40FDF7E4FB49480088803883B2EB
:102EF0004848028880210020FFF7DAF9FFF722FF17
:102F0000C0888004040C2046FFF70CFF1F20FFF749
:102F10002FFFFFF717FFC0888004040C65A120462F
:102F2000FFF732FA4FF47840FFF722FF01201E230B
:102F30006422C82100903220FFF746FB4FF4FC606A
:102F4000FFF716FF002028231422C8210090A0209C
:102F5000FFF73AFB1F20FFF70BFF0120142332225B
:102F6000C8210090AA20FFF72FFB6FF07F40FDF7EC
:102F70009FFB27480088803883B22648028880213A
:102F80000020FFF795F9FFF7DDFEC0888004040CF0
:102F90002046FFF7C7FE1F20FFF7EAFEFFF7D2FE2D
:102FA000C0888004040C46A12046FFF7EDF94FF4D9
:102FB0007840FFF7DDFE00231422C8216420FFF7CC
:102FC00017FA4FF4FC60FFF7D3FE01230A22C82151
:102FD0006420FFF70DFA1F20FFF7CAFE002314221A
:102FE000C8218C20FFF704FA6FF07F40FDF760FBEB
:102FF00007480088803883B2064802888021002074
:10300000FFF756F91AB010BDA4000020A800002058
:103010009600002094000020424820332E32206980
:103020006E6368204C434420706172613A00000076
:10303000496D616765207265736F6C7574696F6E39
:103040003A32343078333230207078009A000020E1
:10305000494C4939333431204C43442064726976F9
:103060006572000053543737383956204C4344209A
:1030700064726976657200005850543230343620DC
:10308000546F75636820506164206472697665725C
:1030900000000000B0000020436F756E74203A20DD
:1030A00025642000B800002044726177206C696EAE
:1030B000653A00004472617720526563743A0000FB
:1030C00044726177204369723A00000010B5044AE7
:1030D0000021044800F0FAF90349086010BD00001F
:1030E000F0520008593200080000002000B587B0F7
:1030F0001C216846FDF7ABF94FF020401A490860E3
:103100001A4848600020886000211748C1600161AA
:103110001021416100218161C161016241624FF46E
:10312000805181620021C1620163416381630F208C
:1031300000900190FF2002900F2003901020049037
:103140001120059000200690002269460648FEF7EF
:1031500047FE08B1FDF7B5FA0548C06940F4806044
:103160000349C86107B000BDC0000020040100A0F1
:103170000000014000B585B000200190029003904E
:10318000049000BF2548806940F0400023498861D1
:103190000846806900F04000009000BF00BF00BFFB
:1031A0000846806940F0200088610846806900F088
:1031B0002000009000BF00BF00BF0846806940F0BB
:1031C000040088610846806900F00400009000BF98
:1031D00000BF002289141248FDF724FF00220221BB
:1031E0001048FDF71FFF4FF480500190012002901E
:1031F000002003900220049001A90948FDF700FD7A
:1032000002200190012002900020039002200490EF
:1032100001A90448FDF7F4FC05B000BD0010024010
:10322000001401400018014000BFFEE700BFFEE7A8
:1032300008B508490968C9084FF47A72B1FBF2F180
:103240004143009100BF00BF00994A1E009200292F
:10325000F9D108BD1800002000BFFFF78FFD012045
:1032600000F0D6F8F9E7000010B500BF502080F359
:103270001188BFF34F8FBFF36F8F00BF01F0F8FDD0
:1032800018B14FF080500449086000BF002080F35F
:10329000118800BF10BD000004ED00E000B58FB044
:1032A000282105A8FDF7D3F814216846FDF7CFF8CB
:1032B000022005900120099010200A9000200C9017
:1032C00005A8FEF77BFA08B1FDF7FBF90F20009087
:1032D0000020019002900390049000216846FEF7C0
:1032E0005BF808B1FDF7EDF90FB000BD70470000C5
:1032F00010B50248FEF7F1FE10BD000008010020E5
:1033000010B50268204B98420ED0204B98420BD04B
:10331000B0F1804F08D01E4B984205D01D4B98420B
:1033200002D01D4B984203D122F070024B681A4321
:10333000154B98420ED0154B98420BD0B0F1804FF0
:1033400008D0134B984205D0124B984202D0124B32
:10335000984203D122F44072CB681A4322F08003D2
:103360004C6943EA040202608B68C3620B688362A3
:10337000054B984202D0054B984201D10B6903637B
:103380000123436110BD0000002C014000340140C6
:103390000004004000080040000C004000BFFEE7B1
:1033A00002480068C0F30220704700000CED00E006
:1033B00010B5002804DB0A07130E054A135406E073
:1033C0000A07140E034A00F00F031B1FD45410BD4C
:1033D00000E400E018ED00E0EFF311807047EFF338
:1033E00005807047EFF3108070477047FDF768FE67
:1033F000FFF754FFFFF7BEFEFFF778FEFFF7A8F9CF
:1034000000F022F8FFF762FE00F03EF800BFFEE792
:1034100070B50546FFF7E3FF48B9FFF7E3FF30B9A2
:1034200008480068022805D1FFF7D6FF10B16FF0F9
:10343000050404E0002415B1284600F0CBFF204627
:1034400070BD00006C00002010B5FFF7C8FF48B940
:10345000FFF7C8FF30B90B480068022805D1FFF715
:10346000BBFF10B16FF0050409E00648006820B901
:10347000012004490860002401E04FF0FF34204699
:1034800010BD00006C00002010B5FFF7A8FF48B980
:10349000FFF7A8FF30B90C480068022805D1FFF7F4
:1034A0009BFF10B16FF005040CE00748006801288D
:1034B00006D102200449086001F008F8002401E068
:1034C0004FF0FF34204610BD6C0000202DE9F0477E
:1034D00086B080468946144600200490FFF77FFF9F
:1034E00000285DD1FFF77EFF002859D12D480068E4
:1034F000022803D1FFF770FF002851D1B8F1000F67
:103500004ED080261825002005900DF1140A471E84
:1035100044B3206808B1D4F800A0A06900B1A5693F
:103520002DB1382D03D8207900F0010018B100200A
:1035300006B0BDE8F087606908B160698608A068D8
:1035400040B1E0685C2805D3206918B1606908B112
:10355000012708E0A06830B9E06820B9206910B9F7
:10356000002700E00027012F0CD12169A0684B46FD
:103570003246CDE9005102905146404601F006FC2A
:1035800004900DE067B904A8B2B24B465146CDE9AC
:103590000050404601F0C8FB012801D000200490F3
:1035A0000498C5E76C0000202DE9F04105460E4661
:1035B0001648076816480068001D00F08BFD681C5F
:1035C00038B936B112480168091D124800F0D8FD1B
:1035D0001AE07C190E4800684460BC4207D20C48CF
:1035E0000168091D0C48006800F0B0FD0CE00848B7
:1035F0000168091D0948006800F0A8FD0848006836
:10360000844201D206480460BDE8F0813000002009
:103610001C00002040060020240000202000002084
:103620004C00002010B5044600F0B6FD24480068A8
:10363000401C234908602348006840B921480460C1
:103640000846006801280DD100F0F8F90AE01E488C
:10365000006838B91B480068C06AE16A884201D82E
:103660001848046019480068401C1849086008465A
:10367000006860641649E06A0968884202D9144902
:10368000E06A0860E16A01EB8101124A02EB810005
:10369000211D00F075FD00F0A9FD0B48006868B120
:1036A00008480068C06AE16A884207D24FF080503B
:1036B00009490860BFF34F8FBFF36F8F10BD000043
:1036C0002C0000201C0000203800002048000020B2
:1036D000340000209001002004ED00E008B500F067
:1036E0005BFD12480068E8B9114800F01FFD114861
:1036F00000F01CFD0E48104908600E480F49086094
:1037000000200F4B0F4A102100900A2001F006F80C
:10371000064908600846006820B10BA1034800680C
:1037200000F01CFE00F062FD08BD000060000020FB
:103730005406002068060020580000205C0000208D
:103740007C060020CC060020546D72510000000061
:1037500010B516E000F020FD0C48C068C468201DBC
:1037600000F0B8FC0A480068401E09490860094892
:103770000068401E0749086000F038FD204600F050
:103780005EF8044800680028E4D110BD2C06002033
:103790002C0000202800002070B504460D46206C47
:1037A00070B1216CE0680844E0606168E0688842BC
:1037B00001D32068E0602846226CE168FCF7FAFD3E
:1037C00070BD2DE9F04104460F4615464FF0000844
:1037D000A66B206C40B9206860BB606801F0EAFB12
:1037E00080460020606025E07DB93946226CA068E3
:1037F000FCF7E0FD216CA0680844A060D4E901104A
:10380000884217D32068A06014E03946226CE06833
:10381000FCF7D0FD216CE068401AE0602168E068A8
:10382000884203D2216C6068401AE060022D01D109
:1038300006B1761E701CA0634046BDE8F08110B54D
:10384000044694F8590030B9206B00F0EDFC204696
:1038500000F0EAFC1AE094F85900012803D1204650
:1038600000F0E2FC12E094F85900022801D1012096
:1038700000E0002050B900BF502080F31188BFF352
:103880004F8FBFF36F8F00BF00BFFEE710BD00007A
:103890000146084A126812680AB9012200E00022B3
:1038A0000A600A6822B9034A1268D268106800E008
:1038B000002070475800002030B54FF4406317488F
:1038C00000F007042CB1C01D20F00700134C041BAE
:1038D0001B1B0246124C22600024114D6C60D01854
:1038E000083820F007000F4C206000240D4D2D6893
:1038F0006C600C4D2D682C601146441A4C60094CCC
:1039000024680C60084D4C682C60084D4C682C6095
:103910004FF00044064D2C6030BD0000240E002006
:103920007000002078000020800000207C00002033
:103930008400002000BFFFF70BFF06480068012845
:10394000F9D94FF0805004490860BFF34F8FBFF39F
:103950006F8FF0E79001002004ED00E02DE9F041C9
:1039600006460D4617469846069C0DB9246000E0B1
:103970002760E66325640121204600F03FFF84F8BC
:103980004C80BDE8F0812DE9F05F82460F469046FD
:103990009B460A9E0C9C4FEA8801A522206BFCF7EF
:1039A0004EFDA8F10100216B01EB800929F0070908
:1039B00009F0070008B9012000E0002050B900BF5D
:1039C000502080F31188BFF34F8FBFF36F8F00BF7C
:1039D00000BFFEE7002507E0795D04F134004155A2
:1039E000785D00B902E06D1C102DF5D300BF0021F9
:1039F00043200155382E00D33726E662E6640020C6
:103A00002065201D00F09FFB04F1180000F09BFBD7
:103A10002461C6F13800A06164620020606584F80A
:103A200058005A465146484600F042FB20600B9829
:103A300008B10B980460BDE8F09F000010B50024A9
:103A400007E004EB84010F4A02EB810000F06EFBFB
:103A5000641C382CF5D30C4800F068FB0B4800F0D0
:103A600065FB0B4800F062FB0A4800F05FFB0A4868
:103A700000F05CFB044809490860044808490860F4
:103A800010BD000090010020F00500200406002079
:103A9000180600202C0600204006002020000020F0
:103AA0002400002010B50146164800E000680368B5
:103AB0008B42FBD30246436813448B4204D14368D4
:103AC0004C682344436001460A464B68134404682B
:103AD000A34211D10C4C03682468A34208D04B6860
:103AE0000468646823444B6003681B680B6005E04E
:103AF000054B1B680B6001E003680B60884200D037
:103B0000016010BD70000020780000202DE9F04118
:103B100004460D4616461F464FF0000865602461B6
:103B2000B5420CD8F01BA169884202D34FF00108BE
:103B300011E0211D0948006800F008FB0BE0BE42BF
:103B400004D2BD4202D34FF0010804E0211D044815
:103B5000006800F0FBFA4046BDE8F0815C00002000
:103B60005800002070B5054600F016FBA86B08B998
:103B7000012400E0002400F039FB204670BD70B540
:103B8000054600F009FBA86BE96B884201D10124CE
:103B900000E0002400F02AFB204670BDF8B5054681
:103BA0000F4616480068C068C468201D00F092FAED
:103BB000E06901281DD1A06941192B463A462046EB
:103BC000FFF7A4FFA8B1002003462A460146009053
:103BD000204601F04BFB064656B900BF502080F34B
:103BE0001188BFF34F8FBFF36F8F00BF00BFFEE799
:103BF00000BF2046616A8847F8BD000058000020D9
:103C0000F0B587B082E00398002811DA04AE56B907
:103C100000BF502080F31188BFF34F8FBFF36F8F29
:103C200000BF00BFFEE7D6E90020B168904700BFA3
:103C3000039800286ADB059C606908B9012000E050
:103C4000002010B9201D00F045FA02A800F0C0F8CD
:103C5000054603980A2857D2DFE800F00905073126
:103C6000334F0608323400BF00BF00BF00BF0498C6
:103C7000A269811803462A462046FFF747FFE8B1AC
:103C80002046616A8847E069012817D1002000902A
:103C90000498A169421800231946204601F0E6FA6B
:103CA000074657B900BF502080F31188BFF34F8FEC
:103CB000BFF36F8F00BF00BFFEE700BF25E000BF6E
:103CC00023E000BF0498A061A06908B1012000E0D2
:103CD000002050B900BF502080F31188BFF34F8FF0
:103CE000BFF36F8F00BF00BFFEE7A06941192B46ED
:103CF0002A462046FFF70AFF07E094F82C0010B987
:103D0000204600F091FA00E000BF00BF002203A9A6
:103D10000448006800F00EFF00287FF474AF07B07D
:103D2000F0BD000060000020F8B505460C4600F02C
:103D300029FC684600F04CF80646009820BB44B9C0
:103D4000B54206D801F0D4F931462846FFF726FFE0
:103D50001CE03CB10E480068006808B9012000E092
:103D600000200446A91B22460A48006800F00CFB0C
:103D700001F0BEF950B94FF0805007490860BFF319
:103D80004F8FBFF36F8F01E001F0B2F9F8BD000073
:103D90005C0000206000002004ED00E00A49096892
:103DA000096809B9012100E0002121B14FF0FF317C
:103DB000064A116006E004490968C968C868034AF0
:103DC0004168116070470000200000204C00002076
:103DD00070B5044601F046F805460748006885427C
:103DE00004D200F00BF80120206001E000202060E8
:103DF00001480560284670BD680000202DE9F843A1
:103E000032E024480068C068056822480068C0683D
:103E1000C468201D00F05EF92046616A8847E069A9
:103E2000012821D1A0694619AE4207D966602461F4
:103E3000211D1848006800F089F915E000200346AC
:103E40002A4601460090204601F010FA074657B96D
:103E500000BF502080F31188BFF34F8FBFF36F8FE7
:103E600000BF00BFFEE700BF0A480068006808B94D
:103E7000012000E000200028C3D00648D0F80080D0
:103E800005480068034908600348C0F80080BDE8A1
:103E9000F8830000580000205C0000200E480068F5
:103EA000401C08B9012000E0002050B900BF50209C
:103EB00080F31188BFF34F8FBFF36F8F00BF00BF38
:103EC000FEE700BF502080F31188BFF34F8FBFF390
:103ED0006F8F00BF00BFFEE78800002008B500BF5D
:103EE0006846FFF7D5FC044620460099FFF71CFF03
:103EF000FFF786FEF4E770B5044600F04DF994F93B
:103F0000455010E0606A08B9012000E0002038B98F
:103F100004F1240001F0A0F818B100F095FA00E0D7
:103F200003E0681E45B2002DECDC00BFFF2084F8E2
:103F3000450000F05BF900F02FF994F9445010E0CF
:103F4000206908B9012000E0002048B904F1100000
:103F500001F082F808B100F077FA681E45B200E07F
:103F600001E0002DECDC00BFFF2084F8440000F0ED
:103F70003DF970BD2DE9F04104464FF0000800F016
:103F800001FB4648006808B9FFF796FC4448006802
:103F9000204000286BD1D4B1083404F00700B0B140
:103FA00004F00700C0F10800044404F0070008B959
:103FB000012000E0002050B900BF502080F311889C
:103FC000BFF34F8FBFF36F8F00BF00BFFEE7002C22
:103FD0004DD034480068844249D8334E3046056895
:103FE00001E02E462D686868A04202D228680028A9
:103FF000F7D12A480068854239D0306800F10808B6
:10400000286830606868001B102819D92F1907F03C
:10401000070008B9012000E0002050B900BF50207F
:1040200080F31188BFF34F8FBFF36F8F00BF00BFC6
:10403000FEE76868001B78606C603846FFF732FD69
:10404000184968680968081A16490860084600682F
:1040500016490968884203D212480068134908606B
:104060000F4968680968084368600020286001F00B
:104070003FF808F0070008B9012000E0002050B91F
:1040800000BF502080F31188BFF34F8FBFF36F8FB5
:1040900000BF00BFFEE74046BDE8F0817800002089
:1040A000840000207C0000207000002080000020A0
:1040B000001F4FF080730360001F21F001030360B5
:1040C000001F034B03601438026020387047000063
:1040D0009D3E000801460A69D1E901309860D1E9A6
:1040E000010358605068884201D188685060002000
:1040F00008611068401E106010687047034B036031
:10410000034B0B6080231360704700006C07002096
:10411000C8070020034B0360034B0B604FF4807310
:1041200013607047C8090020240A002000F108012C
:1041300041604FF0FF31816000F10801C160016111
:1041400000210160704700210161704710B50246EF
:104150000B685C1C0CB9106907E002F1080000E074
:104160004068446824689C42FAD944684C604C68B2
:10417000A160886041600A611468641C146010BD0D
:1041800042684A6093688B609368596091600861E7
:1041900003685B1C0360704700BF502080F31188E8
:1041A000BFF34F8FBFF36F8F00BF0E480068401CF6
:1041B0000C49086008460068012812D10A480068C6
:1041C000C0B208B9012000E0002050B900BF502063
:1041D00080F31188BFF34F8FBFF36F8F00BF00BF15
:1041E000FEE770478800002004ED00E00D480068FD
:1041F00050B900BF502080F31188BFF34F8FBFF339
:104200006F8F00BF00BFFEE706480068401E0549EB
:1042100008600846006820B9002080F3118800BFBC
:1042200000BF70478800002070B506463546002E56
:104230003FD0083D2C461F4960680968084008B116
:10424000012000E0002050B900BF502080F3118809
:10425000BFF34F8FBFF36F8F00BF00BFFEE7206833
:1042600008B9012000E0002050B900BF502080F3C1
:104270001188BFF34F8FBFF36F8F00BF00BFFEE702
:104280000C4960680968084098B1206888B90949F4
:10429000606809688843606000F074F906496068E6
:1042A00009680844044908602046FFF7FBFB00F05A
:1042B0001FFF70BD840000207C00002000204FF014
:1042C000E02108618861064800684FF47A71B0FB0C
:1042D000F1F0401E4FF0E02148610720086170476F
:1042E0001800002070B5FBF7BDFF0446102C16D354
:1042F00004F1E02090F8F05315480078854201DB86
:10430000012000E0002050B900BF502080F3118848
:10431000BFF34F8FBFF36F8F00BF00BFFEE70D48A5
:10432000006800F4E0600C490968884201D8012067
:1043300000E0002050B900BF502080F31188BFF387
:104340004F8FBFF36F8F00BF00BFFEE770BD00004F
:104350008C0000200CED00E09000002002460020C0
:104360000BE0084B53F8303033B9064B43F83010AC
:1043700003EBC0035A6002E0401C0828F1D300BFE1
:1043800070470000500100202DE9F04105460E461F
:1043900017462C46FFF700FF94F94400401C10B963
:1043A000002084F8440094F94500401C10B9002016
:1043B00084F84500FFF71AFFA06B28B93A4631464A
:1043C00004F1240000F062F82046FFF794FDBDE8F8
:1043D000F081000070B504460025D4B11248006891
:1043E00008B9012000E0002050B900BF502080F340
:1043F0001188BFF34F8FBFF36F8F00BF00BFFEE781
:1044000000F0C0F800212046FFF7CEF800F070FE63
:1044100005463DB94FF0805004490860BFF34F8F07
:10442000BFF36F8F70BD00005400002004ED00E06A
:104430000349096801600349096841607047000049
:10444000440000203000002001200149086070472E
:104450004000002070B504460D4654B900BF5020FE
:1044600080F31188BFF34F8FBFF36F8F00BF00BF82
:10447000FEE70548016818312046FFF767FE012175
:104480002846FFF791F870BD1C00002070B5054666
:104490000E46144655B900BF502080F31188BFF373
:1044A0004F8FBFF36F8F00BF00BFFEE70648016864
:1044B00018312846FFF764FE0CB14FF0FF36214655
:1044C0003046FFF771F870BD1C00002010B586B0B3
:1044D00000200590049003AA04A905A8FFF70EFE8A
:1044E0000022DDE904101346CDE9002102901EA14F
:1044F0001F48039A00F04AFC1E49086008460068FD
:1045000008B1012400E00024012C02D100F072FE69
:104510000446012C15D100BF502080F31188BFF351
:104520004F8FBFF36F8F00BF4FF0FF30124908600D
:1045300001201249086000201149086000F072F85B
:1045400010E0601C08B1012000E0002050B900BF5D
:10455000502080F31188BFF34F8FBFF36F8F00BFE0
:1045600000BFFEE706B010BD49444C450000000006
:1045700035390008500000204C0000203800002091
:104580003000002002480068401C01490860704764
:10459000540000201E48006818B101201D49086021
:1045A00034E000201B4908601B4801680CE051B949
:1045B00000BF502080F31188BFF34F8FBFF36F8F80
:1045C00000BF00BFFEE7491E01EB8100134A52F80D
:1045D000200008B9012000E000200028E7D101EB0D
:1045E00081020E4B03EB820042685268426000F188
:1045F00008024368934202D14268526842604268AE
:10460000D268074B1A600448016000BF7047000081
:1046100054000020400000203400002090010020C1
:104620001C0000201CB53849084600780190FF2086
:104630000A4610700846007800909DF8000000F0CF
:10464000F0009DF80020904201D1012000E0002000
:1046500050B900BF502080F31188BFF34F8FBFF3D4
:104660006F8F00BF00BFFEE79DF8000000F0500014
:10467000264A10700720264A106009E02448006886
:10468000401E234A10609DF800004006000E009076
:104690009DF8000000F080008028EFD01C480068E2
:1046A000C0F10700042801D1012000E0002050B92A
:1046B00000BF502080F31188BFF34F8FBFF36F8F7F
:1046C00000BF00BFFEE7124800680002104A1060F9
:1046D0001046008800F4E06010600B4A01981070EA
:1046E0000C48006840F470000A49086008460068F9
:1046F00040F070400860FFF7E1FD002006490860C7
:10470000FBF77AFD00201CBD00E400E08C000020D7
:104710009000002020ED00E0880000202DE9F84303
:1047200080460E4617461D46DDF82090B8F1000F72
:1047300001D0012000E0002050B900BF502080F3DC
:104740001188BFF34F8FBFF36F8F00BF00BFFEE72D
:104750000DB1012000E0002050B900BF502080F3CF
:104760001188BFF34F8FBFF36F8F00BF00BFFEE70D
:1047700007B10EB1012000E0002050B900BF502069
:1047800080F31188BFF34F8FBFF36F8F00BF00BF5F
:10479000FEE707B90EB9012000E0002050B900BFC4
:1047A000502080F31188BFF34F8FBFF36F8F00BF8E
:1047B00000BFFEE7502000900098502801D1012052
:1047C00000E0002050B900BF502080F31188BFF3F3
:1047D0004F8FBFF36F8F00BF00BFFEE72C464CB179
:1047E000012084F846004B463A4631464046009444
:1047F000FFF7B4F82046BDE8F883000070B5054621
:104800000E462C4654B900BF502080F31188BFF3E8
:104810004F8FBFF36F8F00BF00BFFEE7FFF7BCFCF9
:10482000D4E90F12206801FB020060600020A06341
:104830002068A060E06B401E226C216800FB021023
:10484000E060FF2084F8440084F845009EB92069A8
:1048500008B9012000E00020A8B904F1100000F020
:10486000FBFB80B14FF0805009490860BFF34F8FC8
:10487000BFF36F8F07E004F11000FFF757FC04F15E
:104880002400FFF753FCFFF7B1FC012070BD0000CE
:1048900004ED00E02DE9FF4383B0064688461D463F
:1048A0004FF00009344654B900BF502080F31188FE
:1048B000BFF34F8FBFF36F8F00BF00BFFEE7B8F1AC
:1048C000000F01D1206C08B9012000E0002050B990
:1048D00000BF502080F31188BFF34F8FBFF36F8F5D
:1048E00000BF00BFFEE7022D02D1E06B012801D11D
:1048F000012000E0002050B900BF502080F3118853
:10490000BFF34F8FBFF36F8F00BF00BFFEE700F014
:1049100099FA08B9059808B9012000E0002050B9BB
:1049200000BF502080F31188BFF34F8FBFF36F8F0C
:1049300000BF00BFFEE700BFFFF72EFCA06BE16BDE
:10494000884201D3022D28D12A4641462046FEF74F
:1049500038FF0746606A08B9012000E0002068B906
:1049600004F1240000F078FB88B14FF08050324908
:104970000860BFF34F8FBFF36F8F08E03FB14FF078
:1049800080502D490860BFF34F8FBFF36F8FFFF743
:104990002DFC012007B0BDE8F083059818B9FFF79A
:1049A00025FC0020F6E7B9F1000F04D101A8FFF7BC
:1049B0003FFD4FF00109FFF719FCFFF7E3FDFFF79B
:1049C000EBFB94F94400401C10B9002084F844002B
:1049D00094F94500401C10B9002084F84500FFF709
:1049E00005FC05A901A800F059F9F0B92046FFF728
:1049F000C6F8A0B104F110000599FFF72BFD204681
:104A0000FFF779FA00F074FB002895D14FF0805041
:104A100009490860BFF34F8FBFF36F8F8CE72046C3
:104A2000FFF769FA00F064FB86E72046FFF763FAB8
:104A300000F05EFB0020ADE704ED00E02DE9F05F43
:104A400007468A4690461E463C4654B900BF502051
:104A500080F31188BFF34F8FBFF36F8F00BF00BF8C
:104A6000FEE7BAF1000F01D1206C08B9012000E087
:104A7000002050B900BF502080F31188BFF34F8F42
:104A8000BFF36F8F00BF00BFFEE7022E02D1E06BC5
:104A9000012801D1012000E0002050B900BF5020C2
:104AA00080F31188BFF34F8FBFF36F8F00BF00BF3C
:104AB000FEE7FFF717FC00BF5021EFF3118081F3F1
:104AC0001188BFF34F8FBFF36F8F00BF0546A06BF8
:104AD000E16B884201D3022E23D194F945B03246CE
:104AE00051462046FEF76DFE0BF1010088B9606A61
:104AF00008B9012000E0002080B904F1240000F092
:104B0000ABFA58B1B8F1000F08D00120C8F8000086
:104B100004E00BF1010040B284F845004FF00109B8
:104B200001E04FF0000900BF85F3118800BF48463F
:104B3000BDE8F09F2DE9F74183B005460E464FF0E2
:104B400000082C4654B900BF502080F31188BFF3F1
:104B50004F8FBFF36F8F00BF00BFFEE70EB9206C11
:104B600008B9012000E0002050B900BF502080F3B8
:104B70001188BFF34F8FBFF36F8F00BF00BFFEE7F9
:104B800000F060F908B9059808B9012000E000209C
:104B900050B900BF502080F31188BFF34F8FBFF38F
:104BA0006F8F00BF00BFFEE700BFFFF7F5FAA76BEE
:104BB000F7B131462046FEF7EFFD781EA06320696D
:104BC00008B9012000E0002060B904F1100000F0F5
:104BD00043FA38B14FF080502F490860BFF34F8F30
:104BE000BFF36F8FFFF702FB012006B0BDE8F08135
:104BF000059818B9FFF7FAFA0020F6E7B8F1000FA8
:104C000004D101A8FFF714FC4FF00108FFF7EEFAFA
:104C1000FFF7B8FCFFF7C0FA94F94400401C10B944
:104C2000002084F8440094F94500401C10B900208D
:104C300084F84500FFF7DAFA05A901A800F02EF87C
:104C4000F0B92046FEF78EFFA0B104F124000599CB
:104C5000FFF700FC2046FFF74EF900F049FA002864
:104C6000A3D14FF080500C490860BFF34F8FBFF3C2
:104C70006F8F9AE72046FFF73EF900F039FA94E784
:104C80002046FFF738F900F033FA2046FEF76AFFB6
:104C900000288AD00020A8E704ED00E070B50546A2
:104CA0000C4655B900BF502080F31188BFF34F8FD9
:104CB000BFF36F8F00BF00BFFEE754B900BF5020A5
:104CC00080F31188BFF34F8FBFF36F8F00BF00BF1A
:104CD000FEE7FFF761FA124802686868131A206855
:104CE000401C08B9002617E00E4928680968884268
:104CF00004D06868904201D801260DE020689842EF
:104D000007D92068C01A20602846FFF791FB0026CB
:104D100002E0002020600126FFF768FA304670BDEF
:104D200030000020440000202DE9FF4F85B0804670
:104D300089461746DDE912ABB800FFF71BF90646B6
:104D400056B15C20FFF716F904460CB1266304E067
:104D50003046FFF769FA00E000248CB1002084F8A7
:104D60005900CDE900ABCDE902403A4649464046FC
:104D7000089BFEF708FE2046FEF754FC012501E0E3
:104D80004FF0FF35284609B0BDE8F08F2DE9F04F10
:104D900085B00746884691469A46DDE90EB6109CD6
:104DA0000EB1012000E0002050B900BF502080F378
:104DB0001188BFF34F8FBFF36F8F00BF00BFFEE7B7
:104DC0000CB1012000E0002050B900BF502080F35A
:104DD0001188BFF34F8FBFF36F8F00BF00BFFEE797
:104DE0005C20039003985C2801D1012000E00020A2
:104DF00050B900BF502080F31188BFF34F8FBFF32D
:104E00006F8F00BF00BFFEE7B4B1AEB125462C46A0
:104E10002E63022085F85900002004A953464A4613
:104E2000CDE900B1CDE9025041463846FEF7ABFD71
:104E30002846FEF7F7FB01E000200490049805B037
:104E4000BDE8F08F0549096809B9012005E004496A
:104E5000096809B9022000E00020704738000020EE
:104E6000540000200149086870470000300000200D
:104E70002DE9F0414FF0000843480068002876D142
:104E800042480068451C4148056015BB4048006821
:104E9000006808B9012000E0002050B900BF502090
:104EA00080F31188BFF34F8FBFF36F8F00BF00BF38
:104EB000FEE73748076837480068354908603548D5
:104EC000076035480068401C33490860FEF766FFFC
:104ED00000BF3248006885423BD300BF2C480068C1
:104EE000006808B9012000E0002020B14FF0FF3039
:104EF0002A4908602CE026480068C068C4686668D3
:104F0000B54202D22548066022E0201DFFF7E2F8F4
:104F1000A06A18B104F11800FFF7DCF82049E06A34
:104F20000968884202D91E49E06A0860E16A01EB1B
:104F300081011C4A02EB8100211DFFF721F91A496A
:104F4000E06A0968C96A8842C8D34FF00108C5E71A
:104F500000BF15480068C06A00EB8000114951F895
:104F60002000012801D94FF0010805E0FFE70F48B4
:104F70000068401C0D4908600D48006808B14FF0FA
:104F800001084046BDE8F0815400002030000020B8
:104F90002000002024000020440000204C000020BD
:104FA00034000020900100201C0000203C00002064
:104FB0004000002070B505462C460026002D43D049
:104FC00022480068844201D1012000E0002050B94D
:104FD00000BF502080F31188BFF34F8FBFF36F8F56
:104FE00000BF00BFFEE7206D50B900BF502080F326
:104FF0001188BFF34F8FBFF36F8F00BF00BFFEE775
:10500000206D401E2065E16CE06A88421CD0206D56
:10501000D0B9201DFFF75EF8E06CE062E06AC0F1F5
:105020003800A0610A49E06A0968884202D9084943
:10503000E06A0860E16A01EB8101064A02EB810047
:10504000211DFFF79DF80126304670BD1C00002091
:10505000340000209001002070B50646F068C46856
:1050600054B900BF502080F31188BFF34F8FBFF3B6
:105070006F8F00BF00BFFEE704F11800FFF72AF8AA
:1050800015480068A0B9201DFFF724F81349E06A0D
:105090000968884202D91149E06A0860E16A01EBB7
:1050A00081010F4A02EB8100211DFFF769F804E03E
:1050B00004F118010B48FFF763F80B49E06A09682F
:1050C000C96A884204D9012501200849086000E026
:1050D0000025284670BD0000540000203400002048
:1050E00090010020180600201C0000204000002035
:1050F00070B5002400263648006850B900BF502023
:1051000080F31188BFF34F8FBFF36F8F00BF00BFD5
:10511000FEE7FFF741F82E480068401E2C49086062
:105120000846006800284ED12A48006800284AD066
:1051300023E02948C068C46804F11800FEF7CAFFDC
:10514000201DFEF7C7FF2549E06A0968884202D999
:105150002249E06A0860E16A01EB8101204A02EB22
:105160008100211DFFF70CF81E49E06A0968C96A31
:10517000884202D301201C4908601748006808B91A
:10518000012000E000200028D3D00CB1FEF706FE7D
:105190001648056865B100BFFFF76AFE10B101202F
:1051A000114908606D1E002DF6D100200F490860DE
:1051B0000D48006838B1012630070D490860BFF37B
:1051C0004F8FBFF36F8FFFF711F8304670BD0000AF
:1051D000540000202C00002018060020340000207D
:1051E000900100201C000020400000203C00002016
:1051F00004ED00E010B586B00024FEF76FFA164803
:105200000068D0B100200590049003AA04A905A865
:10521000FEF780FF0222DDE904100023CDE9002122
:1052200002900EA10F48039AFFF7B0FD0E490860E7
:105230000846006800B1012400BF54B900BF5020E7
:1052400080F31188BFF34F8FBFF36F8F00BF00BF94
:10525000FEE7204606B010BD60000020546D7220AD
:1052600053766300DD3E0008640000202DE9FF470F
:1052700004460D4616461F46DDF830804FF0000903
:1052800054B900BF502080F31188BFF34F8FBFF394
:105290006F8F00BF00BFFEE71448006810B3009591
:1052A00001960294062D15DAFFF7CCFD022808D1ED
:1052B0000023424669460D480068FFF7EBFA814635
:1052C00010E000231A46694608480068FFF7E2FA32
:1052D000814607E000233A46694604480068FFF724
:1052E000ADFB8146484604B0BDE8F0876000002071
:1052F0008C8E00080000000000000000000000008C
:105300000000000000020000180000000000000083
:105310000000000000000000000000000102030483
:105320000607080900000000010203040000000055
:105330000000000000000000000000000000001855
:105340001818181818080008180000000000003489
:1053500024242400000000000000000000000000E1
:1053600016247F2424247E2424000000000000084A
:105370003E6848681C1612127C1010000000006184
:10538000D296740810162949C600000000000000DB
:105390003C646438724ACE467F000000000000186A
:1053A00018181800000000000000000000000004B1
:1053B000081810303030301010180C040000002095
:1053C0001008080C0404040C081810200000000841
:1053D0000A341C6A08000000000000000000000001
:1053E00000001818187F18181800000000000000AE
:1053F0000000000000000018180830000000000045
:1054000000000000003C0000000000000000000060
:10541000000000000000001818000000000000025A
:1054200006040C08081010202040000000000000B6
:105430003C6642475B7342663C000000000000008F
:1054400018784808080808087E00000000000000DE
:105450003C460606040810207E0000000000000004
:105460007C0606043C0202067C00000000000000EE
:105470000C1C14246444FF0404000000000000001D
:105480007E6060607E0202067C000000000000007A
:105490001E306048764242623C000000000000007E
:1054A0007E0206040C081810300000000000000006
:1054B0003C6242361C6642423C0000000000000094
:1054C0003C664242661A02047800000000000000B8
:1054D000000018180000001818000000000000006C
:1054E0000000181800000018180830000000000024
:1054F000000004183060100C0600000000000000DE
:10550000000000007E007E0000000000000000009F
:105510000000301804060C102000000000000030CD
:105520001C06060618100010100000000000001CE9
:10553000224141DDB5A5A5AF94C0403C000000006C
:10554000181C342426627E43C100000000000000C5
:105550007C4642467C4242427C0000000000000043
:105560001E204040404040603E000000000000001F
:105570007C4642434343424678000000000000005E
:105580007E6060607E6060607E0000000000000061
:105590007E6060607E60606060000000000000006F
:1055A0001E604040CE4242623E000000000000000B
:1055B000424242427E42424242000000000000005D
:1055C0007E181818181818187E0000000000000037
:1055D0007C0404040404044478000000000000007B
:1055E0004244485070584C44420000000000000003
:1055F00020202020202020203E000000000000006D
:105600006266675F5B5BC1C1C10000000000000013
:10561000626272525A4A4E46460000000000000084
:105620003C6243C3C3C343623C000000000000006F
:105630007C464242467840404000000000000000A6
:105640003C6243C3C3C343623C180F000000000028
:105650007C6662667C6C646662000000000000008C
:105660003E6040601C0602027C000000000000005A
:105670007F181818181818181800000000000000EB
:1056800042424242424242623C00000000000000AE
:10569000C14342622624341C1800000000000000B0
:1056A000C1C141495B5B76666600000000000000F6
:1056B00043663418181C2466C30000000000000074
:1056C000C14266341C1818181800000000000000C1
:1056D0007E02040C181020607E0000000000001CF8
:1056E00010101010101010101010101C00000040AE
:1056F0002020101008080C04060200000000003CE6
:105700000C0C0C0C0C0C0C0C0C0C0C3C00000000D9
:10571000181C2462000000000000000000000000CF
:105720000000000000000000000000FF000000205A
:105730001000000000000000000000000000000059
:1057400000003C06023E42467A0000000000004095
:1057500040405C62424242427C0000000000000087
:1057600000001E20604060203E000000000000029B
:1057700002023E62424242663A000000000000001F
:1057800000003C62427E40603E0000000000000FCE
:105790001810107E10101010100000000000000003
:1057A00000003F66426658403E43423C00000040D5
:1057B00040405C6242424242420000000000001849
:1057C00018007808080808087E000000000000049F
:1057D0000C007C040404040404040C780000006041
:1057E0006060626C7870686462000000000000789D
:1057F00008080808080808087E00000000000000EB
:105800000000764B4B4B4B4B4B0000000000000060
:1058100000005C6242424242420000000000000080
:1058200000003C62424342623C0000000000000075
:1058300000005C62424242427C4040400000000066
:1058400000003E62424242663A020202000000004C
:1058500000006E7263606060600000000000000085
:1058600000003E20203C06027C00000000000000FA
:105870001010FE10101010101E000000000000009C
:1058800000004242424242663A000000000000002E
:105890000000434266243418180000000000000095
:1058A0000000C1C15B5A5E66660000000000000097
:1058B000000062261C181C26620000000000000088
:1058C000000043426624341C181830E00000000039
:1058D00000007E060C1810207E0000000000000E64
:1058E00018101010307010101010180E000008085A
:1058F0000808080808080808080808080000003018
:10590000180808080C0E08080808183000000000E5
:1059100000000000714B06000000000000000000C5
:105920000000000000000000000000000000000077
:105930000000000000000000000000000000000067
:105940000000000000000000000000000000000057
:1059500000000000000003800180018001800180C0
:10596000018001800180018001800000000003C0EF
:1059700003C0000000000000000000000000000064
:105980000000000000000E700E700E700C30000061
:105990000000000000000000000000000000000007
:1059A00000000000000000000000000000000000F7
:1059B00000000000000000000618063806307FFED8
:1059C0000C300C300C300C307FFE0C601C6018600A
:1059D000186000000000000000000000000000004F
:1059E0000000000000C000C00FF83CC831C031808A
:1059F0003D801F8003F001F8031C030C031C3FF8DB
:105A00003FE007000600000000000000000000006A
:105A1000000000001C007E0E630C631863307E6083
:105A200000C001800300077C0EE61CC618C630C605
:105A3000607C00000000000000000000000000008A
:105A40000000000000000FE01CF0387038701C608F
:105A50001FC00F003F8C71CC60EC607C70383CFC48
:105A60001FCE000000000000000000000000000049
:105A700000000000000003C00180018001800000E0
:105A80000000000000000000000000000000000016
:105A90000000000000000000000000000000000006
:105AA00000000000003000E001C00180030007009A
:105AB000060006000E000E000E000E000600070095
:105AC0000300038001C000E000300000000000007F
:105AD000000000000C0006000380018001C000E00F
