:020000040800F2
:100000000009002045010008591D00085B1D00087B
:100010005F1D0008631D0008671D00080000000048
:100020000000000000000000000000006B1D000840
:100030006D1D0008000000006F1D0008711D000804
:100040005F0100085F0100085F0100085F01000810
:100050005F0100085F0100085F0100085F01000800
:100060005F0100085F0100085F0100085F010008F0
:100070005F0100085F0100085F0100085F010008E0
:100080005F0100085F0100085F0100085F010008D0
:100090005F0100085F0100085F0100085F010008C0
:1000A0005F0100085F0100085F0100085F010008B0
:1000B0005F0100085F0100085F0100085F010008A0
:1000C0005F0100085F0100085F0100085F01000890
:1000D0005F0100085F0100085F0100085F01000880
:1000E0005F0100085F0100085F0100085F01000870
:1000F0005F0100085F0100085F0100085F01000860
:100100005F0100085F0100085F0100085F0100084F
:100110005F0100085F0100085F0100085F0100083F
:100120005F0100085F0100085F0100085F0100082F
:10013000DFF80CD002F026FB004800471D1D000828
:10014000000900200648804706480047FEE7FEE712
:10015000FEE7FEE7FEE7FEE7FEE7FEE7FEE7FEE777
:1001600047020008310100080CB500200190009002
:100170006C48006840F480306A49086000BF6948F4
:10018000006800F4003000900198401C0190009835
:1001900018B90198B0F5A06FF1D16248006800F479
:1001A000003010B10120009001E000200090009884
:1001B000012843D15C48006840F010005A490860AB
:1001C0000846006820F0030008600846006840F018
:1001D0000200086053484068524948600846406839
:1001E00048600846406840F48060486008464068BF
:1001F00020F47C1048600846406840F4E8104860ED
:100200000846006840F08070086000BF45480068FC
:1002100000F000700028F9D04248406820F0030048
:10022000404948600846406840F00200486000BF0E
:100230003C48406800F00C000828F9D10CBD10B50E
:10024000FFF792FF10BD10B53648006840F001007E
:1002500034490860084640683449084031494860DC
:1002600008460068324908402E4908600846006880
:1002700020F4802008600846406820F4FE004860B2
:100280004FF41F008860FFF7DAFF4FF00060294944
:10029000086010BD10B5002100200022214B5B68D2
:1002A00003F00C0121B1042906D0082928D107E068
:1002B000214B224C236027E01F4B204C236023E07E
:1002C000184B5B6803F47010164B5B6803F48032C4
:1002D000022303EB904022B9194B4343174C236090
:1002E0000DE0104B5B6803F4003323B1144B434320
:1002F000124C236003E0104B4343104C236003E097
:100300000D4B0E4C236000BF00BF064B5B68C3F370
:1003100003130C4CE15C094B1B68CB40074C23607A
:1003200010BD000000100240002002400000FFF855
:10033000FFFFF6FE08ED00E000127A00000000204A
:1003400000093D000400002010B50446FA4884422C
:1003500008D10121401501F081F80021601501F05C
:100360007DF817E0F548844208D10121001501F01D
:1003700075F80021201501F071F80BE0F048844277
:1003800008D10121C80301F069F800214FF40040B1
:1003900001F064F810BD30B502460020002350681B
:1003A000E84C20400D790C6844EA05242043506055
:1003B0009068E54C2040D1E902542C434D7944EA41
:1003C000450420439060D06A20F470000C7C641EC9
:1003D000E4B2234340EA0350D06230BD0021016003
:1003E000017141718160C16001210174704721B1C7
:1003F000826842F00102826003E0826822F001021A
:100400008260704721B1826842F48072826003E0AA
:10041000826822F480728260704710B50023CBB2EC
:100420001AB144681C43446002E044689C43446041
:1004300010BD816841F008018160704701460020CD
:100440008A6802F008020AB1012000E0002070472B
:10045000816841F0040181607047014600208A688C
:1004600002F004020AB1012000E00020704721B12F
:10047000826842F4A002826003E0826822F4A00253
:1004800082607047014600208A6802F480020AB147
:10049000012000E00020704710B50A46002100232B
:1004A000416821F46041531E41EA4331416010BD6F
:1004B00021B1426842F40062426003E0426822F4E3
:1004C000006242607047F0B504460D4600200021EE
:1004D000092D11DDE068A5F10A0606EB460707269F
:1004E00006FA07F18843A5F10A0606EB460603FA69
:1004F00006F10843E0600CE0206905EB450707269C
:1005000006FA07F1884305EB450603FA06F10843AE
:100510002061072A0FDA606B561E06EB86071F263E
:1005200006FA07F18843561E06EB860605FA06F121
:100530000843606322E00D2A0FDA206BD61F06EB1A
:1005400086071F2606FA07F18843D61F06EB8606A4
:1005500005FA06F10843206310E0E06AA2F10D06F7
:1005600006EB86071F2606FA07F18843A2F10D065F
:1005700006EB860605FA06F10843E062F0BD21B1FC
:10058000826842F48012826003E0826822F4801262
:10059000826070470146C86C80B2704766484C3034
:1005A0000068704721B1426842F48062426003E013
:1005B000426822F480624260704721B1426842F48E
:1005C0008052426003E0426822F4805242607047E9
:1005D0000A460021816821F4E0411143816070479F
:1005E00021B1826842F40042826003E0826822F412
:1005F00000428260704721B1826842F40212826038
:1006000003E0826822F402128260704701460020F3
:100610008A6802F400120AB1012000E0002070474D
:10062000F0B504461546002000220026092911DDF8
:10063000E068A1F10A0707EB470C072707FA0CF25D
:100640009043A1F10A0707EB470703FA07F21043AB
:10065000E0600CE0206901EB410C072707FA0CF27F
:10066000904301EB410703FA07F210432061A06BAE
:10067000C0F30156EF1C06F1010CA7EB0C0707EBCA
:10068000870C1F2707FA0CF29043EF1C06F1010CB0
:10069000A7EB0C0707EB870701FA07F21043A063EB
:1006A000F0BD10B50A4600210023816B21F44011F2
:1006B000531E41EA0351816310BD08B50023009326
:1006C0000090009B0B440093009B1A6008BD08B586
:1006D000024600200090009201F12800009B18447F
:1006E00000900098006880B208BD0A460021416869
:1006F000164B194011434160704741628262704756
:100700000A460021416821F01F01114341607047F2
:1007100040B109490831096841F40001064A08322C
:10072000116007E004490831096821F40001024A18
:100730000832116070470000002401400028014089
:10074000003C0140FFFEF0FFFDF7F1FFFFFD3FFF22
:100750000246002013680B400BB1012000E000208E
:100760007047CA430260704770B5024600200023FC
:1007700000240B125568CEB205EA060415681D4028
:1007800015B10CB1012000E0002070BD00220A125A
:10079000D34303607047000001684FF6FE721140BA
:1007A00001600021016041608160C1608D49884223
:1007B00008D18C490839496841F00F01894A083A43
:1007C00051608AE087491431884208D18549083947
:1007D000496841F0F001834A083A51607DE081495F
:1007E0002831884208D17F490839496841F470614D
:1007F0007C4A083A516070E07A493C31884208D11D
:1008000078490839496841F47041764A083A51609C
:1008100063E074495031884208D172490839496807
:1008200041F470216F4A083A516056E06D496431D5
:10083000884208D16B490839496841F47001694A16
:10084000083A516049E067497831884208D16549E2
:100850000839496841F07061624A083A51603CE0E9
:100860006149884206D1011F096841F00F01021F4A
:10087000116032E05C491431884208D15A49091F9D
:10088000096841F0F001584A121F116025E05649ED
:100890002831884208D15449091F096841F4706120
:1008A000514A121F116018E04F493C31884208D16B
:1008B0004D49091F096841F470414B4A121F1160EC
:1008C0000BE049495031884207D14749091F09685F
:1008D00041F47021444A121F1160704710B5002284
:1008E000026847F6F0739A430C6A8B6823430C69DD
:1008F00023434C6923438C692343CC6923434C6ACB
:1009000023438C6A23431A430260CB6843600B681D
:1009100083604B68C36010BD00210160416081604D
:10092000C160016141618161C161016241628162B5
:10093000704721B1026842F00102026004E00268DF
:100940004FF6FE731A40026070471AB103680B43FA
:10095000036002E003688B430360704741607047A7
:100960000146486880B2704701460020002201F02D
:1009700080531BB11C4B083B1A6802E0194B083B23
:100980001A6802EA01030BB1012000E00020704761
:1009900000F0805119B11449091F086002E01149A3
:1009A00008394860704701460020002201F080535A
:1009B0001BB10D4B083B1A6802E00A4B083B1A6852
:1009C00002EA01030BB1012000E00020704700F0B3
:1009D000805119B10449091F086002E00149083932
:1009E00048607047080002400804024010B5044601
:1009F000CC48844208D10121042000F02FFD0021C1
:100A0000042000F02BFD46E0C748844208D10121B4
:100A1000082000F023FD0021082000F01FFD3AE02F
:100A2000C248844208D10121102000F017FD0021A6
:100A3000102000F013FD2EE0BD48844208D10121B2
:100A4000202000F00BFD0021202000F007FD22E017
:100A5000B848844208D10121402000F0FFFC002169
:100A6000402000F0FBFC16E0B348844208D101218D
:100A7000802000F0F3FC0021802000F0EFFC0AE071
:100A8000AE48844207D10121801500F0E7FC002127
:100A9000A01500F0E3FC10BD10B50121084600F0E0
:100AA000DDFC0021012000F0D9FC10BD2DE9F04152
:100AB000024600250026002000230024002791F88C
:100AC00003C00CF00F0591F803C00CF0100CBCF142
:100AD000000F03D091F802C04CEA050591F800C060
:100AE000BCF1000F31D0146800202BE04FF0010C56
:100AF0000CFA00F3B1F800C00CEA03069E4220D1C4
:100B000083004FF00F0C0CFA03F7BC4305FA03FC0B
:100B10004CEA040491F803C0BCF1280F06D14FF051
:100B2000010C0CFA00FCC2F814C00AE091F803C0F2
:100B3000BCF1480F05D14FF0010C0CFA00FCC2F8D3
:100B400010C0401C0828D1D31460B1F800C0BCF11B
:100B5000FF0F34DD546800202EE000F1080C4FF048
:100B6000010808FA0CF3B1F800C00CEA03069E4233
:100B700021D183004FF00F0C0CFA03F7BC4305FAA8
:100B800003FC4CEA040491F803C0BCF1280F05D122
:100B900000F1080C08FA0CF8C2F8148091F803C0B0
:100BA000BCF1480F07D100F1080C4FF0010808FA1A
:100BB0000CF8C2F81080401C0828CED35460BDE861
:100BC000F0814FF6FF710180022181700421C17014
:100BD00070470246002093680B400BB1012000E0F3
:100BE000002070470146886880B2704702460020A6
:100BF000D3680B400BB1012000E000207047014694
:100C0000C86880B2704701617047416170470AB19E
:100C1000016100E041617047C16070474FF480326C
:100C20000A438261816182618269826970470246FA
:100C30000020434B18684FF68073184040EA0210BA
:100C400008433F4B186070473E49C8617047F0B594
:100C50000A46002300240021002500F00046B6F1DA
:100C6000004F02D1364EF16901E0354E7168C0F394
:100C7000034583B200F44016B6F5401F08D121F0B9
:100C800070612F4E766826F070662D4F7E6012E000
:100C900000F48016B6F5801F06D1032606FA05F487
:100CA000A14341F0706106E0460D360103FA06F6F5
:100CB000B14341F0706122B1460D360103FA06F6E8
:100CC000314300F00046B6F1004F02D11C4EF161F5
:100CD00001E01B4E7160F0BD30B500228B071C0F88
:100CE0000F2303FA04F2164B08338C1053F8243008
:100CF0009343134C08348D1044F8253023468C1050
:100D000053F824308C07240F00FA04F423430C4CCE
:100D100008348D1044F8253030BD0A49DC310860B4
:100D20007047000000080140000C01400010014025
:100D30000014014000180140001C01400020014047
:100D4000000001400000204210B50446F7488442EC
:100D500009D10121480500F08EFB00214FF400105D
:100D600000F089FB08E00121880500F084FB0021E8
:100D70004FF4800000F07FFB10BD2DE9F04385B0FB
:100D800004460D460026B1460427DFF8A483A68852
:100D90004FF6C0700640684600F0D9FADDF80880CA
:100DA000E448B8FBF0F01FFA80F946EA0906A6808D
:100DB00020884FF6FE71084020800026DE49286812
:100DC00088420CD828684000B8FBF0F087B2042FA6
:100DD00000DA04273E4309F10100208427E0E88877
:100DE0004BF6FF71884206D1286800EB4000B8FB43
:100DF000F0F087B209E0286800EBC00101EB0010B9
:100E0000B8FBF0F087B247F48047C7F30B0008B98E
:100E100047F0010747F4004006434FF4967009FB82
:100E200000F04FF47A7190FBF1F0401C2084A6830F
:100E3000208840F00100208026884FF6F5300640DB
:100E4000A8886989084306432680A8892989084318
:100E5000208105B0BDE8F08341F2883101600021B6
:100E600081804BF6FF71C1800021018141814FF4E7
:100E700080418181704721B1028842F001020280E5
:100E800004E002884FF6FE731A400280704721B1D9
:100E9000828842F40062828004E082884FF2FF730D
:100EA0001A408280704721B1828842F48052828049
:100EB00004E082884EF6FF731A408280704721B1A9
:100EC000028842F48072028004E002884FF6FF63D9
:100ED0001A400280704721B1028842F400720280F9
:100EE00004E002884FF6FF531A400280704721B198
:100EF000028842F48062028004E002884FF6FF33E9
:100F00001A40028070470A46002181894FF601731A
:100F1000194002F0FE0319438181704721B1828993
:100F200042F00102828104E082894FF6FE731A408A
:100F30008281704721B1028842F04002028004E0C1
:100F400002884FF6BF731A40028070471AB1838837
:100F50000B43838002E083888B4383807047018248
:100F600070470146088AC0B2704712B141F00101D2
:100F700002E04FF6FE7319400182704708B5024641
:100F8000002000900092009808440090009800888B
:100F900008BD21B1028842F40042028003E00288C9
:100FA000C2F30E0202807047B1F5006F04D10288CF
:100FB00042F40062028004E002884FF2FF731A409C
:100FC00002807047B1F5005F04D1028842F40052FC
:100FD000028004E002884DF6FF731A4002807047D9
:100FE00021B1028842F48052028004E002884EF669
:100FF000FF731A4002807047B1F5006F04D1028878
:1010000042F40062028004E002884FF2FF731A404B
:101010000280704721B1028842F02002028004E081
:1010200002884FF6DF731A40028070470146088B32
:101030000012704721B1028842F01002028004E0E1
:1010400002884FF6EF731A400280704721B9028878
:1010500042F08002028004E002884FF67F731A405B
:1010600002807047B1F5804F05D0828B4BF6FF733D
:101070001A40828303E0828B42F48042828370476D
:1010800070B502460024002500230020958A138BAA
:101090001B0445EA030626F07F4404EA01068E425B
:1010A00001D1012000E0002070BD10B501460020F4
:1010B000002300228B8A0A8B120443EA020424F0E4
:1010C0007F4010BD0CB50246002000230193009321
:1010D00000920B0F019321F07F41019B1BB1009BFC
:1010E0001433009303E0090C009B18330093009B1A
:1010F0001B680B400BB1012000E000200CBD00225A
:1011000021F07F42D3438382704730B502460020EE
:101110000023948801F0E06504EA154321F07F4143
:10112000948A0C4054B14BB1012008E000540040B7
:1011300000127A0040420F00A0860100002030BD5E
:10114000002221F07F42D34383827047DF4800684A
:1011500040F00100DD49086008464068DC4908406D
:10116000DA49486008460068DA490840D74908600B
:101170000846006820F4802008600846406820F493
:10118000FE0048604FF41F0088607047CF4909682F
:1011900021F48031CD4A11601146096821F4802183
:1011A0001160B0F5803F03D0B0F5802F0ED106E07E
:1011B000C649096841F48031C44A116007E0C34957
:1011C000096841F4A021C14A116000E000BF00BFDE
:1011D000704710B501460022002300204A11012A61
:1011E00002D1BA4C236806E0022A02D1B74C236A26
:1011F00001E0B64C636A01F01F02012494401C40D8
:101200000CB1012000E0002010BD38B50020009096
:101210000024002500BF3120FFF7DBFF05460098C2
:10122000401C00900098B0F5A06F01D0002DF2D0C6
:101230003120FFF7CEFF08B1012400E00024204652
:1012400038BD01460020A14A106820F0F80040EAAD
:10125000C10010607047A049086070470246002036
:101260009A4B586820F47C1042EA01031843974BCC
:101270005860704798490866704701460020934AB5
:10128000506820F003000843506070478F48406862
:1012900000F00C007047014600208C4A506820F096
:1012A000F00008435060704701460020874A5068AC
:1012B00020F4E06008435060704701460020834AF4
:1012C000506820F4605040EAC1005060704729B176
:1012D0007E4A527A02437D4B5A7204E07B4A527A2C
:1012E00082437A4B5A7270477B49D8310860704705
:1012F00001460020754A506820F440400843506081
:1013000070470021714A20321170704A82F8201013
:10131000012802D004280AD104E001216B4A2032BE
:10132000117005E00521694A2032117000E000BF0C
:1013300000BF70476949086070476449096A014302
:10134000624A11627047654944390860704730B598
:1013500000210022002400235C4D6D6805F00C0183
:1013600021B1042905D0082923D105E05C4D056091
:1013700022E05B4D05601FE0544D6D6805F470126E
:10138000524D6D6805F48034022505EB92421CB97C
:10139000544D554305600BE04C4D6D6805F4003528
:1013A0001DB1504D5543056002E04D4D554305605C
:1013B00002E04B4D056000BF00BF444D6D6805F075
:1013C000F0010909484D6B5C0568DD4045603F4D03
:1013D0006D6805F4E061090A434D6B5C4568DD40CA
:1013E00085603A4D6D6805F46051C90A3E4D6B5CED
:1013F0004568DD40C560354D6D6805F44041890B99
:101400003A4D6B5CC568B5FBF3F5056130BD29B19C
:101410002E4A526902432D4B5A6104E02B4A52690D
:1014200082432A4B5A61704729B1284A9269024384
:10143000264B9A6104E0254A92698243234B9A61C4
:10144000704729B1214AD2690243204BDA6104E096
:101450001E4AD26982431D4BDA61704729B11B4A8B
:10146000D2680243194BDA6004E0184AD26882431A
:10147000164BDA60704729B1144A12690243134BC4
:101480001A6104E0114A12698243104B1A617047D5
:1014900012494039086070470F49C86470470B49CA
:1014A000C87170470948406A40F080700749486237
:1014B000704701460020054A92680A400AB101209F
:1014C00000E0002070470149887270470010024018
:1014D0000000FFF8FFFFF6FE000042428004424297
:1014E00000127A0000093D001400002024000020B2
:1014F00010B50446FB48844209D101218803FFF757
:10150000ADFF00214FF48040FFF7A8FF32E0F6481E
:10151000844209D101214804FFF7ADFF00214FF4B7
:101520000030FFF7A8FF25E0F048844209D10121EF
:101530008804FFF7A0FF00214FF48020FFF79BFFF6
:1015400018E0EB48844209D10121C804FFF793FF5A
:1015500000214FF40020FFF78EFF0BE0E5488442A6
:1015600008D101210805FFF786FF00214FF4801004
:10157000FFF781FF10BD2DE9F04786B005460E4606
:101580000024A24600BFA1460027B08900B100BFD9
:101590002F462C8A4CF6FF700440F08804432C82BE
:1015A000AC894EF6F3100440B08831890843718944
:1015B00008430443AC81AC8A4FF6FF400440B08935
:1015C0000443AC8201A8FFF7C2FEC648874202D19D
:1015D000DDF810A001E0DDF80CA0A88900F40040BF
:1015E00040B10AEBCA0000EB0A1031684900B0FBB9
:1015F000F1F807E00AEBCA0000EB0A103168890035
:10160000B0FBF1F86420B8FBF0F00401200964217C
:1016100001FB1089A88900F4004040B1322000EBA2
:10162000C900B0FBF1F000F00700044308E03220ED
:1016300000EB09106421B0FBF1F000F00F0004434F
:101640002C8106B0BDE8F0874FF4165101600021EF
:101650008180C18001810C214181002181817047FD
:1016600010B502460020108A4FF2FF0318400B8885
:101670004C8823438C882343CC882343184310820F
:1016800010BD0021018041808180C180704721B15F
:10169000828942F40052828104E082894DF6FF7310
:1016A0001A4082817047F0B50346002400260025C9
:1016B000002040F66A17B94200D100BF1846C1F3B6
:1016C000421401F01F06012707FA06F5012C01D18B
:1016D0000C3004E0022C01D1103000E014301AB1BB
:1016E00007682F43076002E00768AF430760F0BD5B
:1016F0001AB1838A0B43838202E0838A8B438382FD
:101700007047028A4FF6F0731A400282028A0A4337
:101710000282704782894FF2FF731A408281828968
:101720000A438281704721B1828942F0020282819C
:1017300004E082894FF6FD731A4082817047028A65
:101740004FF6DF731A400282028A0A430282704710
:1017500021B1028A42F48042028204E0028A4BF6FE
:10176000FF731A4002827047C1F3080282807047FB
:1017700001468888C0F308007047818941F0010163
:1017800081817047028BD2B20283028B42EA01222E
:1017900002837047028B02F47F420283028B0A436A
:1017A0000283704721B1828A42F02002828204E0E3
:1017B000828A4FF6DF731A408282704721B1828A93
:1017C00042F01002828204E0828A4FF6EF731A40E0
:1017D0008282704721B1828A42F00802828204E04C
:1017E000828A4FF6F7731A408282704721B182894C
:1017F00042F40042828103E08289C2F30E028281B8
:10180000704721B1828A42F40062828204E0828AB7
:101810004FF2FF731A4082827047828A4FF6FB7341
:101820001A408282828A0A438282704721B1828A68
:1018300042F00202828204E0828A4FF6FD731A406F
:101840008282704702460020B1F5007F00D100BFC0
:1018500013880B400BB1012000E00020704701F419
:101860000072B2F5007F00D100BFCA43028070470A
:1018700070B50246002400230025002040F66A16B9
:10188000B14200D100BFC1F3421501F01F03012690
:1018900006FA03F3012D02D19689334006E0022DAA
:1018A00002D1168A334001E0968A33400C12012699
:1018B00006FA04F41688344013B10CB1012000E09C
:1018C000002070BD10B50022002340F66A14A1422A
:1018D00000D100BF0A1201249440A3B2DC4304806B
:1018E00010BD0000003801400044004000480040A6
:1018F000004C00400050004000B585B00121480573
:10190000FFF79FFD01210820FFF78EFD4020ADF875
:10191000000003208DF802001C208DF803006946AA
:10192000F648FFF7C3F88020ADF800006946F34899
:10193000FFF7BCF80020ADF808004BF6FF70ADF8DB
:101940000A007820ADF80C004FF48060ADF80E006E
:101950000001ADF81000EA48019001A9E948FFF73D
:101960000CFA0121E748FFF786FA05B000BD70B513
:1019700004460D4600BF4FF40031E248FFF7A2FBDA
:101980000028F8D10121DF48FFF799FA00BFDE49AE
:10199000DC48FFF775FB0028F9D000227821D948F0
:1019A000FFF7E3FA00BFD949D648FFF769FB0028E3
:1019B000F9D02146D348FFF7D2FA00BFD349891C9A
:1019C000D048FFF75DFB0028F8D02946CD48FFF747
:1019D000C6FA00BFCD49891CCA48FFF751FB002851
:1019E000F8D00121C748FFF776FA70BD10B504465C
:1019F00021460020FFF7BBFF10BD10B5044621466D
:101A00004020FFF7B4FF10BD10B5012000F0ECF945
:101A1000AE20FFF7EBFF2020FFF7E8FF1020FFF7D5
:101A2000E5FFB020FFF7E2FFC820FFF7DFFF00204F
:101A3000FFF7DCFF1020FFF7D9FF4020FFF7D6FFAC
:101A40008120FFF7D3FFFF20FFF7D0FFA120FFF792
:101A5000CDFFA620FFF7CAFFA820FFF7C7FF3F2052
:101A6000FFF7C4FFA420FFF7C1FFD320FFF7BEFF9D
:101A70000020FFF7BBFFD520FFF7B8FFF020FFF7EE
:101A8000B5FFD920FFF7B2FF2220FFF7AFFFDA2022
:101A9000FFF7ACFF1220FFF7A9FFDB20FFF7A6FF3F
:101AA0002020FFF7A3FF8D20FFF7A0FF1420FFF7F2
:101AB0009DFFAF20FFF79AFF10BD70B504460D469D
:101AC00005F1B001C8B2FFF791FF102141EA1410EF
:101AD000FFF78CFF04F00F0141F00100FFF786FFD4
:101AE00070BD70B50646002415E004F1B001C8B21F
:101AF000FFF77CFF0020FFF779FF1020FFF776FF4C
:101B0000002504E03046FFF778FF681CC5B2802D41
:101B1000F8DB601CC4B2082CE7DB70BD10B50020F8
:101B2000FFF7DFFF10BD10B58D20FFF75FFF14201A
:101B3000FFF75CFFAF20FFF759FF10BD10B58D20F8
:101B4000FFF754FF1020FFF751FFAE20FFF74EFFC5
:101B500010BD2DE9F0470646894617469A464FF0D4
:101B6000000800240025BAF1010F03D0BAF1020FDA
:101B70005ED125E020E0785D203800F0FF087E2E61
:101B800004DD002609F1010000F0FF094946304656
:101B9000FFF793FF002409E008EB48015C4A02EBE1
:101BA0004101085DFFF729FF601CC4B2062CF3DB7E
:101BB000B01DC6B2681CC5B2785D0028DBD137E025
:101BC00032E0785D203800F0FF08782E04DD002632
:101BD00009F1010000F0FF0949463046FFF76DFFAB
:101BE000002407E004EB08114A4A505CFFF705FFA8
:101BF000601CC4B2082CF5DB09F10100C1B230460B
:101C0000FFF75BFF002408E004EB08110831414AAC
:101C1000505CFFF7F2FE601CC4B2082CF4DB06F146
:101C20000800C6B2681CC5B2785D0028C9D100BFE3
:101C300000BFBDE8F0872DE9F04180460E4617460B
:101C400000247D0131464046FFF737FF00BF06E024
:101C50003149485DFFF7D1FE6D1C601CC4B2102CE9
:101C6000F6DB701CC1B24046FFF727FF002406E0F8
:101C70002949485DFFF7C1FE6D1C601CC4B2102CE1
:101C8000F6DBBDE8F0812DE9F05F06460F46904691
:101C90001C46DDF828A04FF0000BE11704EB517152
:101CA000C910A4EBC10131B92046E11704EB517111
:101CB000C1F3C70506E02046E11704EB5171C910D6
:101CC000491CCDB23D4614E029463046FFF7F5FEEB
:101CD000B1460AE059460BF1010B1AF80100FFF773
:101CE0008CFE09F1010000F0FF09C145F2DB681C20
:101CF000C5B2A542E8DBBDE8F09F0000000C014042
:101D0000801A060000540040010003008200070012
:101D1000043100082C3300082800002000F082F86D
:101D200000F02AF800F0D8F900F02DF9FFF7E4FDF3
:101D3000FFF76AFEFFF7F2FE4FF4C87000F04AF8B2
:101D400006E00448008800F024F9322000F042F850
:101D5000F7E70000C8040020704700BFFEE700BF9F
:101D6000FEE700BFFEE700BFFEE770477047704721
:101D700010B500F045F810BD30B5264800684FF4A6
:101D80007A72B0FBF2F1B1F1807F01D301201DE046
:101D900021F07F40401E4FF0E022506150170F228B
:101DA000002807DA13071D0E1B4B00F00F04241F39
:101DB0001D5503E013071C0E184B1C5400BF0020D8
:101DC0004FF0E022906107201061002008B100BFB1
:101DD000FEE730BD01B512490098086000BF104809
:101DE00000680028FBD108BD10B50246002404E0BD
:101DF0004FF47A70FFF7EEFF521E9442F8D310BDF5
:101E00000748006820B106480068401E0449086081
:101E1000704700000000002018ED00E000E400E042
:101E2000A804002000B585B001210420FFF7FCFACA
:101E300001218803FFF7F8FA4FF40070ADF81000A5
:101E400018208DF8130003208DF8120004A92248F1
:101E5000FEF72CFE4FF48060ADF8100004208DF8E2
:101E6000130004A91C48FEF721FE4FF4E130009056
:101E70000020ADF80400ADF80600ADF80800ADF89C
:101E80000C000C20ADF80A0069461448FFF773FBFC
:101E900001211248FFF7FBFB05B000BD70B50446F9
:101EA0000D46E1B20D48FFF75FFC00BF80210B48F3
:101EB000FFF7C8FC0028F9D0204670BD10B50446D5
:101EC00000BF20210548FFF7BDFC0028F9D00348DA
:101ED000FFF74EFC10BD0000000801400038014033
:101EE00008B501211020FFF79FFA0220ADF800008D
:101EF00000208DF8030069466648FEF7D7FD08BD4F
:101F000000B585B001214802FFF78EFA002000904D
:101F10008DF8040001208DF805004FF46020029038
:101F20000020039001208DF8100069465A48FEF702
:101F300032FA4FF40040FFF7DBF9042301220B21B2
:101F40005548FEF7C0FA01215348FEF75BFA01211C
:101F50005148FEF74CFA5048FEF76BFA00BF4E4866
:101F6000FEF76CFA0028FAD14B48FEF771FA00BF71
:101F70004948FEF772FA0028FAD101214648FEF7D7
:101F800076FA05B000BD10B5FFF7AAFFFFF7B8FF5E
:101F900010BD2DE9F14F8CB00C9800F024FA834667
:101FA0004FF08B4100F0C8F8824600F021FA8046DD
:101FB0004FF06632394B00F0A4F906460022384B48
:101FC00000F09FF9044600F026FA364908600846FA
:101FD000006800F00DFA0446334A344B00F091F9E2
:101FE000CDE908012F48006800F002FA04460D46CA
:101FF0002C48006800F0FCF980462D4A2D4B00F07B
:1020000080F9064622462B4600F07BF9CDE9040113
:102010002448006800F0ECF904460D4621480068A9
:1020200000F0E6F9CDE900011E48006800F0E0F993
:102030008046214A214B00F064F90646DDE9002381
:1020400000F05FF9824622462B4600F05AF9CDE9AE
:102050000201DDE9042300F0ADF8CDE90601DDE978
:10206000082300F0A7F8164A164BCDE90A0100F044
:10207000A1F8154A03C2144814A10CC8154800F071
:10208000CFFB0223134A00214120FFF762FD0DB070
:10209000BDE8F08F001001400024014066660A4050
:1020A00000408F40B00400208F2AD4E47338C7BFAB
:1020B000B0E0163C3BE5CBBEB97922FFD3161FBE7C
:1020C0006588635DDCB26940C0040020252E33665C
:1020D00000000000CC04002000B58BB001210846B0
:1020E000FFF795F91148FEF757FB012003900020F8
:1020F00002900A900E4801904FF4806007900020F3
:102100000590202008900B48009080150690002034
:1021100004904FF48050099069460448FEF7DEFBB6
:1021200001210248FEF705FC0BB000BD080002408B
:10213000C80400204C24014030B480EA010202F0BF
:10214000004530F0004221F0004013D090B1C30DA3
:10215000D40DC2F31601C0F31600E41A41F40001D5
:1021600040F400027D34914201D3641C00E0490038
:10217000002C02DA30BC002070474FF4000000232E
:10218000914201D3891A034340084FEA4101F7D134
:1021900051B1914202D14FF0004105E002D24FF01F
:1021A000010101E06FF0010103EBC450284430BC91
:1021B00000F0B5B92DE9FE4F804681EA0300C00F5B
:1021C0000C46009021F0004123F00045B8EB0200DE
:1021D000A94105D24046214690461C460B46024680
:1021E00023F00040104347D0270DC7F30A00C3F384
:1021F0000A510290401A019040286BDAC3F3130091
:1022000040F4801B0098924620B10023D2EB030AD1
:1022100063EB0B0B01985946C0F14002504600F0A9
:102220005DF906460D4650465946019A00F065F99B
:1022300010EB08006141002487EA115284EAE77339
:102240001A4340D0009A62B3019A012A4FEA07521A
:1022500015DC001B61EB02014FF0004202EA07525D
:10226000CDE90042001C41F5801132462B4600F0BA
:102270009CF903B0BDE8F08F40462146F9E7001B0A
:1022800061EB0201001C41F5801300185B4120182E
:10229000A2F5001747EB030140EAD570B6196D416E
:1022A00011E06D084FEA360645EAC0754FEA07525D
:1022B000001B61EB0201001C41F5801149084FEA47
:1022C00030000019514132462B4603B0BDE8F04FB3
:1022D00000F05CB90098012240000023D0EB02021C
:1022E00063EBE073009821464FEAE074B8EB00001E
:1022F00061EB0401E9E783F000435BE781F0004113
:1023000058E72DE9FE4F81EA030404F0004421F070
:10231000004100944FF0000B23F0004350EA010409
:102320005ED052EA03045BD0C3F30A54C1F30A55EA
:102330002C44A4F2F3340194A0FB0254C1F3130122
:1023400041F48011C3F3130343F4801301FB0244EF
:1023500000FB034E840A970A44EA815447EA8357F4
:10236000A4FB076802958D0A05FB07854FEA932CAD
:1023700004FB0C542705029D4FEA065847EA16371E
:10238000B5EB08056EEB070C870E920E47EA811736
:1023900042EA8312A7FB0201B6EB0B0164EB0004D7
:1023A0002B0D43EA0C335E1844EB1C50DA465146C1
:1023B000E7FB0201C5F313044FEA0B3343EA14535E
:1023C0004FEA0432019C43EA0603A4F10C04029490
:1023D000009CCDE900B400F0E8F803B0BDE8F08F50
:1023E00000200146F9E796230022114600F0A0B82C
:1023F00000F0004230F000400AD0C10D01F56071DC
:10240000C0F3160042EA0151C20840071143704769
:1024100000200146704701F0004330B421F0004134
:1024200050EA010206D00A0DA2F56072C1F3130151
:10243000002A02DC30BC00207047440F44EAC1048B
:10244000C100E01830BC00EBC25000F068B830B5F5
:102450000B46014600202022012409E021FA02F562
:102460009D4205D303FA02F5491B04FA02F52844FC
:10247000151EA2F10102F1DC30BD2DE9F05F054629
:10248000002092469B4688460646814640241BE033
:10249000284641464746224600F086F953465A46AA
:1024A000C01A914110D311461846224600F016F882
:1024B0002D1A67EB01084F4622460120002100F04B
:1024C0000DF817EB00094E41201EA4F10104DFDCDA
:1024D000484631462A464346BDE8F09F202A04DBA1
:1024E000203A00FA02F1002070479140C2F1200327
:1024F00020FA03F3194390407047202A06DBCB17DC
:10250000203A41FA02F043EAE07306E041FA02F3AE
:10251000D040C2F12002914008431946704700297B
:10252000A8BF7047401C490008BF20F00100704759
:1025300010B4B0FA80FC00FA0CF050EA010404BFB9
:1025400010BC704749B1CCF1200421FA04F411FA0F
:102550000CF118BF012121430843A3EB0C01CB1D53
:102560004FEA00614FEA102042BF002010BC7047C4
:1025700000EBC35010440029A4BF10BC7047401C9E
:10258000490008BF20F0010010BC704710B5141EB0
:1025900073F1000408DA401C41F1000192185B411C
:1025A0001A4301D120F0010010BD2DE9F04D9246F3
:1025B0009B4611B1B1FA81F202E0B0FA80F220320A
:1025C0009046FFF78BFF04460F4640EA0A0041EAB7
:1025D0000B0153465A46084313D0114653EA0100F3
:1025E00019D0C8F14002504600F0DEF805460E460C
:1025F000504659464246FFF771FF084305D0012077
:1026000004E020463946BDE8F08D0020054346EA47
:10261000E0762C4337430A986305E40AA0EB0800F0
:102620000022FD0A44EA47540A3002D50020014640
:10263000E9E7010510196941DDE90845001969411B
:10264000BDE8F04DA2E72DE9F04D81EA030404F066
:10265000004B21F0004514464FF0000A23F00041E2
:1026600050EA050220D054EA01021DD0C5F30A57F2
:102670000246C5F31303C1F31300C1F30A5640F435
:10268000801543F48013A7EB0608101BD64608F20A
:10269000FD3873EB050002D308F1010801E0921840
:1026A0005B41B8F1000F03DA00200146BDE8F08D70
:1026B00000204FF48011064684460EE0171B73EB92
:1026C000050705D3121B63EB050306434CEA010C17
:1026D00049084FEA300092185B4150EA0107EDD1FA
:1026E00052EA030012D082EA040083EA050108439B
:1026F00005D0101BAB4106D20122002306E00022C8
:102700004FF0004302E06FF0010253101AEB060095
:102710004CEB085110EB0A0041EB0B01BDE8F04D0A
:10272000FFF734BFC1F30A52C1F3130140F2FF3384
:1027300041F480119A4202DA00200146704740F2CB
:1027400033439A42A2F2334202DC524200F02CB8E8
:10275000FFF7C4BE30B5041E71F1000404DB4FF076
:102760000044404264EB0101141E73F1000405DBD8
:102770001C464FF00043524263EB0403994208BFEA
:10278000904230BD064C074D06E0E06840F0010382
:1027900094E8070098471034AC42F6D3FDF7CCFC20
:1027A0001C3900083C390008202A04DB203A21FAB1
:1027B00002F00021704721FA02F3D040C2F120025A
:1027C000914008431946704770B58C1810F8015BAA
:1027D00015F0070301D110F8013B2A1106D110F8BA
:1027E000012B03E010F8016B01F8016B5B1EF9D1BE
:1027F0002B0705D40023521E0DD401F8013BFAE744
:1028000010F8013BCB1A921C03E013F8015B01F8AE
:10281000015B521EF9D5A142D8D3002070BD000043
:102820000FB4084B10B504A902AA039800F0CEF823
:10283000044602A9002000F060FC204610BC5DF8B0
:1028400014FB0000FB30000802E008C8121F08C19A
:10285000002AFAD170477047002001E001C1121F21
:10286000002AFBD1704700002DE9FF5FDDE902205F
:10287000010DDDF838B0024318D044F61050A1F233
:10288000FF3141430D140F98012820D0A5EB0B0018
:10289000401C5FEA000A4FF00004474EDFF81C912D
:1028A000A046504616D5CAF1000728E00F9801242B
:1028B00043A2012808D0002100980F9BC0E9002105
:1028C000C0E90243BDE8FF9F6FEA0B01F4E7CBF1DB
:1028D0000000DEE7074612E0F80707D0224633463D
:1028E00040464946FFF70DFD80468946224633465D
:1028F00010461946FFF705FD04460E467F10002FCF
:10290000EAD1DDE90201BAF1000F42464B4602DA94
:10291000FFF7F7FC01E0FFF796FE04460E460022A3
:10292000284BFFF717FF03D84FF0FF30014607E0B1
:102930000022254B20463146FFF73CFCFFF7F2FE14
:10294000102409E0002C0ADB0A220023FFF795FD82
:10295000019B30321A55641E50EA0102F2D1641C08
:10296000019AC4F1110314440F9A012A03D00122E1
:1029700008430DD10AE0084304D000204FF0110BAA
:102980000F9080E7A3EB0B056D1E0DE05B4504DDAA
:102990004FF0000205F1010504E003DA4FF00002F8
:1029A000A5F10105002AECD000980F99C0E9023189
:1029B000C0E9004586E70000000024400000F03F29
:1029C000300000000000F0430000E03F2DE9FF4F21
:1029D00095B09B468946064600250FE2252877D10B
:1029E00000242746F84A0121059400E0044316F824
:1029F000013F203B01FA03F01042F7D130782A283A
:102A000011D06FF02F033078A0F13002092A16D8C8
:102A1000059A44F0020402EB820203EB42021044E6
:102A2000761C0590EFE759F8042B0592002A03DA8B
:102A3000504244F40054059044F00204761C30786F
:102A40002E2816D116F8010F44F004042A280DD0C0
:102A50006FF02F023078A0F13003092B09D807EB73
:102A6000870302EB4303C718761CF3E759F8047B8E
:102A7000761C30786C280FD006DC4C2817D06828DC
:102A80000DD06A2814D104E0742810D07A280FD110
:102A90000DE044F400140AE044F4801401E044F42E
:102AA00040147278824202D104F58014761C761CA0
:102AB000307866280BD013DC582877D009DC002842
:102AC00075D04528F6D04628F4D047281AD19DE184
:102AD00018E0632835D0642879D0652812D195E1B3
:102AE000702873D008DC6728F1D069286FD06E2871
:102AF0000DD06F2806D1B5E073282CD0752875D07D
:102B0000782874D05A46179990476D1C75E1C4F324
:102B10000250022809D003280DD0D9F8001004284B
:102B20000DD00D6009F1040967E1D9F80010EA172A
:102B3000C1E90052F6E7D9F800100D80F2E70D70F8
:102B4000F0E719F8041B8DF8001000208DF8010043
:102B5000EA46012003E059F804AB4FF0FF3061076B
:102B60004FF0000102D40DE008F101018846B9429E
:102B70000FDA8045F8DB1AF808100029F4D108E0D4
:102B800008F1010188468142FADB1AF80810002991
:102B9000F6D105985B46A0EB080721463846179A00
:102BA00000F094FA284400EB080507E04DE029E125
:102BB0000DE01AF8010B5A4617999047B8F1010831
:102BC000F7D25B4621463846179A13E142E00A22C3
:102BD0000092C4F302524FF0000A022A08D059F8BA
:102BE00004CB032A4FEAEC710AD00DE029E02AE079
:102BF00009F1070121F00702F2E802C1914609E05C
:102C00000FFA8CFC4FEAEC71042A03D14FFA8CFCCA
:102C10004FEAEC71002907DA0A460021DCF1000CCA
:102C200061EB02012D2202E0220504D52B228DF852
:102C30000420012203E0E20701D02022F7E79046BA
:102C400059E00A2102E010220DE010214FF0000AA5
:102C500000910BE010224FF0000A44F00404082712
:102C6000009203E008224FF0000A0092C4F30252DF
:102C7000022A05D059F804CB0021032A08D009E024
:102C800009F1070121F00702F2E802C1914605E0CF
:102C90001FFA8CFC042A01D10CF0FF0C4FF0000845
:102CA000220728D5702806D0009B83F0100353EA32
:102CB0000A0305D00EE040228DF80420012208E02E
:102CC0005CEA010206D030228DF804208DF8050060
:102CD00002229046009B83F0080353EA0A030AD1BC
:102CE0005CEA010201D1620705D530228DF804208B
:102CF0004FF001087F1E582804D034A003900EA87E
:102D000002900DE036A0F9E753466046009AFFF7BF
:102D1000B4FB84460398825C0298401E02900270C5
:102D20005CEA0100F0D1029806A9081A00F1200A15
:102D3000600702D524F4803400E00127574502DD06
:102D4000A7EB0A0000E0002000EB0A0100900598C4
:102D50004144401A0590E00306D45B462146179A89
:102D6000059800F0B3F90544002706E001A85A468B
:102D7000C05D179990476D1C7F1C4745F6DBE0034B
:102D80000CD55B462146179A059800F09FF905443B
:102D900004E030205A46179990476D1C0099481E50
:102DA00000900029F5DC08E0029802995A46007864
:102DB000491C0291179990476D1CBAF10001AAF1C4
:102DC000010AF1DC65E100000928010030313233ED
:102DD0003435363738396162636465660000000057
:102DE0003031323334353637383941424344454641
:102DF0000000000000F058F90544761C30780028E7
:102E00007FF4ECAD19B02846BDE8F08F620700D41E
:102E1000062709F1070222F0070CFCE80223E1462D
:102E200003F000485FEA080C02D00FF2702C0DE0AE
:102E30005FEA045C02D50FF2682C07E05FEAC47C0D
:102E400002D00FF2602C01E0AFF2700C4FF0FF38AF
:102E500023F00043CDF850C065280CD006DC45288F
:102E600009D046281DD047283DD13DE0662818D01E
:102E700067287ED138E00021112F01DB112000E00E
:102E8000781CCDE9000106A90EA8FFF7EDFCDDE9ED
:102E90000F010E9A03910021009207F1010A04919B
:102EA0004DE04FF000400097CDE9011006A90EA8B3
:102EB000FFF7DAFCDDE90F0203920E9B1199002265
:102EC000DDF80CA00093049211B9791C00EB010A03
:102ED000B7EB0A0004D4C0F1FF3007F1010A0490F7
:102EE000AAEB0700019044E0012F00DA012700213E
:102EF000112F01DD112000E03846CDE9000106A9BF
:102F00000EA8FFF7B1FCDDE90F010E9A0391002135
:102F100004910092BA4621070CD40399514500DA76
:102F20008A46BAF1010F05DD009AAAF10101515C50
:102F3000302908D0B84202DA10F1040F06DA012174
:102F4000CDE9011015E0AAF10101E9E7002805DC4F
:102F5000049901440491AAEB000102E0411C51458F
:102F600000DD8A460499401A401C01904FF0004051
:102F70000290200704D40198504501DBCDF804806D
:102F800000208DF84F0002980DF14F07B0F1004F6F
:102F900025D02B200E9002984FF0020800280CDA62
:102FA000404202902D200E9007E00A210298FFF780
:102FB0004EFA3031029007F8011DB8F10001A8F176
:102FC0000108F2DC02980028EFD1791E0E980870F3
:102FD000307800F0200040F0450007F8020D12A8FC
:102FE000C01B00F107081498007800B1012000EB25
:102FF0000A01019801EBE07105984144401A401E16
:103000000590E00306D45B462146179A059800F028
:103010005DF805441498007818B15A4617999047FE
:103020006D1CE00324D55B462146179A059800F0F5
:103030004DF805441CE00498002807DBDDE9030196
:10304000884203DD0098405C179901E01799302011
:103050005A469047049805F10105401C04900198D8
:10306000401E019004D12E205A46179990476D1C9E
:10307000BAF10001AAF1010ADDDC05E017F8010B45
:103080005A46179990476D1CB8F10001A8F1010844
:10309000F4DC5B462146179A0598ABE62D0000004C
:1030A0002B000000200000002DE9F041044600251F
:1030B0001E461746880404D405E039462020B04750
:1030C0006D1C641EF9D52846BDE8F0812DE9F0415C
:1030D000044600251E469046C80301D5302700E06F
:1030E0002027880404D505E041463846B0476D1CCA
:1030F000641EF9D52846BDE8F0810A68531C0B60B0
:10310000107070470000000000000000002F000059
:1031100000000700070000147F147F1400242A7F9A
:103120002A12006264081323003649552250000019
:103130000503000000001C224100000041221C0089
:103140000014083E08140008083E0808000000A00B
:103150006000000808080808000060600000002007
:1031600010080402003E5149453E0000427F4000E5
:10317000004261514946002141454B31001814126B
:103180007F10002745454539003C4A494930000138
:103190007109050300364949493600064949291E87
:1031A00000003636000000005636000000081422E9
:1031B00041000014141414140000412214080002E9
:1031C0000151090600324959513E007C1211127C0E
:1031D000007F49494936003E41414122007F41413B
:1031E000221C007F49494941007F09090901003E2D
:1031F0004149497A007F0808087F0000417F41006B
:10320000002040413F01007F08142241007F4040E0
:103210004040007F020C027F007F0408107F003EC8
:103220004141413E007F09090906003E4151215EAE
:10323000007F091929460046494949310001017FAB
:103240000101003F4040403F001F2040201F003F41
:103250004038403F006314081463000708700807F3
:1032600000615149454300007F41410000552A5506
:103270002A55000041417F00000402010204004081
:1032800040404040000001020400002054545478A3
:10329000007F4844443800384444442000384444C3
:1032A000487F00385454541800087E090102001861
:1032B000A4A4A47C007F080404780000447D40009E
:1032C000004080847D00007F102844000000417F82
:1032D0004000007C04180478007C0804047800385E
:1032E0004444443800FC242424180018242418FCE6
:1032F000007C0804040800485454542000043F444F
:103300004020003C4040207C001C2040201C003C11
:103310004030403C004428102844001CA0A0A07C61
:10332000004464544C441414141414140000000099
:10333000000000000000000000000000000000F895
:1033400000000000000000333000000000100C06F8
:10335000100C0600000000000000000040C0784093
:10336000C0784000043F04043F040400007088FC5F
:1033700008300000001820FF211E0000F008F000B7
:10338000E018000000211C031E211E0000F0088828
:10339000700000001E2123241927211010160E0092
:1033A000000000000000000000000000000000E03D
:1033B0001804020000000007182040000002041852
:1033C000E00000000040201807000000404080F0AE
:1033D000804040000202010F01020200000000F0E4
:1033E000000000000101011F0101010000000000B8
:1033F0000000000080B0700000000000000000002D
:1034000000000000000101010101010100000000B5
:10341000000000000030300000000000000000004C
:1034200080601804006018060100000000E0100829
:103430000810E000000F102020100F00001010F8FE
:10344000000000000020203F20200000007008083D
:1034500008887000003028242221300000300888BD
:10346000884830000018202020110E000000C020E5
:1034700010F8000000070424243F240000F8088806
:10348000880808000019212020110E0000E0108893
:1034900088180000000F112020110E0000380808C5
:1034A000C83808000000003F0000000000708808D5
:1034B00008887000001C222121221C0000E0100856
:1034C0000810E0000000312222110F00000000C0AF
:1034D000C00000000000003030000000000000804C
:1034E000000000000000806000000000000080403C
:1034F0002010080000010204081020004040404055
:1035000040404000040404040404040000081020A7
:1035100040800000002010080402010000704808EC
:103520000808F0000000003036010000C030C82854
:10353000E810E0000718272423140B000000C0380F
:10354000E0000000203C23020227382008F8888889
:1035500088700000203F202020110E00C030080895
:1035600008083800071820202010080008F808086C
:103570000810E000203F202020100F0008F8888865
:10358000E8081000203F20202320180008F8888831
:10359000E8081000203F200003000000C0300808A9
:1035A0000838000007182020221E020008F8080032
:1035B0000008F808203F210101213F20000808F8F9
:1035C000080800000020203F20200000000008081C
:1035D000F8080800C08080807F00000008F888C0DC
:1035E00028180800203F20012638200008F808008D
:1035F00000000000203F20202020300008F8F800C4
:10360000F8F80800203F003F003F200008F830C0D5
:103610000008F808203F200007183F00E0100808C5
:103620000810E0000F10202020100F0008F80808F4
:103630000808F000203F210101010000E010080807
:103640000810E0000F18242438504F0008F888882C
:1036500088887000203F2000030C3020007088080C
:10366000080838000038202121221C00180808F81A
:10367000080818000000203F2000000008F808009B
:103680000008F808001F202020201F00087888006C
:1036900000C83808000007380E010000F80800F8DC
:1036A0000008F800033C0700073C03000818688086
:1036B0008068180820302C03032C30200838C800FC
:1036C000C83808000000203F20000000100808084B
:1036D000C83808002038262120201800000000FEED
:1036E000020202000000007F40404000000C30C099
:1036F00000000000000000010638C00000020202C5
:10370000FE000000004040407F0000000000040276
:1037100002020400000000000000000000000000A1
:103720000000000080808080808080800002020491
:103730000000000000000000000000000000808089
:10374000808000000019242222223F2008F80080F7
:1037500080000000003F112020110E0000000080BA
:1037600080800000000E1120202011000000008049
:103770008088F800000E112020103F20000080807B
:1037800080800000001F222222221300008080F08F
:10379000888888180020203F2020000000008080BA
:1037A00080808000006B94949493600008F80080FF
:1037B00080800000203F210000203F20008098985A
:1037C000000000000020203F2020000000000080BA
:1037D0009898000000C08080807F000008F80000FA
:1037E00080808000203F24022D302000000808F84F
:1037F000000000000020203F20200000808080800A
:1038000080808000203F20003F20003F808000809B
:1038100080800000203F210000203F2000008080A9
:1038200080800000001F202020201F00808000805A
:103830008000000080FFA12020110E000000008009
:1038400080808000000E112020A0FF8080808000FA
:103850008080800020203F21200001000000808027
:10386000808080000033242424241900008080E01C
:10387000808000000000001F2020000080800000E9
:1038800000808000001F202020103F2080808000CA
:103890000080808000010E300806010080800080DA
:1038A000008080800F300C030C300F0000808000FF
:1038B000808080000020312E0E312000808080002A
:1038C0000080808080818E701806010000808080DA
:1038D000808080000021302C222130000000000078
:1038E000807C020200000000003F40400000000019
:1038F000FF00000000000000FF0000000002027C4A
:10390000800000000040403F000000000006010170
:103910000202040400000000000000003C3900081E
:1039200000000020CC040000C8270008D43A00089A
:10393000CC04002034040000582800081184A24A56
:1039400004680901020304060708090C691015023E
:10395000040608400D4042445840407F40405048D3
:10396000C67B40440132FF180D0808E8292E28E8DC
:103970000808C80C0B063126FF0949897F1C0F4037
:10398000800611251060028C2BFE920132FE180A6F
:1039900004047E01407E42427E0234427E40280979
:1039A000FC242424FC252624081204201040308FF7
:1039B00080844C55252525554C808080100A0305B0
:1039C0000911FF118905C312E012F072F8073D4496
:1039D00028FF11AA44700B8301384482929274012B
:1039E000831E7C44C7017D01990529E2319A0102B9
:1039F000818A010B013669419949FA0101A12A40E6
:103A000001212A6D01212A6001791501642ADB0157
:103A10000915072ADA01212AD801212AC00109152E
:103A2000072A800101352A06010918071CE66620CD
:103A3000076A86157A861C2A8601180A808086867F
:103A4000068686C0C00C0E1C0606D030764D2907AF
:103A5000013113601C12FE1301021009C418200268
:103A60009E63B20E1DFF8181FFF24440300F12FFB2
:103A7000180923EAAABFAAEA033F0B012DBC8080E4
:103A800080080115240E0C082A01013149041D810A
:103A9000808081021901B91706110101090C0E0A73
:103AA00014C0012178081E21404050215E08012ADF
:103AB0004DFFFFC1C10409232D08152280FCF3EF3F
:103AC000F3FC80FF80EEEEEEF5FBFF9CBEB6B68801
:043AD0003A21000097
:0400000508000131BD
:00000001FF
