:020000040800F2
:10000000C820002065020008171600082B140008FD
:1000100015160008410500086119000800000000DD
:10002000000000000000000000000000CD010008FA
:10003000990500080000000011020008A916000838
:100040007F0200087F0200087F0200087F0200088C
:100050007F0200087F0200087F0200087F0200087C
:100060007F0200087F0200087F0200087F0200086C
:100070007F0200087F0200087F0200087F0200085C
:100080007F0200087F0200087F0200087F0200084C
:100090007F0200087F0200087F0200087F0200083C
:1000A0007F020008351700087F0200087F02000861
:1000B0007F0200087F0200087F0200087F0200081C
:1000C0007F0200087F0200087F0200087F0200080C
:1000D0007F0200087F0200087F0200087F020008FC
:1000E0007F0200087F0200087F0200087F020008EC
:1000F000411700087F0200087F0200087F02000805
:100100007F0200087F0200087F0200087F020008CB
:100110007F0200087F0200087F0200087F020008BB
:100120007F0200087F0200087F0200087F020008AB
:1001300000F002F800F03AF80AA090E8000C8244BF
:100140008344AAF10107DA4501D100F02FF8AFF29C
:10015000090EBAE80F0013F0010F18BFFB1A43F0A5
:10016000010318471431000034310000103A24BF55
:1001700078C878C1FAD8520724BF30C830C144BF0C
:1001800004680C607047000000230024002500264E
:10019000103A28BF78C1FBD8520728BF30C148BFEA
:1001A0000B6070471FB51FBD10B510BD00F082F980
:1001B0001146FFF7F7FF01F0F1FB00F0B4F903B4CB
:1001C000FFF7F2FF03BC01F0DCFB0000224B1968D3
:1001D0000868B0E8F00F80F30988BFF36F8F4FF025
:1001E000000080F311884EF00D0E704700000000F3
:1001F00006480068006880F3088862B661B6BFF3FD
:100200004F8FBFF36F8F00DF00BF00BF08ED00E02E
:10021000EFF30980BFF36F8F0F4B1A6820E9F00FDF
:10022000106008B54FF0500080F31188BFF34F8F76
:10023000BFF36F8F02F002FB4FF0000080F31188D4
:10024000BDE8084019680868B0E8F00F80F3098835
:10025000BFF36F8F704700BF18000020EFF30580D9
:10026000704700000948804709480047FEE7FEE75D
:10027000FEE7FEE7FEE7FEE7FEE7FEE7FEE7FEE756
:1002800004480549054A064B70470000331700082B
:1002900031010008C81A0020C8200020C81C002016
:1002A000C81C0020704700000FB4044910B503AA11
:1002B000029800F0AFF810BC5DF814FB00000020BD
:1002C000032A40F2308010F0030C00F0158011F882
:1002D000013BBCF1020F624498BF11F801CB00F85A
:1002E000013B38BF11F8013BA2F1040298BF00F8AE
:1002F00001CB38BF00F8013B11F0030300F025806B
:10030000083AC0F0088051F8043B083A51F804CB91
:10031000A0E80810F5E7121D5CBF51F8043B40F857
:10032000043BAFF30080D20724BF11F8013B11F862
:1003300001CB48BF11F8012B24BF00F8013B00F8A6
:1003400001CB48BF00F8012B704710B5203AC0F030
:100350000B80B1E81850203AA0E81850B1E81850C6
:10036000A0E81850BFF4F5AF5FEA027C24BFB1E803
:100370001850A0E8185044BF18C918C0BDE8104074
:100380005FEA827C24BF51F8043B40F8043B08BF7D
:100390007047D20728BF31F8023B48BF11F8012B44
:1003A00028BF20F8023B48BF00F8012B704702F03D
:1003B000FF0343EA032242EA024200F03FB84FF053
:1003C000000200B5134694469646203922BFA0E8A5
:1003D0000C50A0E80C50B1F12001BFF4F7AF0907B1
:1003E00028BFA0E80C5048BF0CC05DF804EB8900A2
:1003F00028BF40F8042B08BF704748BF20F8022BE5
:1004000011F0804F18BF00F8012B704770477047FC
:1004100070477047074B70B50D467B4400F033F8CA
:100420000446284600F042F810B14FF0FF3070BD8E
:10043000204670BD671500004FF000020429C0F08F
:10044000128010F0030C3FF4BCAFCCF1040CBCF1F3
:10045000020F18BF00F8012BA8BF20F8022BA1EB58
:100460000C01FFF7AEBF5FEAC17C24BF00F8012B8F
:1004700000F8012B48BF00F8012B704701694A1CA6
:1004800002610878704700B58FB0CDE901310021D5
:10049000059105497944CDE903101146684600F0FD
:1004A0002EF80FB000BD0000E5FFFFFF007B00F05D
:1004B00080007047754600F03FF8AE46050069467B
:1004C000534620F00700854618B020B5FFF7D8FE48
:1004D000BDE820404FF000064FF000074FF0000845
:1004E0004FF0000B21F00701AC46ACE8C009ACE8C6
:1004F000C009ACE8C009ACE8C0098D4670472DE9D9
:10050000F04106460024D6E90170F5688046304681
:1005100003E04146B847641C3046A8470028F8D19C
:100520002046BDE8F08110B50446AFF300802046B8
:10053000BDE81040FFF743BE00487047681A00202E
:10054000FEE70000F0B50022114CDFF848E04FF064
:10055000010C134602EB420500EB850704EBC501D5
:10056000E0CF81E8E0008A7281F80CC04B738B7396
:10057000012D0AD081F80FC04B74521C8B74D2B27B
:10058000C1F814E0022AE5D3F0BDCB73F4E7000014
:100590006401002049140008704772B6FEE70000AD
:1005A00070B50C4E002500BF05EB450006EBC004FE
:1005B000207B50B194E8070063699847E17B88424B
:1005C00001D1012000E00020A0736D1CEDB2022DCE
:1005D000EAD370BD640100202DE9F84FDFF8C8911F
:1005E000002409F1040A0AF1040B23460F270BF13A
:1005F000040ED1E00125A54006EA0502AA4276D103
:10060000DFF8A8C14E68A6EB0C0866452BD00DDCC0
:10061000032E34D005DC36B3012E19D0022E2FD193
:100620001BE0112E16D0122E2AD119E0B8F5881F22
:1006300019D006DCB8F5803F15D0B8F5801F1FD162
:1006400011E0B8F5001F0ED0B8F5041F18D10AE06C
:10065000CB6815E0CB681B1D12E0CB6808330FE0B8
:10066000CB680C330CE08B682BB1012B4FF00803E7
:1006700003D0456104E0042302E0056100E00023AB
:10068000FF2A01D8064601E000F104064FEA84057E
:1006900001D9A5F12005D6F8008007FA05FC28EA63
:1006A0000C0803FA05F548EA0508C6F800804D680D
:1006B000ED0070D53E4DAE6946F00106AE61AD6904
:1006C00024F0030605F0010500953A4D06EB050CF4
:1006D000DCF80850A607360F07FA06F825EA0805E1
:1006E000DFF8D480404503D14FF0000825E052E008
:1006F000DFF8C880404502D14FF001081DE0DFF867
:10070000C080404502D14FF0020816E0DFF8B48007
:10071000404502D14FF003080FE0DFF8AC804045C0
:1007200002D14FF0040808E0DFF8A080404502D174
:100730004FF0050801E04FF0060808FA06F848EA0D
:100740000508CCF808804D68D9F80060ED034D46E7
:1007500001D5164300E096432E604D68DAF800603C
:10076000AD03554601D5164300E096432E604D6813
:10077000DBF80060ED025D4601D5164300E09643CC
:100780002E604D68DEF80060AD02754601D5164357
:1007900000E096432E60641C0A681646E2407FF42F
:1007A00029AFBDE8F88F00000004014000001110DF
:1007B000001002400000014000080140000C014010
:1007C000001001400014014000180140001C0140CD
:1007D0008068084000D00120704700000148806810
:1007E000704700000C000020024881680278114424
:1007F000816070470C000020074810B5016841F087
:1008000010010160032000F095F80F2000F006F8B9
:1008100000F03EF8002010BD0020024000B5014667
:1008200087B000222C2000F065F82C2000F054F84E
:100830001348816941F400518161806905A900F480
:1008400000500690684600F01DF900F04BF90D4984
:100850000D4AB0FBF1F10D48491E0260416040F2C3
:10086000E7320021C0E90321816000F051FB10B1A3
:10087000012007B000BD054800F096FBF9E7000035
:100880000010024040420F00003401401C010020D3
:100890000F4808B5816941F001018161816901F06A
:1008A00001010091C16941F08051C161C06900221C
:1008B00000F0805000900F21901E00F01BF80548BA
:1008C000416821F0E06141F00071416008BD000025
:1008D0000010024000000140002809DB00F01F0268
:1008E000012191404009800000F1E020C0F8001192
:1008F00070470000F0B40E4B1B680C46C3F3022394
:10090000C3F10705042D00D90425191D072901D2BB
:10091000002300E0DB1E012606FA05F1491E2140F6
:1009200099409E40761E16403143F0BC01F019B844
:100930000CED00E0064900F0070208684FF6FF03DF
:10094000184040EA0220034A104308607047000044
:100950000CED00E00000FA052DE9F0470F46050018
:1009600061D0434E306800F00700B84209D23068C9
:1009700020F0070038433060306800F00700B842CC
:1009800051D128683B4C810712D5400703D56068D8
:1009900040F4E06060602878000703D5606840F4A8
:1009A000605060606068A96820F0F00008436060F3
:1009B0002878C00728D06868012810D0216802284C
:1009C00010D0890700292EDA616821F00301014364
:1009D0006160FFF703FF804641F288390DE021682E
:1009E0008903EFE78901EDE7FFF7F8FEA0EB0801C7
:1009F000494502D90320BDE8F0876068696800F0C6
:100A00000C00B0EB810FEFD1306800F00700B84266
:100A10000BD9306820F0070038433060306800F0B0
:100A20000700B84201D00120E5E72878400705D546
:100A30006068E96820F4E060084360602878000797
:100A400006D56068296920F4605040EAC100606002
:100A500000F058F86168084AC1F30311515CC840BE
:100A60000649086006480068FFF7D8FE0020C2E784
:100A70000020024000100240403200080800002020
:100A8000100000200F2202600C4A536803F0030399
:100A90004360536803F0F0038360536803F4E0633A
:100AA000C36052684FF4E06303EAD2020261044873
:100AB000006800F007000860704700000010024066
:100AC000002002400448054900684968044AC1F30F
:100AD0000221515CC840704708000020001002400D
:100AE000503200080448054900684968044AC1F3C7
:100AF000C221515CC840704708000020001002402D
:100B00005032000812A185B00FC98DE80F0014A063
:100B1000144A006804905168134801F00C03042B38
:100B200010D0082B0ED1C1F38343C9031DF8030075
:100B30000AD5516804AAC1F34041515C0A4A5043A6
:100B4000B0FBF1F005B0704708494843FAE70000F0
:100B500002030405060708090A0B0C0D0E0F1010FE
:100B6000010200000010024000127A0000093D005E
:100B70002DE9F84F040070D02078C04DC00749D04F
:100B80006868C0F38100012807D06868C0F381005D
:100B9000022809D16868C00306D52868800339D5C2
:100BA00060680028E7D035E06068B0F5803F0BD082
:100BB00010B1B0F5A02F11D0286820F48030286043
:100BC000286820F4802002E0286840F48030286003
:100BD000606890B1FFF702FE06460AE0286840F41C
:100BE00080202860F0E700BFFFF7F8FD801B642835
:100BF00073D828688003F7D50CE0FFF7EFFD0646B1
:100C000005E000BFFFF7EAFD801B6428F0D82868E4
:100C10008003F7D420789A4E80074FF001094FF0F7
:100C2000000839D5686810F00C0F07D06868C0F369
:100C30008100022809D16868C00306D428688007AB
:100C400014D52069012808D110E02069B0B1C6F898
:100C50000090FFF7C3FD074605E00AE1FFF7BEFD80
:100C6000C01B0228C4D828688007F7D528686169A6
:100C700020F0F80040EAC10028600DE0C6F80080CE
:100C8000FFF7ACFD074604E0FFF7A8FDC01B0228F4
:100C900023D828688007F7D4207800072CD5794816
:100CA000A169D9B1C0F80090FFF798FD074604E0AC
:100CB000FFF794FDC01B02280FD8686A8007F7D59C
:100CC00071484FF4FA510068B0FBF1F0009000BF9A
:100CD0000098411E0091FAD20EE080E0C0F800803A
:100CE000FFF77CFD074604E0FFF778FDC01B0228F4
:100CF00075D8686A8007F7D42078400760D5E8691E
:100D00000027C00008D4E86940F08050E861E86935
:100D1000012700F0805000905C480168C90513D499
:100D20000168834641F480710160FFF757FD8246F8
:100D300006E000BFFFF752FDA0EB0A0064284ED882
:100D4000DBF80000C005F5D5E06801280AD008B13D
:100D5000052813D0286A20F001002862286A20F0B4
:100D6000040002E0286A40F001002862E06841F2D5
:100D7000883B98B1FFF732FD82460BE0286A40F0CD
:100D800004002862EEE700BFFFF728FDA0EB0A0190
:100D900059455AD8286A8007F6D50CE0FFF71EFDA2
:100DA000824605E0FFF71AFDA0EB0A0159454CD831
:100DB000286A8007F6D41FB1E86920F08050E86106
:100DC000E06988B36968C1F38101022944D002282F
:100DD000C6F8608004D0FFF701FD044638E034E037
:100DE000FFF7FCFC074604E0FFF7F8FCC01B0228F5
:100DF0002BD828688001F7D4206AB0F5803F05D150
:100E00006868A16820F4003008436860D4E90801EC
:100E10000843696821F4741108436860C6F860905B
:100E2000FFF7DCFC044606E025E000BFFFF7D6FC38
:100E3000001B022809D828688001F7D51BE000BFF5
:100E4000FFF7CCFC001B022802D90320BDE8F88F75
:100E500028688001F4D40EE00128F7D06868226A7F
:100E600000F48031914204D1616A00F4701088422C
:100E700001D00120EAE70020E8E70000001002406E
:100E800000004242800442420800002000700040FE
:100E90007047704770B590F83C20012A2CD001248F
:100EA00080F83C40022280F83D2003685A689D6823
:100EB00022F070060A6832435A60104B02689A4268
:100EC0000ED00F4B9A420BD0B2F1804F08D00D4B91
:100ED0009A4205D00C4B9A4202D00C4B9A4204D154
:100EE000496825F080031943916080F83D40002156
:100EF00080F83C10084670BD022070BD002C0140F7
:100F0000003401400004004000080040000C004094
:100F100010B5040003D094F83D0010B107E00120A3
:100F200010BD002084F83C00204600F01FF802208D
:100F300084F83D00211D206800F008FC012084F8A1
:100F4000460084F83E0084F83F0084F8400084F8AE
:100F5000410084F8420084F8430084F8440084F897
:100F6000450084F83D00002010BD000008B5006871
:100F70000B49884212D10B48816941F400618161BB
:100F80008069002200F40060009005211920FFF71D
:100F9000B1FCBDE808401920FFF79EBC08BD000069
:100FA000002C01400010024090F83D10012901D0B2
:100FB00001207047022180F83D100168CA6842F0A4
:100FC0000102CA6000680E4988420ED00D4988426D
:100FD0000BD0B0F1804F08D00B49884205D00B49A7
:100FE000884202D00A49884204D1816801F0070191
:100FF000062903D0016841F001010160002070471B
:10100000002C014000340140000400400008004072
:10101000000C004070B5044690F83C00012817D041
:10102000012584F83C50022084F83D002068826845
:1010300022F0770222F47F4282600868502830D084
:101040000DDC20284DD005DC98B310283BD148E0BA
:10105000022070BD302844D0402834D139E06028C7
:1010600028D0702806D0B0F5805F2CD0B0F5005F96
:1010700029D10AE0CB68D1E90121206800F0ACFB5E
:101080002068816841F0770109E0CB68D1E901214E
:10109000206800F0A1FB2068816841F480418160F4
:1010A00011E0CA684968206800F0A8FB5021206858
:1010B00007E016E0CA684968206800F0B0FB6021CC
:1010C000206800F093FB84F83D50002084F83C0039
:1010D00070BDCA684968206800F090FB4021206814
:1010E000EFE7226801461046EBE7704770B504460B
:1010F000006801694FF00005C943890715D4C1682C
:10110000C943890711D4E91E0161012020772068B5
:1011100080698007204602D0FFF7E7FF04E000F077
:1011200098F8204600F096F8257720680169C943B1
:10113000490717D4C168C943490713D46FF00401A4
:101140000161022020772068806910F4407F2046EA
:1011500002D0FFF7CAFF04E000F07BF8204600F061
:1011600079F8257720680169C943090716D4C16851
:10117000C943090712D46FF00801016104202077E8
:101180002068C0698007204602D0FFF7AEFF04E068
:1011900000F05FF8204600F05DF8257720680169CF
:1011A000C943C90617D4C168C943C90613D46FF02F
:1011B00010010161082020772068C06910F4407F89
:1011C000204602D0FFF791FF04E000F042F82046ED
:1011D00000F040F8257720680169C943C90708D1A4
:1011E000C168C943C90704D1891E0161204600F0C6
:1011F00033F820680169C943090609D4C168C943A5
:10120000090605D46FF0800101612046FFF740FE1A
:1012100020680169C943490609D4C168C943490620
:1012200005D46FF040010161204600F03BF82068D2
:101230000169C94389060BD4C168C943890607D42B
:101240006FF0200101612046BDE87040FFF721BE2C
:1012500070BD70477047000038B5044600680D49FE
:10126000884201D1FFF7C0FA0B49206888420FD1AC
:101270000A486946006801F009FA0098002807D07A
:1012800007494FF080500860BFF34F8FBFF36F8F57
:1012900038BD000000340140002C01400400002053
:1012A00004ED00E0704770B5040004D094F83D00F0
:1012B000002510B106E0012070BD84F83C502046A6
:1012C00000F022F8242084F83D002068C16821F451
:1012D0000051C160204600F0B5FA2068016921F490
:1012E000904101612068416921F02A014161206833
:1012F000C16841F40051C1602564202084F83D009C
:1013000084F83E00002070BD30B585B00024009404
:1013100001940294039400681449884224D114482B
:10132000816941F480418161816901F480410491C6
:10133000816941F00401816180690E4D00F0040073
:1013400004904FF40070009002200190032003905D
:1013500069462846FFF740F92815CDE9000469469B
:1013600028460294FFF738F905B030BD0038014037
:1013700000100240000801402DE9F843044690F8AF
:101380003D001F4616460D4620284CD1C5B1BEB1C2
:1013900094F83C00012846D0012084F83C004FF02E
:1013A0000008C4F84080212084F83D00FFF716FAB9
:1013B000A6848146E684A068B0F5805F03D004E08F
:1013C0000120BDE8F883206928B12E465FF00005B2
:1013D00084F83C800EE00026FAE78021204600F0E9
:1013E0008DFAA0B9AEB116F8010B21684860E08C07
:1013F000401EE084E08C4B464FF00002009700282E
:10140000EBD14FF04001204600F078FA30B10320D4
:10141000D7E735F8020BC0F30800E6E7202084F890
:101420003D000020CDE70220CBE7FEE700B587B006
:10143000182204496846FEF788FF6846FFF782F8DD
:1014400007B000BD5832000892B208461146FFF7B7
:10145000BFB900007CB500F0DFF8094D002400BFE3
:1014600004EB440005EBC000D0E90412CDE9001202
:101470000FC800F007F8641C022CF1DB7CBD0000F3
:10148000640100200098C2F30741C0F3074041B156
:10149000012916D1052814D2DFE800F0130A0C0E3A
:1014A000100005280DD2DFE800F00C030507090045
:1014B00004A004E006A002E008A000E00AA0FEF7F5
:1014C000F3BE70474B45595F535552450D0A000016
:1014D0004B45595F52414953450D0A004B45595FF1
:1014E00050524553530D0A004B45595F4C4F4E47E0
:1014F0000D0A000010B5044A0021044800F0BCFAAF
:101500000349086010BD00001C3200089116000855
:101510000400002030B585B00024124801940394E3
:10152000816941F010018161816901F0100104912C
:10153000816941F0040181618069022500F00400A5
:1015400004904FF400500090694602950648FFF75A
:1015500043F801208DE8310069460448FFF73CF864
:1015600005B030BD001002400010014000080140ED
:1015700010B586B000241848009401940294039496
:10158000049414490594016040F2F311C0E9011478
:1015900041F61F41C0E903148021C0E90541FFF76E
:1015A000B7FC08B1FEF7F9FF4FF480500090694690
:1015B0000948FFF72FFD08B1FEF7EFFF049404A9D7
:1015C00005480594FFF766FC002801D0FEF7E5FF0B
:1015D00006B010BD002C0140900000200C4810B552
:1015E0000A4901604FF4E131416000218160082225
:1015F000C160C0E904128161C161FFF754FE002897
:1016000003D0BDE81040FEF7C8BF10BD0038014050
:10161000D8000020FEE7FEE770B5FEF7C1FF00210D
:1016200002261A4C04230A4601EB410004EBC000D9
:10163000457C057435B1012D09D0032D1AD0042D38
:101640001FD117E0857B012D1AD1457418E0857BE9
:10165000012D01D0427413E003254574857407E021
:10166000457B6D1CEDB24573142D09D3437483740F
:10167000427306E0857B012DF2D04274867400E04F
:101680008274491CC9B20229CED370BD6401002006
:101690004FF0FF342146012000F060FEFFF7DAFE34
:1016A000012000F093F9F5E710B5502080F3118880
:1016B000BFF34F8FBFF36F8F01F00EFC18B10449D9
:1016C0004FF080500860002080F3118810BD0000AA
:1016D00004ED00E030B58FB028216846FEF76FFEBC
:1016E00014210AA8FEF76BFE01210804CDE90010C1
:1016F0000024029402250491CDE907504FF4E01034
:1017000009906846FFF734FA08B172B6FEE70F2079
:10171000CDE90A054FF48060CDE90C4002210AA80A
:101720000E94FFF719F9002801D072B6FEE70FB04A
:1017300030BD70470148FFF7D9BC00009000002081
:101740000148FFF7D3BC00001C010020F0B502687F
:101750001C4B1D4D1D4E1E4F1E4C4FF0804C984291
:1017600009D0A04207D0604505D0A84203D0B042BE
:1017700001D0B84204D122F0700E4A6842EA0E024B
:10178000984209D0A04207D0604505D0A84203D0B6
:10179000B04201D0B84203D122F44075CA682A434E
:1017A0004D6922F080022A4302608A68C2620A6898
:1017B0008262984201D0A04201D1096901630121EE
:1017C0004161F0BD002C01400004004000080040D1
:1017D000000C00400034014010B5846842EA032246
:1017E00024F47F440A432243826010BD826822F0C1
:1017F00070020A4342F007018160704710B5036A26
:10180000046A24F001040462846924F0F00444EAC8
:10181000021423F00A020A438461026210BD10B56B
:10182000036A23F0100303628369046A23F470439C
:1018300043EA023224F0A00343EA0111826101620B
:1018400010BD000070B5044600680169E26821F42B
:101850004051114301612169A0680843616908434F
:101860002168CA6841F20C639A430243CA60206847
:101870004169A26921F44071114341611E49206808
:10188000884202D1FFF72EF901E0FFF71BF900EBC8
:10189000C00101EB0012606864218000B2FBF0F32C
:1018A000B3FBF1F36FF018067343B2FBF0F5B2FB34
:1018B000F0F605EB8305322303EB0515B5FBF1F5D7
:1018C000B6FBF1F605F0F00505EB0615B2FBF0F6F8
:1018D000B2FBF0F0B0FBF1F06FF01802504306EBF2
:1018E000800003EB0010B0FBF1F0216800F00F0066
:1018F0002844886070BD0000003801402DE9F041A7
:10190000984617460E460446069D1DE0681C1BD0EF
:101910002DB1FEF763FFA0EB0800A84214D92068A0
:10192000C16821F4D071C1602068416921F00101D2
:101930004161202084F83D0084F83E00002084F8B6
:101940003C000320BDE8F0812068006836EA000012
:1019500004D00020B842D9D00020F3E70120F9E7F5
:10196000FEE70907090E002804DB00F1E02080F8FB
:101970000014704700F00F0000F1E02080F8141D03
:101980007047704713B54FF6FF730122694602484E
:10199000FFF7F2FC00981CBDD8000020FEF72CFFDA
:1019A000FFF798FEFFF7B6FDFFF718FEFFF7E0FD23
:1019B000FFF73CFD00F024F8FFF79CFD0248FFF71D
:1019C000F3FA00F039F8FEE79000002010B5EFF3CD
:1019D000058149B9EFF3108131B908490968022935
:1019E00005D1EFF3118111B16FF0050403E000247C
:1019F00008B100F017FE204610BD0000680000206E
:101A0000EFF3058058B9EFF3108040B90949086831
:101A1000022801D030B109E0EFF3118030B16FF04E
:101A20000500704701200860002070474FF0FF302C
:101A3000704700006800002010B5EFF3058060B922
:101A4000EFF3108048B90B490868022802D001283A
:101A500006D00BE0EFF3118040B16FF0050010BD30
:101A60000220086000F09EFE002010BD4FF0FF3005
:101A700010BD000068000020F0B585B04FEA0103FA
:101A80004FF00004EFF305810394A1BBEFF3108145
:101A900089BB21490968022902D1EFF3118151BBA9
:101AA00048B3802618218DF8104004AD42B3176862
:101AB00007B13D4697691FB139467F1E382F02D2C4
:101AC0001779FF0702D0002005B0F0BD576907B1B4
:101AD000BE08D2F808C0BCF1000F0DD0D4685C2C51
:101AE00018D312693AB137B18DE80610324629464B
:101AF00001F0B3F903900DE0D7685FB912694AB9F4
:101B000003AACDE90012B2B2294601F079F9012801
:101B100000D003940398D7E7680000202DE9F04136
:101B2000134C0F46054666692068001D00F04AFC0C
:101B3000681C07D137B12168BDE8F0410D48091D87
:101B400000F090BC20683544B5424560216805D25C
:101B5000A068BDE8F041091D00F06CBC6068091D7B
:101B600000F068FC206B854200D22563BDE8F0815F
:101B700018000020840600202DE9F041054600F001
:101B80007DFC2D4C2069401C206120682B4F10B13A
:101B9000E06930B32BE025602069012827D10026B9
:101BA00006EB860007EB800000F036FC761C382E32
:101BB000F6D3234800F030FC2148143000F02CFC10
:101BC0001F48283000F028FC1D483C3000F024FC61
:101BD0001B48503000F020FC194860601430A060B1
:101BE00005E02068E96AC06A884200D82560E06A9A
:101BF000401CE0626864E86AA169884200D9A0617B
:101C000000EB800007EB8000291D00F02BFC00F0AA
:101C100055FCE06900280CD02068E96AC06A884257
:101C200007D208494FF080500860BFF34F8FBFF3D1
:101C30006F8FBDE8F081000018000020D401002063
:101C40003406002004ED00E038B500F017FC104C1D
:101C5000A068C8B90F4800F0DFFB0E48143000F050
:101C6000DBFB0C482060143060600A4B00202833F6
:101C7000009003F1500210210A2000F065FEA060E0
:101C800010B105A100F098FCBDE8384000F016BC8A
:101C90005400002098060020546D7251000000008E
:101CA00030B4026C0B46002A0BD0C1681144C160ED
:101CB0004468A14201D30168C16030BC1846FEF7F8
:101CC000FFBA30BC70472DE9F041856B17460446DA
:101CD0000026026C82B1C7B1E068FEF7F1FAE16854
:101CE000206C091AE1602268914202D26168081AE8
:101CF000E060022F16D017E02068A8B9606801F0F4
:101D00004FF90646002060600EE0A068FEF7D8FAA2
:101D1000216CA0680844A0606168884204D32068F0
:101D2000A06001E005B16D1E6D1CA5633046BDE8E5
:101D3000F08110B5044690F8590058B101280CD034
:101D400002280FD0502080F31188BFF34F8FBFF3CC
:101D50006F8FFEE7206B00F0C5FB2046BDE810400A
:101D600000F0C0BB10BD000010484FF440614207B6
:101D700006D0C01D0D4920F00700411AC1F5406191
:101D80000B4A00230144C2E900030839103A21F04C
:101D9000070111604B600B600B1AC0E900139360E0
:101DA0004FF000405360D06070470000680E002084
:101DB0007C000020144E154CA6F29C474FF0805832
:101DC000DFF84C9012E000BF00F058FBF068C568E7
:101DD000281D00F0F7FA2069401E2061E068401ECF
:101DE000E06000F06BFB2846FFF7A3FFE0680028E7
:101DF000EAD138680128F9D9C9F80080BFF34F8FBC
:101E0000BFF36F8FF2E7000070060020180000207B
:101E100004ED00E070B51D46049C51B1C4F80020EB
:101E2000C4E90F010121204600F0C2FD84F84C50A6
:101E300070BD2460F4E72DE9F0470E46DDE9098422
:101E40001746824691009946089DA522206BFEF711
:101E5000AEFA6FF00301206B01EB8701084420F01C
:101E60000707780707D0502080F31188BFF34F8F02
:101E7000BFF36F8FFEE72218315C82F83410315CBB
:101E800011B1401C1028F6D3002684F84360382D89
:101E900000D33725E562C4E91356201D00F0C7FAC8
:101EA00004F1180000F0C3FA2461C5F1380064623F
:101EB000A061666584F858604A465146384600F08D
:101EC0003BFA2060B8F1000F01D0C8F80040BDE82F
:101ED000F087000030B5114900E011460A688242DF
:101EE000FBD34B685C18844203D1406818444860B7
:101EF000084643681C18944209D1084C103C2468D9
:101F0000A24209D052681A4442600A68126802600C
:101F1000814200D0086030BD0460F9E77C000020F9
:101F200070B5002441600B4D0061914206D8D11A72
:101F30008269914206D2011D686807E09A4203D285
:101F4000994201D3012403E0011D286800F072FAD0
:101F5000204670BD5400002010B5044600F08EFAF3
:101F6000A06B28B15FF0000400F0A8FA204610BD75
:101F70000124F9E730B589B0304D55E004980028C8
:101F800006DADDE90601059A9047049800284BDB44
:101F9000069C606910B1201D00F014FA02A800F040
:101FA000B9F8024604980A283ED2DFE800F0050599
:101FB000053D263705053D260598A16903460144E0
:101FC0002046FFF7ADFF00B3616A20468847E0690D
:101FD000012829D1002000900598A169002342180A
:101FE0001946204601F0E6F878B9502080F31188B0
:101FF000BFF34F8FBFF36F8FFEE70598A06128B145
:10200000811813462046FFF78BFF0DE0502080F328
:102010001188BFF34F8FBFF36F8FFEE794F82C004A
:1020200010B9204600F05EFA002204A9A86800F06A
:1020300011FE0028A2D109B030BD000054000020DC
:102040002DE9FC410F46054600F0F0FB01A800F029
:1020500061F80446019818B101F01AF8BDE8FC8156
:10206000224EAFB170680068A8B30027291B3A461A
:10207000B06800F0B5FA01F00BF80028EED11C4969
:102080004FF080500860BFF34F8FBFF36F8FE5E7CD
:10209000A542EBD800F0FCFF30682746C068C46852
:1020A000201D00F08FF9E069012810D1A0692B46AE
:1020B00041193A462046FFF733FF40B1002003465E
:1020C000014600902A46204601F074F820B1616A6A
:1020D00020468847C2E707E0502080F31188BFF30D
:1020E0004F8FBFF36F8FFEE70127BFE7540000203B
:1020F00004ED00E006484168096829B14168C968F3
:10210000C9684968016370474FF0FF31FAE7000082
:102110001800002070B5054600F0D8FE064E0446B3
:102120003069844203D200F009F8012000E0002069
:1021300028602046346170BD54000020F8B5194D68
:102140001FE0C068C4680668201D00F03BF9616AA2
:1021500020468847E069012813D1A0693044B04285
:1021600006D924616060211D286800F063F908E049
:1021700000200346014600903246204601F01AF83E
:1021800038B1286801680029DBD16968C5E9001009
:10219000F8BD502080F31188BFF34F8FBFF36F8FCE
:1021A000FEE700005400002008484068401C4FF043
:1021B000500080F3118804D0BFF34F8FBFF36F8FAF
:1021C000FEE7BFF34F8FBFF36F8FFEE78400002061
:1021D000074C2068016841B1C0680021D0F80000B8
:1021E000FFF72EFFFFF7C6FEF3E701210020F7E718
:1021F000540000202DE9F041044600F03FF994F925
:10220000455004F1240609E0606A48B1304600F008
:1022100007FF08B100F034FA6D1E6DB2002DF3DC3B
:102220004FF0FF3684F8456000F048F900F026F9D9
:1022300094F9445004F1100709E0206948B1384688
:1022400000F0EEFE08B100F01BFA6D1E6DB2002D1D
:10225000F3DC84F84460BDE8F04100F02FB90000E1
:102260002DE9F0410546002700F0E0FA314E3068D4
:1022700008B9FFF779FDF06805424BD1C5B30835C1
:1022800068070ED005F00700C0F108000544680794
:1022900007D0502080F31188BFF34F8FBFF36F8FAB
:1022A000FEE72DB37068854234D8224810300146CD
:1022B0000C6801E020460C466168A94202D2216800
:1022C0000029F7D131688C4224D007682168016069
:1022D00060680837411B10290FD96019420708D0E0
:1022E000502080F31188BFF34F8FBFF36F8FFEE74D
:1022F00010E041606560FFF7EDFD61687068401AAD
:102300007060B268904200D2B060F0680143002073
:10231000C4E9000100F0BCFE780707D0502080F32C
:102320001188BFF34F8FBFF36F8FFEE73846BDE8CC
:10233000F08100006C00002010B5031F4FF0807486
:102340001C601B1F21F001011960191F024B0B605B
:10235000143940380A6010BDA921000870B50C4638
:10236000064600F08BF8154D2868406D80B9296845
:10237000012081F858005CB101212046FFF7CEFB17
:102380000F494FF080500860BFF34F8FBFF36F8F3E
:1023900000F094F800F072F82868446D002034B121
:1023A00016B12968486502E02A68611E51652968EE
:1023B00081F8580000F082F8204670BD1800002017
:1023C00004ED00E0D0E9013201699A60D0E901230F
:1023D0005A604A68824201D182684A6000220261E2
:1023E0000868401E0860086870470000034B0360DF
:1023F00003F15C000860802010607047B007002087
:10240000044B036003F15C0008604FF480701060BF
:10241000704700000C0A002000F108014FF0FF3265
:10242000C0E90112C1600161002101607047002113
:102430000161704730B50B685A1C02D000F10802E8
:1024400002E0026904E02246546825689D42FAD9F8
:1024500053684B6099608A60516008610168491C4B
:10246000016030BD42684A6093688B609368596030
:10247000916008610168491C01607047502080F339
:102480001188BFF34F8FBFF36F8F0A494868401C14
:10249000486001280CD10848006810F0FF0F07D0F1
:1024A000502080F31188BFF34F8FBFF36F8FFEE78B
:1024B000704700008400002004ED00E008494868EF
:1024C00028B1401E486001D180F311887047502028
:1024D00080F31188BFF34F8FBFF36F8FFEE70000CB
:1024E0008400002070B5002827D0144DA0F1080406
:1024F0006168E868014207D1502080F31188BFF37A
:102500004F8FBFF36F8FFEE722683AB1502080F300
:102510001188BFF34F8FBFF36F8FFEE78143616078
:1025200000F084F960686968084468602046FFF735
:10253000D1FCBDE8704000F0ABBD70BD6C00002068
:102540004FF0E02000210161816105494FF47A726A
:102550000968B1FBF2F1491E416107210161704731
:102560000800002010B5FDF779FE114910280ED3A0
:1025700000F1E02090F8F0030A78904207D2502052
:1025800080F31188BFF34F8FBFF36F8FFEE70948C9
:102590000068896800F4E060884207D9502080F321
:1025A0001188BFF34F8FBFF36F8FFEE710BD0000A0
:1025B000840000200CED00E010B5084B002200BFA5
:1025C00053F832401CB1521C082AF9D310BD43F80D
:1025D000321003EBC201486010BD000094010020DE
:1025E00070B515460E460446FFF748FF94F94410AF
:1025F0000020491C01D184F8440094F94510491C7D
:1026000001D184F84500FFF759FFA06B28B92A468D
:10261000314604F1240000F0A9F82046BDE87040DE
:10262000FFF7E8BD10B5020014D00F48806B38B139
:10263000502080F31188BFF34F8FBFF36F8FFEE7F9
:1026400000F0F4F800211046FFF768FA00F020FDD2
:10265000002807D105494FF080500860BFF34F8F25
:10266000BFF36F8F10BD00001800002004ED00E0E4
:1026700002498A6A02604969416070471800002077
:102680000149012048627047180000202DE9F041FF
:102690000E46040015D0FFF765FF5020EFF31185BB
:1026A00080F31188BFF34F8FBFF36F8F94F85800FA
:1026B000022184F85810616D491C6165012808D019
:1026C00032E0502080F31188BFF34F8FBFF36F8F3C
:1026D000FEE7A06A38B1502080F31188BFF34F8F16
:1026E000BFF36F8FFEE7124FB86B18B104F11801FA
:1026F00010480DE0201DFFF765FEE06AB9698842C9
:1027000000D9B8610C4900EB800001EB8000211D6D
:10271000FFF7A8FEE06A3968C96A884204D9012037
:102720000EB1306000E0786285F31188BDE8F08179
:10273000180000205C060020D401002010B50C46D3
:1027400050B1094909681831FFF774FE2046BDE809
:1027500010400121FFF7E2B9502080F31188BFF348
:102760004F8FBFF36F8FFEE71800002070B514463F
:102770000D4668B10A4909681831FFF773FE0CB1BC
:102780004FF0FF3521462846BDE87040FFF7C6B937
:10279000502080F31188BFF34F8FBFF36F8FFEE798
:1027A0001800002030B587B00024039405AA04A9BE
:1027B00003A80494FFF71AFEDDE903010094CDE9B4
:1027C0000110002315A11748059A00F046FB164D8D
:1027D000002868631FD000F0BDFC012809D0401C10
:1027E00019D1502080F31188BFF34F8FBFF36F8F43
:1027F000FEE7502080F31188BFF34F8FBFF36F8F38
:102800004FF0FF3028630120E8616C6107B0BDE83C
:10281000304000F045B807B030BD000049444C4599
:1028200000000000B51D0008180000200248816B60
:10283000491C81637047000018000020164810B53D
:10284000816B11B10121416210BD0021416281699A
:10285000124A01E0B9B1491E01EB810352F823305D
:10286000002BF7D001EB810302EB830202F1080495
:1028700053685B685360A34201D15B685360DA68B8
:102880000260816110BD502080F31188BFF34F8F2B
:10289000BFF36F8FFEE7000018000020D401002076
:1028A0001CB5264908780190FF20087008788DF83B
:1028B00000009DF800009DF8002000F0F00090421C
:1028C00007D0502080F31188BFF34F8FBFF36F8F75
:1028D000FEE79DF800001A4B00F05000187007202A
:1028E000986005E09DF8002052008DF80020401E01
:1028F0009DF800201206F5D49860032807D05020D8
:1029000080F31188BFF34F8FBFF36F8FFEE74FF453
:1029100040709860019808700A48016841F470019D
:102920000160016841F070410160FFF709FE00207D
:102930005860FDF75DFC00201CBD000000E400E0D5
:102940008400002020ED00E038B5049D18B153B19B
:10295000CAB181B120E0502080F31188BFF34F8FBE
:10296000BFF36F8FFEE7502080F31188BFF34F8FC6
:10297000BFF36F8FFEE7502080F31188BFF34F8FB6
:10298000BFF36F8FFEE739B1502080F31188BFF39A
:102990004F8FBFF36F8FFEE750241C46012384F84E
:1029A00046302B460094FFF735FA204638BD00002C
:1029B00070B50D46040025D0FFF760FDD4E90F2067
:1029C000216802FB001161600021A1632168A16000
:1029D0000A46D4E90F01401E00FB0121E1602146B7
:1029E0004FF0FF3001F8440F487004F110008DB132
:1029F000FFF712FD04F12400FFF70EFDFFF75EFD67
:102A0000012070BD502080F31188BFF34F8FBFF3BA
:102A10006F8FFEE721690029F0D000F001FB00284C
:102A2000ECD004494FF080500860BFF34F8FBFF3E4
:102A30006F8FE3E704ED00E02DE9FF4782B01D460C
:102A40008A464FF00008040003D0BAF1000F08D006
:102A500011E0502080F31188BFF34F8FBFF36F8FC9
:102A6000FEE7206C38B1502080F31188BFF34F8F00
:102A7000BFF36F8FFEE7022D0AD1E06B012807D06C
:102A8000502080F31188BFF34F8FBFF36F8FFEE7A5
:102A900000F00EFA3F4F4FF000094FF0805648B952
:102AA000049838B1502080F31188BFF34F8FBFF3E3
:102AB0006F8FFEE7FFF7E2FCA06BE16B884207D364
:102AC000022D05D00498D0B1B8F1000F1AD01EE045
:102AD0002A4651462046FFF7F6F8616A19B104F11B
:102AE000240000F09DFA20B13E60BFF34F8FBFF38A
:102AF0006F8FFFF7E3FC012006B0BDE8F087FFF71A
:102B0000DDFC22E06846FFF7B3FD4FF00108FFF758
:102B1000D5FCFFF78BFEFFF7B1FC94F94400401C95
:102B200001D184F8449094F94500401C01D184F807
:102B30004590FFF7C3FC04A9684600F027F930B1BF
:102B40002046FFF757FB00F0A3FA0020D4E7FFF779
:102B500095FCA06BE16B884213D1FFF7AFFC04F149
:102B600010000499FFF7EAFD2046FFF743FB00F051
:102B70008FFA00289ED13E60BFF34F8FBFF36F8F57
:102B800098E7FFF79BFC2046FFF734FB00F080FA44
:102B900090E7000004ED00E02DE9F0471F46904665
:102BA0008946040003D0B9F1000F08D011E050208D
:102BB00080F31188BFF34F8FBFF36F8FFEE7206C58
:102BC00038B1502080F31188BFF34F8FBFF36F8F60
:102BD000FEE7022F0AD1E06B012807D0502080F3D6
:102BE0001188BFF34F8FBFF36F8FFEE7FFF7BAFC7B
:102BF0005020EFF3118680F31188BFF34F8FBFF39E
:102C00006F8FA06BE16B884206D3022F04D00020A7
:102C100086F31188BDE8F08794F945503A46494655
:102C20002046FFF750F8681C04D06D1C84F845500E
:102C30000120EDE7606A0028FAD004F1240000F0DA
:102C4000EFF90028F4D0B8F1000FF1D00121C8F855
:102C50000010EDE72DE9F747002683B08A4604000F
:102C600003D0BAF1000F08D011E0502080F3118892
:102C7000BFF34F8FBFF36F8FFEE7206C38B150204A
:102C800080F31188BFF34F8FBFF36F8FFEE700F023
:102C90000FF9DFF8F4804FF000094FF0805748B982
:102CA000059838B1502080F31188BFF34F8FBFF3E0
:102CB0006F8FFEE7FFF7E2FBA56BC5B151462046DB
:102CC000FEF7EEFF6D1EA563206950B104F1100000
:102CD00000F0A6F928B1C8F80070BFF34F8FBFF31A
:102CE0006F8FFFF7EBFB012006B0BDE8F08705987A
:102CF00008B11EB106E0FFF7E1FB27E06846FFF7E9
:102D0000B7FC0126FFF7DAFBFFF790FDFFF7B6FBF4
:102D100094F94400401C01D184F8449094F9450092
:102D2000401C01D184F84590FFF7C8FB05A968460F
:102D300000F02CF8002820460AD0FFF75BFA00F0DC
:102D4000A7F92046FFF708F90028B3D00020CBE709
:102D5000FFF702F990B104F124000599FFF7EEFCAA
:102D60002046FFF747FA00F093F90028A2D1C8F8EF
:102D70000070BFF34F8FBFF36F8F9BE72046FFF7C5
:102D800039FA00F085F995E704ED00E02DE9F0410E
:102D90000C46050011D0C4B1FFF770FB174B5A6900
:102DA0006E682068911B471C17D02F689B6A9F4252
:102DB00019D0964217D8012410E0502080F31188D2
:102DC000BFF34F8FBFF36F8FFEE7502080F3118862
:102DD000BFF34F8FBFF36F8FFEE70024FFF76EFB4B
:102DE0002046BDE8F081884205D9401A2060284677
:102DF000FFF73EFCF1E700202060DCE71800002030
:102E00002DE9FF5F8346DDE90E87994616468A461F
:102E10009000FFF725FA05001CD05C20FFF720FA90
:102E2000040014D00020256384F85900CDE9024045
:102E3000CDE900874B46324651465846FEF7FBFF28
:102E40002046FEF799FE012004B0BDE8F09F284619
:102E5000FFF748FB4FF0FF30F6E7F0B585B0DDE94E
:102E60000B640A9DA6B1DCB15C270097266302269D
:102E700084F85960002604AFCDE90246CDE9005739
:102E8000FEF7D9FF2046FEF777FE049805B0F0BDA7
:102E9000502080F31188BFF34F8FBFF36F8FFEE791
:102EA000502080F31188BFF34F8FBFF36F8FFEE781
:102EB0000548C16919B1806B18B100207047012025
:102EC0007047022070470000180000200148406948
:102ED00070470000180000202DE9F0412E4C00271B
:102EE000A06B40B1206A401C2062606A00B10127DB
:102EF0003846BDE8F0816669761C666113D160686A
:102F0000006838B1502080F31188BFF34F8FBFF3B2
:102F10006F8FFEE76068A1686160A060A06A401CD6
:102F2000A062FFF7E7F8206BDFF87080864209D3D4
:102F30006068006880B16068C068C568686886427B
:102F40000DD220632068C06A00EB800158F8210090
:102F50000128CAD90127C8E74FF0FF30F1E7281D43
:102F6000FFF730FAA86A18B105F11800FFF72AFA3E
:102F7000E86AA169884200D9A06100EB800108EBF2
:102F80008100291DFFF76EFAE86A2168C96A884244
:102F9000CED30127CCE7000018000020D401002088
:102FA00070B504004FF0000133D01B4D28688442F7
:102FB00007D0502080F31188BFF34F8FBFF36F8F7E
:102FC000FEE7206D38B1401E2065E36CE26A9A424C
:102FD0001FD040B11DE0502080F31188BFF34F8F08
:102FE000BFF36F8FFEE7201DFFF7ECF9E06CE062A6
:102FF000C0F13800A061E06AA969884200D9A861DF
:10300000064900EB800001EB8000211DFFF72AFA42
:103010000121084670BD000018000020D4010020E6
:1030200070B5C068C46854B104F118000646FFF7D3
:10303000C9F9144DA86B50B13146134815E0502022
:1030400080F31188BFF34F8FBFF36F8FFEE7201D12
:10305000FFF7B8F9E06AA969884200D9A8610B496D
:1030600000EB800001EB8000211DFFF7FBF9E06A17
:103070002968C96A884202D90120686270BD0020AF
:1030800070BD0000180000205C060020D401002064
:103090002DE9F0472C4D00242746A86B38B1FFF7E7
:1030A000EDF9A86B401EA863A86B40B146E0502024
:1030B00080F31188BFF34F8FBFF36F8FFEE729694D
:1030C000224E0120D1B3A6F5916980463068E0B167
:1030D000F068C46804F11800FFF774F9201DFFF7C9
:1030E00071F9E06AA969884200D9A86100EB800102
:1030F00009EB8100211DFFF7B5F9E06A2968C96A6B
:103100008842E3D3C5F82480E0E70CB1FEF7F2FF74
:103110002C6A4CB14FEA0806FFF7DEFE00B16E6282
:10312000641EF9D100202862686A38B10849012775
:1031300038070860BFF34F8FBFF36F8FFFF7BEF9FB
:103140003846BDE8F0870000180000205C0600202B
:1031500004ED00E010B586B0FEF776FD114CA068D6
:10316000B8B100200390049005AA04A903A8FFF7B2
:1031700047F9DDE9032102208DE8070000230AA1B9
:103180000B48059AFFF769FEE06010B106B0012018
:1031900010BD502080F31188BFF34F8FBFF36F8FA6
:1031A000FEE7000054000020546D72205376630047
:1031B000D12100082DE9FF411E46134602000A9D59
:1031C0004FF0000016D0144CA768002F0FD0CDE9A7
:1031D00000130292062917DAFFF76AFE02284FF061
:1031E00000030FD000226946A068FFF725FC04B059
:1031F000BDE8F081502080F31188BFF34F8FBFF3FB
:103200006F8FFEE72A46EEE70023324669463846CE
:10321000FFF7C2FCEBE7000054000020703200080A
:10322000000000000000000000000000000000009E
:103230000002000018000000000000000000000074
:103240000000000000000000010203040607080956
:103250000000000001020304020000000008014019
:1032600001000000020000000010014000200000EA
:103270005461736B31000000983200080000002098
:10328000900000006C010008283300089000002026
:103290003820000088010008000000000000000045
:1032A0000024F400010000001000000000000000F5
:1032B000000000000000000000000000000000000E
:1032C00000000000000000000000000000000000FE
:1032D00000000000000000000000000000000000EE
:1032E00000000000000000000000000000000000DE
:1032F00000000000000000000000000000000000CE
:1033000000000000000000000000000000000000BD
:1033100000000000000000000000000000000000AD
:08332000AAAAAAAA00000000FD
:0400000508000131BD
:00000001FF
