:03000000020C7D72
:0C0C7D00787FE4F6D8FD758150020CC4AD
:1009C200312E5365742054696D6500322E41626F79
:1009D20075742E2E2E005365742E2E2E00536574C0
:1009E2002E2020004D6F6E0054756500576564001F
:1009F20054687500467269005361740053756E0045
:100A02002042697274686461792067696674202083
:100A12000020202020202020202D2D627920484AED
:100A22004C00323031332D31322D30342049732095
:100A32002020004C6959756E4C206269727468649A
:100A420061792100467269656E647320746F67650F
:100A52007468657200666F72206C6966652E2E2E50
:100A6200202020202000204469676974616C2043A3
:100A72006C6F636B20200076312E312E3020202DBA
:100A82002D627920484A4C00080F120F0A1F0202F9
:100A92000F090F090F0913010F09090F09090F00A7
:100AA200181807080808070000040E1F0E040000AB
:100AB200FFFFFFFFFFFFFFFF00000000000000003C
:080AC20000000000000000002C
:0C104900012800012100C102C100C18388
:100FDB00E4FEC2900000EFC313FF9291D290000089
:040FEB000EBE08EE40
:010FEF0022DF
:100F7600E4FFFEC2900000EFC313FF309103430766
:090F860080D29000000EBE08EAC2
:010F8F00223F
:090EE300E4FD7F8E120EEC7F800D
:100EEC00C2920000C2900000D2920000120FDBAF41
:090EFC0005120FDBD290C2922214
:100E3000C2920000C2900000D2920000120FDB129A
:100E40000F76D290C292EFC4540F75F00AA4FEEF51
:040E5000540F2EFF0E
:010E5400227B
:100DAD00120EE37F82120EEC7D127F84120EEC7D0B
:100DBD00107F86120EEC0D7F88120EEC7D067F8A59
:100DCD00120EEC7D127F8C120EEC7D807F8E020E4A
:010DDD00EC29
:100D09007C80E4FB742A2BF8E6FF75F00A84C4544E
:100D1900F0FEEF75F00A84EE25F0F60BBB07E5123D
:100D29000EE3E4FBAF04742A2BF8E6FD120EEC0C7B
:0C0D39000C0BBB07EF7D807F8E020EECE0
:100D7B007F81120E308F2A7F83120E308F2B7F854F
:100D8B00120E308F2C7F87120E308F2D7F89120E13
:100D9B00308F2E7F8B120E308F2F7F8D120E308F58
:020DAB003022F4
:100F9000E4FD7F8E120EEC00007DA67F90120EEC19
:0A0FA0007D807F8E120EEC0000220F
:100FF000C2A5D2A6D2A700000000E580339206C2A7
:03100000A7A2069E
:0110030022CA
:090E9D007FD07E07120FAE7F0129
:100EA600120FF040FBC2A5C2A60000D2A7000000A8
:0A0EB600008F8000000000C2A72298
:070F050074312508F8E6FF36
:100F0C00120FF040FBD2A5C2A6D2A7000000008FA2
:080F1C008000000000C2A722C2
:10102800AE07EE30050444C080024480FF120EA6CD
:011038002295
:100F2400D204E52B75F00A84E5F02430F50A7F0538
:0C0F3400A2049205121028AF0A020F0C54
:100E5500A2049205121028AB0AAA0BA90C1207D2FC
:100E6500FF6010120F0C7401250CF50CE4350BF521
:040E75000B80E422E8
:100DDE007F40120EA6E4FEEE900A8A93FF120F0CCD
:100DEE000EBE40F37F38120EA6120EA67F0C120E08
:0B0DFE00A67F06120EA67F01020EA6C3
:100FC400E4FDFCEFFBC3ED9B7480F86C9850070DB7
:060FD400BD00010C80EDE0
:010FDA0022F4
:100F4000C2B77F1E120FC4D2B77F03120FC4A2B75D
:0A0F5000E433FE7F14120FC4AF0655
:010F5A002274
:0F103900C2B7D2B7E4FF0FBF03FCA2B7E433FF87
:011048002285
:10100400C2B7EF64014E7002D2B77F05120FC4D28B
:02101400B72201
:100EC0007901E4FEFA121039EF600CE9A8020880FB
:100ED00002C333D8FC2EFE7F06120FC40ABA08E5FF
:020EE000AF065B
:010EE20022ED
:020E79008F0EDA
:100E7B00E4FAE50EA802088002C313D8FCF953016B
:100E8B0001E9FF7E001210047F05120FC40ABA0895
:010E9B00E175
:010E9C002233
:100ACA00120F407FCC120E797F44120E79120F401A
:100ADA007FCC120E797FBE120E79120EC08F0912C8
:100AEA000EC0AD07EDFEE509FBEBFFED54FC60120D
:100AFA00752401EFF4FFEEF4FEEF2401FFE43EFE5D
:100B0A008003E4F524AD07AC06EC120718E4FBFAFF
:100B1A007980783D12060D8F0D8E0C8D0B8C0AE4B0
:100B2A00FFFE7D207C41AB0DAA0CA90BA80A120678
:100B3A000DE4FBFAF9783F12051C120751AB07AA1C
:100B4A00067C037DE81207EB7E007F64CFCDCFCE13
:100B5A00CCCE1207EB8F257C037DE8AF03AE0212E1
:100B6A0007EB7E007F64CFCDCFCECCCE1207EB7ED3
:100B7A00007F0ACFCDCFCECCCE1207EB8F26AE02A6
:100B8A00AF037C037DE81207EB7E007F64CFCDCFF5
:100B9A00CECCCE1207EB7E007F0ACFCDCFCECCCE05
:050BAA001207EB8D278E
:010BAF002223
:040FAA007F0A7E003C
:100FAE00EF1FAA0670011E4A600BE4FDEDC3947894
:050FBE0050EE0D80F76C
:010FC300220B
:10101600AD071FED600BE4FEEEC3940D50F20E809B
:01102600F7D2
:0110270022A6
:10088400753132753230E53075F00A842430F53331
:10089400E53075F00A84E5F02430F53475352DE53E
:1008A4002E75F00A842430F536E52E75F00A84E5B9
:1008B400F02430F53775382DE52D75F00A84243091
:1008C400F539E52D75F00A84E5F02430F53A753BE9
:1008D40020753C20753D20E52F14B40700506B9023
:1008E40008F175F003A4C58325F0C58373020906D6
:1008F40002090E02091902092402092F02093A0207
:100904000945753E4D753F6F803D753E54753F7585
:100914007540658035753E57753F65754064802A1E
:10092400753E54753F68754075801F753E46753F2A
:10093400727540698014753E53753F6175407480CB
:1009440009753E53753F7575406E754120E52C75EC
:10095400F00A842430F542E52C75F00A84E5F0248D
:1009640030F54375443AE52B75F00A842430F54597
:10097400E52B75F00A84E5F02430F54675473AE531
:100984002A75F00A842430F548E52A75F00A84E5CE
:10099400F02430F549754A20E524B40105754B2D42
:1009A4008003754B20E5252430F54CE5262430F5ED
:0E09B4004D754E2EE5272430F54F7550032269
:100BB00020B446120FAA20B44030B4FD0528E52821
:100BC000B40109E52170057F01120EA6E528B402E3
:100BD00008E5217004F528C20020000DE521B401CC
:100BE00008E528B4070375280130000DE521B4019C
:100BF00008E528B4060375280120B31B120FAA20AC
:100C0000B31530B3FDE528B4010BE5217007B20040
:100C10007F01120EA6052220B21B120FAA20B215C8
:100C200030B2FDE528B4010BE5217007B2007F0169
:100C3000120EA6052320B531120FAA20B52B30B510
:100C4000FDE5287002B2A0E528601E7F01120EA605
:100C50000521E4F522F523E521B4020D120EA612BA
:100C60000D09E4F528C200F52120B6107F647E004E
:0D0C7000120FAE20B60630B6FD120DAD22FB
:0A000E00120ACA120884E5287033B4
:10001800D293120D7BC205E4FF121028E4F50812F2
:100028000F050508E508C3941040F4D205E4FF1253
:100038001028E4F5087441120F070508E508C39471
:030048001040F273
:10004B00E52864017035E5217031C204750AFF752E
:10005B000B09750CC27F01120E55D204750AFF7580
:10006B000B09750CCD7F01120E55300004D20480A4
:10007B0002C204750A04E4FF120F34E52164016027
:0A008B000302049F30000302049FEB
:10009500C205FF121028E4F508120F050508E5084A
:1000A500C3941040F4D205E4FF121028E4F5087457
:1000B50041120F070508E508C3940A40F2D20475FA
:1000C5000AFF750B09750CD87F0A120E5530011001
:1000D500D204750AFF750B09750CDF7F0A120E55E0
:1000E500E5286401600302016DF52AD204E52A754D
:1000F500F00A842430F50A7F07120F34D204E52A6A
:1001050075F00A84E5F02430F50A7F08120F34E50E
:10011500226021052BE52BB43C03E4F52BD204E545
:100125002B75F00A842430F50A7F04120F34120F60
:1001350024E4F522E5236021152BE52BB4FF037597
:100145002B3BD204E52B75F00A842430F50A7F0495
:10015500120F34120F24E4F5232001030201EAD221
:1001650004750A057F05807AE52864027077E52223
:100175006031052CE52CB41803E4F52CD204E52CEC
:1001850075F00A842430F50A7F01120F34D204E594
:100195002C75F00A84E5F02430F50A7F02120F343D
:1001A500E4F522E5236031152CE52CB4FF03752C0D
:1001B50017D204E52C75F00A842430F50A7F011264
:1001C5000F34D204E52C75F00A84E5F02430F50AE5
:1001D5007F02120F34E4F52330010AD204750A05B3
:1001E5007F02120F34E5286403600302033CE52215
:1001F5007003020293052FE52FB40803752F01E55F
:100205002F14B40700400302029090021D75F003FD
:10021500A4C58325F0C5837302023202023F0202A0
:100225004C020259020266020273020280C2047580
:100235000AFF750B09750CE6804CC204750AFF753B
:100245000B09750CEA803FC204750AFF750B097529
:100255000CEE8032C204750AFF750B09750CF2802D
:1002650025C204750AFF750B09750CF68018C204C2
:10027500750AFF750B09750CFA800BC204750AFF28
:10028500750B09750CFE7F0D120E55E4F522E5235D
:10029500700302032FD52F03752F07E52F14B4071D
:1002A50000400302032C9002B975F003A4C5832511
:1002B500F0C583730202CE0202DB0202E80202F5F8
:1002C50002030202030F02031CC204750AFF750B29
:1002D50009750CE6804CC204750AFF750B09750C8F
:1002E500EA803FC204750AFF750B09750CEE803272
:1002F500C204750AFF750B09750CF28025C20475D9
:100305000AFF750B09750CF68018C204750AFF758E
:100315000B09750CFA800BC204750AFF750B09757C
:100325000CFE7F0D120E55E4F52330010AC204754B
:100335000A057F0F120F34E52864047073E5226007
:1003450031052DE52DB42003752D01C204E52D756C
:10035500F00A842430F50A7F08120F34C204E52D13
:1003650075F00A84E5F02430F50A7F09120F34E4AC
:10037500F522E523602DD52D03752D1FC204E52D2E
:1003850075F00A842430F50A7F08120F34C204E59B
:100395002D75F00A84E5F02430F50A7F09120F3433
:1003A500E4F52330010AC204750A057F09120F34EA
:1003B500E52864057067E522602B052EE52EB40D52
:1003C50003752E01C204E52E75F00A84120F2EC2A4
:1003D50004E52E75F00A84E5F02430F50A7F06124F
:1003E5000F34E4F522E5236027D52E03752E0CC2C4
:1003F50004E52E75F00A84120F2EC204E52E75F061
:100405000A84E5F02430F50A7F06120F34E4F5235B
:1004150030010AC204750A057F06120F34E5286407
:10042500067077E52260310530E530B46403E4F504
:1004350030C204E53075F00A842430F50A7F0212D3
:100445000F34C204E53075F00A84E5F02430F50A6E
:100455007F03120F34E4F522E52360311530E530D2
:10046500B4FF03753063C204E53075F00A842430A7
:10047500F50A7F02120F34C204E53075F00A84E5EF
:10048500F02430F50A7F03120F34E4F52330010A16
:0A049500C204750A057F03120F343C
:10049F00E5216401706F30006CC204750AFF750BA3
:1004AF000A750C02FF120E55D204750AFF750B0A5E
:1004BF00750C13E4FF120E55120E9DC204750AFF40
:1004CF00750B0A750C241F120E55D204750AFF7591
:1004DF000B0A750C35E4FF120E55120E9DC20475F2
:1004EF000AFF750B0A750C461F120E55D204750ABA
:1004FF00FF750B0A750C57E4FF120E55120E9D7502
:06050F002801E4F52122A1
:100D4500120DDE7F017E00120FAEC204750AFF751B
:100D55000B0A750C68E4FF120E55D204750AFF756F
:100D65000B0A750C79E4FF120E557FE87E03120F0E
:060D7500AE7F01020EA694
:100E0900D288D2A8758901758C3C758AB0D2AFD2C7
:100E1900A9D28C120ACA120D45120F907590FF12B1
:070E29000BB012000E80F572
:03000B00020F5B86
:100F5B00C0E0C0D0758C3C758AB00529E529B40A70
:0B0F6B0005752900B201D0D0D0E032A3
:100515000207BDE86480F8E933E83360110460F050
:10052500ED33EC337009E8FCE9FDEAFEEBFF22044C
:1005350060DED3EB9FEA9EE99DE8C2E78CF0C2F747
:1005450095F0400CE8CCF8E9CDF9EACEFAEBCFFB13
:1005550012078885D0F05804700320D5B3E80470DD
:10056500075002B2D50207C792D5EC0460F7E4CC78
:10057500C0E0C398F8603B94186008400DD0E0FBDC
:1005850002079FE4FBFAC9FC8028E830E406E4C9C9
:10059500FBE4CAFCE830E305E4C9CACBFCE8540730
:1005A5006010F8C3E913F9EA13FAEB13FBEC13FC3B
:1005B500D8F130F52FC3E49CFCEF9BFFEE9AFEEDDE
:1005C50099FDD0E0FBEF4E4D4C701222DB03020784
:1005D500C4EC2CFCEF33FFEE33FEED33FDED30E7DD
:1005E500EB02079FEF2BFFEE3AFEED39FDD0E0FB66
:1005F50050130BBB00030207C7ED13FDEE13FEEF0F
:0806050013FFEC13FC02079F38
:10060D00EC4D6011E8497017ED33EC3304600DE4E7
:10061D00FCFFFEFD22E933E8330470F80207BD123A
:10062D00078858046009E4CC24815006285009023B
:10063D0007C72840030207C4C0E0EB4A7044B980E5
:10064D0006D0E0FB0207B3EF4E701CBD8008EBFF38
:10065D00EAFEE9FD80EBE98DF0A4FEE5F00206F679
:10066D00E9CDF9EAFEEBFFEF89F0A4FCE5F0CE89C8
:10067D00F0A42EFFE435F0CD89F0A42DFEE435F085
:10068D008067EF4E7005BD80D780C3EF8BF0A4ACB3
:10069D00F0EE8BF0A42CFCE435F0F8EF8AF0A42CEE
:1006AD00E5F038FCE433CB8DF0A42CFCE5F03BF801
:1006BD00EE8AF0A42CFCE5F038F8E433CF89F0A4F1
:1006CD002CFCE5F038CF3400CE89F0A42FFFE5F0F7
:1006DD003EFEE433C98DF0A42EFEE5F039CD8AF04F
:1006ED00A42FFFE5F03EFEE43DFD33D0E0FB5007C7
:1006FD000BBB000F0207C7EC2CFCEF33FFEE33FEF4
:06070D00ED33FD02079F21
:1007130075F020800E75F010800575F0087D007E61
:10072300007F003392D530D503120821EC334010FB
:10073300EF33FFEE33FEED33FDEC33FCD5F0ED226A
:0E074300E5F0247EA2D513CC92E7CDCEFF22A6
:10075100EDD2E7CD33EC3392D524814006E4FFFEA0
:10076100FDFC22FCE4CFCECDCC24E0501174FF80FF
:10077100EDC3CC13CCCD13CDCE13CECF13CF04709C
:07078100F030D5DE02082173
:10078800E9D2E7C933E833F892D5EDD2E7CD33ECB7
:0707980033FC5002B2D52230
:10079F00EC30E7100FBF000C0EBE00080DBD0004BB
:1007AF000BEB6014A2D5EB13FCED92E7FD2274FF67
:1007BF00FCFDFEFF22E480F8A2D574FF13FC7D80C0
:0307CF00E480EFD4
:100C8900020E09E493A3F8E493A34003F68001F26A
:100C990008DFF48029E493A3F85407240CC8C3336C
:100CA900C4540F4420C8834004F456800146F6DF3B
:100CB900E4800B0102040810204080901049E47E72
:100CC900019360BCA3FF543F30E509541FFEE49330
:100CD900A360010ECF54C025E060A840B8E493A3F7
:100CE900FAE493A3F8E493A3C8C582C8CAC583CA22
:100CF900F0A3C8C582C8CAC583CADFE9DEE780BEDA
:01105500009A
:1007D200BB010689828A83E0225002E722BBFE0225
:0907E200E32289828A83E4932258
:1007EB00C2D5EC30E709B2D5E4C39DFDE49CFCEE29
:1007FB0030E715B2D5E4C39FFFE49EFE12082FC36A
:10080B00E49DFDE49CFC800312082F30D507C3E464
:06081B009FFFE49EFE2297
:0E082100C3E49FFFE49EFEE49DFDE49CFC22E8
:10082F00BC000BBE0029EF8DF084FFADF022E4CCAD
:10083F00F875F008EF2FFFEE33FEEC33FCEE9DEC76
:10084F00984005FCEE9DFE0FD5F0E9E4CEFD22EDBC
:10085F00F8F5F0EE8420D21CFEADF075F008EF2F06
:10086F00FFED33FD4007985006D5F0F222C398FDF7
:05087F000FD5F0EA2294
:00000001FF
