:020000040800F2
:1000000090040020450100087110000873100008DA
:10001000771000087B1000087F1000080000000027
:100020000000000000000000000000008310000835
:1000300085100008000000008710000889100008E3
:100040005F0100085F0100085F0100085F01000810
:100050005F0100085F0100085F0100085F01000800
:100060005F0100085F0100085F0100085F010008F0
:100070005F0100085F0100085F0100085F010008E0
:100080005F0100085F0100085F0100085F010008D0
:100090005F0100085F0100085F0100085F010008C0
:1000A0005F0100085F0100085F0100085F010008B0
:1000B0005F0100085F0100085F0100085F010008A0
:1000C0005F0100085F0100085F0100085F01000890
:1000D0005F010008911000085F0100085F0100083F
:1000E0005F0100085F0100085F0100085F01000870
:1000F0005F0100085F0100085F0100085F01000860
:100100005F0100085F0100085F0100085F0100084F
:100110005F0100085F0100085F0100085F0100083F
:100120005F0100085F0100085F0100085F0100082F
:10013000DFF80CD001F048FD004800472D0F000803
:10014000900400200648804706480047FEE7FEE787
:10015000FEE7FEE7FEE7FEE7FEE7FEE7FEE7FEE777
:1001600047020008310100080CB500200190009002
:100170006C48006840F480306A49086000BF6948F4
:10018000006800F4003000900198401C0190009835
:1001900018B90198B0F5A06FF1D16248006800F479
:1001A000003010B10120009001E000200090009884
:1001B000012843D15C48006840F010005A490860AB
:1001C0000846006820F0030008600846006840F018
:1001D0000200086053484068524948600846406839
:1001E00048600846406840F48060486008464068BF
:1001F00020F47C1048600846406840F4E8104860ED
:100200000846006840F08070086000BF45480068FC
:1002100000F000700028F9D04248406820F0030048
:10022000404948600846406840F00200486000BF0E
:100230003C48406800F00C000828F9D10CBD10B50E
:10024000FFF792FF10BD10B53648006840F001007E
:1002500034490860084640683449084031494860DC
:1002600008460068324908402E4908600846006880
:1002700020F4802008600846406820F4FE004860B2
:100280004FF41F008860FFF7DAFF4FF00060294944
:10029000086010BD10B5002100200022214B5B68D2
:1002A00003F00C0121B1042906D0082928D107E068
:1002B000214B224C236027E01F4B204C236023E07E
:1002C000184B5B6803F47010164B5B6803F48032C4
:1002D000022303EB904022B9194B4343174C236090
:1002E0000DE0104B5B6803F4003323B1144B434320
:1002F000124C236003E0104B4343104C236003E097
:100300000D4B0E4C236000BF00BF064B5B68C3F370
:1003100003130C4CE15C094B1B68CB40074C23607A
:1003200010BD000000100240002002400000FFF855
:10033000FFFFF6FE08ED00E000127A00000000204A
:1003400000093D000400002031490143314A116099
:10035000704770B5002100230F22C47804B32D4CE0
:10036000246804F4E064C4F5E064210AC1F10403E4
:10037000CA40447804FA03F1847814402143090107
:10038000254C0678A155047804F01F050124AC40E3
:1003900005786D11AD0005F1E025C5F8004109E0D3
:1003A000047804F01F050124AC401C4D067876113A
:1003B00045F8264070BD1A4A0A400243154B1B1FE0
:1003C0001A60704739B1134A121D12680243114B6B
:1003D0001B1D1A6006E00F4A121D126882430D4B66
:1003E0001B1D1A607047042808D14FF0E0210969ED
:1003F00041F004014FF0E022116107E04FF0E021ED
:10040000096921F004014FF0E022116170470000FA
:100410000000FA050CED00E000E400E080E100E0FF
:1004200080FFFF1F10B50446CC48844208D101214B
:10043000042000F02DFB0021042000F029FB46E001
:10044000C748844208D10121082000F021FB002187
:10045000082000F01DFB3AE0C248844208D1012187
:10046000102000F015FB0021102000F011FB2EE001
:10047000BD48844208D10121202000F009FB002161
:10048000202000F005FB22E0B848844208D1012179
:10049000402000F0FDFA0021402000F0F9FA16E0BB
:1004A000B348844208D10121802000F0F1FA0021F4
:1004B000802000F0EDFA0AE0AE48844207D1012125
:1004C000801500F0E5FA0021A01500F0E1FA10BD5A
:1004D00010B50121084600F0DBFA0021012000F0F0
:1004E000D7FA10BD2DE9F041024600250026002074
:1004F00000230024002791F803C00CF00F0591F8A9
:1005000003C00CF0100CBCF1000F03D091F802C036
:100510004CEA050591F800C0BCF1000F31D0146819
:1005200000202BE04FF0010C0CFA00F3B1F800C0F2
:100530000CEA03069E4220D183004FF00F0C0CFA08
:1005400003F7BC4305FA03FC4CEA040491F803C02A
:10055000BCF1280F06D14FF0010C0CFA00FCC2F8D8
:1005600014C00AE091F803C0BCF1480F05D14FF068
:10057000010C0CFA00FCC2F810C0401C0828D1D3B2
:100580001460B1F800C0BCF1FF0F34DD54680020E6
:100590002EE000F1080C4FF0010808FA0CF3B1F856
:1005A00000C00CEA03069E4221D183004FF00F0CDD
:1005B0000CFA03F7BC4305FA03FC4CEA040491F877
:1005C00003C0BCF1280F05D100F1080C08FA0CF8A3
:1005D000C2F8148091F803C0BCF1480F07D100F1B4
:1005E000080C4FF0010808FA0CF8C2F81080401C03
:1005F0000828CED35460BDE8F0814FF6FF7101802A
:10060000022181700421C170704702460020936866
:100610000B400BB1012000E00020704701468868C4
:1006200080B2704702460020D3680B400BB1012016
:1006300000E0002070470146C86880B27047016141
:100640007047416170470AB1016100E04161704744
:10065000C16070474FF480320A43826181618261D8
:1006600082698269704702460020434B18684FF642
:100670008073184040EA021008433F4B18607047EF
:100680003E49C8617047F0B50A46002300240021A6
:10069000002500F00046B6F1004F02D1364EF16958
:1006A00001E0354E7168C0F3034583B200F4401693
:1006B000B6F5401F08D121F070612F4E766826F004
:1006C00070662D4F7E6012E000F48016B6F5801F34
:1006D00006D1032606FA05F4A14341F0706106E055
:1006E000460D360103FA06F6B14341F0706122B1BE
:1006F000460D360103FA06F6314300F00046B6F126
:10070000004F02D11C4EF16101E01B4E7160F0BD43
:1007100030B500228B071C0F0F2303FA04F2164B8F
:1007200008338C1053F824309343134C08348D1045
:1007300044F8253023468C1053F824308C07240FBE
:1007400000FA04F423430C4C08348D1044F825308F
:1007500030BD0A49DC3108607047000000080140E4
:10076000000C01400010014000140140001801403D
:10077000001C014000200140000001400000204218
:10078000DF48006840F00100DD4908600846406825
:10079000DC490840DA49486008460068DA49084000
:1007A000D74908600846006820F4802008600846A1
:1007B000406820F4FE0048604FF41F0088607047D6
:1007C000CF49096821F48031CD4A1160114609688A
:1007D00021F480211160B0F5803F03D0B0F5802F67
:1007E0000ED106E0C649096841F48031C44A11605F
:1007F00007E0C349096841F4A021C14A116000E043
:1008000000BF00BF704710B5014600220023002042
:100810004A11012A02D1BA4C236806E0022A02D109
:10082000B74C236A01E0B64C636A01F01F02012451
:1008300094401C400CB1012000E0002010BD38B5F0
:10084000002000900024002500BF3120FFF7DBFFCF
:1008500005460098401C00900098B0F5A06F01D0AC
:10086000002DF2D03120FFF7CEFF08B1012400E0C7
:100870000024204638BD01460020A14A106820F01F
:10088000F80040EAC10010607047A0490860704756
:10089000024600209A4B586820F47C1042EA01037B
:1008A0001843974B5860704798490866704701464F
:1008B0000020934A506820F00300084350607047BE
:1008C0008F48406800F00C007047014600208C4AB9
:1008D000506820F0F0000843506070470146002047
:1008E000874A506820F4E060084350607047014632
:1008F0000020834A506820F4605040EAC1005060F4
:10090000704729B17E4A527A02437D4B5A7204E005
:100910007B4A527A82437A4B5A7270477B49D8316C
:100920000860704701460020754A506820F4404036
:100930000843506070470021714A20321170704A9C
:1009400082F82010012802D004280AD104E00121F5
:100950006B4A2032117005E00521694A203211707E
:1009600000E000BF00BF70476949086070476449F4
:10097000096A0143624A1162704765494439086057
:10098000704730B500210022002400235C4D6D68C3
:1009900005F00C0121B1042905D0082923D105E077
:1009A0005C4D056022E05B4D05601FE0544D6D68B5
:1009B00005F47012524D6D6805F48034022505EB84
:1009C00092421CB9544D554305600BE04C4D6D6887
:1009D00005F400351DB1504D5543056002E04D4D05
:1009E0005543056002E04B4D056000BF00BF444D1C
:1009F0006D6805F0F0010909484D6B5C0568DD4044
:100A000045603F4D6D6805F4E061090A434D6B5C3C
:100A10004568DD4085603A4D6D6805F46051C90A4E
:100A20003E4D6B5C4568DD40C560354D6D6805F435
:100A30004041890B3A4D6B5CC568B5FBF3F5056128
:100A400030BD29B12E4A526902432D4B5A6104E050
:100A50002B4A526982432A4B5A61704729B1284A6E
:100A600092690243264B9A6104E0254A92698243C7
:100A7000234B9A61704729B1214AD2690243204B26
:100A8000DA6104E01E4AD26982431D4BDA61704785
:100A900029B11B4AD2680243194BDA6004E0184AB4
:100AA000D2688243164BDA60704729B1144A126942
:100AB0000243134B1A6104E0114A12698243104B3E
:100AC0001A61704712494039086070470F49C8647D
:100AD00070470B49C87170470948406A40F0807000
:100AE00007494862704701460020054A92680A405B
:100AF0000AB1012000E00020704701498872704768
:100B0000001002400000FFF8FFFFF6FE0000424226
:100B10008004424200127A0000093D0014000020C7
:100B20002400002010B50446FB48844209D101216D
:100B30008803FFF7ADFF00214FF48040FFF7A8FFC7
:100B400032E0F648844209D101214804FFF7ADFFA5
:100B500000214FF40030FFF7A8FF25E0F048844261
:100B600009D101218804FFF7A0FF00214FF4802064
:100B7000FFF79BFF18E0EB48844209D10121C8042C
:100B8000FFF793FF00214FF40020FFF78EFF0BE0EB
:100B9000E548844208D101210805FFF786FF0021BE
:100BA0004FF48010FFF781FF10BD2DE9F04786B0AC
:100BB00005460E460024A24600BFA1460027B08984
:100BC00000B100BF2F462C8A4CF6FF700440F0881D
:100BD00004432C82AC894EF6F3100440B08831896E
:100BE0000843718908430443AC81AC8A4FF6FF4047
:100BF0000440B0890443AC8201A8FFF7C2FEC64896
:100C0000874202D1DDF810A001E0DDF80CA0A88930
:100C100000F4004040B10AEBCA0000EB0A10316852
:100C20004900B0FBF1F807E00AEBCA0000EB0A103C
:100C300031688900B0FBF1F86420B8FBF0F00401E2
:100C40002009642101FB1089A88900F4004040B10B
:100C5000322000EBC900B0FBF1F000F007000443C4
:100C600008E0322000EB09106421B0FBF1F000F045
:100C70000F0004432C8106B0BDE8F0874FF41651F5
:100C8000016000218180C18001810C21418100210E
:100C90008181704710B502460020108A4FF2FF0391
:100CA00018400B884C8823438C882343CC882343EB
:100CB0001843108210BD0021018041808180C180D5
:100CC000704721B1828942F40052828104E0828916
:100CD0004DF6FF731A4082817047F0B50346002439
:100CE00000260025002040F66A17B94200D100BF57
:100CF0001846C1F3421401F01F06012707FA06F552
:100D0000012C01D10C3004E0022C01D1103000E0A4
:100D100014301AB107682F43076002E00768AF4339
:100D20000760F0BD1AB1838A0B43838202E0838A95
:100D30008B4383827047028A4FF6F0731A40028217
:100D4000028A0A430282704782894FF2FF731A4077
:100D5000828182890A438281704721B1828942F06F
:100D60000202828104E082894FF6FD731A4082817B
:100D70007047028A4FF6DF731A400282028A0A43E2
:100D80000282704721B1028A42F48042028204E06A
:100D9000028A4BF6FF731A4002827047C1F30802C1
:100DA0008280704701468888C0F3080070478189B7
:100DB00041F0010181817047028BD2B20283028B24
:100DC00042EA012202837047028B02F47F420283CF
:100DD000028B0A430283704721B1828A42F02002CB
:100DE000828204E0828A4FF6DF731A408282704763
:100DF00021B1828A42F01002828204E0828A4FF698
:100E0000EF731A408282704721B1828A42F0080251
:100E1000828204E0828A4FF6F7731A40828270471A
:100E200021B1828942F40042828103E08289C2F3C7
:100E30000E028281704721B1828A42F4006282826E
:100E400004E0828A4FF2FF731A4082827047828ADE
:100E50004FF6FB731A408282828A0A43828270476D
:100E600021B1828A42F00202828204E0828A4FF635
:100E7000FD731A408282704702460020B1F5007F60
:100E800000D100BF13880B400BB1012000E000200F
:100E9000704701F40072B2F5007F00D100BFCA4371
:100EA0000280704770B50246002400230025002010
:100EB00040F66A16B14200D100BFC1F3421501F0FD
:100EC0001F03012606FA03F3012D02D19689334050
:100ED00006E0022D02D1168A334001E0968A3340A3
:100EE0000C12012606FA04F41688344013B10CB132
:100EF000012000E0002070BD10B50022002340F664
:100F00006A14A14200D100BF0A1201249440A3B286
:100F1000DC43048010BD0000003801400044004064
:100F200000480040004C0040005000400EB5CC206E
:100F30000290002400F06BF900F028FA00F09CFA0F
:100F40000A2000F006F900F0B5FA4DE00122002178
:100F500001A800F0DDFB9DF80400CC282BD123A0D4
:100F600000F0D2FE18224FF48071264800F0D0FB2A
:100F700018224FF40071244800F0CAFB002410E04E
:100F8000204951F8240000F00DFC05461E4850F899
:100F900024002A460B4600901CA000F0B5FE601C01
:100FA000C4B2062CECDB1CA000F0AEFE002000F06A
:100FB000D0FA00BFFEE721A000F0A6FE012200212A
:100FC00002A800F019FB18224FF48071204800F0AD
:100FD00013FB18224FF400711E4800F00DFB1EA0F9
:100FE00000F092FE00BFFEE7B0E700000D0AD3D08C
:100FF000CAFDBEDDA3ACBDF8D0D0B6C1C8A10D0AF4
:1010000000000000600000207800002025660D0A26
:1010100025640D0A00000000B6C1C8A1CDEAB3C91D
:10102000A3ACBDF8D0D0B2C1B3FD2CC7EBB8B4CEE1
:10103000BBD6D8D0C2D0B4C8EB0D0A00CEDECAFDF4
:10104000BEDD20BFAACABCD0B4C8EB0D0A000000A8
:101050002800002040000020D0B4C8EBCDEAB3C97E
:101060002CC7EBB8B4CEBBB6C1C8A10D0A000000B6
:10107000704700BFFEE700BFFEE700BFFEE700BF0E
:10108000FEE770477047704710B500F059F810BD83
:1010900010B540F225510648FFF704FF38B1044867
:1010A000FFF780FEC4B221460148FFF777FE10BD6E
:1010B0000038014030B50146B1F1807F01D30120F5
:1010C00030BD21F07F40401E4FF0E02250615017AC
:1010D0000F22002807DA13071D0E3E4B00F00F0405
:1010E000241F1D5503E013071C0E3B4B1C5400BF6F
:1010F00000204FF0E0229061072010610020DFE720
:1011000010B5364800684FF47A71B0FBF1F4204610
:10111000FFF7D0FF08B100BFFEE710BD01B53049B1
:10112000009808604FF0E020006940F001004FF0A7
:10113000E021086100BF2A4800680028FBD108BDF3
:101140002748006820B126480068401E24490860EE
:10115000704731B5214800682249B0FBF1F52846B7
:10116000FFF7A8FF002408E000BF4FF0E02000696F
:1011700000F480300028F8D0641C00988442F3D337
:101180004FF0E020006920F001004FF0E0210861FD
:1011900038BD31B5114800684FF47A71B0FBF1F5F4
:1011A0002846FFF787FF002408E000BF4FF0E0204B
:1011B000006900F480300028F8D0641C0098844254
:1011C000F3D34FF0E020006920F001004FF0E02160
:1011D000086138BD18ED00E000E400E000000020E8
:1011E0005800002040420F0008B54FF4A060FFF700
:1011F000ABF825208DF8000001208DF801008DF856
:1012000002008DF803006846FFF7A3F808BD00B59B
:1012100085B001210420FFF721FC01218803FFF79D
:101220001DFC4FF40070ADF8100018208DF813006D
:1012300003208DF8120004A95248FFF753F94FF428
:101240008060ADF8100004208DF8130004A94D480B
:10125000FFF748F94FF4E13000900020ADF80400AA
:10126000ADF80600ADF80800ADF80C000C20ADF8A4
:101270000A0069464448FFF798FCFFF7B5FF0122D2
:1012800040F225514048FFF728FD01213E48FFF775
:1012900018FD05B000BD70B504460D462946204630
:1012A000FFF77CFD00BF80212046FFF7E5FD002809
:1012B000F9D070BD2DE9F04107460D4616460024D1
:1012C00005E0295D3846FFF7E6FF601CC4B2B44272
:1012D000F7DB00BF40213846FFF7CEFD0028F9D0EC
:1012E000BDE8F08170B506460C46002500BF615D83
:1012F0003046FFF7D0FF6D1C605D0028F7D100BFBE
:1013000040213046FFF7B8FD0028F9D070BD2DE927
:10131000F04105460C46260AE7B231462846FFF75B
:101320003DFD00BF80212846FFF7A6FD0028F9D02B
:1013300039462846FFF732FD00BF80212846FFF7D7
:101340009BFD0028F9D0BDE8F08170B504460D463C
:10135000E1B20D48FFF722FD00BF80210A48FFF7E8
:101360008BFD0028F9D0204670BD10B5044600BFA3
:1013700020210548FFF780FD0028F9D00248FFF73B
:1013800011FD10BD000801400038014008B50121E1
:101390001420FFF763FB10208DF803000120ADF847
:1013A000000003208DF8020069463148FFF79AF8E3
:1013B00010208DF803002020ADF8000003208DF8E8
:1013C000020069462B48FFF78DF810208DF80300C6
:1013D0008020ADF8000003208DF802006946254802
:1013E000FFF780F804208DF803004020ADF80000DE
:1013F00069462048FFF776F801211D48FFF71FF9DD
:1014000020211C48FFF71BF980211A48FFF717F924
:1014100008BD70B50446002626E020211548FFF7D8
:1014200010F90A20FFF795FE04F0800020B180211A
:101430001048FFF704F903E080210E48FFF701F997
:101440006006040E20210B48FFF7F9F80A20FFF789
:1014500080FE6806050E40210648FFF7D6F808B161
:10146000681CC5B2701CC6B2082ED6DB284670BDFB
:10147000001001400008014010B50121B748FFF7F6
:10148000E0F8AB20FFF7C5FFFF20FFF7C2FFFF200A
:10149000FFF7BFFFFF20FFF7BCFFFF20FFF7B9FFFB
:1014A00004460121AD48FFF7CAF82146ACA000F080
:1014B0002BFC10BD2DE9F0410121A848FFF7C1F830
:1014C0009F20FFF7A6FFFF20FFF7A3FF0546FF20A1
:1014D000FFF79FFF0646FF20FFF79BFF074601210E
:1014E0009E48FFF7ACF8280440EA062040EA0704CB
:1014F00000BF9F488442FCD19EA000F005FCBDE8DF
:10150000F08110B501219548FFF79BF80620FFF701
:1015100080FF01219148FFF792F810BD10B500241B
:1015200001218E48FFF78DF80520FFF772FFFF209D
:10153000FFF76FFF044603E0FF20FFF76AFF044652
:1015400004F001000028F7D101218448FFF777F863
:1015500010BD10B50446FFF7D4FFFFF7DFFF0121F0
:101560007E48FFF76EF82020FFF753FFC4F30740D3
:10157000FFF74FFFC4F30720FFF74BFFE0B2FFF781
:1015800048FF01217548FFF75AF8FFF7C7FF7DA014
:1015900000F0BAFB10BD70B505460C461646FFF7C5
:1015A000B0FF01216D48FFF74CF80220FFF731FF33
:1015B000C4F30740FFF72DFFC4F30720FFF729FF0F
:1015C000E0B2FFF726FFB6F5807F04DD4FF48076AA
:1015D0006FA000F099FB03E02878FFF71AFF6D1C5D
:1015E000301EA6F101018EB2F6D101215B48FFF752
:1015F00026F8FFF793FF70BD2DE9F05F07460E4612
:1016000014464FF0000AD046C1460025AB4606F00E
:10161000FF0ACAF10000C5B22046E11704EB1161D0
:10162000C1F30729E11704EB11610912A4EB0121B1
:1016300001F0FF08BAF1000F20D1B9F1000F05D178
:10164000224631463846FFF7A6FF5FE009E04FF437
:10165000807231463846FFF79EFF06F5807607F523
:101660008077B9F10000A9F1010101F0FF09EED185
:10167000424631463846FFF78EFF47E0B9F1000F8A
:1016800018D1A84510DDA8EB050000F0FF0B2A4695
:1016900031463846FFF77FFF2E442F445A463146E5
:1016A0003846FFF778FF31E0224631463846FFF7EB
:1016B00072FF2BE0601B84B22046E11704EB11613E
:1016C000C1F30729E11704EB11610912A4EB012111
:1016D00001F0FF082E442F4409E04FF48072314698
:1016E0003846FFF758FF06F5807607F58077B9F1A1
:1016F0000000A9F1010101F0FF09EED1B8F1000FDE
:1017000004D0424631463846FFF745FFBDE8F09F1A
:1017100070B505460C46164601211048FEF791FFAC
:101720000320FFF776FEC4F30740FFF772FEC4F311
:101730000720FFF76EFEE0B2FFF76BFE04E0FF202C
:10174000FFF767FE28706D1C301EA6F101018EB2F6
:10175000F5D101210148FEF772FF70BD0010014074
:101760004465766963655F4944A3BA25780D0A002C
:101770001740EF00BCECB2E2B5BD573235513634FC
:101780000D0A0000B2C1B3FDCDEAB1CF0D0A0000D1
:10179000B3ACB3F6D2B3D0B4D7EEB4F3B7B6CEA7EA
:1017A0000D0A000000F0004230F000400AD0C10DE8
:1017B00001F56071C0F3160042EA0151C20840070A
:1017C0001143704700200146704730B50B46014673
:1017D00000202022012409E021FA02F59D4205D3D0
:1017E00003FA02F5491B04FA02F52844151EA2F17A
:1017F0000102F1DC30BD2DE9F05F05460020924684
:101800009B4688460646814640241BE028464146C2
:101810004746224600F0F9F953465A46C01A91410C
:1018200010D311461846224600F0E0F92D1A67EB56
:1018300001084F4622460120002100F0D7F917EB9E
:1018400000094E41201EA4F10104DFDC4846314668
:101850002A464346BDE8F09F2DE9FE4F804681EAC7
:101860000300C00F0C46009021F0004123F000451A
:10187000B8EB0200A94105D24046214690461C46DD
:101880000B46024623F00040104347D0270DC7F314
:101890000A00C3F30A510290401A019040286BDA03
:1018A000C3F3130040F4801B0098924620B100233C
:1018B000D2EB030A63EB0B0B01985946C0F14002CF
:1018C000504600F093F906460D4650465946019A97
:1018D00000F0ABF910EB08006141002487EA1152D7
:1018E00084EAE7731A4340D0009A62B3019A012A4E
:1018F0004FEA075215DC001B61EB02014FF000427A
:1019000002EA0752CDE90042001C41F5801132463F
:101910002B4600F0ABF903B0BDE8F08F40462146FE
:10192000F9E7001B61EB0201001C41F58013001870
:101930005B412018A2F5001747EB030140EAD57080
:10194000B6196D4111E06D084FEA360645EAC075DB
:101950004FEA0752001B61EB0201001C41F58011A8
:1019600049084FEA30000019514132462B4603B076
:10197000BDE8F04F00F06BB9009801224000002351
:10198000D0EB020263EBE073009821464FEAE0746B
:10199000B8EB000061EB0401E9E783F000435BE78B
:1019A00081F0004158E72DE9FE4F81EA030404F07D
:1019B000004421F0004100944FF0000B23F000435D
:1019C00050EA01045ED052EA03045BD0C3F30A5428
:1019D000C1F30A552C44A4F2F3340194A0FB025441
:1019E000C1F3130141F48011C3F3130343F48013D3
:1019F00001FB024400FB034E840A970A44EA815427
:101A000047EA8357A4FB076802958D0A05FB078503
:101A10004FEA932C04FB0C542705029D4FEA06580D
:101A200047EA1637B5EB08056EEB070C870E920EEA
:101A300047EA811742EA8312A7FB0201B6EB0B01CA
:101A400064EB00042B0D43EA0C335E1844EB1C508E
:101A5000DA465146E7FB0201C5F313044FEA0B33A4
:101A600043EA14534FEA0432019C43EA0603A4F10B
:101A70000C040294009CCDE900B400F0F7F803B028
:101A8000BDE8F08F00200146F9E72DE9F04D81EA2D
:101A9000030404F0004B21F0004514464FF0000A07
:101AA00023F0004150EA050220D054EA01021DD083
:101AB000C5F30A570246C5F31303C1F31300C1F37C
:101AC0000A5640F4801543F48013A7EB0608101B58
:101AD000D64608F2FD3873EB050002D308F1010881
:101AE00001E092185B41B8F1000F03DA00200146D3
:101AF000BDE8F08D00204FF48011064684460EE0CC
:101B0000171B73EB050705D3121B63EB0503064395
:101B10004CEA010C49084FEA300092185B4150EA48
:101B20000107EDD152EA030012D082EA040083EAF1
:101B30000501084305D0101BAB4106D2012200234A
:101B400006E000224FF0004302E06FF00102531064
:101B50001AEB06004CEB085110EB0A0041EB0B01AD
:101B6000BDE8F04D00F073B8C1F30A52C1F31301A0
:101B700040F2FF3341F480119A4202DA002001461C
:101B8000704740F233439A42A2F2334202DC52429F
:101B900000F03BB800F02AB830B5041E71F1000423
:101BA00004DB4FF00044404264EB0101141E73F16A
:101BB000000405DB1C464FF00043524263EB040374
:101BC000994208BF904230BD064C074D06E0E068E0
:101BD00040F0010394E8070098471034AC42F6D374
:101BE000FEF7AAFADC250008FC250008202A04DB01
:101BF000203A00FA02F1002070479140C2F1200320
:101C000020FA03F3194390407047202A04DB203A5E
:101C100021FA02F00021704721FA02F3D040C2F10C
:101C200020029140084319467047202A06DBCB1753
:101C3000203A41FA02F043EAE07306E041FA02F387
:101C4000D040C2F12002914008431946704710B5B8
:101C5000141E73F1000408DA401C41F100019218CF
:101C60005B411A4301D120F0010010BD2DE9F04D78
:101C700092469B4611B1B1FA81F202E0B0FA80F2CD
:101C800020329046FFF7B2FF04460F4640EA0A00B2
:101C900041EA0B0153465A46084313D0114653EA12
:101CA000010019D0C8F140025046FFF7AEFF0546CB
:101CB0000E46504659464246FFF798FF084305D066
:101CC000012004E020463946BDE8F08D00200543A0
:101CD00046EAE0762C4337430A986305E40AA0EB12
:101CE00008000022FD0A44EA47540A3002D50020C9
:101CF0000146E9E7010510196941DDE908450019C8
:101D00006941BDE8F04DA2E70FB4054B10B503A93A
:101D1000044A029800F0CAF810BC5DF814FB0000F9
:101D20004B1300085C00002002E008C8121F08C125
:101D3000002AFAD170477047002001E001C1121F4C
:101D4000002AFBD1704700002DE9FF5FDDE902208A
:101D5000010DDDF838B0024318D044F61050A1F25E
:101D6000FF3141430D140F98012820D0A5EB0B0043
:101D7000401C5FEA000A4FF00004474EDFF81C9158
:101D8000A046504616D5CAF1000728E00F98012456
:101D900043A2012808D0002100980F9BC0E9002130
:101DA000C0E90243BDE8FF9F6FEA0B01F4E7CBF106
:101DB0000000DEE7074612E0F80707D02246334668
:101DC00040464946FFF7EFFD8046894622463346A6
:101DD00010461946FFF7E7FD04460E467F10002F18
:101DE000EAD1DDE90201BAF1000F42464B4602DAC0
:101DF000FFF7D9FD01E0FFF748FE04460E4600223A
:101E0000284BFFF7C9FE03D84FF0FF30014607E02B
:101E10000022254B20463146FFF71EFDFFF7A4FEAA
:101E2000102409E0002C0ADB0A220023FFF7E3FC60
:101E3000019B30321A55641E50EA0102F2D1641C33
:101E4000019AC4F1110314440F9A012A03D001220C
:101E500008430DD10AE0084304D000204FF0110BD5
:101E60000F9080E7A3EB0B056D1E0DE05B4504DDD5
:101E70004FF0000205F1010504E003DA4FF0000223
:101E8000A5F10105002AECD000980F99C0E90231B4
:101E9000C0E9004586E70000000024400000F03F54
:101EA000300000000000F0430000E03F2DE9FF4F4C
:101EB00095B09B468946064600250FE2252877D136
:101EC00000242746F84A0121059400E0044316F84F
:101ED000013F203B01FA03F01042F7D130782A2865
:101EE00011D06FF02F033078A0F13002092A16D8F4
:101EF000059A44F0020402EB820203EB4202104412
:101F0000761C0590EFE759F8042B0592002A03DAB6
:101F1000504244F40054059044F00204761C30789A
:101F20002E2816D116F8010F44F004042A280DD0EB
:101F30006FF02F023078A0F13003092B09D807EB9E
:101F4000870302EB4303C718761CF3E759F8047BB9
:101F5000761C30786C280FD006DC4C2817D0682807
:101F60000DD06A2814D104E0742810D07A280FD13B
:101F70000DE044F400140AE044F4801401E044F459
:101F800040147278824202D104F58014761C761CCB
:101F9000307866280BD013DC582877D009DC00286D
:101FA00075D04528F6D04628F4D047281AD19DE1AF
:101FB00018E0632835D0642879D0652812D195E1DE
:101FC000702873D008DC6728F1D069286FD06E289C
:101FD0000DD06F2806D1B5E073282CD0752875D0A8
:101FE000782874D05A46179990476D1C75E1C4F350
:101FF0000250022809D003280DD0D9F80010042877
:102000000DD00D6009F1040967E1D9F80010EA1755
:10201000C1E90052F6E7D9F800100D80F2E70D7023
:10202000F0E719F8041B8DF8001000208DF801006E
:10203000EA46012003E059F804AB4FF0FF30610796
:102040004FF0000102D40DE008F101018846B942C9
:102050000FDA8045F8DB1AF808100029F4D108E0FF
:1020600008F1010188468142FADB1AF808100029BC
:10207000F6D105985B46A0EB080721463846179A2B
:1020800000F094FA284400EB080507E04DE029E150
:102090000DE01AF8010B5A4617999047B8F101085C
:1020A000F7D25B4621463846179A13E142E00A22EE
:1020B0000092C4F302524FF0000A022A08D059F8E5
:1020C00004CB032A4FEAEC710AD00DE029E02AE0A4
:1020D00009F1070121F00702F2E802C1914609E087
:1020E0000FFA8CFC4FEAEC71042A03D14FFA8CFCF6
:1020F0004FEAEC71002907DA0A460021DCF1000CF6
:1021000061EB02012D2202E0220504D52B228DF87D
:102110000420012203E0E20701D02022F7E79046E5
:1021200059E00A2102E010220DE010214FF0000AD0
:1021300000910BE010224FF0000A44F0040408273D
:10214000009203E008224FF0000A0092C4F302520A
:10215000022A05D059F804CB0021032A08D009E04F
:1021600009F1070121F00702F2E802C1914605E0FA
:102170001FFA8CFC042A01D10CF0FF0C4FF0000870
:10218000220728D5702806D0009B83F0100353EA5D
:102190000A0305D00EE040228DF80420012208E059
:1021A0005CEA010206D030228DF804208DF805008B
:1021B00002229046009B83F0080353EA0A030AD1E7
:1021C0005CEA010201D1620705D530228DF80420B6
:1021D0004FF001087F1E582804D034A003900EA8A9
:1021E00002900DE036A0F9E753466046009AFFF7EB
:1021F00002FB84460398825C0298401E02900270A3
:102200005CEA0100F0D1029806A9081A00F1200A40
:10221000600702D524F4803400E00127574502DD31
:10222000A7EB0A0000E0002000EB0A0100900598EF
:102230004144401A0590E00306D45B462146179AB4
:10224000059800F0B3F90544002706E001A85A46B6
:10225000C05D179990476D1C7F1C4745F6DBE00376
:102260000CD55B462146179A059800F09FF9054466
:1022700004E030205A46179990476D1C0099481E7B
:1022800000900029F5DC08E0029802995A4600788F
:10229000491C0291179990476D1CBAF10001AAF1EF
:1022A000010AF1DC65E10000092801003031323318
:1022B0003435363738396162636465660000000082
:1022C000303132333435363738394142434445466C
:1022D0000000000000F058F90544761C3078002812
:1022E0007FF4ECAD19B02846BDE8F08F620700D44A
:1022F000062709F1070222F0070CFCE80223E14659
:1023000003F000485FEA080C02D00FF2702C0DE0D9
:102310005FEA045C02D50FF2682C07E05FEAC47C38
:1023200002D00FF2602C01E0AFF2700C4FF0FF38DA
:1023300023F00043CDF850C065280CD006DC4528BA
:1023400009D046281DD047283DD13DE0662818D049
:1023500067287ED138E00021112F01DB112000E039
:10236000781CCDE9000106A90EA8FFF7EDFCDDE918
:102370000F010E9A03910021009207F1010A0491C6
:102380004DE04FF000400097CDE9011006A90EA8DE
:10239000FFF7DAFCDDE90F0203920E9B1199002290
:1023A000DDF80CA00093049211B9791C00EB010A2E
:1023B000B7EB0A0004D4C0F1FF3007F1010A049022
:1023C000AAEB0700019044E0012F00DA0127002169
:1023D000112F01DD112000E03846CDE9000106A9EA
:1023E0000EA8FFF7B1FCDDE90F010E9A0391002161
:1023F00004910092BA4621070CD40399514500DAA2
:102400008A46BAF1010F05DD009AAAF10101515C7B
:10241000302908D0B84202DA10F1040F06DA01219F
:10242000CDE9011015E0AAF10101E9E7002805DC7A
:10243000049901440491AAEB000102E0411C5145BA
:1024400000DD8A460499401A401C01904FF000407C
:102450000290200704D40198504501DBCDF8048098
:1024600000208DF84F0002980DF14F07B0F1004F9A
:1024700025D02B200E9002984FF0020800280CDA8D
:10248000404202902D200E9007E00A210298FFF7AB
:102490009CF93031029007F8011DB8F10001A8F154
:1024A0000108F2DC02980028EFD1791E0E9808701E
:1024B000307800F0200040F0450007F8020D12A827
:1024C000C01B00F107081498007800B1012000EB50
:1024D0000A01019801EBE07105984144401A401E41
:1024E0000590E00306D45B462146179A059800F054
:1024F0005DF805441498007818B15A46179990472A
:102500006D1CE00324D55B462146179A059800F020
:102510004DF805441CE00498002807DBDDE90301C1
:10252000884203DD0098405C179901E0179930203C
:102530005A469047049805F10105401C0490019803
:10254000401E019004D12E205A46179990476D1CC9
:10255000BAF10001AAF1010ADDDC05E017F8010B70
:102560005A46179990476D1CB8F10001A8F101086F
:10257000F4DC5B462146179A0598ABE62D00000077
:102580002B000000200000002DE9F041044600254A
:102590001E461746880404D405E039462020B0477B
:1025A0006D1C641EF9D52846BDE8F0812DE9F04187
:1025B000044600251E469046C80301D5302700E09A
:1025C0002027880404D505E041463846B0476D1CF5
:1025D000641EF9D52846BDE8F0810000FC250008FE
:1025E0000000002060000000281D00085C26000894
:1025F0006000002030040000381D000800A24A04DA
:1026000000000000000000000102030406070809A2
:102610000000000001020304010203040607080988
:1026200002040608AE47E13D295C8F3F52B80E40D8
:102630008FC2554066668E409A99B14001000000F5
:10264000020000000300000004000000050000007C
:0C26500006000000000000000000000078
:0400000508000131BD
:00000001FF
