:020000040800F2
:10000000480D0020790200080F2E00086128000822
:10001000512D00081B1D0008413E00080000000093
:100020000000000000000000000000003530000863
:10003000E1200008000000001D2F000875310008B5
:10004000930200089302000893020008930200083C
:10005000930200089302000893020008930200082C
:10006000930200089302000893020008930200081C
:10007000930200089302000893020008930200080C
:1000800093020008930200089302000893020008FC
:10009000930200089302000893020008E52000087C
:1000A00093020008930200089302000893020008DC
:1000B0007D320008930200089302000893020008B2
:1000C00093020008930200089302000893020008BC
:1000D00093020008A534000841360008D93600080C
:1000E000930200089302000893020008930200089C
:1000F000930200089302000893020008930200088C
:10010000930200089302000893020008930200087B
:10011000930200089302000893020008930200086B
:10012000930200089302000893020008930200085B
:1001300000F002F800F090F80AA090E8000C824469
:100140008344AAF10107DA4501D100F085F8AFF246
:10015000090EBAE80F0013F0010F18BFFB1A43F0A5
:10016000010318470083000020830000103A24BFD9
:1001700078C878C1FAD8520724BF30C830C144BF0C
:1001800004680C607047000000230024002500264E
:10019000103A28BF78C1FBD8520728BF30C148BFEA
:1001A0000B6070476E2900F08983702900F011827E
:1001B000662907F09A81652907F09781672907F07A
:1001C0009481612907F0938103681B0A28BF41F0DD
:1001D0008001692900F08281642900F07F817529FE
:1001E00000F07C816F2900F09786782900F0DD818E
:1001F000E92900F03186E42900F02E86F52900F087
:100200002B86EF2900F09486F82900F0DC81036842
:10021000DB0928BF41F08001632900F0A085732924
:1002200000F0A585E32901F0A380F32901F0A8805F
:10023000002070471FB500F085FE0400002000215B
:1002400006F02AF9401C60600020002106F00EF93B
:10025000E0601FBD10B510BD01F02CF91146FFF78D
:10026000E9FF05F09AF801F053F903B4FFF7F2FF44
:1002700003BC03F06AFE00000948804709480047B4
:10028000FEE7FEE7FEE7FEE7FEE7FEE7FEE7FEE746
:10029000FEE7FEE704480549054A064B70470000A3
:1002A0008D3100083101000848070020480D00206A
:1002B0004809002048090020704753EA020C00F06A
:1002C00069802DE9F04B4FF00006002B1FBFB3FAF9
:1002D00083F503FA05F424FA05F65E4012BF1643CF
:1002E000B2FA82F502FA05F4C5F120051EBF22FA22
:1002F00005FC44EA0C04203556EA044C4FEA144449
:1003000018BF641C4FF000084FF00009904271EBD9
:10031000030C39D3002919BFB1FA81F701FA07F6A6
:10032000B0FA80F700FA07F6C7F120071EBF20FADF
:1003300007FC46EA0C062037B6FBF4FCA7EB0507E2
:10034000103F07F01F0BCBF120060CFA0BFB2CFA29
:1003500006F644BFB3460026202FA4BF5E464FF0EA
:10036000000B5BEA060C08BF4FF0010B19EB0B0901
:10037000ABFB027C48EB0608C01B06FB02CC0BFB68
:1003800003CC71EB0C01C1E70B46024641464846DF
:10039000BDE8F08B13B54FF000004FF00001AFF354
:1003A0000080BDE81C40704710B54C1084EA53042F
:1003B00004D54042C1F1000138BF491E1B4204D59B
:1003C0005242C3F1000338BF5B1EFFF776FF14F003
:1003D000804F04D04042C1F1000138BF491E14F0E3
:1003E000004F04D05242C3F1000338BF5B1E10BD62
:1003F0007CB51D4616460C00009001D02044401EDE
:10040000074B7B442A4669460190304600F07DFC4C
:1004100005461CB10020694600F08AFC28467CBDD8
:10042000350900000FB4044910B503AA029800F082
:10043000A3FC10BC5DF814FB0000002070B504465E
:1004400085690068C10601D5302600E02026C00776
:1004500007D070BDD4E9012130469047206A401C86
:1004600020626D1EF6D570BD70B5044685690078B2
:10047000C00707D170BDD4E9012120209047206A30
:10048000401C20626D1EF6D570BD70B50C46054649
:10049000012A05D02878800600D5EA69002302E009
:1004A000012305E05B1C934202D2E05C0028F9D1F5
:1004B000A869E618C01AA861286A18442862284664
:1004C000FFF7BCFF04E0D5E9012114F8010B9047C8
:1004D000B442F8D32846FFF7C7FF70BD2DE9F041BD
:1004E0000646002410687529314616A510D000F084
:1004F0007AF9002802DA404213A507E031688A073A
:1005000001D512A502E0490704D511A5012401E097
:1005100000F072F900210A2206F1240709E0B0FB7D
:10052000F2FCB0FBF2F302FB1C00303078541846AA
:10053000491C0028F3D123462A463046BDE8F04145
:1005400000F063B9000000002D0000002B00000047
:1005500020000000F0B40D460188090502D5214CA9
:100560007C4402E01F4C7C440E34002100F1240640
:1005700008E002F00F071209E75D42EA03721B0967
:100580007754491C52EA0307F3D10278002312077B
:1005900004D5702D06D009B1022311342246F0BCD7
:1005A00000F033B901231034F8E770B504460D4666
:1005B0002146106800F020F9024629462046BDE891
:1005C00070400023C6E7D21D22F00703D3E90023C1
:1005D000C0E70368126843F0200303600823C36187
:1005E0000023B7E7127D00002DE9F05F894604463D
:1005F0004FF0000ADFF874B1FB44C0F820A0204699
:10060000E1688847002874D0252806D0D4E9012164
:100610009047206A401C2062F1E700265F46204692
:10062000E16888472028054607DB312D05D2781977
:1006300010F8200C08B10643F1E7B00701D526F009
:100640000406C4F81CA00027C4F818A02A2D09D05D
:10065000284603F073FC38B304EB8708303DC8F834
:10066000185019E059F8041B204604EB87029161E9
:10067000E1688847012F054618D1E069002820DA93
:1006800026F020061DE0D8F8180000EB800005EBEE
:1006900040003038C8F818002046E1688847054611
:1006A00003F04CFC0028EED1012F0AD02E2D08D1EA
:1006B0002046E16888477F1C0546022F46F0200649
:1006C000C4DBA069002803DA404246F00106A061BD
:1006D000F00701D026F010066C2D0BD0682D09D044
:1006E0004C2D39D06A2D35D0742D35D07A2D33D09C
:1006F00016E038E0E1682F4620468847B8420546B4
:1007000009D16C2F26D04FF48060E1680643204663
:100710008847054604E06C2F1AD04FF480700643DA
:100720000DB3A5F14100192802D8203546F4006622
:100730004A462946204626604E46FFF733FD80B1E3
:1007400001280BD0F61D26F0070000F1080956E736
:100750004020E4E78020D8E70020D6E706F104092E
:100760004DE7284652E7206ABDE8F09FA27C0000D2
:1007700040EA010310B59B070FD1042A0DD310C81E
:1007800008C9121F9C42F8D020BA19BA884201D970
:10079000012010BD4FF0FF3010BD1AB1D30703D0B8
:1007A000521C07E0002010BD10F8013B11F8014B6E
:1007B0001B1B07D110F8013B11F8014B1B1B01D18A
:1007C000921EF1D1184610BD7047704770477047B0
:1007D00010B500F0BBFB006810BD10B5044600F07A
:1007E000B5FB046010BD09684A0501D540B27047E9
:1007F000C905FCD500B2704709684A0501D5C0B2E9
:100800007047C905FCD580B270472DE9F0470D4609
:1008100099469246044600F124080168880604D5EA
:10082000E06921F01001216000E00120A84201DD13
:10083000471B00E00027A1697A1902EB0900081A9A
:10084000A0612078C00602D42046FFF7F7FD0026FD
:1008500008E0D4E901211AF806009047206A401CFC
:10086000761C20624E45F4DB2078C0060AD520466F
:10087000FFF7E4FD06E0D4E9012130209047206A2B
:10088000401C2062381EA7F10107F4DC07E0D4E920
:10089000012118F805009047206A401C2062281E9C
:1008A000A5F10105F3DC2046FFF7DEFD2078000608
:1008B00002D50220BDE8F0870120FBE7116802683D
:1008C000006A530501D508700AE0D30501D50880F8
:1008D00006E0130603D5C217C1E9000200E0086074
:1008E0000120704770472DE9FF4F0C461E464FF020
:1008F000FF378BB0D2E90001DDF860800A908A46AC
:10090000C1F30A5505B93D46002108464FF00000E5
:10091000BAF1000F00F4400005DA00EB80004FF45C
:10092000400101EA50004FEA9059B9F1010F00DD92
:10093000B9460A9850EA4A000ED044F61050A5F283
:10094000FF3545432F14B8F1000F1ED07542291E04
:100950001EDDC9F100021CE0B8F1010F4FF00000EC
:1009600001D0302103E0F24305E02154401CB042A5
:10097000FBDB30460022002121540B99C1F808808E
:10098000C1E900200FB0BDE8F08FBD1B6D1CDEE794
:100990004A4600DA694206A800F0F6FC06AB93E886
:1009A000070003AB83E8070050460A9900F0FAFD00
:1009B0008DE80700A0F500501F3800900398002D27
:1009C00009DD42F21F014A46084403A90390684624
:1009D00001F059F808E0A0F500504A461F3803A975
:1009E0000390684601F063F88DE807000004000CEE
:1009F00003D04FF0FF30410800E01046B8F1000F7F
:100A000003D00022009215461EE0751E05D400F0AA
:100A1000A1FA303262556D1EF9D5B3460122084362
:100A200002D000227F1C04E02078302801D100226F
:100A30007F1E002A099786D01DE0112D07DA00F0ED
:100A400089FA303262556D1C50EA0102F5D1084333
:100A500002D00098C8B10EE00021681E05E0235CBA
:100A6000625C63542254401E491C8142F7DBAB4652
:100A7000A81B401E0990002004F80B000B98099A4F
:100A8000C0F80880C0E9002B7CE711264FF0000871
:100A900059E72DE9F04F88460446D21D22F00701A0
:100AA00091B0D1E90001CDE90A0103F0CAF902468B
:100AB0000B98C00F01D02D2007E02068810701D5D9
:100AC0002B2002E0202101EAC000032A099001D076
:100AD000072A05DB03464146204600F0FFFB0BE1F9
:100AE0002078800601D5E06900E00620B8F1650FA6
:100AF000814606D0B8F1660F18D0B8F1670F70D1F3
:100B000031E00020B9F1110F009001DB112301E069
:100B100009F101030AAA01A90CA8FFF7E4FEDDE927
:100B20000C70002609F10105834647E001204B4681
:100B300000904FF000470AAA01A90CA8FFF7D3FEC6
:100B4000DDE90DB00C995D46002610B909F10100F0
:100B50000D18B9EB050003D4C0F1FF3609F101050A
:100B6000A5EB09002BE0B9F1010F01DA4FF0010903
:100B70000020B9F1110F0090484601DD112300E07B
:100B800003460AAA01A90CA8FFF7ADFEDDE90C7027
:100B90004D4600268346207800070AD4AB4500DA8C
:100BA0005D4601A8012D04DD411911F8011C302911
:100BB00007D04F4502DA17F1040F04DA012082460C
:100BC0000FE06D1EEEE7002F02DCED1B3E4403E05C
:100BD000781CA84200DD7D1CB81B00F1010A4FF013
:100BE00000472078000703D4AA4501DB4FF0FF3A05
:100BF0000021B7F1004F0DF143088DF8431024D0C8
:100C000002202B23002F01DA7F422D230A21021E0E
:100C1000A0F1010000DC5FB197FBF1FC97FBF1F262
:100C200001FB1C7C17460CF1300C08F801CDEEE7F7
:100C3000A8F1010003702188090501D5452100E0D4
:100C40006521A0F1010800F8011C09980FA9A1EB8A
:100C50000807FF1D00B10120411901EBEA70A169ED
:100C60003844081A401EA0612078C00602D42046ED
:100C7000FFF7E4FB099828B1D4E901219047206AE5
:100C8000401C20622078C00622D52046FFF7D6FB04
:100C90001EE0002E04DBB34502DD01A8805D00E00C
:100CA0003020D4E901219047206A401C2062761C44
:100CB000AAF101005FEA000A0AD100F043F9C06816
:100CC0000168405CD4E901219047206A401C206201
:100CD000281EA5F10105DCDC07E0D4E9012118F8A4
:100CE000010B9047206A401C2062381EA7F10107C3
:100CF000F3DC2046FFF7B8FB032011B043E6000009
:100D000001694A1C02610878704700B58FB0CDE9CF
:100D100001310021059105497944CDE903101146BF
:100D20006846FFF761FC0FB000BD0000E5FFFFFF64
:100D30000A6802F8010B0A607047D1E900239A4261
:100D400002D2531C0B601070704710B5436913B189
:100D5000AFF3008001E0FFF798FB012010BD12788F
:100D600000F124010A7000224A700122EDE71168A7
:100D70004FF0FF32E9E70000074B70B50D467B44AA
:100D8000FFF7C3FF0446284600F06CFB10B14FF09C
:100D9000FF3070BD204670BD1B4200002DE9FF5F93
:100DA00015468A460446DFF8AC80F8440027D8E9A7
:100DB00000103E46CDE9001010E03AF816106A46E1
:100DC00002A800F053FB411C07D02178890603D507
:100DD000E269391891420DD80744761C20788006C4
:100DE00002D5E069B84205DDAE42E6DB3AF816000E
:100DF0000028E2D1A069C01BA0612046FFF71EFBBE
:100E0000D8E90010CDE90010002017E03AF81810DA
:100E10006A4602A800F02AFBB0F1FF3F81460BD0E2
:100E200000250DF1080B05E0D4E901211BF80500B0
:100E300090476D1C4D45F7D308F10100B042804644
:100E4000E4DB206A384420622046FFF70DFBBDE852
:100E5000FF9F0000527500002DE9F0418046D21D31
:100E600022F007020025D2E90002F52915A614D0C8
:100E7000011E72F1000106DA0023D0EB030063EBE0
:100E8000020211A608E0D8F800108B0701D50FA6C2
:100E900002E0490701D50EA601251146002408F1FC
:100EA000240704E000F056F830323A55641C50EA4A
:100EB0000102F7D12B46324621464046BDE8F041BB
:100EC000FFF7A3BC000000002D0000002B00000075
:100ED0002000000030B4002100F1240408E002F0FA
:100EE0000705D208303542EA4372DB086554491CD5
:100EF00052EA0305F3D10468002310A2250708D5A0
:100F000004F020040C4304D0C46901230CA2641E25
:100F1000C46130BCFFF779BC10B5044621461068A7
:100F2000FFF76AFC02462046BDE810400023D1E7E7
:100F3000D21D22F00701D1E90023CBE70000000019
:100F40003000000000487047040700200048704748
:100F5000E406002030B5B0F10A024FEA900E71F1BC
:100F600000034EEA817EB0EB0E0061EB91014FEA87
:100F7000101E4EEA017E10EB0E0041EB11114FEAFC
:100F8000102E4EEA016E10EB0E0041EB11214FEADC
:100F9000104E4EEA014E10EB0E0041EB114140188D
:100FA00041F100014FEAD00040EA41704FEAD1011F
:100FB00010EB80054FEA810444EA907444EB01048D
:100FC0006D1944EB0404521BA3414FF0000348BFCA
:100FD0000A3200D530BD401C41F1000130BD000097
:100FE0002DE9F04F04460D46D21D22F0070089B0CE
:100FF000D0E9009248461746394602F022FF0246E1
:10100000F80F01D02D2307E02068810701D52B239D
:1010100002E0202101EAC0038DF820300BB101204D
:1010200000E00020032A824601D0072A04DB29467B
:10103000204600F053F93DE12078800601D40D25CB
:1010400000E0E569C7F30A560D2D49DA00214FEAA1
:10105000175B08464FF00000002F00F4400007DA4D
:1010600000EB80004FF4400100EBD07001EA60001B
:101070008115012901DD4FF0FF3100224FEA850C77
:10108000BCF1180F06D31346ACF118004FF0805294
:10109000C24003E04FF4801323FA0CF30CF10C0C64
:1010A000BCF1200F04D3ACF1200C09FA0CF001E0E4
:1010B00007FA0CF000294FF0004801DD18B90FE0E5
:1010C0000ED140450CD319EB02095F4121B94045CF
:1010D00002D19F4329EA0209BBEB175F00D0761CBF
:1010E0002088000502D57B48784402E0794878449E
:1010F000193808AA302302F80A30037C0AF10101EA
:10110000002E0AF1020A53546A4602DC4FF0300105
:1011100001E04FF031014FF001088DF8001002D0CE
:10112000A6F2FF3603E059EA470100D06A4E002DCF
:1011300002DC2178090704D54FF002082E218DF832
:101140000110C44600210BE0C7F303433F01C35C19
:10115000491C6D1E02F80830052908F1010801DA62
:10116000002DF1DC00210CE000EB1973491C1B7809
:101170006D1E082902F808304FEA091908F1010824
:1011800001DA002DF0DC2178890602D514E0A8F1FF
:101190000108E04505DD02EB080111F8011C3029CA
:1011A000F5D0B8F1000F07DD02EB080111F8011CC2
:1011B0002E2901D1A8F10108002D05DD3E2102F8FC
:1011C00008106D1E08F10108407C002E02F808008E
:1011D00008F1010804DA2D20764202F8080002E046
:1011E0002B2002F808000A214FF47A70864208F199
:1011F00001080BDB96FBF0F3303302F8083096FB66
:10120000F0F308F1010800FB136601E0642E0CDB2B
:10121000642096FBF0F3303302F8083096FBF0F3CD
:1012200008F1010800FB136601E00A2E06DB96FBBD
:10123000F1F0303002F8080008F1010896FBF1F0F7
:1012400001FB1060303002F80800A16908F10108C4
:1012500008EB050202EB0A00081AA0612078C0061C
:1012600002D42046FFF7EAF8216A08AE01EB0A0033
:10127000206204E0D4E9012116F8010B9047BAF18D
:10128000010AF7D22078C00602D52046FFF7D6F82B
:101290006E4609E016F8010B3E280FD0D4E9012173
:1012A0009047206A401C2062B8F10108F2D2204623
:1012B000FFF7DAF809B00320BDE8F08F206A284470
:1012C000206203E0D4E90121302090476D1EEBD36A
:1012D000F8E70000CF72000002FCFFFF2DE9F041AB
:1012E0001F46044603260168072A01F4006004DB58
:1012F00008B116A505E016A503E008B115A500E0A4
:1013000015A521F010002060A069C01EA0610FB1DA
:10131000401EA0612046FFF791F84FB1D4E90121AA
:1013200038469047206A401C2062C01C206206E0BC
:10133000206AFAE7D4E9012115F8010B9047761EDF
:10134000F8D22046FFF790F8BDE8F0814E414E00FC
:101350006E616E00494E4600696E660010B54369C5
:1013600013B1AFF3008001E0FFF718FD012010BDBD
:10137000128800F1240182840022C2840122EDE758
:1013800011684FF0FF32E9E72DE9F0478146164634
:101390008AB0334878440DC88DE80D003048784451
:1013A000801C03AC0DC884E80D0041F69B30084456
:1013B000372190FBF1F290FBF1F5A5F1800501FBDF
:1013C00012041B3C02D56442012000E00020DFF83B
:1013D00090A080460027FA44AAF1BE0A0DE0E0077B
:1013E00009D03246684607EB47010AEB810100F05D
:1013F0005EFB8DE8070064107F1C002CEFD1184FB6
:101400007F44AC3F18E0E80714D007EB04100DF15F
:10141000180A90E80E008AE80E00C068F04201D178
:1014200098190890324606A903A800F040FB03ABC8
:1014300083E807006D10641C002DE4D13246694634
:10144000B8F1000F03A802D000F01DFB01E000F08E
:101450002EFBC9E90001C9F808200AB0BDE8F087F1
:10146000B4700000007B00F08000704770B5164635
:101470000C46054600F044F8036893F80101012882
:1014800006D0FF2C0FD8185D68B101202C7070BDFC
:10149000D3F807013246214603F2071303442846D6
:1014A000BDE8704018474FF0FF3070BD00487047EE
:1014B000E40600207546FFF7F9FFAE4605006946D1
:1014C000534620F00700854618B020B5FEF7E2FE2F
:1014D000BDE820404FF000064FF000074FF0000835
:1014E0004FF0000B21F00701AC46ACE8C009ACE8B6
:1014F000C009ACE8C009ACE8C0098D4670470000DF
:1015000010B5FFF71FFD001D10BD00BF8D4F00007F
:1015100010B50446AFF300802046BDE81040FEF74A
:10152000A4BE00004FF0013C50F8042B51F8043BDE
:101530009A4221D1A2EB0C03934313EACC1317D1A7
:1015400050F8042B51F8043B9A4215D1A2EB0C033E
:10155000934313EACC130BD150F8042B51F8043BFE
:101560009A4209D1A2EB0C03934313EACC13DBD0CC
:101570004FF00000704700BFD01A01BAB1FA81F1F4
:1015800001F0180122FA01F0CB40C1F12001DBB2D9
:10159000C0B2C01A2CFA01F3D11A914311EAC31157
:1015A000E6D170475FEA400C08BF91F0000F4FEAA8
:1015B0008C234FEAC12243EA51514FEA1C5018BF15
:1015C00000F5F0404FEA300018BF41F000415FEAFB
:1015D0006C5C00F02980BCF1FF3F08BF40F0804008
:1015E0007047130C06BF12044FF0100C4FF0000CA4
:1015F000130E04BF12020CF1080C130F04BF1201EA
:101600000CF1040C930F04BF92000CF1020CD30FE9
:1016100004BF52000CF1010C11464FF00002A0F182
:101620001F00A0EB0C00704711F0004F08BF70477F
:1016300031F000413FF4D5AF0B0C06BF09044FF069
:10164000100C4FF0000C0B0E04BF09020CF1080C3B
:101650000B0F04BF09010CF1040C8B0F04BF8900B0
:101660000CF1020CCB0F04BF49000CF1010CCCF1C2
:101670002003A0EB0C0022FA03F302FA0CF241EA79
:10168000030100F10100704720F07F4C80EA030065
:1016900023F07F47ACEB070303F57C5300F00040D9
:1016A00003F1FF032DE980494FEA154B09B44FEAD6
:1016B000144325EA0B4E24EA03480FF2042606EBF6
:1016C000132749083E785FEA320203FB0667C7F535
:1016D000000707FB06F64FEA54374FEAD64606F1F5
:1016E000020607FB066CCCF1005C4FEA1C472CEAB3
:1016F000074C07FB06F40CFB06F504EB15464FEA16
:10170000961634BF00204FF000404FEAD13706FB59
:1017100007FC4FEA1C4C0CFB0BF7D21B03FB0CF72E
:1017200061EB07010CFB0EF7B0EB074072EB1742C1
:101730000CFB08F734BFA2EB0742B2EB074261EBA8
:1017400017414FEA0C444FEA910706FB07FC4FEAAA
:101750001C4C0CFB0BF7B0EBC74072EB573203FB92
:101760000CF734BFA2EBC742B2EBC74261EB573173
:101770000CFB0EF7B0EBC70072EB57720CFB08F7CF
:1017800034BFA2EBC702B2EBC70261EB5771039FF4
:101790004FEA816141EA921104EBCC044FEAD13760
:1017A0004FEA826206FB07FC42EA90124FEA806031
:1017B0004FEA1C4C0CFB0BF7D21B03FB0CF761EB45
:1017C00007010CFB0EF7B0EB074072EB17420CFB66
:1017D00008F734BFA2EB0742B2EB074261EB1741B7
:1017E0004FEA8C554FEA910704EB9C2406FB07FC5B
:1017F0004FEA1C4C0CFB0BF7B0EBC74072EB5732B7
:1018000003FB0CF734BFA2EBC742B2EBC74261EB5C
:1018100057310CFB0EF7B0EBC70072EB57720CFBA5
:1018200008F734BFA2EBC702B2EBC70261EB5771F6
:1018300015EB4C254FEA816141EA92114FEA826231
:101840004FEAD13742EA901206FB07FC44F100044C
:101850004FEA80604FEA1C4C0CFB0BF7D21B03FBDA
:101860000CF761EB07010CFB0EF7B0EB074072EBD6
:1018700017420CFB08F734BFA2EB0742B2EB07425A
:1018800061EB174115EB1C154FEA813141EA92419A
:101890004FEA823242EA90424FEA80304FEA0C76B9
:1018A00044F1000448EA03434EEA0B484FF0000EAF
:1018B000B2EB080C71EB030724BF624639464EEBCE
:1018C0000E0E4FF0000B0018524149414BEB0B0B31
:1018D000B2EB080C71EB03077BF1000B24BF6246EF
:1018E00039464EEB0E0E4FF0000B001852414941A5
:1018F0004BEB0B0BB2EB080C71EB03077BF1000B0E
:1019000024BF624639464EEB0E0E51EA020718BF5D
:1019100046F0010616EB0E7655F1000254F1000177
:1019200003D5BDE88901BDE80088BDE88901BDE8AF
:101930000048B619524141EB0101A3F10103704780
:1019400080807F7E7D7C7B7A7978777676757473FC
:10195000727171706F6E6E6D6C6C6B6A6A696868BB
:10196000676666656464636362616160605F5F5E51
:101970005E5D5D5C5C5B5B5A5A59595858575756C7
:10198000565555555454535352525251515050502C
:101990004F4F4F4E4E4D4D4D4C4C4C4B4B4B4A4A7E
:1019A0004A494949484848474747474646464545C2
:1019B00045444444444343434342424242414141FB
:1019C000002B26D4770021D01CB54FEA370703B48B
:1019D0004FF010004FF010014FF000000FBCBDE8B9
:1019E00010400BF1010BBBF1010F08BF5FEA1707B5
:1019F00022BF12F1010211F101014FF0004143F148
:101A0000000300F0004043EA00007047F9D3570894
:101A1000DAE746EA064613F1400F4FEA16461FDDA5
:101A200013F1200FDFBF16430A46002120335B422B
:101A3000C8D0C3F1200746EA064602FA07F74FEA84
:101A4000164646EA0706C3F1200722FA03F201FA16
:101A500007F721FA03F14FF0000342EA0702B1E76A
:101A600046EA020646EA06464FEA164646EA0106F6
:101A7000BCBF46EA0646360C4FF000034FF00002AA
:101A80004FF000019EE72DE9C048934630B491E83D
:101A9000380007C831EA400C48BF34EA430C03D58C
:101AA000FFF7F2FDFFF78CFFF0BCBDE800882DE9E1
:101AB000C048934630B491E8380007C810F0804F12
:101AC00008BF13F0804F03D100F005F8FFF778FF4F
:101AD000F0BCBDE8008820F07F4780EA030023F0D7
:101AE0007F4C07EB0C03A3F57C5300F00040A3F1FF
:101AF000FE0392F0000F00F0B38095F0000F00F0AD
:101B000077802DE901494FEA11404FEA144621EA56
:101B1000004800FB06FC24EA064708FB06F607FB24
:101B200008F800FB07F718EB06484CEB164C4FEA99
:101B3000124B18EB07484FEA15464CEB174022EAC8
:101B40000B4E0BFB06FC25EA06470EFB06F607FBD1
:101B50000EFE0BFB07F71EEB064E4CEB164C4FF040
:101B600000061EEB074E4CEB174B18EB0B0840F131
:101B7000000018EB0E0B58EB000840F100008F1A24
:101B80004FF000013CBFC943661B14BFB5EB040C0A
:101B900000213CBFC943F61B4FEA17444EEA8E0EA4
:101BA00027EA04454FEA1C4704FB07622CEA074C6E
:101BB00005FB07F70CFB05F604FB0CFC16EB0746D0
:101BC00042EB174216EB0C4642EB1C421BEB06069F
:101BD00058EB0202414146EA9E0601D5BDE8018963
:101BE000B619524141EB0101A3F10103BDE801899E
:101BF0004FEA14454FEA114724EA054621EA074C0B
:101C000005FB07F406FB07F70CFB06F105FB0CFCD4
:101C100011EB074144EB17444FEA124711EB0C411B
:101C200044EB1C4422EA074C05FB07F206FB07F7CE
:101C30000CFB06F605FB0CFC16EB074642EB1742C5
:101C400016EB0C4642EB1C456A1854F1000148BFE4
:101C50007047B619524141EB0101A3F101037047EE
:101C600095F0000F37D04FEA11424FEA144721EAAE
:101C7000024624EA074C02FB07F106FB07F70CFBC0
:101C800006F402FB0CFC14EB074441EB17414FEA4E
:101C9000154714EB0C4441EB1C4125EA074C02FBB1
:101CA00007F506FB07F70CFB06F602FB0CFC16EB30
:101CB000074645EB174516EB0C4645EB1C4212193F
:101CC00051F1000148BF7047B619524141EB010183
:101CD000A3F1010370474FEA14454FEA114724EA84
:101CE000054621EA074C05FB07F106FB07F70CFB4D
:101CF00006F24FF0000605FB0CFC12EB074241EB2D
:101D0000174112EB0C4251EB1C4148BF704792182F
:101D100041EB0101A3F101037047FEE770B50446F2
:101D200040688047E17811F0070F02D02288521CEA
:101D30002280B0EBD11F04BF21F03800E0700FD03B
:101D40004FF0005202EBB1114FEAB161C1F3C20290
:101D5000E170032A04D360F3C71121F03800E0706A
:101D6000E078002500F00701062928BF70BDDFE8F4
:101D700001F0031F47908FA4C0F38011B1EBD01F77
:101D8000A07820F0F0001EBF8030A07070BDA07061
:101D9000A16800291CBF204688472580A07820F034
:101DA0000F00401CA070E07820F00700401C6EE09F
:101DB000C0F38011B1EBD01F0FD0A07820F0F0005D
:101DC0001030A070E16800291CBF2046884725809C
:101DD000E07820F00700801C59E02088C82898BFD0
:101DE00070BDA07820F0F0005030A070E1690029AB
:101DF0001CBF20468847E07820F00700401D46E0E1
:101E0000C0F38011B1EBD01F24D1A07820F0F000F6
:101E1000A070A16800291CBF20468847A0784FF019
:101E2000805101EB30104FEA3070A07000F00F00CD
:101E3000022804D1A16900291CBF204688472169D6
:101E400000291CBF204688472580E07820F0070045
:101E5000C01C1CE020883C2898BF70BDA07800F012
:101E60000F01012902D002290AD00DE020F0F00074
:101E70003030A070616900291CBF2046884703E00C
:101E800020F0F0004030A070E07820F00700E07013
:101E900070BDC0F38011B1EBD01F08BF70BDA0783A
:101EA00020F0F0001030A070E16800291CBF20462F
:101EB000884720883C28E7D289E7C0F38011B1EB3E
:101EC000D01FA07820F0F00009D16030A070216A06
:101ED000002908BF70BD2046BDE87040084710309B
:101EE000A070E16800291CBF20468847E07820F0F8
:101EF0000700E07070BD0000064810B50468002CB3
:101F000008BF10BD2046FFF709FF646A002CF9D115
:101F100010BD00004C0000202DE9F04F6C4983B04B
:101F2000481CCDE9000100F11E0300F12801694AB7
:101F3000223002F043FD684C608810F4807F04BFBB
:101F400003B0BDE8F08F634D286805F061F96FF0CC
:101F50001D0105F02EFB81466060686805F058F9A8
:101F60006FF01D0105F025FB8046A060A86805F014
:101F70004FF96FF01D0105F01CFB0746E060E868B3
:101F800005F046F96FF01D0105F013FB06462061D0
:101F90000121484605F00DFB394605F065F9054677
:101FA0004FF04041404605F05FF9314605F05CF9DD
:101FB000294604F0C7FF04F099FF01F0C7FF474F1F
:101FC0004FF066323B4604F0B7FC04F07BFA6061E8
:101FD000E0680121054605F0ECFA8146294605F046
:101FE00043F90546A0687907804605F03DF941466A
:101FF00005F03AF9294605F003FA4FF07E5104F056
:10200000A1FF04F073FF06460D460121606805F04C
:10201000D0FA414605F028F980464846216905F086
:1020200023F9414604F08EFF04F060FF32462B4650
:1020300002F0E8F94FF066323B4604F07DFC04F014
:1020400041FAA06121690091084605F00DF9E168A7
:1020500083468A46504605F007F9A1680646894638
:10206000484605F001F9616805468846404605F096
:10207000FBF8294604F066FF314605F0C1F95946E0
:1020800005F0BEF904F032FF05460E4640460099C1
:1020900005F0EAF880465146484605F0E5F8414625
:1020A00004F050FF012105F084FA04F01FFF2A46D6
:1020B000334602F0A7F94FF066323B4604F03CFC91
:1020C00004F000FAE0610120207003B0BDE8F08F59
:1020D0007D000020D40600207C00002066A64C4035
:1020E000704700002DE9F04184B0202000F05AF83C
:1020F000002804BF04B0BDE8F081202000F030F8D3
:10210000FFF70AFFDFF83C80D8F81C0080F00040A1
:1021100004F0ECFE06460F46D8F8180004F0E6FE80
:102120000446D8F814000D4680F0004004F0DEFEAE
:102130008DE8F00002460B4603A0FEF773F904B0E9
:10214000BDE8F0817C0000202E2E2E2E25352E316C
:10215000662C25352E31662C25352E31660D0A006C
:1021600010B50446000D00D11CB9FC2102A002F0FC
:1021700025F80B48046010BD73746D33326631303E
:10218000335C6C69627261726965735C73746D3320
:1021900032663130785F657874692E630000000024
:1021A0001404014070B500250446012818BF022C14
:1021B00033D0042C18BF082C2FD0102C18BF202C83
:1021C0002BD0402C18BF802C27D0B4F5807F18BFAF
:1021D000B4F5007F21D0B4F5806F18BFB4F5006F5F
:1021E0001BD0B4F5805F18BFB4F5005F15D0B4F50F
:1021F000804F18BFB4F5004F0FD0B4F5803F18BF23
:10220000B4F5003F09D0B4F5802F18BFB4F5002F06
:1022100003D0E52106A001F0D1FF0F4800680F4967
:102220002040096821421CBF00280125284670BDB6
:1022300073746D3332663130335C6C696272617213
:102240006965735C73746D3332663130785F6578BD
:1022500074692E6300000000000401401404014072
:1022600010B504460079002818BF042803D06A215D
:102270002DA001F0A3FF607908281CBF0C281028AE
:1022800003D06B2128A001F099FF2068010D00D137
:1022900018B96C2124A001F091FFA079002818BF83
:1022A000012803D06D2120A001F088FFA1792848E2
:1022B000002930D00168226891430160001D016847
:1022C000226891430160207900F1804000F582305E
:1022D00001682268114301601E4A10682168884322
:1022E0001060111D08682368984308606079102801
:1022F00008D000F1804000F5823001682268114367
:10230000016010BD106823681843106008682268D7
:102310001043086010BD207900F1804000F5823044
:10232000016822689143EBE773746D333266313094
:10233000335C6C69627261726965735C73746D336E
:1023400032663130785F657874692E630000000072
:10235000000401400804014070B50C46050018BF98
:10236000012D0DD0022D18BF032D09D0042D1CBF47
:10237000052D062D04D040F265211EA001F01EFFA0
:10238000002C18BF012C20D0022C18BF032C1CD00D
:10239000042C18BF052C18D0062C18BF072C14D0FD
:1023A000082C18BF092C10D00A2C18BF0B2C0CD0ED
:1023B0000C2C18BF0D2C08D00E2C18BF0F2C04D0DD
:1023C00040F266210BA001F0F9FEA007010F0F20DB
:1023D00000FA01F224F0030000F1804000F58030A3
:1023E000836823EA02028260826805FA01F11143E0
:1023F000816070BD73746D3332663130335C6C69EB
:10240000627261726965735C73746D333266313008
:10241000785F6770696F2E63000000002DE9F04758
:102420000446A0F180400D46B0F584301CBFA4F1F5
:102430008040B0F586301BD0A4F18040B0F58830E4
:102440001CBFA4F18040B0F58A3011D0A4F18040C7
:10245000B0F58C301FBFA4F18040B0F58E30A4F1F0
:102460008040B0F5903003D0B22144A001F0A6FE28
:10247000E878002818BF04280FD0282818BF48285B
:102480000BD0142818BF102807D01C2818BF1828F4
:1024900003D0B32139A001F091FE288818B9B421E6
:1024A00036A001F08BFEE87800F00F0610F0100F58
:1024B0000BD0A87801281CBF0228032803D0BB2119
:1024C0002EA001F07BFEA878064328784FF00F0875
:1024D00010F0FF0F4FF0010722D0226800200823E0
:1024E000B5F800C007FA00F131EA0C0C14D14FEA3C
:1024F000800C08FA0CF922EA090206FA0CFC4CEAF4
:10250000020295F803C0BCF1280F08BF616103D037
:10251000BCF1480F08BF2161401C5B1EE0D1226066
:102520002888FF2898BFBDE8F0876268002008234C
:1025300000F10801B5F800C007FA01F131EA0C0C0E
:1025400005D0401C5B1EF3D16260BDE8F0874FEA06
:10255000800C08FA0CF922EA090206FA0CFC4CEA93
:10256000020295F803C0BCF1280F08BF616195F81D
:1025700003C0BCF1480F08BF2161E2E773746D33FB
:1025800032663130335C6C69627261726965735CAA
:1025900073746D3332663130785F6770696F2E63A4
:1025A0000000000070B50D460446012818BF022C3B
:1025B0007ED0042C18BF082C7AD0A4F5A0101038B7
:1025C0001CBFA4F5A010B0F1300071D0A4F5B0107C
:1025D00040381CBFA4F5B010B0F1C00068D0A4F51D
:1025E000C010B0F580701CBFA4F5C010B0F500702D
:1025F0005ED0A4F5C010B0F540701CBFA4F5C010AB
:10260000B0F502307CD0A4F5C010B0F5033018BF8F
:10261000B4F5805F74D0B4F5EA1F18BFB4F5EB1FB2
:102620006ED0B4F5004F1CBF6FF40010C44267D0E9
:10263000A4F50010801E1CBFA4F50010B0F104002A
:102640005ED0A4F5001008381CBFA4F50010B0F14E
:10265000100055D0B4F1201F1CBFA4F50010B0F13C
:1026600040004DD0A4F54010B0F580701CBFA4F51B
:102670004010B0F5007043D0A4F54010B0F5806074
:102680001CBFA4F50010B0F5885039D0A4F5001097
:10269000B0F5005018BFB4F5011F31D06FF0004005
:1026A000C4421CBF334884422AD03348844200E0ED
:1026B00026E01CBF3148844222D0314884421CBFEE
:1026C000304884421CD0304884421CBF2F4884428A
:1026D00016D02F4884421CBF2E48844210D02E486A
:1026E00084421CBF2D4884420AD02D4884421CBF1E
:1026F0002C48844204D040F22A212BA001F05EFD38
:10270000002D18BF012D04D040F22B2126A001F08E
:1027100055FD2F4814F0004F14BFC2694268C4F33E
:1027200003434FF4401131EA040C4FEA54514FEA8D
:102730000111A6B206FA01F114D014F4801F08BFEB
:102740008A4304D04FF0030C0CFA03F39A4342F08F
:102750007062002D18BF0A4314F0004F14BFC2610D
:10276000426070BD436822F0706223F07063436082
:10277000EFE70000020000800400008008000080F5
:102780001000008020000080400000808000008059
:10279000000100800002008000040080000800802A
:1027A000001000800020008073746D333266313079
:1027B000335C6C69627261726965735C73746D33EA
:1027C00032663130785F6770696F2E6300000000F9
:1027D0000000014070B50446A0F180400D46B0F500
:1027E00084301CBFA4F18040B0F586301CD0A4F129
:1027F0008040B0F588301CBFA4F18040B0F58A302D
:1028000012D0A4F18040B0F58C301FBFA4F18040FD
:10281000B0F58E30A4F18040B0F5903004D040F295
:10282000691105A001F0CAFC25B94FF4B57102A0E9
:1028300001F0C4FC256170BD73746D3332663130B4
:10284000335C6C69627261726965735C73746D3359
:1028500032663130785F6770696F2E630000000068
:10286000FEE7000014498A78002A1CBF8878704768
:102870000122002818BF4A700B78104813B1012BB1
:102880000ED016E04B782BB1D0F82031002B08BFCA
:102890000A700ED0D0F82001012808BF4A7008E065
:1028A00000224A700A70D0F82001002804BF0120DD
:1028B00070470020704700004800002000002142BF
:1028C00010B5002436A0FDF7ADFD00F029F902F0A7
:1028D00027FE002840F05E8037A0FDF7A3FD78209A
:1028E00003F066FC002804BF38A0FDF79BFD7820AC
:1028F00002F0A6FD18B901213BA0FDF793FD0120D0
:1029000003F014FC002804BF3DA0FDF78BFD02F08E
:102910004BF8002804BF3FA0FDF784FD424802F0B9
:10292000E9FC02F00BFA002804BF40A0FDF77AFD95
:1029300040F2731001F090FE18B901212AA0FDF7B2
:1029400071FD012002F05AF9002804BF3CA0FDF7F8
:1029500069FD03F0BFFC3DA0FDF764FD3EA0FDF75F
:1029600061FD012003F008FB88B1601C84B2322CA9
:1029700009D8642001F03AFE012003F0FDFA002896
:10298000F3D1322C03D337A0FDF74CFDFEE73CA07A
:10299000FDF748FD3DA0FDF745FD002010BD0000FE
:1029A0004D5055363035305F494F5F496E69742E52
:1029B0002E2E0D0A00000000C9E8D6C3D0E8D2AA26
:1029C000B5C4CAFDBEDD2E2E2E0D0A00CEAAD0E85B
:1029D000D2AAB5C4CAFDBEDDBFAAC6F46669666FD9
:1029E0002E2E2E0D0A000000C9E8D6C3B2C9D1F9B7
:1029F000C6B5C2CA3D253364487A2E2E2E0D0A0074
:102A0000BCD3D4D8646D70B9CCBCFE2E2E2E0D0A6A
:102A100000000000C9E8D6C3CDD3C2DDD2C7B7BD20
:102A2000CFF22E2E2E0D0A00AC000020CAB9C4DC55
:102A3000646D61CCD8D0D42E2E2E0D0A000000007B
:102A4000D7D4BCEC2E2E2E0D0A000000D7D4BCEC3F
:102A50004F4B2E2E2E0D0A00CAB9C4DC2E2E2E0D81
:102A60000A000000CAB9C4DCCAA7B0DC2CBDF8C893
:102A7000EB7768696C652831292E2E2E0D0A00002F
:102A8000CAB9C4DC4F4B2E2E2E0D0A004D505536C0
:102A90003035305F496E6974204F4B2E2E2E0D0A53
:102AA0000D0A000084B0FFF70BFF0121082000F0A1
:102AB00037FA0121084600F033FA2024ADF80C4023
:102AC00028208DF80F000320144D8DF80E0003A967
:102AD0002846FFF7A3FC20212846FFF77BFE0521AF
:102AE0000120FFF739FC009400248DF804400C20ED
:102AF0008DF8050001258DF806506846FFF7B0FBFC
:102B000017208DF808008DF809408DF80A408DF8DF
:102B10000B5002A800F07CF9FEE70000000C014019
:102B200008B50C200102009006230422044800F09E
:102B300010F904480121C0F8A811C0F8AC1108BD73
:102B4000000C0140008021422DE9F84FDFF88CB0E5
:102B5000804600254FF00C0A07232A464FF40061F7
:102B60005846CDF800A000F0F4F800261C4C37467B
:102B70004FF00109C4F8A871042001F053FDC4F816
:102B8000A8916806050ED4F82C0100281CBF681C0B
:102B9000C5B2042001F046FD701CC6B2082EE9D370
:102BA000C4F8A871042001F03DFD0422062351025F
:102BB0005846CDF800A000F0CCF8C4F8A871C4F8CD
:102BC000AC81042001F02EFDC4F8A891042001F08E
:102BD00029FDC4F8A8712846BDE8F88F000C014013
:102BE000008021422DE9F84FDFF8D4A006464FF0CF
:102BF0000C090422062351025046CDF8009000F043
:102C0000A8F8304C4FF00008C4F8A88145460127C9
:102C100016F0800F14BFC4F8AC71C4F8AC81700614
:102C2000060E042001F0FEFCC4F8A871042001F097
:102C3000F9FCC4F8A881042001F0F4FC681CC5B2BA
:102C4000082DE5D3002507232A464FF4006150469E
:102C5000CDF8009000F07DF8C4F8AC71042001F0CC
:102C6000E1FCC4F8A871042001F0DCFCD4F82C01CC
:102C700010B3681CC5B2FA2D1AD9042206235102DA
:102C80005046CDF8009000F064F8C4F8A881C4F86C
:102C9000AC81042001F0C6FCC4F8A871042001F046
:102CA000C1FCC4F8AC71BDE8F84F042001F0BABC17
:102CB000D4F82C010028DCD1C4F8A881BDE8F88F35
:102CC000000C01400080214238B50C200422009005
:102CD000062351020A4800F03CF80A4C0120C4F8CF
:102CE000AC01C4F8A801042004F5D47401F09AFCE6
:102CF00000256560042001F095FC256038BD0000CA
:102D0000000C01400080214238B50C2004220090C4
:102D1000062351020C4800F01CF80C4C0020C4F8AB
:102D2000A801C4F8AC01042004F5D47401F07AFCC5
:102D300001252560042001F075FC6560BDE8384080
:102D4000042001F06FBC0000000C01400080214213
:102D5000FEE72DE9F843884681460221A0F1804034
:102D60001446A0F58430089E11EB90221D460F46B4
:102D70004FF001000BD012F0010F18BF02205FEAE4
:102D8000520C04D048434843BCF1010CFAD1012154
:102D900000F0C6F8ADF80080012C08BF00201FD05D
:102DA00084B1022C08BF14201AD0042C08BF1020B4
:102DB00016D0032C08BF1C2012D0052C08BF1820E9
:102DC0000ED00FE0062D04BF04208DF80300082D5F
:102DD00004BF28208DF80300072D08BF482001D12B
:102DE0008DF80300092E08BF8DF8027009D00B2E54
:102DF00008BF012003D00C2E08BF032001D18DF89D
:102E0000020069464846FFF709FBBDE8F8837047B2
:102E100070B50446C0780F25002818BF012803D0DC
:102E2000752120A001F0CAF96078102803D376211B
:102E30001CA001F0C3F9A078102803D3772119A0B2
:102E400001F0BCF9E078012108B31D4800686378FF
:102E500000F4E060C0F5E060000AC0F1040203FA8B
:102E600002F2A37825FA00F01840104322780001FE
:102E700002F1E02282F80004207800F01F02914065
:102E80004009800000F1E020C0F8001170BD2078FA
:102E900000F01F0291404009800000F1E020C0F8DE
:102EA000801170BD73746D3332663130335C6C6980
:102EB000627261726965735C6D6973632E63000091
:102EC0000CED00E010B50446B0F5E06F18BFB4F5A6
:102ED000C06F0BD0B4F5A06F1CBFB4F5806FB4F514
:102EE000407F03D0632105A001F068F90A4944F04E
:102EF000FD7040F08060086010BD000073746D3399
:102F000032663130335C6C69627261726965735C20
:102F10006D6973632E6300000CED00E070470000E4
:102F200070B505460D480E46054200D125B940F260
:102F30004A410BA001F042F9124C002E04BFA069D7
:102F4000A84308D0012E04D040F24B4104A001F068
:102F500035F9A0692843A06170BD00000200C0FFE0
:102F600073746D3332663130335C6C6962726172D6
:102F70006965735C73746D3332663130785F726388
:102F8000632E630000100240254910B44A6812F015
:102F90000C03244A18BF042B01D0082B01D0026077
:102FA00015E04A684B6802F470124FF0020C13F4FB
:102FB000803F0CEB924203D04B6813F4003F03D0E8
:102FC000194B5A43026002E0164B5A4302604A68AA
:102FD0000F2303EA1212154B9A5CD0F800C02CFAAA
:102FE00002F24260D1F804C0072404EA1C2C13F852
:102FF0000CC022FA0CFCC0F808C0D1F804C004EAE6
:10300000DC2C13F80C30DA40C2604968032303EA71
:103010009131074B595CB2FBF1F1016110BC704773
:103020000010024000127A0000093D003800002024
:1030300034000020704700002DE9F04700251C4CAB
:103040001C4E0227A8464FF0010900BF05EB4500C2
:1030500014F8301039B101290BD0022918D02946B3
:1030600015A0FDF7DFF9681C85B2022DEED3BDE88F
:10307000F0873268716804EBC0014B689A42F2D362
:1030800004F83070D1E903208B8A19469047EAE7AB
:1030900004EBC0014A78002A08BF04F83080E2D06F
:1030A000326873688B681A444A6004F83090DAE733
:1030B000940600201000002074696D65725B256421
:1030C0005D207374617465206572726F72210D0AE0
:1030D0000000000010B54FF0E024042804BF206970
:1030E00040F0040009D010F1050F03D0CA2104A05C
:1030F00001F064F8206920F00400206110BD000098
:1031000073746D3332663130335C6C696272617234
:103110006965735C6D6973632E63000010B5134CB1
:103120001422002320686168FDF7C7F852EA030003
:1031300003D1FFF797FB0E49087005222068002392
:103140006168FDF7BAF852EA030008BFFEF7D4FE43
:103150000A22206800236168FDF7AFF852EA0300F5
:1031600018BF10BDBDE81040FFF766BF100000207B
:103170004A00002004488268C168521C41F10001E5
:103180008260C160FFF7CABF08000020374882B0E4
:10319000016841F0010101604168354A1140416018
:1031A000016821F4102121F080710160016821F48F
:1031B00080210160416821F4FE0141604FF41F014C
:1031C0008160002201920092016841F48031016027
:1031D000016801F4003100910199491C01910099A5
:1031E00019B90199B1F5A06FF2D1016811F4003F4E
:1031F00008BF009233D0012100911E490A6842F0B5
:1032000010020A600A6822F003020A600A6842F0AB
:1032100002020A604168416041684160416841F4CE
:1032200080614160416821F47C114160416841F452
:10323000E8114160016841F080710160016811F09E
:10324000007FFBD0416821F003014160416841F0FB
:1032500002014160416801F00C010829FAD10649D8
:103260004FF00060086002B070470000001002409C
:103270000000FFF80020024008ED00E010B5012139
:10328000880700F083F8012818BF10BD01218807C6
:1032900000F004F8BDE81040FEF73EBE70B50446ED
:1032A000A0F180400D46B0F5963018BFB4F1804FC4
:1032B0004ED0A4F18040B0F580601CBFA4F18040E6
:1032C000B0F5006044D0A4F18040B0F540601CBF70
:1032D000A4F18040B0F580503AD0A4F18040B0F520
:1032E000A0501CBFA4F18040B0F59A3030D0A4F1BA
:1032F0008040B0F5A6301CBFA4F18040B0F5A830E6
:1033000026D0A4F18040B0F5AA301CBFA4F18040C3
:10331000B0F5C0501CD0A4F18040B0F5E0501CBF07
:10332000A4F18040B0F5005012D0A4F18040B0F577
:10333000A0301FBFA4F18040B0F5A230A4F18040BE
:10334000B0F5A43004D040F6772107A000F036FF96
:1033500015F47F4F00D125B940F6782102A000F086
:103360002DFFE843208270BD73746D3332663130B7
:10337000335C6C69627261726965735C73746D331E
:1033800032663130785F74696D2E630070B5044623
:103390000026A0F180400D46B0F5963018BFB4F17C
:1033A000804F4ED0A4F18040B0F580601CBFA4F1E6
:1033B0008040B0F5006044D0A4F18040B0F540609A
:1033C0001CBFA4F18040B0F580503AD0A4F18040F9
:1033D000B0F5A0501CBFA4F18040B0F59A3030D0B9
:1033E000A4F18040B0F5A6301CBFA4F18040B0F538
:1033F000A83026D0A4F18040B0F5AA301CBFA4F1BB
:103400008040B0F5C0501CD0A4F18040B0F5E05031
:103410001CBFA4F18040B0F5005012D0A4F1804050
:10342000B0F5A0301FBFA4F18040B0F5A230A4F1E8
:103430008040B0F5A43004D040F64D2110A000F03B
:10344000BDFE012D18BF022D10D0042D18BF082D70
:103450000CD0102D18BF202D08D0402D18BF802D66
:1034600004D040F64E2106A000F0A8FE208AA189D3
:10347000284201EA05011CBF00290126304670BD23
:1034800073746D3332663130335C6C6962726172B1
:103490006965735C73746D3332663130785F74695B
:1034A0006D2E630070B5224E40F22441304600F08C
:1034B0005BFA204C204DD8B1304600F049FC208802
:1034C00040F4004020802088C0F30E00284410F80B
:1034D000021C00200D292188C1F30E0129440CBFD4
:1034E00001F8020C487020880CBF401E401C208050
:1034F0000821304600F0D4F9012806D108213046D1
:1035000000F036F9304600F023FC40F225513046F9
:1035100000F02AFA002808BF70BD304600F018FC01
:103520002188C1F30E0168542088401C208070BDA2
:103530000038014018000020E401002070B5054665
:10354000012188B08803FFF7EBFC01210420FFF77D
:10355000E7FC4FF40070ADF8180003248DF81A4012
:103560001820304E8DF81B0006A93046FEF756FF96
:103570003015ADF818008DF81A4004248DF81B4062
:1035800006A93046FEF74AFF25208DF81C008DF86D
:103590001D4000248DF81E4001208DF81F0007A853
:1035A000FFF736FC0295ADF810400C201E4DADF82B
:1035B0000C40ADF81200ADF80E40ADF8144002A971
:1035C000284600F0E7FA012240F22551284600F093
:1035D00055FA012240F22441284600F04FFA012119
:1035E000284600F017F911A202AB40F22D11134842
:1035F0000192FCF7FDFE114E0EE02846641C00F01F
:10360000DFFB8021284600F04BF90028F9D0B4F503
:10361000967F24BF08B070BD315D0029EDD108B0A0
:1036200070BD000000080140003801405553415270
:103630005431204F4B2E2E2E0D0A0000B8000020D2
:1036400070B5224E40F22441304600F08DF9204CF6
:10365000204DD8B1304600F07BFB208840F400407C
:1036600020802088C0F30E00284410F8021C00209F
:103670000D292188C1F30E0129440CBF01F8020C69
:10368000487020880CBF401E401C20800821304616
:1036900000F006F9012806D10821304600F068F84C
:1036A000304600F055FB40F22551304600F05CF901
:1036B000002808BF70BD304600F04AFB2188C1F3E6
:1036C0000E0168542088401C208070BD00440040DA
:1036D0001A000020D803002070B5224E40F2244189
:1036E000304600F041F9204C204DD8B1304600F072
:1036F0002FFB208840F4004020802088C0F30E007B
:10370000284410F8021C00200D292188C1F30E0165
:1037100029440CBF01F8020C487020880CBF401EE1
:10372000401C20800821304600F0BAF8012806D15C
:103730000821304600F01CF8304600F009FB40F24A
:103740002551304600F010F9002808BF70BD304602
:1037500000F0FEFA2188C1F30E0168542088401C55
:10376000208070BD004800401C000020CC050020D7
:103770002DE9F0411A4EDFF86C801B4F0D460446D0
:10378000B04218BF44450FD0BC421FBFA4F18040D7
:10379000B0F59840A4F18040B0F5A04004D040F2CC
:1037A0009E3112A000F00AFD35F4587000D125B901
:1037B00040F29F310DA000F001FD15F4007F18BF0D
:1037C000B44208D0444518BFBC4204D040F2A331F3
:1037D00006A000F0F3FCE8432080BDE8F081000083
:1037E00000380140004400400048004073746D33CD
:1037F00032663130335C6C69627261726965735C28
:1038000073746D3332663130785F75736172742E04
:103810006300000070B50446A0F180400D46B0F58D
:103820009C301CBFA4F18040B0F5884012D0A4F1B8
:103830008040B0F590401FBFA4F18040B0F59840A3
:10384000A4F18040B0F5A04004D04FF4B1710AA0BB
:1038500000F0B4FC002D04BFA08920F4005009D072
:10386000012D04D040F2631103A000F0A7FCA08951
:1038700040F40050A08170BD73746D3332663130F6
:10388000335C6C69627261726965735C73746D3309
:1038900032663130785F75736172742E6300000098
:1038A0002DE9F047DFF88C800026234FDFF88C905D
:1038B0000C460546404518BFBD420FD04D451FBFC1
:1038C000A5F18040B0F59840A5F18040B0F5A0404A
:1038D00004D040F26E311AA000F070FC012C18BF29
:1038E000802C20D0402C18BF202C1CD0102C18BFAE
:1038F000B4F5807F17D0B4F5007F0AD0082C1CBF28
:10390000042C022C0FD040F26F310DA000F056FCB9
:1039100009E045451CBFBD424D4504D040F273311E
:1039200007A000F04BFC2888204218BF0126304633
:10393000BDE8F087003801400044004000480040E6
:1039400073746D3332663130335C6C6962726172EC
:103950006965735C73746D3332663130785F75738B
:103960006172742E630000002DE9F047364F002687
:10397000DFF8D880DFF8D8900C460546B84218BF6B
:1039800045450FD04D451FBFA5F18040B0F598408B
:10399000A5F18040B0F5A04004D040F2C1312DA087
:1039A00000F00CFC282C1CBFA4F5E060B0F127004F
:1039B0002DD0A4F5C06026381CBFA4F5A060B0F1DE
:1039C000250024D0A4F5806024381CBFA4F5006035
:1039D000B0F146001BD0A4F510606A380DD0B4F5E4
:1039E000587F1CBFB4F5187FB4F5B07F0FD040F2FC
:1039F000C23118A000F0E2FB09E0BD421CBF454502
:103A00004D4504D040F2C63112A000F0D7FB04F0BF
:103A10001F000122C4F3421102FA00F0012904BF81
:103A2000A989084004D002290CBF298AA98A084024
:103A3000210A02FA01F12A88114000281CBF00293E
:103A400001263046BDE8F0870038014000440040C0
:103A50000048004073746D3332663130335C6C69FA
:103A6000627261726965735C73746D333266313092
:103A7000785F75736172742E630000002DE9F04762
:103A8000374FDFF8E080DFF8E09016460D46044639
:103A9000B84218BF44450FD04C451FBFA4F1804029
:103AA000B0F59840A4F18040B0F5A04004D040F2B9
:103AB00089112EA000F082FB40F66A1A282D1CBF47
:103AC000A5F5E060B0F127001AD0A5F5C060263852
:103AD0001CBFA5F5A060B0F1250011D0A5F5806050
:103AE00024381CBFA5F50060B0F1460008D055454C
:103AF00018BF602D04D04FF4C5711CA000F05EFB10
:103B0000002E18BF012E04D040F28B1117A000F038
:103B100055FB554509D1BC421CBF44454C4504D01A
:103B200040F28F1111A000F049FB05F01F010122A6
:103B3000C5F3421002FA01F1012808BF04F10C009C
:103B400005D002280CBF04F1100004F11400002E6F
:103B5000026814BF114322EA01010160BDE8F08749
:103B600000380140004400400048004073746D3349
:103B700032663130335C6C69627261726965735CA4
:103B800073746D3332663130785F75736172742E81
:103B9000630000002DE9F0415E4E5F4FDFF87C814D
:103BA00086B00D460446B04218BFBC420ED0444514
:103BB0001FBFA4F18040B0F59840A4F18040B0F55B
:103BC000A04003D0B82156A000F0F8FA28685E495A
:103BD000401E884203D3B92151A000F0EFFAA88813
:103BE000002818BFB0F5805F03D0BA214CA000F0C8
:103BF000E5FAE888002818BFB0F5805F09D0B0F575
:103C0000005F18BFB0F5405F03D0BB2144A000F0B7
:103C1000D5FA288900281CBFB0F5806FB0F5C06FB9
:103C200003D0BC213EA000F0C9FA688930F00C0135
:103C300000D118B9BD213AA000F0C0FAA889002827
:103C400016D0B0F5807F1CBFB0F5007FB0F5407F87
:103C500005D0BE2132A000F0B1FAA88940B1B4422B
:103C60001CBFBC42444503D0C2212DA000F0A6FADF
:103C7000208A4CF6FF710840E98808432082A08919
:103C80004EF6F3110840A9882A8911436A89104326
:103C90000843A081A08A4FF6FF410840A989084344
:103CA000A0826846FFF770F9B4420CBF03980298EF
:103CB000A18911F4004F00EBC00101EB001029684D
:103CC00014BF49008900B0FBF1F0204A6FF0180CD6
:103CD000A2FB0031490909010B0903FB0CF300EBBE
:103CE0008300A38913F4004F4FF0320314BF03EB9A
:103CF000C00003EB0010A2FB00204FEA501014BFDD
:103D000000F0070000F00F000843208106B0BDE876
:103D1000F0810000003801400044004000480040AD
:103D200073746D3332663130335C6C696272617208
:103D30006965735C73746D3332663130785F7573A7
:103D40006172742E6300000020AA44001F85EB51AD
:103D500010B50446A0F18040B0F59C301CBFA4F122
:103D60008040B0F5884012D0A4F18040B0F590407A
:103D70001FBFA4F18040B0F59840A4F18040B0F599
:103D8000A04004D04FF4197103A000F017FAA088E6
:103D9000C0F3080010BD000073746D33326631301B
:103DA000335C6C69627261726965735C73746D33E4
:103DB00032663130785F75736172742E6300000073
:103DC00070B50446A0F180400D46B0F59C301CBF94
:103DD000A4F18040B0F5884012D0A4F18040B0F545
:103DE00090401FBFA4F18040B0F59840A4F18040FE
:103DF000B0F5A04004D040F2532107A000F0DEF956
:103E0000B5F5007F04D34FF4157103A000F0D6F987
:103E1000C5F30800A08070BD73746D333266313015
:103E2000335C6C69627261726965735C73746D3363
:103E300032663130785F75736172742E63000000F2
:103E4000FEE7490050EAC12018BF04204A0D18BF00
:103E500040F0010040F2FF72B2EB515F08BF40F04A
:103E60000200012808BF052070472DE9F0414F1ED0
:103E700000EBC7010446D1E9000115461E4637F0A4
:103E800006020DD02A46334602F056FD7F1E04EB93
:103E9000C703D3E9002302F047FB37F00602F1D154
:103EA000022F25D0042F13D0062F18BFBDE8F081B4
:103EB0002A46334602F040FDD4E90A2302F034FBDF
:103EC0002A46334602F038FDD4E9082302F02CFBE1
:103ED0002A46334602F030FDD4E9062302F024FBE3
:103EE0002A46334602F028FDD4E9042302F01CFBE5
:103EF0002A46334602F020FDD4E9022302F014FBE7
:103F00002A46334602F018FDD4E90023BDE8F0410B
:103F100002F00ABB012203F01EBB02F005BB002227
:103F200013461046114602F0AFBB0000024A0020C3
:103F3000110703F010BB000001FDFFFF30380A2815
:103F400001D2012070470020704770472DE9F04DE5
:103F50008D4F21F0004A86B005460C46BA452ADB53
:103F6000AAEB070028430AD08848824501DC1AD111
:103F7000CDB106B02846BDE8F04DFFF7CBBF844A6F
:103F8000844B284602F0D8FC07460E46824A834BF3
:103F90002846214602F0D0FC06B03A463346BDE83A
:103FA000F04D02F0C1BA0120FCF717FC06B0BDE8E5
:103FB000F04DFFF7B4BF7A48824542DABAF1795F33
:103FC0000BDA2846FFF73DFF042808BFFFF7AEFFD6
:103FD000284606B02146BDE8F08D2A460B4610461D
:103FE00002F0AAFC834602466E480E460B460621A6
:103FF0007844FFF73AFF5A46334602F09DFC80466C
:1040000069488A465A46334604217844FFF72DFF13
:104010005A46334602F090FC00223B4602F084FAF6
:1040200002460B464046514602F02EFB2A462346E6
:1040300002F082FC06B02A462346BDE8F04D02F0AD
:1040400073BA284624F0004100223D463B4602F068
:1040500071FD4FF0FF3203F07EFA064602465348E8
:104060000F460B4606217844FFF7FFFE32463B46DB
:1040700002F062FCCDE900014D4832463B46042186
:104080007844FFF7F2FE32463B4602F055FC002230
:104090002B4602F049FA834602913046394602F037
:1040A000BFF9804643480D46504517DCDDE9000165
:1040B0005A46029B02F0E8FA42462B4602F03CFCCC
:1040C00042462B4602F030FA012203F044FA304A0D
:1040D000304B02F021FE304A304B4CE04FF0000AEA
:1040E00052460B46404602F01FFACDE903105246F5
:1040F0002B461046194602F01FFC32463B4602F0A2
:1041000019FDDDE9033202F0BFFA06460F46DDE98C
:1041100000015A46029B02F0B7FA83460091012241
:104120003046394603F017FA194A1A4B02F002FDDD
:1041300006460F4601224046294603F00CFA5A462D
:10414000009B02F0F9FB32463B4602F0E5FD0646D5
:104150000F4601225046294603F0FDF90E4DDFF8C7
:1041600058802A46434602F0E5FC32463B4602F0C0
:10417000E1FC2A46434602F0DDFC002CD8BF81F06A
:10418000004106B0BDE8F08D0000F03F0000F07F78
:10419000075C143326A6913C182D4454FB21F93FAB
:1041A0000000E03FBC420000D24200004642000056
:1041B0005C4200003333EF3FFB21E93F0A460146F2
:1041C00001A0FCF72FB90000B6CFD1D43A5BCEC422
:1041D000BCFE3A25735D205BD0D03A25645D0D0AA4
:1041E000000000002DE9F84F04460D4621F0004084
:1041F00000917349814211DC7249884201DC06D189
:104200002CB120462946BDE8F84FFFF783BE6E4823
:10421000002DCCBF6D496E49BDE8F88F6D498142D4
:1042200011DD6D498142D8BF4FF0FF366DDD20466C
:104230002946FFF706FE042808BFFFF777FE204651
:104240002946BDE8F88F6549654F25F00045814254
:1042500033DD6449814219DD002632464FF0804348
:104260002046294602F060F980468A46012220460F
:10427000294603F070F900223B4602F04DFD42460C
:10428000534602F001FA04460D463EE001260022A4
:10429000BA463B462046294602F046F980460F467C
:1042A000002253462046294602F036FD42463B4650
:1042B00002F0EAF904460D4627E04B4981421BDD36
:1042C000DFF828A10226002253462046294602F0A4
:1042D00033FB00223B4602F027F980460F460022BE
:1042E00053462046294602F017FD42463B4602F05F
:1042F000CBF904460D4608E0032622462B46002053
:104300003B4902F0C1F904460D4622462B461046B1
:10431000194602F011FB8B46824602460B4602F01C
:104320000BFB07460246334888460B460621784475
:10433000FFF79BFD52465B4602F0FEFA82462E488E
:104340008B463A46434605217844FFF78EFD3A46B0
:10435000434602F0F1FA02460B46002E50465946FB
:104360000CDA02F0E1F822462B4602F0E5FA01B041
:1043700022462B46BDE8F04F02F0DCBB02F0D4F839
:1043800022462B4602F0D8FA1C4A7A4402EBC603B6
:10439000D3E9002302F0C0FC22462B4602F0BCFC0D
:1043A000174A7A4402EBC603D3E9002302F0C2FBAA
:1043B000009A002AB8BF81F00041BDE8F88F0000E4
:1043C000000010440000F07F182D4454FB21F93FF9
:1043D000FB21F9BF0000DC3F0000203E0000F33F5E
:1043E0000000F03F0000E63F008003400000F83F7F
:1043F0000000F0BF3E400000FC3F00009A3F00007C
:10440000623F00002DE9F04D9446CCF1000423F00A
:1044100000464CEA0404524F46EAD4749A46884651
:1044200021F00042BC4206D8454240EA050442EA77
:10443000D474BC4204D9BDE8F04D6246FFF76DBDAF
:10444000AAF14055A5F17F6555EA0C040BD0022472
:1044500004EAAA74434DDFF810E144EAD87452EA42
:10446000000B04D00CE0BDE8F04DFFF7BBBE002C04
:1044700014BF012CBDE8F08D022C30D0032C32D0BB
:1044800056EA0C0B0AD0BE4220D1BA4209D126F01E
:10449000804622F080423346114617E000291ADB9D
:1044A00025E0DFF8C8B0FB44002C04BFDBE90001C5
:1044B000BDE8F08D012C02BFDBE9000181F0004175
:1044C000BDE8F08D022C0AD0032C0CD0BA4212D1D8
:1044D000B8F1000F0BDA23482549BDE8F08D2846D6
:1044E0002449BDE8F08D28467146BDE8F08D1D4891
:1044F0002149BDE8F08D921B12153C2AC4BF194812
:104500001D490EDCBAF1000FBEBF12F13C0F0020B6
:10451000014606DB624602F0B7F821F00041FFF7E2
:1045200061FE002C08BFBDE8F08D012C04BF81F0B6
:104530000041BDE8F08D114A114B022C07D002F06A
:10454000EBFB2A46BDE8F04D0A4B02F0E5BB02F05A
:10455000E3FB2A46BDE8F04D064B02F0EBBA000043
:104560000000F07F182D4454FB2109C0F63E0000E6
:10457000FB21F9BFFB210940FB21F93F075C143304
:1045800026A6A13C10B54FF44070FEF79BFC01211C
:104590000846FEF7C5FC01211048FEF703F86FF04E
:1045A0000400FEF797FD0E480E490068B0FBF1F0DD
:1045B000C1B20D4801704FF0E020026942F00202E2
:1045C000026101EB4102C2EBC111421702EBC101D2
:1045D0004161016941F00101016110BD000230003B
:1045E0002000002000127A000800002030B44FF0B4
:1045F000E0234FF47A7148435C690021084A12783D
:1046000000FB02FC98699A698242FCD026BFA51A79
:104610002844801A014410466145F4D330BC7047E9
:104620000800002030B44FF0E02400216369094AFB
:10463000127800FB02FCA269A0699042FCD026BF60
:104640001D1A2A44121A114402466145F4D330BCA3
:1046500070470000080000202DE9F04F87B00446A5
:1046600002278DF80070CA208DF80100E3208DF834
:10467000020009208DF803006A460421682001F039
:10468000FBFDA3208DF8000014F0400F09D0C021DD
:104690008DF80110C8218DF80210C2218DF8031089
:1046A00005E08DF801008DF802008DF8030014F488
:1046B000C07F4FF0C4084FF0C60907D08DF80480C2
:1046C000CC218DF805108DF8069005E08DF80400DA
:1046D0008DF805008DF806008DF808008DF80700AC
:1046E0008DF809006A460A2140F6A72001F0C4FDB2
:1046F00014F0030F4FF0200A4FF0D80514BF8DF8C7
:1047000000A08DF800506A46012140F6B62001F065
:10471000B3FD14F0200F0DD0884AD2E90001926851
:104720000390CDE9041203AA09214FF4976001F028
:10473000A3FD0CE0824AD2E9000192680390CDE922
:10474000041203AA09214FF4976001F095FD14F4B7
:10475000C07F4FF08B001ED014F4807F09D0B221AF
:104760008DF800108DF80100B6208DF802009B2016
:1047700009E0B0208DF8000080208DF80100B42001
:104780008DF8020090208DF803006A46042140F65F
:10479000A22001F071FD14F0010F4FF0300B4FF02B
:1047A000000660D0F8208DF800006A4601214FF421
:1047B0000B6001F061FDFA21072000F045FB3C2071
:1047C0003F208DF80C0003AA01214FF4A47001F0E2
:1047D00053FD8DF80C6003AA012140F24F1001F047
:1047E0004BFD8DF80C6014208DF80D0003AA0221FA
:1047F0004FF4EF7001F040FD8DF80C6064208DF8EF
:104800000D0003AA02214FF4ED7001F035FD4D4873
:104810004FF47A7190FBF1F0C8214843010E8DF8F6
:104820000C10010C8DF80D10010A8DF80E108DF88A
:104830000F0003AA04214FF4AE7001F01DFD8DF8A6
:104840000C6008208DF80D0003AA02214FF4AD7012
:1048500001F012FD8DF80C608DF80D7003AA022195
:104860004FF4AC7005E08DF800506A4601214FF41A
:104870000B6001F001FD14F0020F1ABFD9208DF872
:1048800000008DF800506A46012140F23D7001F0B1
:10489000F3FC14F0040F04BF4FF08B30039009D0E9
:1048A000C0208DF80C00C2208DF80D008DF80E8010
:1048B0008DF80F9003AA042140F6982001F0DCFC4B
:1048C00001F012F814F0100F04BF4FF0A330039062
:1048D00009D08DF80CA028208DF80D008DF80EB0B1
:1048E00038208DF80F0003AA042140F69E2001F025
:1048F000C3FC00F0F9FF144D44F00800688100F09B
:10490000F3FFAE7314F0400F1CBF0620A87314F41D
:10491000C07F02D0A87B801DA87314F0140F02D0B2
:10492000A87B1030A87314F0030F02D0A87B001DE1
:10493000A87307B00020BDE8F08F00009049000880
:104940009C49000809E3CA02C406002000B583B0F0
:1049500070B10FA25168106892680090CDE9011201
:104960006A4609214FF4976001F086FC03B000BD50
:104970000AA2D2E9001092680091CDE901026A46CC
:1049800009214FF4976001F077FC03B000BD0000EF
:10499000B8AAB38DB4980D355D000000B8AAAAAAD4
:1049A000B088C3C5C7000000C8234FF48062024925
:1049B00040F6F63000F04CBE807600082DE9F04F4E
:1049C00089B01746DDE912520024534E88468146CD
:1049D0002C80A246B07B694600F038FF00281EBF3D
:1049E0004FF0FF3009B0BDE8F08F708910F0140F60
:1049F00046D000999DF8032009BA21F0FF0141EA51
:104A000002033B6001999DF8072009BA21F0FF01DC
:104A100011437960029A9DF80BC012BA22F0FF028E
:104A200042EA0C02BA60DDF80CC09DF80F409CFA17
:104A30008CFC2CF0FF0C4CEA040B1B1409145B4398
:104A40004FEA224C01FB01314FEA2B420CFB0CF3E5
:104A500002FB023211441024A1F17061C7F80CB0BE
:104A6000B1F1007F08D900F03FFFA5F800A009B020
:104A70004FF0FF30BDE8F08F298841F48071298024
:104A800010F0400F6A4611D01119A41D0B885BBAB3
:104A9000A8F800304B885BBAA8F80230898849BA78
:104AA000A8F80410298841F00801298010F4C07F7B
:104AB00011D01119A41D0B885BBAA9F800304B88DE
:104AC0005BBAA9F80230898849BAA9F80410298884
:104AD00041F07001298010F0030F19D01444E078E0
:104AE00000F0C00500F03F01607810F0010F07D022
:104AF000C80801F007013268491C002A18BF904716
:104B0000607810F0080F1FBF71680029A809884756
:104B1000002009B0BDE8F08FC406002070B584B055
:104B2000064603A800F0DAFCBDF80C00410CC203F5
:104B30003148038903F0030013F0040F56F82050A6
:104B400018BF6D42C3F3C10013F0200F56F8204088
:104B500018BF6442C3F3811013F4807F56F820C05D
:104B600018BFCCF1000CE817A5FB023600FB026071
:104B700005FB0100A4FB02569B0F43EA8000E317EC
:104B800003FB026304FB0133AC0FACFB025644EAA7
:104B900083034FEAEC7404FB02620CFB0121AA0FB1
:104BA00042EA8101020E8DF80020020C8DF80120EE
:104BB000020A8DF802208DF80300180E8DF804000B
:104BC000180C8DF80500180A8DF80600080E8DF8EF
:104BD0000800080C8DF80900080A8DF80A008DF805
:104BE0000B108DF807306A460C214FF4257001F048
:104BF00043FB04B070BD0000C406002010B504469D
:104C000014A286B0D2E9000192680292C82CCDE9C4
:104C1000000116D8C820B0FBF4F0411E080A8DF838
:104C200010008DF8111004AA022140F2162001F0A4
:104C300023FB30B96A460C2140F6C12001F01CFB71
:104C400018B106B04FF0FF3010BD0548848106B0A2
:104C5000002010BDFEF2ABC4AAF1DFDFBBAFDFDF87
:104C6000C406002038B53349098901F0030211F068
:104C7000040F50F822C018BFCCF1000CC1F3C102E0
:104C800011F0200F50F8222018BF5242C1F38113B7
:104C900011F4807F50F8233018BF5B4226498CFB0B
:104CA00001C04FEA9C7C4CEA800082FB01C24FEAC3
:104CB0009C7C4CEA820483FB0121920F42EA81052D
:104CC000010E8DF80010010C8DF80110010A8DF80D
:104CD00002108DF803006A4604214FF4747001F04D
:104CE000CBFA88B9200E8DF80000200C8DF8010059
:104CF000200A8DF802008DF803406A4604214FF423
:104D0000757001F0B9FA10B14FF0FF3038BD280EC0
:104D10008DF80000280C8DF80100280A8DF802009B
:104D20008DF803506A4604214FF4767001F0A4FA1E
:104D300038BD0000C406002009E3CA0270B504466D
:104D40003CA084B0006802903BA004F0030200681D
:104D500003903AA006683AA0056802A8815C8DF825
:104D60000010C4F3C101435C8DF80130C4F381131A
:104D7000C05C8DF8020003A8825C8DF80420415CC1
:104D80008DF80510C05C8DF806006A46032140F2DC
:104D9000264001F071FA002843D101AA032140F214
:104DA0002A4001F069FAE0BBCDE9006514F0040F78
:104DB0000BD09DF8000040F001008DF800009DF838
:104DC000040040F001008DF8040014F0200F0BD017
:104DD0009DF8010040F001008DF801009DF80500EC
:104DE00040F001008DF8050014F4807F0BD09DF891
:104DF000020040F001008DF802009DF8060040F02E
:104E000001008DF806006A4603214FF4886001F026
:104E100033FA30B901AA032140F2314001F02CFAF3
:104E200018B104B04FF0FF3070BD0648048104B0E3
:104E3000002070BD4CCD6C000CC92C00365676009D
:104E400026466600C406002070B582B0054610F004
:104E5000070F7DD0B1F5C86F7AD8084602F0F0F997
:104E6000494902F0D7F8064601A800F019FB9DF861
:104E70000400022806D0042813D0082820D01028C7
:104E80002DD07AE00E21304602F093FB02F0A0F91B
:104E900084B23E49304602F0E7F902F099F980B257
:104EA0002BE00D21304602F084FB02F091F984B230
:104EB0003749304602F0D8F902F08AF980B21CE096
:104EC0000C21304602F075FB02F082F984B23149C0
:104ED000304602F0C9F902F07BF980B20DE00B21F7
:104EE000304602F066FB02F073F984B22A4930467C
:104EF00002F0BAF902F06CF980B2210A8DF80010C4
:104F00008DF80140010A8DF802108DF8030015F0AC
:104F1000010F6C460DD0224602214FF4EA7001F0D9
:104F2000ABF9A8B9A21C02214FF4927001F0A4F9C8
:104F300070B915F0020F0FD06A4602214FF4EC70E1
:104F400001F09AF920B9A21C02214FF4947000E0FC
:104F500013E001F091F980B915F0040F11D06A4601
:104F600002214FF4EE7001F087F930B9A21C022142
:104F70004FF4967001F080F918B102B04FF0FF3095
:104F800070BD02B0002070BD0000484300004046E4
:104F90000000C045000040450000C04404490A88A4
:104FA00012F0400FFBD0034AC1B2118070470000DD
:104FB00000380140043801402DE9F04184B0054635
:104FC0000120CB4F8DF800004FF000088DF80180D4
:104FD00038680C461646817C78686B460222007859
:104FE00000F00FFA002840F0E480C820FFF7FEFA36
:104FF0008DF8008038686B460122C17B78680078A4
:1050000000F0FFF9002840F0D48038686B46012298
:1050100041797868007800F0F4F9002840F0C98000
:1050200038686B460122817C7868007800F0E9F9E5
:10503000002840F0BE8038686B460122C17D786848
:10504000007800F0DEF9002840F0B38038686B4645
:10505000012201797868007800F0D3F900287DD129
:105060000C208DF8000038686B46012201797868C1
:10507000007800F0C6F9002870D10F20FFF7B6FACB
:10508000B86A6B460122407A8DF800003868817852
:105090007868007800F0B5F900285FD1B86A6B46EF
:1050A0000122007A8DF8000038684178786800782D
:1050B00000F0A7F900287CD1B86A002E807A18BFCA
:1050C00040F0E0008DF8000038686B4601228179DD
:1050D0007868007800F095F900286AD1002E1DBF8D
:1050E000B86AC07A40F0E00018208DF800003868F7
:1050F0006B460122C1797868007800F082F90028B7
:1051000057D1002E1CBFC820FFF770FA40208DF841
:10511000000038686B46012201797868007800F059
:1051200070F9002845D178208DF8000038686B466A
:10513000012241797868007800F063F970B9322073
:10514000FFF754FA8DF8008038686B4601224179E8
:105150007868007800F055F900B900E029E0386877
:105160006B460222817A7868007800F01FF900BB54
:10517000BDF80000C5F80880C5F80480C5F80080B7
:1051800040BA4AF6AB21C4F808804843C4F804800A
:10519000C00CC4F8008010F0FF064FF000083DD0AE
:1051A00038686B460C22C17A7868007800F0FEF807
:1051B00020B104B04FF0FF30BDE8F081BDF8000031
:1051C000236840BA01B2BDF80200194440BA02B2E5
:1051D000BDF804002160616840BA11446160A168B3
:1051E00000B20844A060BDF806002B6840BA01B2C6
:1051F000BDF80800194440BA02B2BDF80A0029609F
:10520000696840BA11446960A96800B20844A8609E
:1052100008F1010000F0FF08B045C1D328688322DF
:10522000C117090441EA104100040023FBF7BCF850
:1052300032460023FBF7B8F8286068688322C1175C
:10524000090441EA104100040023FBF7ADF832469F
:105250000023FBF7A9F86860A9688322C817000437
:1052600040EA114C080400236146FBF79DF83246E2
:105270000023FBF799F8A86020684FF40062C1177B
:10528000090441EA104100040023FBF78DF832467F
:105290000023FBF789F8206061684FF40062C817AB
:1052A000000440EA114C080400236146FBF77CF837
:1052B00032460023FBF778F86060A0684FF4006284
:1052C000C117090441EA104100040023FBF76CF800
:1052D00032460023FBF768F8A0600028CCBFA0F599
:1052E000803000F58030A06004B00020BDE8F0817F
:1052F0005000002090F900100029B8BF0421C8BF59
:10530000002114D090F90320002AB8BF0422C8BF9E
:1053100000221ED041EAC20190F90620002AB8BF3F
:105320000420C8BF002026D041EA8010704790F9C1
:1053300001100029B8BF0521C8BF0121E2D190F9B1
:105340000210002908BF0721B8BF0621C8BF0221EB
:10535000D8E790F90420002AB8BF0522C8BF01226F
:10536000D8D190F90520002A08BF0722B8BF06222D
:10537000C8BF0222CEE790F90720002AB8BF052057
:10538000C8BF0120D0D190F90800002808BF07202D
:10539000B8BF0620C8BF0220C6E7FFF7F3F84FF4F6
:1053A000E130FEF7CBF8FDF77DFBFEE72DE9F0419C
:1053B00040061C4616460F46050EFDF785FC28469E
:1053C000FDF710FC3846FDF70DFCFDF77DFC681C71
:1053D000C0B2FDF707FC0025761E002E08DD002078
:1053E000FDF7B2FB04F8010B681CC5B2AE42F6DC57
:1053F0000120FDF7A9FB2070FDF786FC0020BDE829
:10540000F0812DE9F04140061D4616460F46040E78
:10541000FDF75AFC2046FDF7E5FB3846FDF7E2FBB9
:105420000024002E07D915F8010BFDF7DBFB601CEB
:10543000C4B2A642F7D8FDF767FC0020BDE8F081B2
:1054400070B5164C20F00101002594F824000028C6
:105450001CBF002070BDA07A002804BF4FF0FF30B1
:1054600070BD267C08402074884218BF4FF0FF357D
:1054700061B1012000F098FF00F036FA00281EBF4D
:1054800026744FF0FF3070BD284670BD207D002887
:1054900018BF012000F088FFF6E700005000002050
:1054A0000D494A7A002A08BF02220DD0012A08BFFE
:1054B000042209D0022A08BF082205D0032A16BFF9
:1054C0004FF0FF30102270470270C97C11B11106F5
:1054D000C90D017000207047500000200F494A7A22
:1054E000002A08BF4FF4804210D0012A08BF41F6BD
:1054F0009C720BD0022A08BF4FF4805206D0032AB8
:1055000016BF4FF0FF304FF4006270470280C97C35
:1055100011B1C2F34E0101800020704750000020FD
:1055200070B582B0494C80208DF8000020686B4631
:105530000122817C60680078FFF763FF00287AD140
:105540006420FFF753F800258DF8005020686B4663
:105550000122817C60680078FFF753FF00286AD140
:1055600020686B460622817D60680078FFF71EFF89
:10557000002860D19DF805009DF80310C007400F7A
:1055800001F0010140EA41009DF801104FF00106D1
:1055900001F00101084304D0012836D0022811D0BF
:1055A00049E020686B460122C17860680078FFF707
:1055B000FDFE00283FD19DF8000010F00F003AD00A
:1055C000042822D0E574FF20A07220726072E0727D
:1055D0004FF6FF71E1812074A074267384F8226075
:1055E00084F8235065752575C4F81650C4F81A5010
:1055F000C4F81E5084F8245084F82550E5844FF4F4
:10560000FA6000F0F5FCB0B901E0E674DBE70220D7
:1056100000F0FCFB78B92A2000F052FD58B9322086
:1056200000F084FD38B90020FFF70AFF18B9002008
:1056300000F01EFC18B102B04FF0FF3070BD00202A
:1056400000F0B6FD02B0002070BD00005000002048
:105650002DE9FF4FDFF82891074691B099F8250012
:105660009246884600287CD1B8F1000F79D00024FA
:10567000002F65D9381B1028C8BF102085B218EB41
:1056800004061CBF99F80A0000286AD0200A04F01A
:10569000FF0B8DF800008DF801B00BEB05010890B1
:1056A0000F91D9F80400428991425AD8D9F80010D4
:1056B00000786B46097E0222FFF7A3FE002850D136
:1056C000D9F80000EAB23346417DD9F804000078E9
:1056D000FFF797FE002844D10AA8009099F80A0025
:1056E00000283ED008988DF810008DF811B0D9F838
:1056F00004000F994289914233D8D9F800100078FC
:1057000004AB097E0222FFF77CFE50BBD9F80000F3
:10571000EAB2009B417DD9F804000078FFF746FE0D
:10572000F8B92A460AA93046FBF722F820B115B08D
:105730006FF00100BDE8F08F601984B2BC4299D3CC
:105740004FEA1A208DF838008DF839A0D9F80000FA
:105750000EAB0222817ED9F804000078FFF751FEDB
:1057600020B115B04FF0FF30BDE8F08F012089F86F
:1057700025001498A9F8260015B00020BDE8F08F88
:1057800050000020282884BF4FF0FF3070472DE9DB
:10579000F8432D4D04004FF007084FF0000610D0DD
:1057A000012000F05BFC202001278DF80000012C77
:1057B0001BD0052C31D88DF80170052000F080FC3D
:1057C00018E0002000F04AFC8DF800608DF80180A0
:1057D00028686B460222817C68680078FFF711FE1A
:1057E000002808BF2E7514D12AE08DF8016005202D
:1057F00000F066FC9DF801006B4648EA80108DF8C9
:10580000010028680222817C68680078FFF7F9FDB2
:1058100078B14FF0FF30BDE8F883142C94BF02201C
:1058200003208DF8010094BF0A20142000F048FCEA
:10583000E0E70820A8722E732F750020FFF700FE06
:105840000020BDE8F8830000500000202DE9F84357
:10585000244C0646174694F82400884600281CBFAE
:10586000A07A002833D020686B460222817A6068D3
:105870000078FFF79BFD50BBBDF8000045BAAE4273
:1058800004D900203870401EBDE8F8836068418864
:10589000B5EB510F12D9216800786B46497C012283
:1058A000FFF784FD98B99DF8000010F0100F05D0A7
:1058B00000F01AF86FF00100BDE8F8832068F2B23A
:1058C0004346C17A60680078FFF770FD18B14FF069
:1058D000FF30BDE8F883B5FBF6F0401E38700020BD
:1058E000BDE8F8835000002038B55A4CA07A002853
:1058F00000F0AB8000258DF8005020686B46012237
:10590000C17B60680078FFF77CFD00287CD12068AF
:105910006B460122417960680078FFF772FD00282C
:1059200072D120686B460122017960680078FFF728
:1059300068FD002868D194F82400002842D00C208B
:105940008DF8000020686B460122017960680078BC
:10595000FFF757FD002878D13220FEF747FEC02020
:105960008DF80000A07A10F0010F1CBFE0208DF828
:10597000000020686B460122017960680078FFF71B
:1059800040FD002861D1607C00281ABF02208DF8FC
:1059900000008DF8005020686B460122C17B6068D2
:1059A0000078FFF72EFD00284FD18DF800502068B9
:1059B0006B460122417960680078FFF722FD0028DC
:1059C00043D145E004208DF8000020686B46012299
:1059D000017960680078FFF714FD002835D1A07CBC
:1059E00098B9A07A10F0010F18BF60200DD000BF49
:1059F0008DF8000020686B4601220179606800780C
:105A0000FFF7FFFC00B902E01FE04020F0E7322082
:105A1000FEF7ECFD607C00281ABF01208DF8000025
:105A20008DF8005020686B460122C17B60680078C9
:105A3000FFF7E7FC48B9206804F11003012241791F
:105A400060680078FFF7DDFC10B14FF0FF3038BD23
:105A5000002038BD500000202DE9F34FE34C91B0F9
:105A60008B4694F8240018B1002000F085FA01203C
:105A70000A90207A4FF00009002808BFFA2026D0AB
:105A8000012808BF4FF4FA7021D0022808BF4FF454
:105A90007A701CD0032814BFCDF800904FF4FA6040
:105AA00015D0607A002808BF4FF0020811D00128F5
:105AB00008BF4FF004080CD0022808BF4FF00808B8
:105AC00007D0032808BF4FF0100802D006E000906E
:105AD000E7E7E07C002818BF4FEA4808E07A07288B
