:020000040800F2
:100000008008002049010008910F0008930F0008A4
:10001000970F00089B0F00089F0F000800000000CA
:10002000000000000000000000000000A30F000816
:10003000A50F000800000000A70F0008A90F000886
:100040006301000863010008630100086301000800
:1000500063010008630100086301000863010008F0
:1000600063010008630100086301000863010008E0
:1000700063010008630100086301000863010008D0
:1000800063010008630100086301000863010008C0
:1000900063010008630100086301000863010008B0
:1000A00063010008630100086301000863010008A0
:1000B0006301000863010008630100086301000890
:1000C0006301000863010008630100086301000880
:1000D00063010008B10F0008630100086301000814
:1000E0006301000863010008630100086301000860
:1000F0006301000863010008630100086301000850
:10010000630100086301000863010008630100083F
:10011000630100086301000863010008630100082F
:10012000630100086301000863010008630100081F
:10013000DFF810D001F0F0FA00480047310F000856
:10014000AFF300808008002006488047064800473B
:10015000FEE7FEE7FEE7FEE7FEE7FEE7FEE7FEE777
:10016000FEE7FEE74B020008310100080CB5002055
:10017000019000906C48006840F480306A49086043
:1001800000BF6948006800F4003000900198401CEE
:100190000190009818B90198B0F5A06FF1D16248AC
:1001A000006800F4003010B10120009001E0002050
:1001B00000900098012843D15C48006840F010008E
:1001C0005A4908600846006820F0030008600846A5
:1001D000006840F002000860534840685249486097
:1001E0000846406848600846406840F480604860BF
:1001F0000846406820F47C1048600846406840F497
:10020000E81048600846006840F08070086000BF51
:100210004548006800F000700028F9D04248406866
:1002200020F00300404948600846406840F0020062
:10023000486000BF3C48406800F00C000828F9D135
:100240000CBD10B5FFF792FF10BD10B53648006821
:1002500040F00100344908600846406834490840CD
:100260003149486008460068324908402E49086014
:100270000846006820F4802008600846406820F4A2
:10028000FE0048604FF41F008860FFF7DAFF4FF070
:1002900000602949086010BD10B50021002000222F
:1002A000214B5B6803F00C0121B1042906D0082919
:1002B00028D107E0214B224C236027E01F4B204C24
:1002C000236023E0184B5B6803F47010164B5B68E7
:1002D00003F48032022303EB904022B9194B4343CD
:1002E000174C23600DE0104B5B6803F4003323B11F
:1002F000144B4343124C236003E0104B4343104C18
:10030000236003E00D4B0E4C236000BF00BF064B83
:100310005B68C3F303130C4CE15C094B1B68CB40D7
:10032000074C236010BD0000001002400020024076
:100330000000FFF8FFFFF6FE08ED00E000127A0073
:100340000000002000093D00040000203149014365
:10035000314A1160704770B5002100230F22C47824
:1003600004B32D4C246804F4E064C4F5E064210A6D
:10037000C1F10403CA40447804FA03F184781440BC
:1003800021430901254C0678A155047804F01F0586
:100390000124AC4005786D11AD0005F1E025C5F8EC
:1003A000004109E0047804F01F050124AC401C4D15
:1003B0000678761145F8264070BD1A4A0A40024375
:1003C000154B1B1F1A60704739B1134A121D126872
:1003D0000243114B1B1D1A6006E00F4A121D1268E2
:1003E00082430D4B1B1D1A607047042808D14FF043
:1003F000E021096941F004014FF0E022116107E0BA
:100400004FF0E021096921F004014FF0E022116171
:10041000704700000000FA050CED00E000E400E089
:1004200080E100E080FFFF1F10B50446CC48844205
:1004300008D10121042000F02DFB0021042000F050
:1004400029FB46E0C748844208D10121082000F07A
:1004500021FB0021082000F01DFB3AE0C248844245
:1004600008D10121102000F015FB0021102000F020
:1004700011FB2EE0BD48844208D10121202000F06C
:1004800009FB0021202000F005FB22E0B84884424F
:1004900008D10121402000F0FDFA0021402000F0A9
:1004A000F9FA16E0B348844208D10121802000F017
:1004B000F1FA0021802000F0EDFA0AE0AE48844213
:1004C00007D10121801500F0E5FA0021A01500F008
:1004D000E1FA10BD10B50121084600F0DBFA002159
:1004E000012000F0D7FA10BD2DE9F04102460025A9
:1004F0000026002000230024002791F803C00CF000
:100500000F0591F803C00CF0100CBCF1000F03D0E4
:1005100091F802C04CEA050591F800C0BCF1000F4B
:1005200031D0146800202BE04FF0010C0CFA00F3DE
:10053000B1F800C00CEA03069E4220D183004FF0C0
:100540000F0C0CFA03F7BC4305FA03FC4CEA040455
:1005500091F803C0BCF1280F06D14FF0010C0CFA42
:1005600000FCC2F814C00AE091F803C0BCF1480FC7
:1005700005D14FF0010C0CFA00FCC2F810C0401C71
:100580000828D1D31460B1F800C0BCF1FF0F34DDEE
:10059000546800202EE000F1080C4FF0010808FA22
:1005A0000CF3B1F800C00CEA03069E4221D183008F
:1005B0004FF00F0C0CFA03F7BC4305FA03FC4CEAAE
:1005C000040491F803C0BCF1280F05D100F1080C18
:1005D00008FA0CF8C2F8148091F803C0BCF1480F77
:1005E00007D100F1080C4FF0010808FA0CF8C2F826
:1005F0001080401C0828CED35460BDE8F0814FF62F
:10060000FF710180022181700421C1707047024690
:10061000002093680B400BB1012000E000207047E0
:100620000146886880B2704702460020D3680B40BC
:100630000BB1012000E0002070470146C86880B27D
:10064000704701617047416170470AB1016100E084
:1006500041617047C16070474FF480320A43826144
:100660008161826182698269704702460020434B42
:1006700018684FF68073184040EA021008433F4B59
:10068000186070473E49C8617047F0B50A460023BC
:1006900000240021002500F00046B6F1004F02D1F1
:1006A000364EF16901E0354E7168C0F3034583B2FF
:1006B00000F44016B6F5401F08D121F070612F4EAE
:1006C000766826F070662D4F7E6012E000F480168A
:1006D000B6F5801F06D1032606FA05F4A14341F0C2
:1006E000706106E0460D360103FA06F6B14341F0AB
:1006F000706122B1460D360103FA06F6314300F06F
:100700000046B6F1004F02D11C4EF16101E01B4ED4
:100710007160F0BD30B500228B071C0F0F2303FA68
:1007200004F2164B08338C1053F824309343134CC7
:1007300008348D1044F8253023468C1053F82430AB
:100740008C07240F00FA04F423430C4C08348D105A
:1007500044F8253030BD0A49DC310860704700009C
:1007600000080140000C014000100140001401404D
:1007700000180140001C0140002001400000014021
:1007800000002042DF48006840F00100DD490860B9
:1007900008464068DC490840DA4948600846006875
:1007A000DA490840D74908600846006820F48020EC
:1007B00008600846406820F4FE0048604FF41F00BF
:1007C00088607047CF49096821F48031CD4A1160B3
:1007D0001146096821F480211160B0F5803F03D0F3
:1007E000B0F5802F0ED106E0C649096841F480318A
:1007F000C44A116007E0C349096841F4A021C14A15
:10080000116000E000BF00BF704710B50146002234
:10081000002300204A11012A02D1BA4C236806E0C5
:10082000022A02D1B74C236A01E0B64C636A01F098
:100830001F02012494401C400CB1012000E0002064
:1008400010BD38B5002000900024002500BF3120E5
:10085000FFF7DBFF05460098401C00900098B0F5BC
:10086000A06F01D0002DF2D03120FFF7CEFF08B1EC
:10087000012400E00024204638BD01460020A14AA2
:10088000106820F0F80040EAC10010607047A049ED
:1008900008607047024600209A4B586820F47C108C
:1008A00042EA01031843974B58607047984908661D
:1008B000704701460020934A506820F00300084327
:1008C000506070478F48406800F00C007047014648
:1008D00000208C4A506820F0F000084350607047B8
:1008E00001460020874A506820F4E06008435060C9
:1008F000704701460020834A506820F4605040EA67
:10090000C1005060704729B17E4A527A02437D4B44
:100910005A7204E07B4A527A82437A4B5A72704789
:100920007B49D8310860704701460020754A5068FD
:1009300020F440400843506070470021714A203243
:100940001170704A82F82010012802D004280AD1C0
:1009500004E001216B4A2032117005E00521694A4B
:100960002032117000E000BF00BF70476949086085
:1009700070476449096A0143624A116270476549D8
:1009800044390860704730B500210022002400235C
:100990005C4D6D6805F00C0121B1042905D00829D2
:1009A00023D105E05C4D056022E05B4D05601FE052
:1009B000544D6D6805F47012524D6D6805F4803425
:1009C000022505EB92421CB9544D554305600BE0DE
:1009D0004C4D6D6805F400351DB1504D5543056013
:1009E00002E04D4D5543056002E04B4D056000BFF0
:1009F00000BF444D6D6805F0F0010909484D6B5C7E
:100A00000568DD4045603F4D6D6805F4E061090A09
:100A1000434D6B5C4568DD4085603A4D6D6805F47B
:100A20006051C90A3E4D6B5C4568DD40C560354D7F
:100A30006D6805F44041890B3A4D6B5CC568B5FBA8
:100A4000F3F5056130BD29B12E4A526902432D4BA1
:100A50005A6104E02B4A526982432A4B5A6170471B
:100A600029B1284A92690243264B9A6104E0254A3B
:100A700092698243234B9A61704729B1214AD26916
:100A80000243204BDA6104E01E4AD26982431D4BC7
:100A9000DA61704729B11B4AD2680243194BDA6008
:100AA00004E0184AD2688243164BDA60704729B1D5
:100AB000144A12690243134B1A6104E0114A126985
:100AC0008243104B1A6170471249403908607047E1
:100AD0000F49C86470470B49C87170470948406A9C
:100AE00040F0807007494862704701460020054A7F
:100AF00092680A400AB1012000E0002070470149D5
:100B000088727047001002400000FFF8FFFFF6FEF9
:100B1000000042428004424200127A0000093D0077
:100B2000140000202400002010B50446FB48844235
:100B300009D101218803FFF7ADFF00214FF4804068
:100B4000FFF7A8FF32E0F648844209D101214804AA
:100B5000FFF7ADFF00214FF40030FFF7A8FF25E0BD
:100B6000F048844209D101218804FFF7A0FF002149
:100B70004FF48020FFF79BFF18E0EB48844209D137
:100B80000121C804FFF793FF00214FF40020FFF775
:100B90008EFF0BE0E548844208D101210805FFF7EC
:100BA00086FF00214FF48010FFF781FF10BD2DE973
:100BB000F04786B005460E460024A24600BFA14677
:100BC0000027B08900B100BF2F462C8A4CF6FF7079
:100BD0000440F08804432C82AC894EF6F3100440A4
:100BE000B08831890843718908430443AC81AC8AD9
:100BF0004FF6FF400440B0890443AC8201A8FFF7E0
:100C0000C2FEC648874202D1DDF810A001E0DDF83F
:100C10000CA0A88900F4004040B10AEBCA0000EB28
:100C20000A1031684900B0FBF1F807E00AEBCA008E
:100C300000EB0A1031688900B0FBF1F86420B8FBC2
:100C4000F0F004012009642101FB1089A88900F457
:100C5000004040B1322000EBC900B0FBF1F000F0E1
:100C60000700044308E0322000EB09106421B0FBC8
:100C7000F1F000F00F0004432C8106B0BDE8F087CE
:100C80004FF41651016000218180C18001810C2147
:100C9000418100218181704710B502460020108AF1
:100CA0004FF2FF0318400B884C8823438C88234362
:100CB000CC8823431843108210BD0021018041805D
:100CC0008180C180704721B1828942F400528281C3
:100CD00004E082894DF6FF731A4082817047F0B5B7
:100CE0000346002400260025002040F66A17B9427A
:100CF00000D100BF1846C1F3421401F01F060127BE
:100D000007FA06F5012C01D10C3004E0022C01D1C8
:100D1000103000E014301AB107682F43076002E07A
:100D20000768AF430760F0BD1AB1838A0B43838223
:100D300002E0838A8B4383827047028A4FF6F07306
:100D40001A400282028A0A430282704782894FF265
:100D5000FF731A40828182890A438281704721B1E0
:100D6000828942F00202828104E082894FF6FD739B
:100D70001A4082817047028A4FF6DF731A4002825E
:100D8000028A0A430282704721B1028A42F48042F9
:100D9000028204E0028A4BF6FF731A400282704717
:100DA000C1F308028280704701468888C0F30800BA
:100DB0007047818941F0010181817047028BD2B275
:100DC0000283028B42EA012202837047028B02F403
:100DD0007F420283028B0A430283704721B1828AD9
:100DE00042F02002828204E0828A4FF6DF731A40CA
:100DF0008282704721B1828A42F01002828204E02E
:100E0000828A4FF6EF731A408282704721B1828A3C
:100E100042F00802828204E0828A4FF6F7731A4099
:100E20008282704721B1828942F40042828103E0CC
:100E30008289C2F30E028281704721B1828A42F414
:100E40000062828204E0828A4FF2FF731A4082823B
:100E50007047828A4FF6FB731A408282828A0A4365
:100E60008282704721B1828A42F00202828204E0CB
:100E7000828A4FF6FD731A40828270470246002034
:100E8000B1F5007F00D100BF13880B400BB10120EA
:100E900000E00020704701F40072B2F5007F00D13D
:100EA00000BFCA430280704770B502460024002389
:100EB0000025002040F66A16B14200D100BFC1F300
:100EC000421501F01F03012606FA03F3012D02D19A
:100ED0009689334006E0022D02D1168A334001E0A4
:100EE000968A33400C12012606FA04F41688344020
:100EF00013B10CB1012000E0002070BD10B500223C
:100F0000002340F66A14A14200D100BF0A12012456
:100F10009440A3B2DC43048010BD000000380140BF
:100F20000044004000480040004C00400050004099
:100F300000F095F800F028FA00F07BFB00F00AFBC7
:100F400024E000F02AF900221146104600F040FB90
:100F500001220021122000F03BFB0222002124206C
:100F600000F036FB03220021362000F031FB042282
:100F70000021482000F02CFB052200215A2000F01F
:100F800027FB062200216C2000F022FBD9E700009D
:100F9000704700BFFEE700BFFEE700BFFEE700BFEF
:100FA000FEE770477047704710B500F096F910BD26
:100FB00010B540F225511D48FFF776FF10B31B48CE
:100FC000FFF7F2FEC4B21A48008800F40040C8B926
:100FD0001748008800F4804060B10A2C03D000203C
:100FE0001349088020E01248008840F4004010496E
:100FF000088019E00D2C06D10D48008840F480408F
:101000000B49088010E00A480088C0F30D00094928
:101010000C5407480088401C054908800846008891
:10102000C72801DD0020088010BD00000038014005
:1010300028000020B403002008B54FF4A060FFF79B
:1010400085F925208DF8000001208DF801008DF82C
:1010500002008DF803006846FFF77DF908BD00B572
:1010600085B001210420FFF7FBFC01218803FFF775
:10107000F7FC4FF40070ADF8100018208DF8130045
:1010800003208DF8120004A96548FFF72DFA4FF4EC
:101090008060ADF8100004208DF8130004A96048AA
:1010A000FFF722FA4FF4E13000900020ADF8040081
:1010B000ADF80600ADF80800ADF80C000C20ADF856
:1010C0000A0069465748FFF772FDFFF7B5FF012296
:1010D00040F225515348FFF702FE01215148FFF726
:1010E000F2FD05B000BD70B504460D462946204608
:1010F000FFF756FE00BF80212046FFF7BFFE002805
:10110000F9D070BD2DE9F04107460D461646002482
:1011100005E0295D3846FFF7E6FF601CC4B2B44223
:10112000F7DB00BF40213846FFF7A8FE0028F9D0C2
:10113000BDE8F08170B506460C46002500BF615D34
:101140003046FFF7D0FF6D1C605D0028F7D100BF6F
:1011500040213046FFF792FE0028F9D070BD2DE9FE
:10116000F04105460C46260AE7B231462846FFF70D
:1011700017FE00BF80212846FFF780FE0028F9D027
:1011800039462846FFF70CFE00BF80212846FFF7AE
:1011900075FE0028F9D0BDE8F08170B522480088BE
:1011A00000F40040F0B120480088C0F30D051FA0F6
:1011B00000F0F0FA00240DE02248015D1948FFF725
:1011C000EFFD00BF40211748FFF758FE0128F9D175
:1011D000601C84B2AC42EFDB1BA000F0DBFA002005
:1011E0001149088070BD70B504460D46E1B20D4846
:1011F000FFF7D6FD00BF80210A48FFF73FFE002819
:10120000F9D0204670BD10B5044600BF2021054826
:10121000FFF734FE0028F9D00248FFF7C5FD10BDE6
:101220000008014000380140280000200D0AC4FADF
:10123000B7A2CBCDB5C4CFFBCFA2CEAA3A0D0A0D33
:101240000A000000B40300200D0A0D0A000000008F
:1012500030B50146B1F1807F01D3012030BD21F0CE
:101260007F40401E4FF0E022506150170F220028AF
:1012700007DA13071D0E3E4B00F00F04241F1D5507
:1012800003E013071C0E3B4B1C5400BF00204FF023
:10129000E0229061072010610020DFE710B536489A
:1012A00000683649B0FBF1F42046FFF7D1FF08B1E2
:1012B00000BFFEE710BD01B53149009808604FF04E
:1012C000E020006940F001004FF0E021086100BF1C
:1012D0002B4800680028FBD108BD2948006820B1D0
:1012E00027480068401E26490860704731B52248EB
:1012F00000682449B0FBF1F52846FFF7A9FF002458
:1013000008E000BF4FF0E020006900F480300028C2
:10131000F8D0641C00988442F3D34FF0E0200069B9
:1013200020F001004FF0E021086138BD31B51248CE
:1013300000684FF47A71B0FBF1F52846FFF788FF9B
:10134000002408E000BF4FF0E020006900F4803086
:101350000028F8D0641C00988442F3D34FF0E020BA
:10136000006920F001004FF0E021086138BD000065
:1013700018ED00E000E400E000000020A08601007D
:101380002C00002040420F0008B501210420FFF787
:1013900067FB0620ADF8000014208DF80300032041
:1013A0008DF8020069463648FFF79EF8062134485A
:1013B000FFF747F908BD002001E0411CC8B20A2828
:1013C000FBDB704710B504212D48FFF73AF90221E5
:1013D0002B48FFF736F9FFF7EEFF04212848FFF707
:1013E00032F902212648FFF72EF910BD10B504216D
:1013F0002348FFF728F902212148FFF722F9FFF7D8
:10140000DAFF04211E48FFF71CF910BD10B50421B6
:101410001B48FFF716F902211948FFF712F900BF20
:1014200004211748FFF7F3F80028F9D102211448E6
:10143000FFF709F910BD70B504462546002617E0F0
:1014400002210F48FFF7FFF805F0800020B10421CA
:101450000B48FFF7F6F803E004210948FFF7F3F81B
:101460006806050E02210648FFF7EBF8701CC6B2AD
:10147000082EE5DB02210248FFF7E5F870BD000009
:101480000008014010B50446FFF79CFF7820FFF7E5
:10149000D2FFFFF7BBFF0020FFF7CDFFFFF7B6FF3E
:1014A0002046FFF7C8FFFFF7B1FFFFF79FFF10BD12
:1014B00010B50446FFF786FF7820FFF7BCFFFFF763
:1014C000A5FF4020FFF7B7FFFFF7A0FF2046FFF77B
:1014D000B2FFFFF79BFFFFF789FF10BD70B5044611
:1014E0000D461DB1E0B2FFF7E3FF02E0E0B2FFF707
:1014F000C9FF70BD70B504460D4605F1B00000216E
:10150000FFF7ECFF102141EA14100021FFF7E6FF7E
:1015100004F00F000021FFF7E1FF70BD10B50021BE
:101520008D20FFF7DBFF00211420FFF7D7FF0021FC
:10153000AF20FFF7D3FF10BD10B500218D20FFF7BE
:10154000CDFF00211020FFF7C9FF0021AE20FFF7DB
:10155000C5FF10BD70B5002418E004F1B0000021F3
:10156000FFF7BCFF00210846FFF7B8FF002110205D
:10157000FFF7B4FF002505E001210020FFF7AEFFD3
:10158000681CC5B2802DF7DB601CC4B2082CE4DBFC
:1015900070BD70B5002418E004F1B0000021FFF721
:1015A0009DFF00210846FFF799FF00211020FFF75B
:1015B00095FF002505E001210846FFF78FFF681C15
:1015C000C5B2802DF7DB601CC4B2082CE4DB70BD13
:1015D0002DE9F04180460E4615460027314640462B
:1015E000FFF788FF00240AE04A4A02EB8511085DF4
:1015F0000121FFF773FF781CC7B2601CC4B2102C26
:10160000F2DB701CC1B24046FFF774FF00240CE00F
:101610006900491C3F4A02EB4111085D0121FFF7B7
:101620005DFF781CC7B2601CC4B2102CF0DBBDE8B3
:10163000F08110B5C820FFF779FE0021AE20FFF73A
:101640004DFF00210846FFF749FF00211020FFF75A
:1016500045FF00214020FFF741FF0021B020FFF7A8
:101660003DFF00218120FFF739FF0021FF20FFF718
:1016700035FF0021A120FFF731FF0021A620FFF751
:101680002DFF0021A820FFF729FF00213F20FFF7B1
:1016900025FF0021C820FFF721FF0021D320FFF7FD
:1016A0001DFF00210846FFF719FF0021D520FFF795
:1016B00015FF00218020FFF711FF0021D820FFF740
:1016C0000DFF00210520FFF709FF0021D920FFF7BA
:1016D00005FF0021F120FFF701FF0021DA20FFF7CD
:1016E000FDFE00211220FFF7F9FE0021DB20FFF7AD
:1016F000F5FE00213020FFF7F1FE00218D20FFF7DD
:10170000EDFE00211420FFF7E9FE0021AF20FFF7D6
:10171000E5FE10BD30000020064C074D06E0E068F5
:1017200040F0010394E8070098471034AC42F6D328
:10173000FEF702FDE41700080418000870B58C18C5
:1017400010F8015B15F0070301D110F8013B2A11D5
:1017500006D110F8012B03E010F8016B01F8016BC2
:101760005B1EF9D12B0705D40023521E0DD401F8BE
:10177000013BFAE710F8013BCB1A921C03E013F887
:10178000015B01F8015B521EF9D5A142D8D30020BC
:1017900070BD0000014A024900F013B8E7110008CB
:1017A000B003002002E008C8121F08C1002AFAD1C5
:1017B00070477047002001E001C1121F002AFBD1D1
:1017C00070472DE9F04116460F460446002503E018
:1017D0003946B047641C6D1C20780028F8D1284693
:1017E000BDE8F0810418000800000020B4030000E8
:1017F0003C17000884190008B4030020CC04000042
:10180000B41700081184A24A0468090102030406FF
:101810000708090C6910A5020406081BF010012A2C
:10182000FF050215F01B0F04012AFF0502130F1814
:10183000094040405F55555575041A5F0C09112148
:10184000080C11200F094989790909090F201F1176
:101850002FFE02424ACA4A0304134202FE000E143B
:10186000FF40504C4340404F50505C40FF1BF888B5
:10187000012AFF050215F81B1F08012A7F200B1003
:101880009F80E23B808201000916E2A2928A868252
:101890008080041840807F172424A4FEA3221B22EA
:1018A000CCAA011415080601FF2B0104010511FF44
:1018B0000202025808101010FF109008C30211080D
:1018C000080F100444827F01808040432C1028467A
:1018D00081A018094040484848C8784F0605154877
:1018E0004840400009150312122222528A063C1079
:1018F0006080BA19040B11C030FB1E404043407F8A
:10190000061C7F424106094FC02941080B1110D027
:1019100030FF30D0121C10101F3D080402019E0D34
:101920001101020408211116FE222222FE0712FED6
:10193000828292A29E100880601F0242827F0F1155
:10194000FF402F102C438011000B1490884C57A49B
:101950002454548C84180801018042221A07441D23
:10196000423E01018AF9E1000D14E4242CB425263D
:1019700024B42C24E404180AFF02011E1212121EC1
:041980004186011685
:0400000508000131BD
:00000001FF
