:020000040800F2
:1000000098040020490100085D1000085F100008F6
:1000100063100008671000086B1000080000000063
:100020000000000000000000000000006F10000849
:10003000711000080000000073100008751000081F
:100040006301000863010008630100086301000800
:1000500063010008630100086301000863010008F0
:10006000A110000863010008630100086301000893
:1000700063010008630100086301000863010008D0
:1000800063010008630100086301000863010008C0
:1000900063010008630100086301000863010008B0
:1000A00063010008630100086301000863010008A0
:1000B0006301000863010008630100086301000890
:1000C0006301000863010008630100086301000880
:1000D0006301000881100008630100086301000843
:1000E0006301000863010008630100086301000860
:1000F0006301000863010008630100086301000850
:10010000630100086301000863010008630100083F
:10011000630100086301000863010008630100082F
:10012000630100086301000863010008630100081F
:10013000DFF810D005F04AF8004800474D100008DD
:10014000AFF3008098040020064880470648004727
:10015000FEE7FEE7FEE7FEE7FEE7FEE7FEE7FEE777
:10016000FEE7FEE74B020008310100080CB5002055
:10017000019000906C48006840F480306A49086043
:1001800000BF6948006800F4003000900198401CEE
:100190000190009818B90198B0F5A06FF1D16248AC
:1001A000006800F4003010B10120009001E0002050
:1001B00000900098012843D15C48006840F010008E
:1001C0005A4908600846006820F0030008600846A5
:1001D000006840F002000860534840685249486097
:1001E0000846406848600846406840F480604860BF
:1001F0000846406820F47C1048600846406840F497
:10020000E81048600846006840F08070086000BF51
:100210004548006800F000700028F9D04248406866
:1002200020F00300404948600846406840F0020062
:10023000486000BF3C48406800F00C000828F9D135
:100240000CBD10B5FFF792FF10BD10B53648006821
:1002500040F00100344908600846406834490840CD
:100260003149486008460068324908402E49086014
:100270000846006820F4802008600846406820F4A2
:10028000FE0048604FF41F008860FFF7DAFF4FF070
:1002900000602949086010BD10B50021002000222F
:1002A000214B5B6803F00C0121B1042906D0082919
:1002B00028D107E0214B224C236027E01F4B204C24
:1002C000236023E0184B5B6803F47010164B5B68E7
:1002D00003F48032022303EB904022B9194B4343CD
:1002E000174C23600DE0104B5B6803F4003323B11F
:1002F000144B4343124C236003E0104B4343104C18
:10030000236003E00D4B0E4C236000BF00BF064B83
:100310005B68C3F303130C4CE15C094B1B68CB40D7
:10032000074C236010BD0000001002400020024076
:100330000000FFF8FFFFF6FE08ED00E000127A0073
:100340000000002000093D00040000203149014365
:10035000314A1160704770B5002100230F22C47824
:1003600004B32D4C246804F4E064C4F5E064210A6D
:10037000C1F10403CA40447804FA03F184781440BC
:1003800021430901254C0678A155047804F01F0586
:100390000124AC4005786D11AD0005F1E025C5F8EC
:1003A000004109E0047804F01F050124AC401C4D15
:1003B0000678761145F8264070BD1A4A0A40024375
:1003C000154B1B1F1A60704739B1134A121D126872
:1003D0000243114B1B1D1A6006E00F4A121D1268E2
:1003E00082430D4B1B1D1A607047042808D14FF043
:1003F000E021096941F004014FF0E022116107E0BA
:100400004FF0E021096921F004014FF0E022116171
:10041000704700000000FA050CED00E000E400E089
:1004200080E100E080FFFF1F002044490860091DB3
:100430000860091D0860091D086041483F491431E2
:100440000860704700213D498279002A3AD00A4667
:10045000126803689A430B461A600A1D1268036803
:100460009A430B1D1A60027911440A6803681A4303
:100470000A60324A0832126803689A432F4B0833E5
:100480001A601A1D126803689A432C4B0C331A60C9
:100490004279102A0ED11A1F126803681A43274B9B
:1004A00008331A601A1D126803681A43234B0C3371
:1004B0001A600DE02149427911440A6803681A4321
:1004C0000A6005E0027911440A6803689A430A60E9
:1004D00070470021016001710C214171002181717F
:1004E00070471649103109680143144A10321160EF
:1004F000704701460020114A143212680A400AB1BE
:10050000012000E0002070470C491431086070475A
:10051000014600200022094B1B6803EA0102074B39
:1005200014331B680B4013B10AB1012000E0002016
:100530007047024914310860704700000004014010
:10054000FFFF0F0010B50446CC48844208D10121BA
:10055000042000F02DFB0021042000F029FB46E0E0
:10056000C748844208D10121082000F021FB002166
:10057000082000F01DFB3AE0C248844208D1012166
:10058000102000F015FB0021102000F011FB2EE0E0
:10059000BD48844208D10121202000F009FB002140
:1005A000202000F005FB22E0B848844208D1012158
:1005B000402000F0FDFA0021402000F0F9FA16E09A
:1005C000B348844208D10121802000F0F1FA0021D3
:1005D000802000F0EDFA0AE0AE48844207D1012104
:1005E000801500F0E5FA0021A01500F0E1FA10BD39
:1005F00010B50121084600F0DBFA0021012000F0CF
:10060000D7FA10BD2DE9F041024600250026002052
:1006100000230024002791F803C00CF00F0591F887
:1006200003C00CF0100CBCF1000F03D091F802C015
:100630004CEA050591F800C0BCF1000F31D01468F8
:1006400000202BE04FF0010C0CFA00F3B1F800C0D1
:100650000CEA03069E4220D183004FF00F0C0CFAE7
:1006600003F7BC4305FA03FC4CEA040491F803C009
:10067000BCF1280F06D14FF0010C0CFA00FCC2F8B7
:1006800014C00AE091F803C0BCF1480F05D14FF047
:10069000010C0CFA00FCC2F810C0401C0828D1D391
:1006A0001460B1F800C0BCF1FF0F34DD54680020C5
:1006B0002EE000F1080C4FF0010808FA0CF3B1F835
:1006C00000C00CEA03069E4221D183004FF00F0CBC
:1006D0000CFA03F7BC4305FA03FC4CEA040491F856
:1006E00003C0BCF1280F05D100F1080C08FA0CF882
:1006F000C2F8148091F803C0BCF1480F07D100F193
:10070000080C4FF0010808FA0CF8C2F81080401CE1
:100710000828CED35460BDE8F0814FF6FF71018008
:10072000022181700421C170704702460020936845
:100730000B400BB1012000E00020704701468868A3
:1007400080B2704702460020D3680B400BB10120F5
:1007500000E0002070470146C86880B27047016120
:100760007047416170470AB1016100E04161704723
:10077000C16070474FF480320A43826181618261B7
:1007800082698269704702460020434B18684FF621
:100790008073184040EA021008433F4B18607047CE
:1007A0003E49C8617047F0B50A4600230024002185
:1007B000002500F00046B6F1004F02D1364EF16937
:1007C00001E0354E7168C0F3034583B200F4401672
:1007D000B6F5401F08D121F070612F4E766826F0E3
:1007E00070662D4F7E6012E000F48016B6F5801F13
:1007F00006D1032606FA05F4A14341F0706106E034
:10080000460D360103FA06F6B14341F0706122B19C
:10081000460D360103FA06F6314300F00046B6F104
:10082000004F02D11C4EF16101E01B4E7160F0BD22
:1008300030B500228B071C0F0F2303FA04F2164B6E
:1008400008338C1053F824309343134C08348D1024
:1008500044F8253023468C1053F824308C07240F9D
:1008600000FA04F423430C4C08348D1044F825306E
:1008700030BD0A49DC3108607047000000080140C3
:10088000000C01400010014000140140001801401C
:10089000001C0140002001400000014000002042F7
:1008A000DF48006840F00100DD4908600846406804
:1008B000DC490840DA49486008460068DA490840DF
:1008C000D74908600846006820F480200860084680
:1008D000406820F4FE0048604FF41F0088607047B5
:1008E000CF49096821F48031CD4A11601146096869
:1008F00021F480211160B0F5803F03D0B0F5802F46
:100900000ED106E0C649096841F48031C44A11603D
:1009100007E0C349096841F4A021C14A116000E021
:1009200000BF00BF704710B5014600220023002021
:100930004A11012A02D1BA4C236806E0022A02D1E8
:10094000B74C236A01E0B64C636A01F01F02012430
:1009500094401C400CB1012000E0002010BD38B5CF
:10096000002000900024002500BF3120FFF7DBFFAE
:1009700005460098401C00900098B0F5A06F01D08B
:10098000002DF2D03120FFF7CEFF08B1012400E0A6
:100990000024204638BD01460020A14A106820F0FE
:1009A000F80040EAC10010607047A0490860704735
:1009B000024600209A4B586820F47C1042EA01035A
:1009C0001843974B5860704798490866704701462E
:1009D0000020934A506820F003000843506070479D
:1009E0008F48406800F00C007047014600208C4A98
:1009F000506820F0F0000843506070470146002026
:100A0000874A506820F4E060084350607047014610
:100A10000020834A506820F4605040EAC1005060D2
:100A2000704729B17E4A527A02437D4B5A7204E0E4
:100A30007B4A527A82437A4B5A7270477B49D8314B
:100A40000860704701460020754A506820F4404015
:100A50000843506070470021714A20321170704A7B
:100A600082F82010012802D004280AD104E00121D4
:100A70006B4A2032117005E00521694A203211705D
:100A800000E000BF00BF70476949086070476449D3
:100A9000096A0143624A1162704765494439086036
:100AA000704730B500210022002400235C4D6D68A2
:100AB00005F00C0121B1042905D0082923D105E056
:100AC0005C4D056022E05B4D05601FE0544D6D6894
:100AD00005F47012524D6D6805F48034022505EB63
:100AE00092421CB9544D554305600BE04C4D6D6866
:100AF00005F400351DB1504D5543056002E04D4DE4
:100B00005543056002E04B4D056000BF00BF444DFA
:100B10006D6805F0F0010909484D6B5C0568DD4022
:100B200045603F4D6D6805F4E061090A434D6B5C1B
:100B30004568DD4085603A4D6D6805F46051C90A2D
:100B40003E4D6B5C4568DD40C560354D6D6805F414
:100B50004041890B3A4D6B5CC568B5FBF3F5056107
:100B600030BD29B12E4A526902432D4B5A6104E02F
:100B70002B4A526982432A4B5A61704729B1284A4D
:100B800092690243264B9A6104E0254A92698243A6
:100B9000234B9A61704729B1214AD2690243204B05
:100BA000DA6104E01E4AD26982431D4BDA61704764
:100BB00029B11B4AD2680243194BDA6004E0184A93
:100BC000D2688243164BDA60704729B1144A126921
:100BD0000243134B1A6104E0114A12698243104B1D
:100BE0001A61704712494039086070470F49C8645C
:100BF00070470B49C87170470948406A40F08070DF
:100C000007494862704701460020054A92680A4039
:100C10000AB1012000E00020704701498872704746
:100C2000001002400000FFF8FFFFF6FE0000424205
:100C30008004424200127A0000093D0014000020A6
:100C40002400002010B50446FB48844209D101214C
:100C50008803FFF7ADFF00214FF48040FFF7A8FFA6
:100C600032E0F648844209D101214804FFF7ADFF84
:100C700000214FF40030FFF7A8FF25E0F048844240
:100C800009D101218804FFF7A0FF00214FF4802043
:100C9000FFF79BFF18E0EB48844209D10121C8040B
:100CA000FFF793FF00214FF40020FFF78EFF0BE0CA
:100CB000E548844208D101210805FFF786FF00219D
:100CC0004FF48010FFF781FF10BD2DE9F04786B08B
:100CD00005460E460024A24600BFA1460027B08963
:100CE00000B100BF2F462C8A4CF6FF700440F088FC
:100CF00004432C82AC894EF6F3100440B08831894D
:100D00000843718908430443AC81AC8A4FF6FF4025
:100D10000440B0890443AC8201A8FFF7C2FEC64874
:100D2000874202D1DDF810A001E0DDF80CA0A8890F
:100D300000F4004040B10AEBCA0000EB0A10316831
:100D40004900B0FBF1F807E00AEBCA0000EB0A101B
:100D500031688900B0FBF1F86420B8FBF0F00401C1
:100D60002009642101FB1089A88900F4004040B1EA
:100D7000322000EBC900B0FBF1F000F007000443A3
:100D800008E0322000EB09106421B0FBF1F000F024
:100D90000F0004432C8106B0BDE8F0874FF41651D4
:100DA000016000218180C18001810C2141810021ED
:100DB0008181704710B502460020108A4FF2FF0370
:100DC00018400B884C8823438C882343CC882343CA
:100DD0001843108210BD0021018041808180C180B4
:100DE000704721B1828942F40052828104E08289F5
:100DF0004DF6FF731A4082817047F0B50346002418
:100E000000260025002040F66A17B94200D100BF35
:100E10001846C1F3421401F01F06012707FA06F530
:100E2000012C01D10C3004E0022C01D1103000E083
:100E300014301AB107682F43076002E00768AF4318
:100E40000760F0BD1AB1838A0B43838202E0838A74
:100E50008B4383827047028A4FF6F0731A400282F6
:100E6000028A0A430282704782894FF2FF731A4056
:100E7000828182890A438281704721B1828942F04E
:100E80000202828104E082894FF6FD731A4082815A
:100E90007047028A4FF6DF731A400282028A0A43C1
:100EA0000282704721B1028A42F48042028204E049
:100EB000028A4BF6FF731A4002827047C1F30802A0
:100EC0008280704701468888C0F308007047818996
:100ED00041F0010181817047028BD2B20283028B03
:100EE00042EA012202837047028B02F47F420283AE
:100EF000028B0A430283704721B1828A42F02002AA
:100F0000828204E0828A4FF6DF731A408282704741
:100F100021B1828A42F01002828204E0828A4FF676
:100F2000EF731A408282704721B1828A42F0080230
:100F3000828204E0828A4FF6F7731A4082827047F9
:100F400021B1828942F40042828103E08289C2F3A6
:100F50000E028281704721B1828A42F4006282824D
:100F600004E0828A4FF2FF731A4082827047828ABD
:100F70004FF6FB731A408282828A0A43828270474C
:100F800021B1828A42F00202828204E0828A4FF614
:100F9000FD731A408282704702460020B1F5007F3F
:100FA00000D100BF13880B400BB1012000E00020EE
:100FB000704701F40072B2F5007F00D100BFCA4350
:100FC0000280704770B502460024002300250020EF
:100FD00040F66A16B14200D100BFC1F3421501F0DC
:100FE0001F03012606FA03F3012D02D1968933402F
:100FF00006E0022D02D1168A334001E0968A334082
:101000000C12012606FA04F41688344013B10CB110
:10101000012000E0002070BD10B50022002340F642
:101020006A14A14200D100BF0A1201249440A3B265
:10103000DC43048010BD0000003801400044004043
:1010400000480040004C00400050004000F0BFF855
:1010500000F0A2F900F0D0FA00BFFEE7704700BF31
:10106000FEE700BFFEE700BFFEE700BFFEE77047F8
:101070007047704710B500F0AFF900F0FDF910BDF2
:1010800010B540F225512D48FFF79CFF38B12B4891
:10109000FFF718FFC4B221462848FFF70FFF10BD25
:1010A0002DE9FF470420FFF733FA002843D004203E
:1010B000FFF73FFA224A2349234800F0A3FA234AC4
:1010C0002349244800F0AEFB234A2449244800F079
:1010D000D1FB1B48006803F0E6FD04460D461948A5
:1010E000006803F0E0FD06460F461748006803F06D
:1010F000DAFD804642460B461AA0CDE90067CDE9ED
:10110000024504F0F7F81148B0F900301048B0F982
:1011100000201048B0F9001019A004F0EBF80E48B8
:10112000B0F900300D48B0F900200D48B0F90010BA
:1011300018A004F0DFF8BDE8FF8700000038014088
:10114000300000202C000020280000203800002063
:1011500036000020340000203E0000203C0000202B
:101160003A000020BDC7B6C83A25352E31662C2579
:10117000352E31662C25352E31660D0A0000000013
:10118000CDD3C2DDD2C73A25642C25642C25640D4D
:101190000A000000BCD3CBD9B6C83A25642C25641C
:1011A0002C25640D0A00000008B54FF4A060FFF77D
:1011B000CDF825208DF8000001208DF801008DF874
:1011C00002008DF803006846FFF7C5F808BD00B5BA
:1011D00085B001210420FFF7D1FC01218803FFF72E
:1011E000CDFC4FF40070ADF8100018208DF81300FE
:1011F00003208DF8120004A95248FFF703FA4FF4B8
:101200008060ADF8100004208DF8130004A94D484B
:10121000FFF7F8F94FF4E13000900020ADF804003A
:10122000ADF80600ADF80800ADF80C000C20ADF8E4
:101230000A0069464448FFF748FDFFF7B5FF012261
:1012400040F225514048FFF7D8FD01213E48FFF705
:10125000C8FD05B000BD70B504460D4629462046C0
:10126000FFF72CFE00BF80212046FFF795FE0028E7
:10127000F9D070BD2DE9F04107460D461646002411
:1012800005E0295D3846FFF7E6FF601CC4B2B442B2
:10129000F7DB00BF40213846FFF77EFE0028F9D07B
:1012A000BDE8F08170B506460C46002500BF615DC3
:1012B0003046FFF7D0FF6D1C605D0028F7D100BFFE
:1012C00040213046FFF768FE0028F9D070BD2DE9B7
:1012D000F04105460C46260AE7B231462846FFF79C
:1012E000EDFD00BF80212846FFF756FE0028F9D00B
:1012F00039462846FFF7E2FD00BF80212846FFF768
:101300004BFE0028F9D0BDE8F08170B504460D46CB
:10131000E1B20D48FFF7D2FD00BF80210A48FFF778
:101320003BFE0028F9D0204670BD10B5044600BF32
:1013300020210548FFF730FE0028F9D00248FFF7CA
:10134000C1FD10BD000801400038014030B5014624
:10135000B1F1807F01D3012030BD21F07F40401EDC
:101360004FF0E022506150170F22002807DA1307D0
:101370001D0E444B00F00F04241F1D5503E01307FE
:101380001C0E414B1C5400BF00204FF0E022906126
:10139000072010610020DFE710B53C4800684FF4DB
:1013A0007A71B0FBF1F42046FFF7D0FF08B100BF1F
:1013B000FEE710BD01B53649009808604FF0E02007
:1013C000006940F001004FF0E021086100BF3048A3
:1013D00000680028FBD108BD2D48006820B12C48CA
:1013E0000068401E2A490860704731B527480068E8
:1013F0002849B0FBF1F52846FFF7A8FF002408E0D4
:1014000000BF4FF0E020006900F480300028F8D0E1
:10141000641C00988442F3D34FF0E020006920F070
:1014200001004FF0E021086138BD31B51748006870
:101430004FF47A71B0FBF1F52846FFF787FF0024DF
:1014400008E000BF4FF0E020006900F48030002881
:10145000F8D0641C00988442F3D34FF0E020006978
:1014600020F001004FF0E021086138BD01460A4834
:10147000006808600020704707480068401C064963
:101480000860704718ED00E000E400E00000002074
:101490004400002040420F004000002008B54FF4F7
:1014A000C060FEF753FF08208DF8000001208DF882
:1014B00001008DF802008DF803006846FEF74BFF2F
:1014C00008BD0EB501210520FFF758FBFFF7E6FF29
:1014D0000420ADF808008DF80B0002A91048FFF7B2
:1014E00091F802210020FFF7A3F9042000900020CA
:1014F0008DF8040008208DF8050001208DF8060005
:101500006846FEF79FFF00208DF804000C208DF840
:10151000050001208DF806006846FEF793FF0EBD1A
:101520000008014070B50024E6A003F0E3FE00F0DF
:1015300066FA01F084FD002859D1E8A003F0DAFE34
:10154000782000F05DFF10B9E9A003F0D3FE782009
:1015500000F041FD18B90121ECA003F0CBFE012001
:1015600000F019FE10B9EFA003F0C4FE02F022FB58
:1015700010B9F1A003F0BEFEF44801F007FD0546E6
:1015800002F022FB10B9F2A003F0B4FE40F2731097
:1015900002F05BFF18B90121DCA003F0ABFE0120D3
:1015A00002F0CCFC10B9EFA003F0A4FE01F07FFC28
:1015B000EFA003F09FFEF1A003F09CFE07E0601C8B
:1015C00084B2322C00DD07E06420FFF7F3FE012037
:1015D00000F0D1FE0028F2D100BF322C04DBEAA0DB
:1015E00003F088FE00BFFEE7EEA003F083FEF0A04C
:1015F00003F080FE002070BD10B5FFF793FFFFF7EA
:1016000060FF10BD2DE9F04F99B004460D46164617
:101610004FF07E574FF000084FF000094FF0000ADE
:1016200012A813A918AB0EAACDE9001014A916A888
:1016300003F06AF818B1012019B0BDE8F08FBDF8C9
:101640004C0000F4807000287ED00E9803F0F0FA71
:1016500083464FF09D4103F03BFA07460F9803F095
:10166000E7FA83464FF09D4103F032FA8046109826
:1016700003F0DEFA83464FF09D4103F029FA8146DC
:10168000119803F0D5FA83464FF09D4103F020FAFC
:10169000824639464FF0804003F0E8F9494605900C
:1016A00003F0E4F9414607904FF0404003F0DEF9C3
:1016B0005146059003F0DAF90690079903F07EF998
:1016C000834603F0F0FACDE9080104F0FBFA4FF08D
:1016D0006632BD4BCDE90A0103F038FACDE90C01C1
:1016E00003F0F4FA206049464FF0804003F0BEF961
:1016F0004946029003F0BAF9414604904FF0404049
:1017000003F0B4F94146029003F0B0F90390049954
:1017100003F0A6F983464FF07E5103F04FF9059090
:1017200003F0C1FACDE9080139464FF0804003F0DB
:101730009DF94146039003F099F9494604904FF012
:10174000804003F093F900E068E05146039003F015
:101750008DF98346049903F031F9059003F0A3FA5B
:10176000CDE90601DDE9082304F0F4FC4FF0663210
:10177000954BCDE90A0103F0E9F9CDE90C0103F03D
:10178000A5FA28605146504603F070F94946049086
:10179000484603F06BF941460390404603F066F972
:1017A00039460190384603F061F90090019903F041
:1017B00005F90290039903F053F98346049903F065
:1017C0004FF9059003F06FFACDE90801514638460C
:1017D00003F04CF949460490404603F047F9039062
:1017E000049903F0EBF84FF08041059003F03EF9C7
:1017F000834603F058FACDE90601DDE9082304F039
:10180000A9FC4FF06632704BCDE90A0103F09EF956
:10181000CDE90C0103F05AFA306001E002200BE739
:10182000002009E72DE9FC4104460D4616466B46AB
:1018300006224321682000F0E1F90746BFB99DF870
:1018400001009DF8001040EA012000B220809DF8C0
:1018500003009DF8021040EA012000B228809DF8A4
:1018600005009DF8041040EA012000B2308038469F
:10187000BDE8FC812DE9FC4104460D4616466B4649
:1018800006223B21682000F0B9F90746BFB99DF850
:1018900001009DF8001040EA012000B220809DF870
:1018A00003009DF8021040EA012000B228809DF854
:1018B00005009DF8041040EA012000B2308038464F
:1018C000BDE8FC814D5055363035305F494F5F499A
:1018D0006E69742E2E2E0D0A00000000C9E8D6C3D2
:1018E000D0E8D2AAB5C4CAFDBEDD2E2E2E0D0A0048
:1018F000CEAAD0E8D2AAB5C4CAFDBEDDBFAAC6F43E
:101900006669666F2E2E2E0D0A000000C9E8D6C348
:10191000B2C9D1F9C6B5C2CA3D253364487A2E2E64
:101920002E0D0A00BCD3D4D8646D70B9CCBCFE2E89
:101930002E2E0D0A00000000C9E8D6C3CDD3C2DDAB
:10194000D2C7B7BDCFF22E2E2E0D0A0048000020C0
:10195000CAB9C4DC646D61CCD8D0D42E2E2E0D0A49
:1019600000000000D7D4BCEC2E2E2E0D0A00000083
:10197000D7D4BCEC4F4B2E2E2E0D0A00CAB9C4DCB6
:101980002E2E2E0D0A000000CAB9C4DCCAA7B0DC96
:101990002CBDF8C8EB7768696C652831292E2E2E8E
:1019A0000D0A0000CAB9C4DC4F4B2E2E2E0D0A00C2
:1019B0004D5055363035305F496E6974204F4B2E8F
:1019C0002E2E0D0A0D0A000066A64C40002001E0F4
:1019D000411CC8B20A28FBDB704710B50221A84899
:1019E000FEF7BFFE0121A648FEF7B9FEFFF7EEFFA6
:1019F0000221A348FEF7B3FEFFF7E8FF10BD08B5CC
:101A000001210820FFF7BAF814208DF80300032005
:101A1000ADF800008DF8020069469948FEF7F2FD26
:101A2000FFF7DBFF08BD10B502219548FEF797FED2
:101A300001219348FEF793FEFFF7C8FF022190486B
:101A4000FEF78FFEFFF7C2FF01218D48FEF789FEEA
:101A5000FFF7BCFF10BD70B50446002523E004F07D
:101A6000800020B102218648FEF779FE03E00221C2
:101A70008348FEF776FEFFF7A9FF01218048FEF7B5
:101A80006EFEFFF7A3FF01217D48FEF76AFE072DDA
:101A900003D102217A48FEF762FE6006040EFFF7CA
:101AA00095FF681CC5B2082DD9DB70BD70B5002448
:101AB000002516E06006040E01217148FEF74FFE76
:101AC000FFF784FF02216E48FEF72FFE08B1601C6D
:101AD000C4B201216A48FEF744FEFFF777FF681C95
:101AE000C5B2082DE6DB204670BD10B50221644862
:101AF000FEF735FEFFF76AFF01216148FEF72FFE72
:101B0000FFF764FF02215E48FEF70FFE08B10124D3
:101B100000E0002401215A48FEF723FEFFF756FF9C
:101B2000204610BD10B502215548FEF71AFEFFF7FA
:101B30004DFF01215248FEF712FEFFF747FF01213A
:101B40004F48FEF70EFEFFF741FF02214C48FEF71B
:101B500006FE10BD10B502214948FEF700FEFFF752
:101B600035FF01214648FEF7FAFDFFF72FFF01215F
:101B70004348FEF7F6FDFFF729FF10BD70B5044698
:101B8000FFF73DFFFFF74FFF2046FFF764FFFFF72A
:101B9000ACFF0546FFF721FF284670BD2DE9F04157
:101BA00006460F4690461C46FFF73DFF002141EADE
:101BB0004601C8B2FFF74FFFFFF797FF10B10120B2
:101BC000BDE8F0813846FFF746FFFFF78EFF08B10A
:101BD0000120F5E700250BE014F8010BFFF73BFFB0
:101BE000FFF783FF08B10120EAE700BF681CC5B218
:101BF0004545F1DBFFF7F1FE0020E1E72DE9F0417B
:101C000005460F4690461C46FFF70DFF002141EAAE
:101C10004501C8B2FFF71FFFFFF767FF10B10120B2
:101C2000BDE8F0813846FFF716FFFFF75EFF08B109
:101C30000120F5E7FFF7F7FE012101EB4501C8B2EE
:101C4000FFF709FFFFF751FF08B10120E8E7002681
:101C500007E0FFF72BFF04F8010BFFF763FF701C91
:101C6000C6B2A8F10100B042F3DCFFF71FFF04F891
:101C7000010BFFF76FFFFFF7B0FE0020D0E7000079
:101C8000000801400146FE48407A30B1012808D0E2
:101C900002280AD0032810D10BE04FF480400880BE
:101CA0000EE041F69C7008800AE04FF480500880F6
:101CB00006E04FF40060088002E04FF0FF3070470C
:101CC00000BFEF48C07C10B1088840100880002099
:101CD000F5E70146EA48007A30B1012807D002282A
:101CE00008D003280CD108E0E64808600BE0E6487D
:101CF000086008E0E548086005E0E548086002E0A3
:101D00004FF0FF30704700BF0020FBE708B5DC480C
:101D1000807A10B94FF0FF3008BD00200090D84AFB
:101D20001268D17BD64A526810786B460122FFF7C1
:101D300035FF10B14FF0FF30EEE7D14A126851790C
:101D4000CF4A526810786B460122FFF727FF10B187
:101D50004FF0FF30E0E7CA4A12681179C84A52686A
:101D600010786B460122FFF719FF10B14FF0FF30DA
:101D7000D2E7C34890F82400002853D00C200090EC
:101D8000BF4A12681179BE4A526810786B46012228
:101D9000FFF704FF10B14FF0FF30BDE73220FFF72F
:101DA00009FBC0200090B648807A00F0010020B105
:101DB0009DF8000040F020000090B14A12681179AF
:101DC000AF4A526810786B460122FFF7E7FE10B168
:101DD0004FF0FF30A0E7AA48407C10B102200090ED
:101DE00001E000200090A64A1268D17BA44A526804
:101DF00010786B460122FFF7D1FE10B14FF0FF3093
:101E00008AE7002000909E4A126851799C4A5268E5
:101E100010786B460122FFF7C1FE002855D04FF025
:101E2000FF3079E704200090954A12681179944AAE
:101E3000526810786B460122FFF7B0FE10B14FF0E8
:101E4000FF3069E78E48807C20B98D48807A00F0A9
:101E5000010010B94020009001E060200090884A05
:101E600012681179864A526810786B460122FFF792
:101E700095FE10B14FF0FF304EE73220FFF79AFA8F
:101E80007F48407C10B10120009001E000200090CC
:101E90007B4A1268D17B7A4A526810786B460122DD
:101EA000FFF77CFE10B14FF0FF3035E7744A12683F
:101EB0005179734A52681078714B10330122FFF741
:101EC0006DFE10B14FF0FF3026E7002024E738B553
:101ED00004466B4890F82400C0B114B10220009071
:101EE00001E000200090664A1268D17B644A526883
:101EF00010786B460122FFF751FE10B14FF0FF3012
:101F000038BD9DF800105E48417423E05C48807A3B
:101F100010B94FF0FF30F3E724B15948407C08B1C5
:101F20000020EDE714B10120009001E000200090B6
:101F3000534A1268D17B524A526810786B4601228C
:101F4000FFF72CFE10B14FF0FF30D9E79DF80010DD
:101F50004B4841740020D3E738B504464848807A9E
:101F600010B94FF0FF3038BDBC2C02DB01200090CF
:101F700015E0622C02DB0220009010E02A2C02DB2C
:101F8000032000900BE0142C02DB0420009006E0FC
:101F90000A2C02DB0520009001E006200090384862
:101FA000C07A9DF80010884201D10020DBE7344A56
:101FB00012689178324A526810786B460122FFF716
:101FC000EDFD10B14FF0FF30CDE79DF800102C482B
:101FD000C1720020C7E770B50446002624F0010452
:101FE000274890F8240008B1002070BD2448807A6A
:101FF00010B94FF0FF30F8E72148057C807A204087
:102000001F4908740846007CA04202D04FF0FF36FA
:1020100000E0002614B91A48007D18B10120FFF72E
:1020200056FF02E00020FFF752FF3CB1FFF76EFEC3
:1020300020B1134805744FF0FF30D6E73046D4E79F
:1020400038B504460E4890F82300A04201D1002084
:1020500038BD14B13020009001E000200090084805
:10206000807C20B19DF8000040F002000090044800
:1020700090F8220078B19DF8000040F0800009E05F
:102080005400002000000343000083423333034226
:10209000333383410090FE4A1268117DFC4A526836
:1020A00010786B460122FFF779FD10B14FF0FF3039
:1020B000CEE7F74880F823400020C9E738B504464A
:1020C000282C02DD4FF0FF3038BDDCB90020FFF7CF
:1020D000B7FF00208DF8000007208DF80100EC4AC2
:1020E0001268917CEA4A526810786B460222FFF728
:1020F00055FD10B14FF0FF30E6E70021E4480175CF
:102100000020E1E70120FFF79BFF20208DF8000071
:10211000012C06D100208DF801000520FFF71CFFDF
:1021200017E0052C06DC01208DF801000520FFF7E3
:1021300013FF0EE0142C06DC02208DF801000A20AB
:10214000FFF70AFF05E003208DF801001420FFF7D8
:1021500003FF9DF80100072101EB8010C0B28DF84C
:102160000100CB4A1268917CC94A526810786B46CC
:102170000222FFF713FD10B14FF0FF30A4E7082152
:10218000C348817200210173012101750020FFF70E
:1021900022FF002098E738B50446BD48807A10B980
:1021A0004FF0FF3038BDBA4890F8240010B14FF01E
:1021B000FF30F7E7B648007D50B134B1282C04DC7D
:1021C000E0B2FFF77BFF0020ECE70020FFF776FF8F
:1021D000042C01DA042404E0B4F57A7F01DD4FF425
:1021E0007A744FF47A7090FBF4F0401EC0B2009005
:1021F000A74A12685178A64A526810786B460122A5
:10220000FFF7CCFC10B14FF0FF30CBE79DF800009A
:10221000401C4FF47A7191FBF0F081B29C48C1816F
:102220000146C9894810FFF797FE0020BAE738B584
:1022300004469748807CA04201D1002038BD002C84
:1022400046D0934A12681179914A526810786B46C9
:102250000122FFF7D3FC10B14FF0FF30EEE79DF8FD
:10226000000020F020000090894A12681179884A05
:10227000526810786B460122FFF790FC10B14FF0C6
:10228000FF30DBE70320FFF795F80220009080483D
:1022900090F8220020B19DF8000040F080000090EE
:1022A0007B4890F8230020B19DF8000040F03000FA
:1022B0000090774A1268117D754A526810786B4613
:1022C0000122FFF76BFC002851D04FF0FF30B5E73B
:1022D0006F4A126811796E4A526810786B46012273
:1022E000FFF78CFC10B14FF0FF30A7E76848807A09
:1022F00000F0010028B19DF8000040F0200000909F
:1023000004E09DF8000020F020000090604A126870
:1023100011795F4A526810786B460122FFF73EFC44
:1023200010B14FF0FF3089E70320FFF743F858481A
:1023300090F8220010B18020009001E00020009071
:10234000534890F8230020B19DF8000040F0300081
:1023500000904F4A1268117D4D4A526810786B46C2
:102360000122FFF71BFC10B14FF0FF3066E7484831
:102370008474002062E738B50446454890F824008C
:10238000A04201D1002038BD24B3414890F8250077
:1023900010B94FF0FF30F6E70020FFF798FD00205E
:1023A000FFF745FF3A49C88CFFF7F5FE0020009083
:1023B0003749496808786B4601222321FFF7EEFB75
:1023C0000121334880F824100120FFF780FDFFF73A
:1023D0009DFC13E00020FFF77AFD2D48007C009063
:1023E0002B49496808786B4601222321FFF7D6FB69
:1023F0000021274880F82410FFF788FC0020C2E75E
:1024000038B5044604F0700010B10120009005E0DA
:1024100014B10020009001E0402000901C4A126896
:10242000917C1B4A526810786B460122FFF7B6FB7D
:1024300020B1002116488172481E38BD9DF8000069
:1024400020F04001124801730020009004F0400089
:1024500020B99DF8000040F00400009004F0200036
:1024600020B99DF8000040F00200009004F0100038
:1024700020B99DF8000040F00100009004F0080031
:1024800020B99DF8000040F038000090004A01E0BB
:10249000540000201268D17CF94A526810786B46CB
:1024A0000122FFF77BFB20B10021F5488172481E15
:1024B000C3E724B1082C02D00020FFF7C1FDF0488B
:1024C0008472002101753220FEF774FF0020B4E70A
:1024D00038B50446EA48807A10B94FF0FF3038BD6D
:1024E000022C06D0042C07D0082C08D0102C0CD1BC
:1024F00008E0002000900BE00820009008E0102089
:10250000009005E01820009002E04FF0FF30E6E771
:1025100000BFDB48407A9DF80010B0EBE10F01D11D
:102520000020DCE7D64A1268D179D54A5268107883
:102530006B460122FFF732FB10B14FF0FF30CEE7C0
:102540009DF80000C110CE4841720020C7E738B5A1
:102550000446CB48807A10B94FF0FF3038BDFA2CD2
:1025600009D0B4F5FA7F09D0B4F57A7F09D0B4F573
:10257000FA6F0CD108E0002000900BE008200090DA
:1025800008E01020009005E01820009002E04FF0D5
:10259000FF30E3E700BFBA48007A9DF80010B0EBC7
:1025A000E10F01D10020D9E7B54A12689179B44A08
:1025B000526810786B460122FFF7F0FA10B14FF025
:1025C000FF30CBE79DF80000C010AD490872002035
:1025D000C4E72DE9FC5F06460F460025A849496877
:1025E000087801AB03220D21FFF708FB10B107208B
:1025F000BDE8FC9F9DF8040000F01F008DF804006A
:102600009DF8050000F01F008DF805009DF80600FC
:1026100000F01F008DF80600002456E056F8240054
:1026200057F82410A0EB010BBBF1000F01DB59465A
:1026300001E0CBF10001084602F0FAFA4FF08F41B9
:10264000009002F045FA814601A8005D68B38D490B
:10265000086802F0F6FA834659468B4802F038FAC9
:10266000804604E08949404602F000FA804601A80D
:10267000005D401EC0B201A908550028F2D14146B4
:10268000484602F025FA83464FF07E5102F0E8F901
:1026900082462AF0004B7B488169584602F03CFB99
:1026A00012D20120A04005430EE076480169484659
:1026B00002F028FB05D373484169484602F02CFB21
:1026C00002D20120A0400543641C032CA6DB28464F
:1026D0008EE77CB505466A494968087801AB042253
:1026E0000D21FFF78BFA08B107207CBD9DF807008C
:1026F000C0F301109DF8041001F0E00140EAE10090
:102700008DF800009DF80700C0F381009DF80510CA
:1027100001F0E00140EAE1008DF801009DF80700BA
:1027200000F003009DF8061001F0E00140EAE1002E
:102730008DF8020000241CE01DF8040018B90020E8
:1027400045F8240013E0524845F8240006E055F807
:102750002400504902F08AF945F824001DF80400CD
:10276000401EC0B20DF804000028F0D100BF601C6C
:10277000C4B2032CE0DB0020B7E72DE9FE4F06468C
:102780000F4600256846FFF7A4FF002442E056F8F4
:10279000240057F82410A0EB010ABAF1000F01DB66
:1027A000514601E0CAF10001084602F041FA8346B1
:1027B0004FF08F4102F08CF980465DF82400002133
:1027C00002F0A0FA16D05DF82410404602F080F91D
:1027D00082464FF07E5102F043F9814629F0004ACB
:1027E0002848416A504602F097FA12D20120A040D0
:1027F00005430EE02348C169404602F083FA05D341
:102800002048016A404602F087FA02D20120A04027
:102810000543641C032CBADB2846BDE8FE8F2DE976
:10282000F04F87B005460C46914601208DF8100008
:1028300000208DF81100124A1268917C104A5268EB
:10284000107804AB0222FFF7A9F920B14FF0FF3056
:1028500007B0BDE8F08FC820FEF7ACFD00208DF872
:102860001000074A1268D17B054A5268107804AB01
:102870000122FFF793F978B14FF0FF30E8E700004D
:10288000540000206463000800B04C4554E3853FC9
:102890007B14AE3E1D5A843FFC4A12685179FB4AB4
:1028A0005268107804AB0122FFF778F910B14FF0AD
:1028B000FF30CDE7F54A1268917CF44A52681078EF
:1028C00004AB0122FFF76AF910B14FF0FF30BFE708
:1028D000EE4A1268D17DED4A5268107804AB0122AD
:1028E000FFF75CF910B14FF0FF30B1E7E74A12682B
:1028F0001179E64A5268107804AB0122FFF74EF9CD
:1029000010B14FF0FF30A3E70C208DF81000DF4A24
:1029100012681179DD4A5268107804AB0122FFF782
:102920003DF910B14FF0FF3092E70F20FEF742FD66
:10293000D648806A407A8DF81000D44A126891789F
:10294000D24A5268107804AB0122FFF727F910B180
:102950004FF0FF307CE7CD48806A007A8DF8100098
:10296000CA4A12685178C94A5268107804AB0122E9
:10297000FFF714F910B14FF0FF3069E7B9F1000F1C
:1029800007D0C248806A807A40F0E0008DF81000DD
:1029900004E0BE48806A807A8DF81000BB4A126855
:1029A0009179BA4A5268107804AB0122FFF7F6F821
:1029B00010B14FF0FF304BE7B9F1000F07D0B3482B
:1029C000806AC07A40F0E0008DF8100003E0B04863
:1029D000C07A8DF81000AD4A1268D179AB4A5268BE
:1029E000107804AB0122FFF7D9F810B14FF0FF3097
:1029F0002EE7B9F1000F02D0C820FEF7DBFC402023
:102A00008DF81000A14A12681179A04A5268107816
:102A100004AB0122FFF7C2F810B14FF0FF3017E707
:102A200078208DF81000994A12685179974A5268B7
:102A3000107804AB0122FFF7B1F810B14FF0FF306E
:102A400006E793498889FEF7B5FC00208DF8100051
:102A50008E4A126851798D4A5268107804AB01226F
:102A6000FFF79CF810B14FF0FF30F1E6874A12688B
:102A7000917A864A5268107804AB0222FFF7BEF8BA
:102A800010B14FF0FF30E3E69DF811009DF81010F3
:102A900040EA012B0C209BFBF0F0C6B20020A8609E
:102AA00068602860A06060602060824665E0774AC8
:102AB0001268D17A754A5268107804AB0C22FFF77D
:102AC0009DF810B14FF0FF30C2E69DF811009DF85F
:102AD000101040EA012000B2ADF808009DF8130084
:102AE0009DF8121040EA012000B2ADF80A009DF8EE
:102AF00015009DF8141040EA012000B2ADF80C005A
:102B0000BDF90810206808442060BDF90A1060680B
:102B100008446060BDF90C10A0680844A0609DF8EE
:102B200017009DF8161040EA012000B2ADF8000031
:102B30009DF819009DF8181040EA012000B2ADF888
:102B400002009DF81B009DF81A1040EA012000B217
:102B5000ADF80400BDF90010286808442860BDF9EC
:102B60000210686808446860BDF90410A868084449
:102B7000A8600AF1010000F0FF0AB24597DB444863
:102B8000D0F800C02868C117090441EA10410704C1
:102B900062460023384601F0C1FE32460023CDE9EB
:102BA000020101F0BBFE28603948D0F800C0686817
:102BB000C117090441EA1041070462460023384660
:102BC00001F0ACFE32460023CDE9020101F0A6FE81
:102BD00068602F48D0F800C0A868C117090441EA0E
:102BE0001041070462460023384601F097FE324642
:102BF0000023CDE9020101F091FEA8602448D0F83D
:102C000004C02068C117090441EA10410704624664
:102C10000023384601F082FE32460023CDE902014E
:102C200001F07CFE20601A48D0F804C06068C1172B
:102C3000090441EA1041070462460023384601F0C6
:102C40006DFE32460023CDE9020101F067FE6060AF
:102C50000F48D0F804C0A068C117090441EA104128
:102C6000070462460023384601F058FE324600232E
:102C7000CDE9020101F052FEA060A068002809DD44
:102C8000A068A0F58030A06008E00000540000209B
:102C900064630008A06800F58030A0600020D7E5DC
:102CA0000146FA48007C0870002070470146F7484A
:102CB00090F8240010B14FF0FF307047F348C089FE
:102CC00008800020F9E70146F048C07A082817D2AA
:102CD000DFE800F01704070A0D101318BC20088065
:102CE00013E06220088010E02A2008800DE0142004
:102CF00008800AE00A20088007E00520088004E038
:102D000000BF00BF0020088000BF00BF0020704748
:102D10000146DE48407A30B1012807D0022808D0A9
:102D200003280CD108E0022008700BE00420087092
:102D300008E00820087005E01020087002E04FF05D
:102D4000FF30704700BFD148C07C18B108784006FA
:102D5000000E08700020F4E70146CC48007A30B13C
:102D6000012807D0022809D003280FD10AE0FA2051
:102D700008800EE04FF4FA7008800AE04FF47A7091
:102D8000088006E04FF4FA60088002E00020088026
:102D900000BF00BF002070472DE9F04F8DB0834683
:102DA0000F4602200C90B94890F8240020B1002072
:102DB000FFF7E1FA012600E0002603A8FFF7CCFFA9
:102DC00005A8FFF7A5FF01A8FFF77DFF02A8FFF701
:102DD0006DFFAE4890F80AA004A8FFF761FF002439
:102DE00007E0002239465846FFF719FD00B902E016
:102DF000641C022CF5DB00BF022C01D1002528E069
:102E0000002407E0012206A909A8FFF708FD00B980
:102E100002E0641C022CF5DB00BF022C01D100256E
:102E200017E006A93846FFF7A8FC00F0FF0809A93B
:102E30005846FFF7CEFB00F0FF090025B9F1000F5F
:102E400001D145F00105B8F1000F01D145F00205AF
:102E500000BFFF208D490872FF218C484172C1726A
:102E60004FF6FF71C181FF2181720174012101734D
:102E7000BDF80C00FFF76BFB9DF81400FFF728FB73
:102E8000BDF80400FFF768F8BDF80800FFF783F904
:102E90005046FFF7B5FA9DF81000FFF79CF816B101
:102EA0000120FFF768FA28460DB0BDE8F08F70B535
:102EB00088B002A905A8FFF76FFF0446072C3CD194
:102EC00001A8FEF706FF059801F0B2FE064601993B
:102ED00001F0CCFD054601F0B9FE0590069801F021
:102EE000A7FE0646019901F0C1FD054601F0AEFEC0
:102EF0000690079801F09CFE0646019901F0B6FD88
:102F0000054601F0A3FE079005A800F0EEFE684616
:102F1000FEF7B8FEBDF80010029848430290BDF8D5
:102F20000010039848430390BDF8001004984843EC
:102F3000049002A800F06CFF00BF08B070BD01460D
:102F400091F90020002A01DD00201EE091F9002007
:102F5000002A01DA042018E091F90120002A01DD9D
:102F6000012012E091F90120002A01DA05200CE08D
:102F700091F90220002A01DD022006E091F90220E9
:102F8000002A01DA062000E00720704710B5044649
:102F90002046FFF7D4FF0346E01CFFF7D0FF43EACB
:102FA000C00083B2A01DFFF7CAFF43EA801083B2BE
:102FB000184610BD38B5002419E034480068C07ABE
:102FC000A04204D031480068407DA04200D10CE00E
:102FD0002E49496808786B4601222146FEF70EFE0D
:102FE00010B14FF0FF3038BD00BF601CC4B227489D
:102FF00040680079A042E0DC0020F4E770B50446A8
:103000000D4622480068C07AA04204D01F480068DC
:10301000407DA04202D14FF0FF3070BD1B48406898
:103020000079A04202DC4FF0FF30F6E7174949680B
:1030300008782B4601222146FEF7E0FDEDE71CB59E
:1030400080208DF80000114A1268917C0F4A526866
:1030500010786B460122FEF7A1FD10B14FF0FF3052
:103060001CBD6420FEF7A6F900208DF80000074A79
:103070001268917C054A526810786B460122FEF76F
:103080008DFD28B14FF0FF30EAE70000540000202A
:10309000FE4A1268917DFD4A526810786B460622FE
:1030A000FEF7ACFD10B14FF0FF30D9E79DF80500F9
:1030B000C007400F9DF8031001F0010140EA4100F4
:1030C0009DF8011001F0010140EA010474B1012CE6
:1030D00003D10121ED48C17427E0022C03D1002166
:1030E000EA48C17421E04FF0FF30B9E7E74A1268BF
:1030F000D178E64A526810786B460122FEF77EFDD1
:1031000010B14FF0FF30ABE79DF8000000F00F0466
:1031100014B94FF0FF30A3E7042C03D10121DB48A1
:10312000C17402E00021D948C174FF21D7488172DF
:10313000FF20D6490872FF21D4484172C1724FF670
:10314000FF71C181FF21017481740121017380F835
:103150002210002180F8231041750175163001609E
:1031600041608160163880F8241080F82510C184F1
:103170004FF4FA60FFF7EBF910B14FF0FF306FE753
:103180000220FFF7A5F910B14FF0FF3068E72A20C1
:10319000FEF7E2FE10B14FF0FF3061E73220FEF79C
:1031A000FAFF10B14FF0FF305AE70020FEF713FF8F
:1031B00010B14FF0FF3053E70020FFF738F810B19F
:1031C0004FF0FF304CE70020FFF71AF9002047E7E7
:1031D0007CB504460D46AD48807A00F0700010B909
:1031E0004FF0FF307CBDA94A1268117BA74A526894
:1031F00010786B460622FEF701FD10B14FF0FF304C
:10320000F0E79DF801009DF8001040EA012000B2AF
:1032100020809DF803009DF8021040EA012000B2D2
:1032200060809DF805009DF8041040EA012000B27E
:10323000A0800020D6E77CB504460D469348807AEE
:1032400000F0080010B94FF0FF307CBD8F4A1268C3
:10325000517B8E4A526810786B460622FEF7CEFCF0
:1032600010B14FF0FF30F0E79DF801009DF800101D
:1032700040EA012000B220809DF803009DF8021072
:1032800040EA012000B260809DF805009DF804101E
:1032900040EA012000B2A08015B12846FEF7E6F80A
:1032A0000020D2E72DE9FE4F05460C467748807A8C
:1032B00018B94FF0FF30BDE8FE8F744A1268917B59
:1032C000724A5268107802AB0222FEF797FC10B1E6
:1032D0004FF0FF30EFE79DF809009DF8081040EA35
:1032E000012006B214B12046FEF7C0F867494968CC
:1032F000C88801F0A6FC654901904968B1F9080049
:1033000001F096FC8346304601F092FC594600904D
:1033100001F0A6FB8246019901F0DAFB81465C4987
:1033200001F04CFB80464FF08F4101F09FFB0746B8
:1033300001F08CFC28600020BDE710B588B0044681
:103340001CB94FF0FF3008B010BD206828B9606884
:1033500018B9A06808B90020F5E74C494968087811
:1033600006AB03221146FEF749FC10B14FF0FF30C7
:10337000E9E79DF81800082101EB201000F00F008C
:10338000ADF800009DF8190001EB201000F00F00CF
:10339000ADF802009DF81A0001EB201000F00F00BC
:1033A000ADF8040020684100BDF90000403091FBF9
:1033B000F0F000B2ADF8100060684100BDF9020005
:1033C000403091FBF0F000B2ADF81200A06841006F
:1033D000BDF90400403091FBF0F000B2ADF81400EC
:1033E0002A494968087806AB06221146FEF706FC12
:1033F00010B14FF0FF30A6E79DF819009DF81810A6
:1034000040EA012000B2ADF808009DF81B009DF8CD
:103410001A1040EA012000B2ADF80A009DF81D0024
:103420009DF81C1040EA012000B2ADF80C00BDF878
:103430001000BDF80810084400B2ADF81000BDF847
:103440001200BDF80A10084400B2ADF81200BDF831
:103450001400BDF80C10084400B2ADF81400BDF81B
:103460001000000A8DF81800BDF81000C0B28DF8E9
:103470001900BDF81200000A8DF81A00BDF81200FC
:10348000C0B28DF81B00BDF8140003E0540000200A
:1034900000000C42000A8DF81C00BDF81400C0B2F8
:1034A0008DF81D00FD494968087806AB06221146D3
:1034B000FEF774FB10B14FF0FF3044E7002042E705
:1034C000014600200880401E704701464FF0FF3043
:1034D00070470146F148807A10B10120087001E080
:1034E000002008700020704738B50446EB48807A09
:1034F00010B94FF0FF3038BDE84A1268117CE74A36
:10350000526810786B460222FEF778FB10B14FF03C
:10351000FF30F0E79DF801009DF8001040EA01201F
:1035200000B220800020E6E72DE9FE4F07468846DE
:1035300092461D46DDF830B000260024D74890F8AA
:10354000240010B1601EBDE8FE8F00202870D34813
:10355000807A10B94FF0FF30F5E7D048007C10B901
:103560004FF0FF30EFE7CD48007C00F0400008B19D
:10357000B01CC6B2C948007C00F0200008B1B01CE5
:10358000C6B2C648007C00F0100008B1B01CC6B23C
:10359000C248007C00F0080008B1B01DC6B2BF4AA6
:1035A0001268917ABD4A526810786B460222FEF783
:1035B00025FB10B14FF0FF30C5E79DF801009DF8E5
:1035C000001040EA0129B14501DA0020BBE7B34809
:1035D00040684088B9EB600F17DDB04A1268517C33
:1035E000AE4A526810786B460122FEF707FB10B115
:1035F0004FF0FF30A7E79DF8000000F0100020B169
:10360000FEF784FB6FF001009DE75046FDF72EFFAB
:10361000A24A1268D17AA14A526810786B463246A3
:10362000FEF7ECFA10B14FF0FF308CE799FBF6F0A3
:10363000401E8BF8000000202870B4422AD0974822
:10364000007C00F0080028B3601C1DF800001DF885
:10365000041040EA012000B2A8F80000E01C1DF8A8
:103660000010A01C1DF8000041EA002000B2A8F8DC
:103670000200601D1DF80010201D1DF8000041EA29
:10368000002000B2A8F80400287840F00800287054
:10369000A01D84B2B44213D08048007C00F04000EA
:1036A00070B1601C1DF800001DF8041040EA0120F4
:1036B00000B23880287840F040002870A01C84B206
:1036C000B44213D07548007C00F0200070B1601C3B
:1036D0001DF800001DF8041040EA012000B27880B7
:1036E000287840F020002870A01C84B2B44213D087
:1036F0006A48007C00F0100070B1601C1DF80000EA
:103700001DF8041040EA012000B2B880287840F08B
:1037100010002870A01C84B2002014E7F8B50446FD
:103720000F4616465D4890F8240010B94FF0FF3060
:10373000F8BD5A48807A10B94FF0FF30F8E7574A81
:103740001268917A554A526810786B460222FEF749
:1037500055FA10B14FF0FF30EAE79DF801009DF8EF
:10376000001040EA0125A54203DA00203070401E17
:10377000DEE74A4840684088B5EB600F17DD474AEE
:103780001268517C454A526810786B460122FEF758
:1037900035FA10B14FF0FF30CAE79DF8000000F095
:1037A000100020B1FEF7B2FA6FF00100C0E7E2B2FC
:1037B0003A4B1B68D97A394B5B6818783B46FEF761
:1037C0001DFA10B14FF0FF30B2E795FBF4F0401E48
:1037D00030700020ACE70146304880F8221000200D
:1037E0007047F8B504460D46164616B94FF0FF303F
:1037F000F8BD2A48807A10B94FF0FF30F8E7201260
:103800008DF80000E0B28DF801009DF80100284419
:10381000224949684989884202DD4FF0FF30E7E7D5
:103820001E4A1268117E1D4A526810786B460222A9
:10383000FEF7B4F910B14FF0FF30D9E7EAB2174BF9
:103840001B68597D154B5B6818783346FEF7A6F95F
:1038500010B14FF0FF30CBE70020C9E7F8B50446C0
:103860000D46164616B94FF0FF30F8BD0B48807A6A
:1038700010B94FF0FF30F8E720128DF80000E0B2E9
:103880008DF801009DF801002844044949684989E0
:10389000884205DD4FF0FF30E7E7000054000020CC
:1038A000C34A1268117EC24A526810786B460222DF
:1038B000FEF774F910B14FF0FF30D6E7EAB2BC4B17
:1038C0001B68597DBA4B5B6818783346FEF796F94A
:1038D00010B14FF0FF30C8E70020C6E72DE9F043F4
:1038E00085B005460E4690469946B14890F82500A9
:1038F00020B14FF0FF3005B0BDE8F08316B94FF0AE
:10390000FF30F8E7002423E0281B102801DD1020F9
:1039100000E0281B87B2321939462046FFF761FFC5
:1039200010B14FF0FF30E6E701AA39462046FFF715
:1039300095FF10B14FF0FF30DDE730193A4601A98D
:1039400001F02FF810B16FF00100D4E7E01984B254
:10395000AC42D9DB4FEA28208DF8000008F0FF00C8
:103960008DF80100924A1268917E914A526810784F
:103970006B460222FEF712F910B14FF0FF30BAE7A2
:1039800001218B4880F82510A0F826900020B2E78E
:103990000146874890F824000870002070470246CE
:1039A0004FF0FF30704701464FF0FF307047F8B5D9
:1039B00005460F461446002C70D0B5F5FF5F01DDBB
:1039C000FF2605E0202D01DA012601E0C5F34716A8
:1039D00007B90127282C02DD4FF0FF30F8BD7448ED
:1039E000407D28BB724890F8240038B10020FEF7D3
:1039F000C2FC01216E4880F8201003E000216C48D1
:103A000080F820106A481630FFF7A6F96848183089
:103A1000FFF77EF966481A30FFF755F964481C3005
:103A2000FFF744F96248817A81771F30FFF738F950
:103A30000020FEF74CFA0020FEF740FB00208DF836
:103A400000005B4A12689178594A526810786B46B8
:103A50000122FEF7A3F810B14FF0FF30BEE740207F
:103A60008DF80000524A1268D17B514A5268107892
:103A70006B460122FEF792F800B165E08DF8006018
:103A80008DF801704A4A1268117A494A52681078D2
:103A90006B460222FEF782F808B155E047E00520A8
:103AA000FDF788FC4248407A072101EBC000C0B214
:103AB0008DF800003E4A1268D1793D4A526810786C
:103AC0006B460122FEF76AF800B13DE020208DF838
:103AD0000000012C03D100208DF801000EE0052C20
:103AE00003DC01208DF8010008E0142C03DC022027
:103AF0008DF8010002E003208DF801009DF801001F
:103B0000072101EB8010C0B28DF80100284A12682D
:103B1000917C274A526810786B460222FEF73EF8E5
:103B200000B111E0012122484175002056E7204AEA
:103B30001632002103E0505C00B105E0491C0C295D
:103B4000F9D34FF0FF3049E7FF2019490872FF21F0
:103B500017484172C1724FF6FF71C181FF21817216
:103B60000174012101730146887FFEF749FC104969
:103B7000C88AFEF7ECFC0E49087EFEF7A9FC0C494A
:103B8000488BFEF7E9F90A49888BFEF704FB0849E0
:103B9000C87FFEF720FA064890F8200010B10120F7
:103BA000FEF7E9FB002102484175002016E70000FE
:103BB0005400002010B5C8234FF48062F74940F646
:103BC000F630FFF78BFE10BD10B586B00446F4A0AA
:103BD00000680390F3A000680290F3A000680190D1
:103BE000F2A00068009004F0030003A9085C8DF8BF
:103BF000140003A8C4F3C101405C8DF8150003A8AC
:103C0000C4F38111405C8DF8160004F0030002A992
:103C1000085C8DF8100002A8C4F3C101405C8DF867
:103C2000110002A8C4F38111405C8DF8120005AAAE
:103C3000032140F22640FFF7D4FD18B14FF0FF30CA
:103C400006B010BD04AA032140F22A40FFF7C9FDC7
:103C500010B14FF0FF30F3E7019805900098049001
:103C600004F0040058B19DF8140040F001008DF8F4
:103C700014009DF8100040F001008DF8100004F0D1
:103C8000200058B19DF8150040F001008DF8150096
:103C90009DF8110040F001008DF8110004F48070CF
:103CA00058B19DF8160040F001008DF816009DF8FF
:103CB000120040F001008DF8120005AA03214FF414
:103CC0008860FFF78EFD10B14FF0FF30B8E704AA0F
:103CD000032140F23140FFF784FD10B14FF0FF3077
:103CE000AEE7B34804810020AAE71FB50446B048F8
:103CF000007A00F0030054F820000190AC48007AEC
:103D000000F0040010B1019840420190A848007AE8
:103D1000C0F3C10054F820000290A548007A00F0DA
:103D2000200010B1029840420290A148007AC0F3EE
:103D3000811054F8200003909D48008900F48070A1
:103D400010B10398404203909A49019880FB010109
:103D5000800F40EA810001909649029880FB011093
:103D6000820042EA917002909249039880FB011010
:103D7000820042EA917003900198000E8DF80000D5
:103D80000198000C8DF801000198000A8DF80200DE
:103D90000198C0B28DF803006A4604214FF4747094
:103DA000FFF71FFD18B14FF0FF3004B010BD0298AF
:103DB000000E8DF800000298000C8DF801000298AA
:103DC000000A8DF802000298C0B28DF803006A461E
:103DD00004214FF47570FFF704FD10B14FF0FF3070
:103DE000E3E70398000E8DF800000398000C8DF8AF
:103DF00001000398000A8DF802000398C0B28DF804
:103E000003006A4604214FF47670FFF7EAFCCCE722
:103E100070B588B0064601A8FDF734FFBDF8040070
:103E20000021C90341EA5045C4036148007A00F00B
:103E3000030056F8200005905D48007A00F0040069
:103E400010B10598404205905948007AC0F3C1006E
:103E500056F8200006905648007A00F0200010B175
:103E60000698404206905248007AC0F3811056F8F6
:103E7000200007904E48008900F4807010B1079828
:103E8000404207900598C117A0FB042301FB0431B1
:103E900000FB0510810041EA927005900698C11759
:103EA000A0FB042301FB043100FB0510810041EA63
:103EB000927006900798C117A0FB042301FB043100
:103EC00000FB0510810041EA927007900598000EF2
:103ED0008DF808000598000C8DF809000598000A77
:103EE0008DF80A000598C0B28DF80B000698000EF8
:103EF0008DF80C000698000C8DF80D000698000A4D
:103F00008DF80E000698C0B28DF80F000798000ECD
:103F10008DF810000798000C8DF811000798000A22
:103F20008DF812000798C0B28DF8130002AA0C2178
:103F30004FF42570FFF755FC08B070BD30B585B063
:103F400004461DA207CA02AB07C3C82C03DD4FF00D
:103F5000FF3005B030BDC82090FBF4F0401E85B2A4
:103F6000280A8DF80000E8B28DF801006A460221A7
:103F700040F21620FFF735FC10B14FF0FF30E8E7B4
:103F800002AA0C2140F6C120FFF72BFC10B14FF024
:103F9000FF30DEE7064884810020DAE78C63000802
:103FA0004CCD6C000CC92C003656760026466600B7
:103FB0008800002009E3CA02FEF2ABC4AAF1DFDFE9
:103FC000BBAFDFDF0146FC488089088000207047D6
:103FD0002DE9FC4706460F4606F0070010B1B7F57D
:103FE000C86F03DD4FF0FF30BDE8FC87384600F0B6
:103FF00028FE8146F14900F06BFD80466846FEF7D9
:1040000087FE9DF80000022806D0042816D0082854
:1040100026D0102848D135E04FF08D41404600F0C1
:1040200025FD814600F02BFE84B2E549404600F0B4
:104030001DFD814600F023FE85B238E04FF08C4133
:10404000404600F013FD814600F019FE84B2DD49C0
:10405000404600F00BFD814600F011FE85B226E0DF
:104060004FF08B41404600F001FD814600F007FE15
:1040700084B2D549404600F0F9FC814600F0FFFDCE
:1040800085B214E04FF08A41404600F0EFFC8146D3
:1040900000F0F5FD84B2CD49404600F0E7FC8146D2
:1040A00000F0EDFD85B202E04FF0FF309CE700BF6D
:1040B00020128DF80400E0B28DF8050028128DF86A
:1040C0000600E8B28DF8070006F00100A0B101AAD1
:1040D00002214FF4EA70FFF784FB10B14FF0FF307C
:1040E00082E70DF1060202214FF49270FFF779FB8F
:1040F00010B14FF0FF3077E706F00200A0B101AA3F
:1041000002214FF4EC70FFF76CFB10B14FF0FF3061
:104110006AE70DF1060202214FF49470FFF761FB8C
:1041200010B14FF0FF305FE706F00400A0B101AA24
:1041300002214FF4EE70FFF754FB10B14FF0FF3047
:1041400052E70DF1060202214FF49670FFF749FB8A
:1041500010B14FF0FF3047E7002045E738B504467F
:104160000020009004F0010020B19DF8000040F014
:104170003000009004F0020020B19DF8000040F0F3
:104180000C00009004F0040020B19DF8000040F005
:10419000030000906A4601214FF4A470FFF721FB51
:1041A00038BD38B50446012C01DA012402E0042CA4
:1041B00000DD0424601EC0B200906A46012140F276
:1041C0004F10FFF70EFB38BD38B50446052094FBB1
:1041D000F0F085B228128DF80000E8B28DF80100E9
:1041E0006A4602214FF4EF70FFF7FBFA38BD38B58D
:1041F0000446052094FBF0F085B228128DF80000EB
:10420000E8B28DF801006A4602214FF4ED70FFF725
:10421000E8FA38BDF8B505460E464FF47A7095FBBE
:10422000F0F000FB06F4200E8DF80000200C8DF855
:104230000100200A8DF80200E0B28DF803006A4602
:1042400004214FF4AE70FFF7CCFAF8BD38B5044640
:10425000052094FBF0F084B220128DF80000E0B24B
:104260008DF801006A4602214FF4AD70FFF7B9FAEC
:1042700038BD38B50446052094FBF0F084B2201216
:104280008DF80000E0B28DF801006A4602214FF47B
:10429000AC70FFF7A6FA38BD38B5044614B94FF034
:1042A000FF3038BD6A4604214FF45870FFF7D6FA44
:1042B00010B14FF0FF30F4E79DF8000000069DF8C4
:1042C000011040EA01409DF8021040EA01209DF8EB
:1042D0000310084320600020E3E738B50446200EB1
:1042E0008DF80000200C8DF80100200A8DF80200E6
:1042F000E0B28DF803006A4604214FF45870FFF7CE
:1043000070FA38BD38B5044614B94FF0FF3038BDE7
:104310006A4604214FF47170FFF7A0FA10B14FF014
:10432000FF30F4E79DF8000000069DF8011040EA18
:1043300001409DF8021040EA01209DF80310084357
:1043400000EB8000800020600020E0E738B50446E4
:104350001420B4FBF0F4200E8DF80000200C8DF832
:104360000100200A8DF80200E0B28DF803006A46D1
:1043700004214FF47170FFF734FA38BD38B50446A4
:1043800064B120208DF8000028208DF80100302035
:104390008DF8020038208DF8030004E0A3220421E8
:1043A000684600F0ECFA6A46042140F69E20FFF7CA
:1043B00018FAFDF7ABFC38BD880000200000484328
:1043C000000040460000C045000040450000C044D9
:1043D00038B5044664B1C0208DF80000C2208DF8C5
:1043E0000100C4208DF80200C6208DF8030004E00F
:1043F0008B220421684600F0C2FA6A46042140F686
:104400009820FFF7EEF9FDF781FC38BD3EB5044674
:104410006CB1FDA1D1E900208968CDE900200291AD
:104420006A4609214FF49760FFF7DBF93EBDF9A218
:10443000D2E900109268CDE9010200916A46092193
:104440004FF49760FFF7CDF9F0E73EB50446022040
:104450008DF80000CA208DF80100E3208DF80200DD
:1044600009208DF803006A4604216820FFF7B9F996
:10447000A3208DF8000004F0400048B1C0208DF862
:104480000100C8208DF80200C2208DF8030006E06C
:10449000A3208DF801008DF802008DF8030004F4CC
:1044A000C07048B1C4208DF80400CC208DF8050000
:1044B000C6208DF8060006E0A3208DF804008DF8D4
:1044C00005008DF80600A3208DF807008DF8080080
:1044D0008DF809006A460A2140F6A720FFF781F906
:1044E00004F0030018B120208DF8000002E0D8206D
:1044F0008DF800006A46012140F6B620FFF771F9F9
:1045000004F0200018B10120FFF780FF02E0002036
:10451000FFF77CFF04F4C07008B304F4807060B14E
:10452000B2208DF800008B208DF80100B6208DF8A8
:1045300002009B208DF803000BE0B0208DF80000F6
:1045400080208DF80100B4208DF8020090208DF8B5
:1045500003006A46042140F6A220FFF742F904F066
:10456000010020B3F8208DF800006A4601214FF4C5
:104570000B60FFF736F9FA210720FFF729FD072026
:10458000FFF7ECFD0120FFF70CFE6420FFF71CFE97
:104590004FF4FA70FFF72BFEC821A148FFF73AFE4F
:1045A0002820FFF753FE0A20FFF763FE08E0D8201B
:1045B0008DF800006A4601214FF40B60FFF711F9F6
:1045C00004F0020018B1D9208DF8000002E0D820D4
:1045D0008DF800006A46012140F23D70FFF701F9B5
:1045E00004F0040018B10120FFF7F2FE02E0002001
:1045F000FFF7EEFE04F0100018B10120FFF7BEFE39
:1046000002E00020FFF7BAFE44F008008549488127
:10461000FDF77CFB00208349887304F0400018B14B
:104620000846807B801D887304F4C07020B17D48EB
:10463000807B801D7B49887304F0140020B1794889
:10464000807B10307749887304F0030020B17548EF
:10465000807B001D7349887300203EBD0146714870
:1046600040890880002070472DE9F0410446E07839
:1046700000F0C006E07800F03F05607800F001002F
:1046800098B1EF102846E91705EB5171C910A5EB59
:10469000C101491C01F0FF086248006820B161486F
:1046A000414602683846904700BF607800F0080035
:1046B00030B15C48406818B1B0115A4A5168884717
:1046C0000020BDE8F08110B586B0044656A207CAA6
:1046D00003AB07C357A207CA8DE80700012C09D016
:1046E000022C0ED103AA0B2140F68220FFF779F8A5
:1046F00006B010BD6A460B2140F68220FFF771F824
:10470000F6E74FF0FF30F3E72DE9F04F8DB00746A5
:10471000884615469B46DDE9166A00240020308055
:104720004049887B524605A9FEF7F8FF18B1601E84
:104730000DB0BDE8F08F3B48807A00F014000028EF
:1047400061D09DF8140000069DF8151040EA014064
:104750009DF8161040EA01209DF8171008432860C4
:104760009DF8180000069DF8191040EA01409DF8D8
:104770001A1040EA01209DF81B10084368609DF85C
:104780001C0000069DF81D1040EA01409DF81E1017
:1047900040EA01209DF81F100843A8609DF8200002
:1047A00000069DF8211040EA01409DF8221040EAE1
:1047B00001209DF823100843E86004F11000C4B202
:1047C000286800140190686800140290A86800141A
:1047D0000390E8680014049001984043029901FB9B
:1047E0000100039901FB0100049901FB0109B9F1E2
:1047F000706F02DBB9F1885F22DDFDF787FA0020D8
:104800003080401E94E721E0B8AAB38DB4980D35EE
:104810005D000000B8AAAAAAB088C3C5C7000000FE
:1048200009E3CA0288000020D8B1B9F38BA391B67E
:1048300009B4D900DAB1B9F38BA391B6DAB4DA00CE
:10484000B6F9000040F48070308000BF3248807AB2
:1048500000F0400020B305A9601C085C095D40EA37
:10486000012000B2A8F8000005A9E01C095C05AA17
:10487000A01C105C41EA002000B2A8F8020005A9C3
:10488000601D095C201D105C41EA002000B2A8F800
:104890000400A01DC4B2B6F9000040F0080030804A
:1048A0001D48408900F4C07008B305A9601C085C6D
:1048B000095D40EA012000B2388005A9E01C095CCE
:1048C00005AAA01C105C41EA002000B2788005A96E
:1048D000601D095C201D105C41EA002000B2B88018
:1048E000A01DC4B2B6F9000040F0700030800A4844
:1048F000807A00F0030018B105A90819FFF7B4FE8B
:10490000002015E701460448016000207047014679
:104910000148416000207047880000202DE9F041E7
:104920000024061B254671F1000605DA0124002744
:10493000D0EB070067EB0101161E73F1000605DAE4
:104940000027D2EB0702012567EB030300F004FA0E
:1049500086460E4617469C46AC4204D00025D0EB56
:10496000050E65EB010624B10020D2EB000760EBD9
:10497000030C704631463A466346BDE8F081D2B238
:1049800001E000F8012B491EFBD270470022F6E738
:1049900010B513460A4604461946FFF7F0FF2046B5
:1049A00010BD30B504460020034600E05B1C934276
:1049B00003D2E05CCD5C401BF8D030BDF0B480EA9F
:1049C0000102D40F4200B2EB410F02D20246084668
:1049D00011464A0042D0C30DDDB2C1F3C752AD1A31
:1049E000202D35DAC1F3160141F4000204B1524220
:1049F000C5F1200602FA06F12A411044B3EBD05F5C
:104A000023D0C4B1012DA0EBC35009DCF0BC4FF0A2
:104A1000004202EAC352DBB200F5000000F0D6B952
:104A2000400000F1807000EBC350A0F1807040EABC
:104A3000D170490009E0490841EAC071A0EBC350B8
:104A400000F50000400800EBC350F0BC00F0B5B921
:104A50006142012202EB4101001BF6E7F0BC704706
:104A600081F00041AAE780F00040A7E780EA010258
:104A700010B502F00043400022D04A001FD0010EC2
:104A800001EB1261C0F35600C2F3560240F400007D
:104A900042F40002A0FB022000047F39140400D07D
:104AA000401C50EA124001D44000491EC2B20C061C
:104AB00004EBD010401C4008802A02D003E0002004
:104AC00010BD20F00100002900DA0020184310BDBD
:104AD00030B480EA010202F0004530F0004221F0DB
:104AE000004013D090B1C30DD40DC2F31601C0F332
:104AF0001600E41A41F4000140F400027D349142B2
:104B000001D3641C00E04900002C02DA30BC002014
:104B100070474FF400000023914201D3891A0343E8
:104B200040084FEA4101F7D151B1914202D14FF013
:104B3000004105E002D24FF0010101E06FF00101F8
:104B400003EBC450284430BC00F037B92DE9FE4FC8
:104B500081EA030404F0004421F0004100944FF086
:104B6000000B23F0004350EA01045ED052EA030434
:104B70005BD0C3F30A54C1F30A552C44A4F2F334B6
:104B80000194A0FB0254C1F3130141F48011C3F35B
:104B9000130343F4801301FB024400FB034E840A19
:104BA000970A44EA815447EA8357A4FB07680295B1
:104BB0008D0A05FB07854FEA932C04FB0C5427054F
:104BC000029D4FEA065847EA1637B5EB08056EEB2B
:104BD000070C870E920E47EA811742EA8312A7FB61
:104BE0000201B6EB0B0164EB00042B0D43EA0C331E
:104BF0005E1844EB1C50DA465146E7FB0201C5F350
:104C000013044FEA0B3343EA14534FEA0432019C76
:104C100043EA0603A4F10C040294009CCDE900B41D
:104C200000F011F903B0BDE8F08F00200146F9E76C
:104C3000C10F80EAE0700844CA079623002100F003
:104C4000C5B896230022114600F0C0B800F000421B
:104C500020F00040C10DC0F3160040F400007F2991
:104C600001DA00207047962903DCC1F19601C840A3
:104C700001E096398840002AF4D04042704720F085
:104C80000040C10DC0F3160040F400007F2901DA96
:104C900000207047962903DCC1F19601C840704797
:104CA00096398840704700F0004230F000400AD04A
:104CB000C10D01F56071C0F3160042EA0151C2084E
:104CC00040071143704700200146704701F0004340
:104CD00030B421F0004150EA010206D00A0DA2F5DD
:104CE0006072C1F31301002A02DC30BC002070475F
:104CF000440F44EAC104C100E01830BC00EBC250CC
:104D000000F05BB8002801DBC0F10040002901DBA6
:104D1000C1F1004181427047002801DBC0F1004031
:104D2000002901DBC1F100418842704730B50B46D4
:104D3000014600202022012409E021FA02F59D42CB
:104D400005D303FA02F5491B04FA02F52844151E9F
:104D5000A2F10102F1DC30BD2DE9F05F0546002033
:104D600092469B4688460646814640241BE02846DC
:104D700041464746224600F04AFA53465A46C01A70
:104D8000914110D311461846224600F031FA2D1AEF
:104D900067EB01084F4622460120002100F028FA67
:104DA00017EB00094E41201EA4F10104DFDC484648
:104DB00031462A464346BDE8F09F0029A8BF704708
:104DC000401C490008BF20F00100704710B4B0FA41
:104DD00080FC00FA0CF050EA010404BF10BC7047DC
:104DE00049B1CCF1200421FA04F411FA0CF118BFF6
:104DF000012121430843A3EB0C01CB1D4FEA0061C5
:104E00004FEA102042BF002010BC704700EBC35097
:104E100010440029A4BF10BC7047401C490008BFC3
:104E200020F0010010BC704710B5141E73F100048F
:104E300008DA401C41F1000192185B411A4301D18C
:104E400020F0010010BD2DE9F04D92469B4611B1B6
:104E5000B1FA81F202E0B0FA80F22032904600F01E
:104E6000C7F904460F4640EA0A0041EA0B015346DF
:104E70005A46084313D0114653EA010019D0C8F12D
:104E80004002504600F0C3F905460E4650465946CA
:104E9000424600F0ADF9084305D0012004E0204669
:104EA0003946BDE8F08D0020054346EAE0762C4304
:104EB00037430A986305E40AA0EB08000022FD0AC4
:104EC00044EA47540A3002D500200146E9E70105CB
:104ED00010196941DDE9084500196941BDE8F04D47
:104EE000A2E72DE9FE4F804681EA0300C00F0C4681
:104EF000009021F0004123F00045B8EB0200A941E9
:104F000005D24046214690461C460B46024623F0F9
:104F10000040104347D0270DC7F30A00C3F30A51DE
:104F20000290401A019040286BDAC3F3130040F45A
:104F3000801B0098924620B10023D2EB030A63EB5A
:104F40000B0B01985946C0F14002504600F050F951
:104F500006460D4650465946019A00F068F910EB96
:104F600008006141002487EA115284EAE7731A437A
:104F700040D0009A62B3019A012A4FEA075215DC29
:104F8000001B61EB02014FF0004202EA0752CDE93B
:104F90000042001C41F5801132462B46FFF753FFBB
:104FA00003B0BDE8F08F40462146F9E7001B61EBF6
:104FB0000201001C41F5801300185B412018A2F586
:104FC000001747EB030140EAD570B6196D4111E0B7
:104FD0006D084FEA360645EAC0754FEA0752001BD6
:104FE00061EB0201001C41F5801149084FEA3000D5
:104FF0000019514132462B4603B0BDE8F04FFFF790
:1050000013BF0098012240000023D0EB020263EBA3
:10501000E073009821464FEAE074B8EB000061EBC2
:105020000401E9E783F000435BE781F0004158E7C2
:105030002DE9F04D81EA030404F0004B21F0004516
:1050400014464FF0000A23F0004150EA050220D038
:1050500054EA01021DD0C5F30A570246C5F31303F3
:10506000C1F31300C1F30A5640F4801543F48013D2
:10507000A7EB0608101BD64608F2FD3873EB0500B7
:1050800002D308F1010801E092185B41B8F1000F6A
:1050900003DA00200146BDE8F08D00204FF48011B6
:1050A000064684460EE0171B73EB050705D3121B5B
:1050B00063EB050306434CEA010C49084FEA300054
:1050C00092185B4150EA0107EDD152EA030012D079
:1050D00082EA040083EA0501084305D0101BAB41B6
:1050E00006D20122002306E000224FF0004302E036
:1050F0006FF0010253101AEB06004CEB085110EB55
:105100000A0041EB0B01BDE8F04DFFF78DBE70B515
:1051100021F0004303430CD0C1F30A550024D5EB22
:10512000040564EB0403D617AD1AB34102DB00207B
:10513000014670BD201841EB025170BDC1F30A5207
:10514000C1F3130140F2FF3341F480119A4202DAB5
:1051500000200146704740F233439A42A2F23342A4
:1051600002DC524200F053B800F042B830B5041EE1
:1051700071F1000404DB4FF00044404264EB010194
:10518000141E73F1000405DB1C464FF0004352422D
:1051900063EB04038B4208BF824230BD30B5041E6E
:1051A00071F1000404DB4FF00044404264EB010164
:1051B000141E73F1000405DB1C464FF000435242FD
:1051C00063EB0403994208BF904230BD064C074D83
:1051D00006E0E06840F0010394E8070098471034C7
:1051E000AC42F6D3FAF7A8FF787000089870000870
:1051F000202A04DB203A00FA02F100207047914097
:10520000C2F1200320FA03F3194390407047202A8B
:1052100004DB203A21FA02F00021704721FA02F360
:10522000D040C2F120029140084319467047202A1D
:1052300006DBCB17203A41FA02F043EAE07306E0BE
:1052400041FA02F3D040C2F12002914008431946CE
:1052500070472DE9F04D00231A461B1A8A4103DBE3
:1052600000200146BDE8F08DC1F30A52C1F31301DD
:1052700041F480154FF0000BD10702D100186D41A9
:10528000521E0027044640F2FF11384601EB620A25
:105290003E468046024600204FF48011FFF7B7FFDC
:1052A000C2197141BB1846EB0100B4EB030C75EB5E
:1052B000000C04D3E41A65EB000517460E462419CA
:1052C00008F101006D4180463428E3DDF91946EB11
:1052D0000600091BA84103D24FF0FF32134601E03C
:1052E000002213461BEB070046EB0A51BDE8F04DC8
:1052F000FFF79ABD0FB4054B10B503A9044A0298F5
:1053000000F05CF910BC5DF814FB00000B13000802
:1053100080000020490050EAC12018BF04204A0D37
:1053200018BF40F0010040F2FF72B2EB515F08BFBE
:1053300040F00200012808BF052070472DE9F04128
:105340004F1E00EBC7010446D1E9000115461E4679
:1053500037F006020DD02A463346FFF7F7FB7F1ED3
:1053600004EBC703D3E90023FFF7BBFD37F00602C8
:10537000F1D1022F25D0042F13D0062F18BFBDE87E
:10538000F0812A463346FFF7E1FBD4E90A23FFF711
:10539000A8FD2A463346FFF7D9FBD4E90823FFF7D7
:1053A000A0FD2A463346FFF7D1FBD4E90623FFF7D9
:1053B00098FD2A463346FFF7C9FBD4E90423FFF7DB
:1053C00090FD2A463346FFF7C1FBD4E90223FFF7DD
:1053D00088FD2A463346FFF7B9FBD4E90023BDE830
:1053E000F041FFF77EBD0122FFF791BEFFF779BDC7
:1053F0000022134610461146FFF71ABE024A00204B
:105400001107FFF784BE000001FDFFFF02E008C89E
:10541000121F08C1002AFAD170477047002001E02E
:1054200001C1121F002AFBD170470000014908602A
:1054300070470000840000202DE9FF5F82B000214A
:10544000DDE90430020DDDF840B0034318D044F626
:105450001050A2F2FF3242431514119801281FD0B8
:10546000A5EB0B00401C5FEA000A4FF000064E4F10
:10547000DFF83891B046504615D5CAF1000413E064
:10548000119801244AA3012801D16FEA0B01029867
:10549000119AC0E90031C0E9024206B0BDE8F09FB0
:1054A000CBF10000DFE704460021404A491842EBF7
:1054B0000450CDE9001012E0E00707D032463B4629
:1054C00040464946FFF742FB8046894632463B4606
:1054D00010461946FFF73AFB06460F466410002CAB
:1054E000EAD1DDE90401DDE90023BAF1000F06DAB3
:1054F000FFF72CFB42464B46FFF728FB05E0FFF782
:1055000097FD42464B46FFF793FD04460E460022A8
:10551000284BFFF743FE03D84FF0FF30014607E06A
:105520000022254B20463146FFF7DBFCFFF706FE45
:10553000102409E0002C0ADB0A220023FFF70CFCF0
:10554000039B30321A55641E50EA0102F2D1641CEA
:10555000039AC4F111031444119A012A03D00122C1
:1055600008430DD10AE0084304D000204FF0110B8E
:10557000119072E7A3EB0B056D1E0DE05B4504DD9A
:105580004FF0000205F1010504E003DA4FF00002DC
:10559000A5F10105002AECD002981199C0E9023169
:1055A000C0E9004579E70000000014400000F03F2A
:1055B000300000000000F0430000E03F2DE9FF4F05
:1055C00095B09A46884606460025EEE1252877D113
:1055D00000242746F94A0121039400E0044316F809
:1055E000013F203B01FA03F01042F7D130782A281E
:1055F00011D06FF02F033078A0F13002092A16D8AD
:10560000039A44F0020402EB820203EB42021044CC
:10561000761C0390EFE758F8042B0392002A03DA74
:10562000504244F40054039044F00204761C307855
:105630002E2816D116F8010F44F004042A280DD0A4
:105640006FF02F023078A0F13003092B09D807EB57
:10565000870302EB4303C718761CF3E758F8047B73
:10566000761C30786C280FD006DC4C2817D06828C0
:105670000DD06A2814D104E0742810D07A280FD1F4
:105680000DE044F400140AE044F4801401E044F412
:1056900040147278824202D104F58014761C761C84
:1056A000307866280BD013DC582877D009DC002826
:1056B00075D04528F6D04628F4D047281AD193E172
:1056C00018E0632835D0642879D0652812D18BE1A1
:1056D000702873D008DC6728F1D069286FD06E2855
:1056E0000DD06F2806D1ACE073282CD0752874D06B
:1056F000782853D05246179990476D1C54E1C4F353
:105700000250022809D003280DD0D8F80010042830
:105710000DD00D6008F1040846E1D8F80010EA1732
:10572000C1E90052F6E7D8F800100D80F2E70D70DD
:10573000F0E718F8041B8DF8001000208DF8010028
:10574000EB46012003E058F804BB4FF0FF3061073F
:105750004FF0000102D40DE009F101018946B94280
:105760000FDA8145F8DB1BF809100029F4D108E0B5
:1057700009F1010189468142FADB1BF80910002971
:10578000F6D103985346A0EB090721463846179AED
:1057900000F080FA284400EB090507E044E008E146
:1057A0000DE01BF8010B524617999047B9F101091A
:1057B000F7D2534621463846179AF2E039E00A21DB
:1057C000C4F302524FF0000B0091022A06D058F8A1
:1057D000040BC117032A09D00AE023E008F10700EF
:1057E00020F00702F2E80201904605E000B2C1177E
:1057F000042A01D140B2C117002906DA0A46002165
:10580000404261EB02012D2202E0220504D52B2249
:105810008DF80420012203E0E20701D02022F7E7FF
:10582000914657E00A2100E010214FF0000B009153
:105830000BE010214FF0000B44F004040827009106
:1058400003E008204FF0000B0090C4F30252022A3C
:1058500005D058F8040B0021032A08D008E008F10D
:10586000070020F00702F2E80201904603E080B250
:10587000042A00D1C0B24FF0000922072AD532789D
:10588000702A07D0DDF800C08CF0100C5CEA0B0C1D
:1058900005D00EE040228DF80420012208E050EAF5
:1058A000010306D030238DF804308DF80520022244
:1058B0009146009B83F0080353EA0B030AD150EA98
:1058C000010201D1620705D530228DF804204FF086
:1058D00001097F1E3278582A04D039A20C920CAAF2
:1058E00002920BE03BA2F9E75B46009AFFF734FA1D
:1058F0000C9B9B5C029A521E0292137050EA0102AA
:10590000F2D1029804A9081A00F1200B600702D511
:1059100024F4803400E001275F4502DDA7EB0B0093
:1059200000E0002000EB0B01009003984944401A6E
:105930000390E00306D453462146179A039800F0DB
:10594000A9F90544002706E001A85246C05D179951
:1059500090476D1C7F1C4F45F6DBE0030CD553468A
:105960002146179A039800F095F9054404E0302089
:105970005246179990476D1C0099481E00900029C7
:10598000F5DC08E00298029952460078491C029121
:10599000179990476D1CBBF10001ABF1010BF1DCD5
:1059A0005BE100F065F90544761C307800287FF44F
:1059B0000DAE19B02846BDE8F08F0000092801009F
:1059C0003031323334353637383961626364656675
:1059D0000000000030313233343536373839414237
:1059E0004344454600000000600700D4062708F144
:1059F000070020F00700F0E80223804603F0004C87
:105A00005FEA0C0001D097A009E0200501D596A01F
:105A100005E0E00701D095A001E0AFF24C00139043
:105A2000307823F0004365280CD006DC452809D0E7
:105A300046281DD047287FD13BE0662818D067282C
:105A40007AD136E00021112F01DB112000E0781C13
:105A5000CDE9000104A90CA8FFF7EEFCDDE90D017A
:105A60000C9A4FF0000B07F10109109200914EE0E3
:105A70004FF000400097CDE9011004A90CA8FFF7F2
:105A8000DBFCDDE90D020C9B0F994FF0000B9146FA
:105A90001093009211B9791C00EB0109B7EB0900D2
:105AA00003D4C0F1FF3B07F10109A9EB0700019006
:105AB00042E0012F00DA01270021112F01DD112022
:105AC00000E03846CDE9000104A90CA8FFF7B4FCBA
:105AD000DDE90D010C9A00914FF0000BB9461092D0
