:020000040800F2
:100000003005002049010008750F0008770F00082F
:100010007B0F00087F0F0008830F0008000000001E
:10002000000000000000000000000000870F000832
:10003000890F0008000000008B0F00088D0F0008DA
:100040006301000863010008630100086301000800
:1000500063010008630100086301000863010008F0
:1000600063010008630100086301000863010008E0
:1000700063010008630100086301000863010008D0
:1000800063010008630100086301000863010008C0
:1000900063010008630100086301000863010008B0
:1000A00063010008630100086301000863010008A0
:1000B0006301000863010008630100086301000890
:1000C0006301000863010008630100086301000880
:1000D00063010008950F0008630100086301000830
:1000E0006301000863010008630100086301000860
:1000F0006301000863010008630100086301000850
:10010000630100086301000863010008630100083F
:10011000630100086301000863010008630100082F
:10012000630100086301000863010008630100081F
:10013000DFF810D001F060FA00480047310F0008E6
:10014000AFF300803005002006488047064800478E
:10015000FEE7FEE7FEE7FEE7FEE7FEE7FEE7FEE777
:10016000FEE7FEE74B020008310100080CB5002055
:10017000019000906C48006840F480306A49086043
:1001800000BF6948006800F4003000900198401CEE
:100190000190009818B90198B0F5A06FF1D16248AC
:1001A000006800F4003010B10120009001E0002050
:1001B00000900098012843D15C48006840F010008E
:1001C0005A4908600846006820F0030008600846A5
:1001D000006840F002000860534840685249486097
:1001E0000846406848600846406840F480604860BF
:1001F0000846406820F47C1048600846406840F497
:10020000E81048600846006840F08070086000BF51
:100210004548006800F000700028F9D04248406866
:1002200020F00300404948600846406840F0020062
:10023000486000BF3C48406800F00C000828F9D135
:100240000CBD10B5FFF792FF10BD10B53648006821
:1002500040F00100344908600846406834490840CD
:100260003149486008460068324908402E49086014
:100270000846006820F4802008600846406820F4A2
:10028000FE0048604FF41F008860FFF7DAFF4FF070
:1002900000602949086010BD10B50021002000222F
:1002A000214B5B6803F00C0121B1042906D0082919
:1002B00028D107E0214B224C236027E01F4B204C24
:1002C000236023E0184B5B6803F47010164B5B68E7
:1002D00003F48032022303EB904022B9194B4343CD
:1002E000174C23600DE0104B5B6803F4003323B11F
:1002F000144B4343124C236003E0104B4343104C18
:10030000236003E00D4B0E4C236000BF00BF064B83
:100310005B68C3F303130C4CE15C094B1B68CB40D7
:10032000074C236010BD0000001002400020024076
:100330000000FFF8FFFFF6FE08ED00E000127A0073
:100340000000002000093D00040000203149014365
:10035000314A1160704770B5002100230F22C47824
:1003600004B32D4C246804F4E064C4F5E064210A6D
:10037000C1F10403CA40447804FA03F184781440BC
:1003800021430901254C0678A155047804F01F0586
:100390000124AC4005786D11AD0005F1E025C5F8EC
:1003A000004109E0047804F01F050124AC401C4D15
:1003B0000678761145F8264070BD1A4A0A40024375
:1003C000154B1B1F1A60704739B1134A121D126872
:1003D0000243114B1B1D1A6006E00F4A121D1268E2
:1003E00082430D4B1B1D1A607047042808D14FF043
:1003F000E021096941F004014FF0E022116107E0BA
:100400004FF0E021096921F004014FF0E022116171
:10041000704700000000FA050CED00E000E400E089
:1004200080E100E080FFFF1F10B50446CC48844205
:1004300008D10121042000F02DFB0021042000F050
:1004400029FB46E0C748844208D10121082000F07A
:1004500021FB0021082000F01DFB3AE0C248844245
:1004600008D10121102000F015FB0021102000F020
:1004700011FB2EE0BD48844208D10121202000F06C
:1004800009FB0021202000F005FB22E0B84884424F
:1004900008D10121402000F0FDFA0021402000F0A9
:1004A000F9FA16E0B348844208D10121802000F017
:1004B000F1FA0021802000F0EDFA0AE0AE48844213
:1004C00007D10121801500F0E5FA0021A01500F008
:1004D000E1FA10BD10B50121084600F0DBFA002159
:1004E000012000F0D7FA10BD2DE9F04102460025A9
:1004F0000026002000230024002791F803C00CF000
:100500000F0591F803C00CF0100CBCF1000F03D0E4
:1005100091F802C04CEA050591F800C0BCF1000F4B
:1005200031D0146800202BE04FF0010C0CFA00F3DE
:10053000B1F800C00CEA03069E4220D183004FF0C0
:100540000F0C0CFA03F7BC4305FA03FC4CEA040455
:1005500091F803C0BCF1280F06D14FF0010C0CFA42
:1005600000FCC2F814C00AE091F803C0BCF1480FC7
:1005700005D14FF0010C0CFA00FCC2F810C0401C71
:100580000828D1D31460B1F800C0BCF1FF0F34DDEE
:10059000546800202EE000F1080C4FF0010808FA22
:1005A0000CF3B1F800C00CEA03069E4221D183008F
:1005B0004FF00F0C0CFA03F7BC4305FA03FC4CEAAE
:1005C000040491F803C0BCF1280F05D100F1080C18
:1005D00008FA0CF8C2F8148091F803C0BCF1480F77
:1005E00007D100F1080C4FF0010808FA0CF8C2F826
:1005F0001080401C0828CED35460BDE8F0814FF62F
:10060000FF710180022181700421C1707047024690
:10061000002093680B400BB1012000E000207047E0
:100620000146886880B2704702460020D3680B40BC
:100630000BB1012000E0002070470146C86880B27D
:10064000704701617047416170470AB1016100E084
:1006500041617047C16070474FF480320A43826144
:100660008161826182698269704702460020434B42
:1006700018684FF68073184040EA021008433F4B59
:10068000186070473E49C8617047F0B50A460023BC
:1006900000240021002500F00046B6F1004F02D1F1
:1006A000364EF16901E0354E7168C0F3034583B2FF
:1006B00000F44016B6F5401F08D121F070612F4EAE
:1006C000766826F070662D4F7E6012E000F480168A
:1006D000B6F5801F06D1032606FA05F4A14341F0C2
:1006E000706106E0460D360103FA06F6B14341F0AB
:1006F000706122B1460D360103FA06F6314300F06F
:100700000046B6F1004F02D11C4EF16101E01B4ED4
:100710007160F0BD30B500228B071C0F0F2303FA68
:1007200004F2164B08338C1053F824309343134CC7
:1007300008348D1044F8253023468C1053F82430AB
:100740008C07240F00FA04F423430C4C08348D105A
:1007500044F8253030BD0A49DC310860704700009C
:1007600000080140000C014000100140001401404D
:1007700000180140001C0140002001400000014021
:1007800000002042DF48006840F00100DD490860B9
:1007900008464068DC490840DA4948600846006875
:1007A000DA490840D74908600846006820F48020EC
:1007B00008600846406820F4FE0048604FF41F00BF
:1007C00088607047CF49096821F48031CD4A1160B3
:1007D0001146096821F480211160B0F5803F03D0F3
:1007E000B0F5802F0ED106E0C649096841F480318A
:1007F000C44A116007E0C349096841F4A021C14A15
:10080000116000E000BF00BF704710B50146002234
:10081000002300204A11012A02D1BA4C236806E0C5
:10082000022A02D1B74C236A01E0B64C636A01F098
:100830001F02012494401C400CB1012000E0002064
:1008400010BD38B5002000900024002500BF3120E5
:10085000FFF7DBFF05460098401C00900098B0F5BC
:10086000A06F01D0002DF2D03120FFF7CEFF08B1EC
:10087000012400E00024204638BD01460020A14AA2
:10088000106820F0F80040EAC10010607047A049ED
:1008900008607047024600209A4B586820F47C108C
:1008A00042EA01031843974B58607047984908661D
:1008B000704701460020934A506820F00300084327
:1008C000506070478F48406800F00C007047014648
:1008D00000208C4A506820F0F000084350607047B8
:1008E00001460020874A506820F4E06008435060C9
:1008F000704701460020834A506820F4605040EA67
:10090000C1005060704729B17E4A527A02437D4B44
:100910005A7204E07B4A527A82437A4B5A72704789
:100920007B49D8310860704701460020754A5068FD
:1009300020F440400843506070470021714A203243
:100940001170704A82F82010012802D004280AD1C0
:1009500004E001216B4A2032117005E00521694A4B
:100960002032117000E000BF00BF70476949086085
:1009700070476449096A0143624A116270476549D8
:1009800044390860704730B500210022002400235C
:100990005C4D6D6805F00C0121B1042905D00829D2
:1009A00023D105E05C4D056022E05B4D05601FE052
:1009B000544D6D6805F47012524D6D6805F4803425
:1009C000022505EB92421CB9544D554305600BE0DE
:1009D0004C4D6D6805F400351DB1504D5543056013
:1009E00002E04D4D5543056002E04B4D056000BFF0
:1009F00000BF444D6D6805F0F0010909484D6B5C7E
:100A00000568DD4045603F4D6D6805F4E061090A09
:100A1000434D6B5C4568DD4085603A4D6D6805F47B
:100A20006051C90A3E4D6B5C4568DD40C560354D7F
:100A30006D6805F44041890B3A4D6B5CC568B5FBA8
:100A4000F3F5056130BD29B12E4A526902432D4BA1
:100A50005A6104E02B4A526982432A4B5A6170471B
:100A600029B1284A92690243264B9A6104E0254A3B
:100A700092698243234B9A61704729B1214AD26916
:100A80000243204BDA6104E01E4AD26982431D4BC7
:100A9000DA61704729B11B4AD2680243194BDA6008
:100AA00004E0184AD2688243164BDA60704729B1D5
:100AB000144A12690243134B1A6104E0114A126985
:100AC0008243104B1A6170471249403908607047E1
:100AD0000F49C86470470B49C87170470948406A9C
:100AE00040F0807007494862704701460020054A7F
:100AF00092680A400AB1012000E0002070470149D5
:100B000088727047001002400000FFF8FFFFF6FEF9
:100B1000000042428004424200127A0000093D0077
:100B2000140000202400002010B50446FB48844235
:100B300009D101218803FFF7ADFF00214FF4804068
:100B4000FFF7A8FF32E0F648844209D101214804AA
:100B5000FFF7ADFF00214FF40030FFF7A8FF25E0BD
:100B6000F048844209D101218804FFF7A0FF002149
:100B70004FF48020FFF79BFF18E0EB48844209D137
:100B80000121C804FFF793FF00214FF40020FFF775
:100B90008EFF0BE0E548844208D101210805FFF7EC
:100BA00086FF00214FF48010FFF781FF10BD2DE973
:100BB000F04786B005460E460024A24600BFA14677
:100BC0000027B08900B100BF2F462C8A4CF6FF7079
:100BD0000440F08804432C82AC894EF6F3100440A4
:100BE000B08831890843718908430443AC81AC8AD9
:100BF0004FF6FF400440B0890443AC8201A8FFF7E0
:100C0000C2FEC648874202D1DDF810A001E0DDF83F
:100C10000CA0A88900F4004040B10AEBCA0000EB28
:100C20000A1031684900B0FBF1F807E00AEBCA008E
:100C300000EB0A1031688900B0FBF1F86420B8FBC2
:100C4000F0F004012009642101FB1089A88900F457
:100C5000004040B1322000EBC900B0FBF1F000F0E1
:100C60000700044308E0322000EB09106421B0FBC8
:100C7000F1F000F00F0004432C8106B0BDE8F087CE
:100C80004FF41651016000218180C18001810C2147
:100C9000418100218181704710B502460020108AF1
:100CA0004FF2FF0318400B884C8823438C88234362
:100CB000CC8823431843108210BD0021018041805D
:100CC0008180C180704721B1828942F400528281C3
:100CD00004E082894DF6FF731A4082817047F0B5B7
:100CE0000346002400260025002040F66A17B9427A
:100CF00000D100BF1846C1F3421401F01F060127BE
:100D000007FA06F5012C01D10C3004E0022C01D1C8
:100D1000103000E014301AB107682F43076002E07A
:100D20000768AF430760F0BD1AB1838A0B43838223
:100D300002E0838A8B4383827047028A4FF6F07306
:100D40001A400282028A0A430282704782894FF265
:100D5000FF731A40828182890A438281704721B1E0
:100D6000828942F00202828104E082894FF6FD739B
:100D70001A4082817047028A4FF6DF731A4002825E
:100D8000028A0A430282704721B1028A42F48042F9
:100D9000028204E0028A4BF6FF731A400282704717
:100DA000C1F308028280704701468888C0F30800BA
:100DB0007047818941F0010181817047028BD2B275
:100DC0000283028B42EA012202837047028B02F403
:100DD0007F420283028B0A430283704721B1828AD9
:100DE00042F02002828204E0828A4FF6DF731A40CA
:100DF0008282704721B1828A42F01002828204E02E
:100E0000828A4FF6EF731A408282704721B1828A3C
:100E100042F00802828204E0828A4FF6F7731A4099
:100E20008282704721B1828942F40042828103E0CC
:100E30008289C2F30E028281704721B1828A42F414
:100E40000062828204E0828A4FF2FF731A4082823B
:100E50007047828A4FF6FB731A408282828A0A4365
:100E60008282704721B1828A42F00202828204E0CB
:100E7000828A4FF6FD731A40828270470246002034
:100E8000B1F5007F00D100BF13880B400BB10120EA
:100E900000E00020704701F40072B2F5007F00D13D
:100EA00000BFCA430280704770B502460024002389
:100EB0000025002040F66A16B14200D100BFC1F300
:100EC000421501F01F03012606FA03F3012D02D19A
:100ED0009689334006E0022D02D1168A334001E0A4
:100EE000968A33400C12012606FA04F41688344020
:100EF00013B10CB1012000E0002070BD10B500223C
:100F0000002340F66A14A14200D100BF0A12012456
:100F10009440A3B2DC43048010BD000000380140BF
:100F20000044004000480040004C00400050004099
:100F300000F0EFF800F0ACF900F07CFA0EE00422CB
:100F40000021084600F0FBFA05A20221084600F045
:100F50000BFB06A20421022000F006FBEFE70000D5
:100F6000323032302F31312F313000004353444E74
:100F700000000000704700BFFEE700BFFEE700BFB3
:100F8000FEE700BFFEE770477047704710B500F0FE
:100F900059F810BD10B540F225510648FFF784FFFF
:100FA00038B10448FFF700FFC4B221460148FFF7FB
:100FB000F7FE10BD0038014030B50146B1F1807F29
:100FC00001D3012030BD21F07F40401E4FF0E022D0
:100FD000506150170F22002807DA13071D0E3E4BF1
:100FE00000F00F04241F1D5503E013071C0E3B4B9C
:100FF0001C5400BF00204FF0E022906107201061D8
:101000000020DFE710B5364800684FF47A71B0FB76
:10101000F1F42046FFF7D0FF08B100BFFEE710BD96
:1010200001B53049009808604FF0E020006940F0B9
:1010300001004FF0E021086100BF2A480068002845
:10104000FBD108BD2748006820B126480068401E33
:1010500024490860704731B5214800682249B0FB37
:10106000F1F52846FFF7A8FF002408E000BF4FF085
:10107000E020006900F480300028F8D0641C00985B
:101080008442F3D34FF0E020006920F001004FF0DC
:10109000E021086138BD31B5114800684FF47A711C
:1010A000B0FBF1F52846FFF787FF002408E000BFFA
:1010B0004FF0E020006900F480300028F8D0641C74
:1010C00000988442F3D34FF0E020006920F0010043
:1010D0004FF0E021086138BD18ED00E000E400E0C9
:1010E000000000202800002040420F0008B54FF407
:1010F000A060FFF72BF925208DF8000001208DF866
:1011000001008DF802008DF803006846FFF723F90F
:1011100008BD00B585B001210420FFF7A1FC012125
:101120008803FFF79DFC4FF40070ADF81000182005
:101130008DF8130003208DF8120004A95248FFF720
:10114000D3F94FF48060ADF8100004208DF813003F
:1011500004A94D48FFF7C8F94FF4E1300090002092
:10116000ADF80400ADF80600ADF80800ADF80C00CD
:101170000C20ADF80A0069464448FFF718FDFFF758
:10118000B5FF012240F225514048FFF7A8FD01219B
:101190003E48FFF798FD05B000BD70B504460D460A
:1011A00029462046FFF7FCFD00BF80212046FFF7BF
:1011B00065FE0028F9D070BD2DE9F04107460D46C7
:1011C0001646002405E0295D3846FFF7E6FF601C5F
:1011D000C4B2B442F7DB00BF40213846FFF74EFEF1
:1011E0000028F9D0BDE8F08170B506460C46002510
:1011F00000BF615D3046FFF7D0FF6D1C605D0028C9
:10120000F7D100BF40213046FFF738FE0028F9D063
:1012100070BD2DE9F04105460C46260AE7B231467D
:101220002846FFF7BDFD00BF80212846FFF726FEB8
:101230000028F9D039462846FFF7B2FD00BF8021CB
:101240002846FFF71BFE0028F9D0BDE8F08170B5F5
:1012500004460D46E1B20D48FFF7A2FD00BF802114
:101260000A48FFF70BFE0028F9D0204670BD10B5E4
:10127000044600BF20210548FFF700FE0028F9D0F2
:101280000248FFF791FD10BD000801400038014001
:1012900008B501212020FFF7E3FB10208DF80300A3
:1012A0000820ADF8000003208DF8020069462748A9
:1012B000FFF71AF910208DF803004020ADF8000068
:1012C00003208DF8020069462048FFF70DF9102031
:1012D0008DF803008020ADF8000003208DF8020097
:1012E00069461A48FFF700F908211848FFF7A9F9DD
:1012F00040211648FFF7A5F980211448FFF7A1F90E
:1013000008BD70B5044600251DE040210F48FFF7D9
:101310009AF90A20FFF79FFE04F0800020B1802197
:101320000A48FFF78EF903E080210848FFF78BF9A0
:101330006006040E40210548FFF783F90A20FFF7F5
:101340008AFE681CC5B2082DDFDB70BD00140140A9
:1013500008B501212020FFF783FB10208DF8030042
:101360003020ADF8000003208DF8020069469F4848
:10137000FFF7BAF8FFF78CFF10219C48FFF763F9DD
:10138000C820FFF788FE10219848FFF75AF908BDDA
:1013900010B5044608219548FFF755F920219348D8
:1013A000FFF751F92046FFF7ACFF08218F48FFF700
:1013B00048F910BD10B5044608218C48FFF743F9E1
:1013C00020218A48FFF73DF92046FFF79AFF0821C0
:1013D0008648FFF736F910BD70B5002415E004F11A
:1013E000B001C8B2FFF7D4FF0020FFF7D1FF1020F3
:1013F000FFF7CEFF002504E00020FFF7DBFF681CAD
:10140000C5B2802DF8DB601CC4B2082CE7DB70BDD0
:1014100070B504460D4605F1B001C8B2FFF7B8FF3C
:10142000102141EA1410FFF7B3FF04F00F00FFF79B
:10143000AFFF70BD10B5FFF78BFFAE20FFF7A8FF21
:101440000020FFF7A5FF1020FFF7A2FF4020FFF7C5
:101450009FFF8120FFF79CFF0020FFF799FFA1204D
:10146000FFF796FFC820FFF793FFA820FFF790FF34
:101470003F20FFF78DFFD320FFF78AFF0020FFF703
:1014800087FFD520FFF784FF8020FFF781FFD92059
:10149000FFF77EFFF120FFF77BFFDA20FFF778FFF1
:1014A0001220FFF775FFDB20FFF772FF4020FFF7E8
:1014B0006FFF2020FFF76CFF0220FFF769FF8D20F0
:1014C000FFF766FF1420FFF763FFA420FFF760FF1C
:1014D000A620FFF75DFFAF20FFF75AFFFFF77CFF65
:1014E00000210846FFF794FF10BD2DE9F0410746A3
:1014F0000E46154631463846FFF78AFF002407E0BE
:101500003B4A02EB8511085DFFF754FF601CC4B233
:10151000102CF5DB701CC1B23846FFF779FF0024B0
:1015200009E06900491C324A02EB4111085DFFF7EE
:1015300041FF601CC4B2102CF3DBBDE8F0812DE943
:10154000F04105460F461646002409E0224639467A
:101550002846FFF7CAFF05F11000C5B2601CC4B2EF
:10156000B442F3DBBDE8F0812DE9F04706460F46B3
:10157000904600250024A14631E018F809002038E3
:10158000C5B2782E02DD0026781CC7B23946304637
:10159000FFF73EFF002407E004EB0511154A505CFD
:1015A000FFF708FF601CC4B2082CF5DB781CC1B241
:1015B0003046FFF72DFF002408E004EB0511083149
:1015C0000C4A505CFFF7F6FE601CC4B2082CF4DB3A
:1015D00006F10800C6B209F1010000F0FF0918F891
:1015E00009000028C9D1BDE8F087000000140140BF
:1015F0002C00002090160008064C074D06E0E0681D
:1016000040F0010394E8070098471034AC42F6D349
:10161000FEF792FD801C0008A01C000870B58C1815
:1016200010F8015B15F0070301D110F8013B2A11F6
:1016300006D110F8012B03E010F8016B01F8016BE3
:101640005B1EF9D12B0705D40023521E0DD401F8DF
:10165000013BFAE710F8013BCB1A921C03E013F8A8
:10166000015B01F8015B521EF9D5A142D8D30020DD
:1016700070BD02E008C8121F08C1002AFAD17047E5
:101680007047002001E001C1121F002AFBD1704702
:10169000000000000000000000000000000000004A
:1016A000000000F8000000000000003330000000DF
:1016B00000100C06100C06000000000000000000E6
:1016C00040C07840C0784000043F04043F04040058
:1016D000007088FC08300000001820FF211E000068
:1016E000F008F000E018000000211C031E211E007D
:1016F00000F00888700000001E2123241927211003
:1017000010160E00000000000000000000000000A5
:10171000000000E01804020000000007182040004C
:1017200000020418E000000000402018070000003C
:10173000404080F0804040000202010F01020200A0
:10174000000000F0000000000101011F0101010084
:10175000000000000000000080B0700000000000E9
:101760000000000000000000000101010101010172
:101770000000000000000000003030000000000009
:1017800000000000806018040060180601000000DE
:1017900000E010080810E000000F102020100F00DB
:1017A000001010F8000000000020203F2020000062
:1017B00000700808088870000030282422213000BA
:1017C00000300888884830000018202020110E00C2
:1017D0000000C02010F8000000070424243F24006B
:1017E00000F80888880808000019212020110E0040
:1017F00000E0108888180000000F112020110E0052
:1018000000380808C83808000000003F0000000049
:101810000070880808887000001C222121221C000A
:1018200000E010080810E0000000312222110F0033
:10183000000000C0C00000000000003030000000C8
:101840000000008000000000000080600000000038
:101850000000804020100800000102040810200051
:10186000404040404040400004040404040404009C
:101870000008102040800000002010080402010031
:10188000007048080808F000000000303601000031
:10189000C030C828E810E0000718272423140B00E4
:1018A0000000C038E0000000203C2302022738205E
:1018B00008F8888888700000203F202020110E0042
:1018C000C030080808083800071820202010080039
:1018D00008F808080810E000203F202020100F0022
:1018E00008F88888E8081000203F202023201800EE
:1018F00008F88888E8081000203F20000300000056
:10190000C03008080838000007182020221E0200F6
:1019100008F808000008F808203F210101213F20B5
:10192000000808F8080800000020203F20200000E0
:1019300000000808F8080800C08080807F000000D0
:1019400008F888C028180800203F20012638200009
:1019500008F8080000000000203F20202020300070
:1019600008F8F800F8F80800203F003F003F20008A
:1019700008F830C00008F808203F200007183F0092
:10198000E01008080810E0000F10202020100F00C1
:1019900008F808080808F000203F210101010000B4
:1019A000E01008080810E0000F18242438504F00F9
:1019B00008F8888888887000203F2000030C3020B9
:1019C00000708808080838000038202121221C00F7
:1019D000180808F8080818000000203F2000000040
:1019E00008F808000008F808001F202020201F0029
:1019F0000878880000C83808000007380E01000089
:101A0000F80800F80008F800033C0700073C030052
:101A1000081868808068180820302C03032C3020B8
:101A20000838C800C83808000000203F2000000027
:101A300010080808C838080020382621202018007F
:101A4000000000FE020202000000007F4040400053
:101A5000000C30C000000000000000010638C0008B
:101A600000020202FE000000004040407F00000033
:101A70000000040202020400000000000000000058
:101A80000000000000000000808080808080808056
:101A9000000202040000000000000000000000003E
:101AA00000008080808000000019242222223F2034
:101AB00008F8008080000000003F112020110E0077
:101AC0000000008080800000000E11202020110006
:101AD000000000808088F800000E112020103F20B8
:101AE0000000808080800000001F2222222213003C
:101AF000008080F0888888180020203F2020000087
:101B00000000808080808000006B9494949360003B
:101B100008F8008080800000203F210000203F2046
:101B200000809898000000000020203F2020000046
:101B3000000000809898000000C08080807F000036
:101B400008F8000080808000203F24022D30200013
:101B5000000808F8000000000020203F20200000BE
:101B60008080808080808000203F20003F20003FD8
:101B70008080008080800000203F210000203F20E6
:101B80000000808080800000001F202020201F0097
:101B9000808000808000000080FFA12020110E00C6
:101BA0000000008080808000000E112020A0FF80B7
:101BB000808080008080800020203F212000010064
:101BC00000008080808080000033242424241900B9
:101BD000008080E0808000000000001F20200000C6
:101BE0008080000000808000001F202020103F2007
:101BF000808080000080808000010E300806010097
:101C000080800080008080800F300C030C300F003B
:101C100000808000808080000020312E0E31200066
:101C2000808080000080808080818E701806010096
:101C300000808080808080000021302C22213000B4
:101C400000000000807C020200000000003F4040D5
:101C500000000000FF00000000000000FF00000086
:101C60000002027C800000000040403F00000000B5
:101C70000006010102020404000000000000000050
:101C8000A01C0008000000202C0100001C16000809
:101C90000C1D00082C01002004040000821600081E
:101CA0001184A24A04680901020304060708090C0A
:101CB00069104502040608780F040444C44F4444E4
:101CC000C424242FB4240437910010144044242445
:101CD000150C04FE040C1524244440000A15FC04D1
:101CE0000416650444847C3D10101312010519523A
:101CF00082423E021FFF09172008102F80804020DB
:0C1D0000100804C304081020408080403C
:0400000508000131BD
:00000001FF
