:020000040800F2
:10000000300400204501000889030008810300082E
:10001000850300088D010008730A00080000000035
:10002000000000000000000000000000290500089A
:10003000910100080000000011040008B10600084A
:100040005F0100085F0100085F0100085F01000810
:100050005F0100085F0100085F0100085F01000800
:100060005F0100085F0100085F0100085F010008F0
:100070005F0100085F0100085F0100085F010008E0
:100080005F0100085F0100085F0100085F010008D0
:100090005F0100085F0100085F0100085F010008C0
:1000A0005F0100085F0100085F0100085F010008B0
:1000B0005F0100085F0100085F0100085F010008A0
:1000C0005F0100085F0100085F0100085F01000890
:1000D0005F0100085F010008710800085F01000867
:1000E0005F0100085F0100085F0100085F01000870
:1000F0005F0100085F0100085F0100085F01000860
:100100005F0100085F0100085F0100085F0100084F
:100110005F0100085F0100085F0100085F0100083F
:100120005F0100085F0100085F0100085F0100082F
:10013000DFF80CD000F018F800480047DD0A00088E
:10014000300400200648804706480047FEE7FEE7E7
:10015000FEE7FEE7FEE7FEE7FEE7FEE7FEE7FEE777
:10016000B906000831010008064C074D06E0E068BA
:1001700040F0010394E8070098471034AC42F6D3EE
:10018000FFF7DAFFEC0A00080C0B000800BFFEE7DF
:1001900070472DE9F041024600250026002000238B
:1001A0000024002791F803C00CF00F0591F803C05C
:1001B0000CF0100CBCF1000F03D091F802C04CEA17
:1001C000050591F800C0BCF1000F31D01468002083
:1001D0002BE04FF0010C0CFA00F3B1F800C00CEA70
:1001E00003069E4220D183004FF00F0C0CFA03F758
:1001F000BC4305FA03FC4CEA040491F803C0BCF1CB
:10020000280F06D14FF0010C0CFA00FCC2F814C004
:100210000AE091F803C0BCF1480F05D14FF0010C82
:100220000CFA00FCC2F810C0401C0828D1D314609E
:10023000B1F800C0BCF1FF0F34DD546800202EE09F
:1002400000F1080C4FF0010808FA0CF3B1F800C0F7
:100250000CEA03069E4221D183004FF00F0C0CFAEA
:1002600003F7BC4305FA03FC4CEA040491F803C00D
:10027000BCF1280F05D100F1080C08FA0CF8C2F8FF
:10028000148091F803C0BCF1480F07D100F1080CAD
:100290004FF0010808FA0CF8C2F81080401C08283A
:1002A000CED35460BDE8F0814161704708B50121AB
:1002B000082000F0BFF810208DF803004020ADF8B2
:1002C000000003208DF8020069460248FFF761FF35
:1002D00008BD0000000C014010B5FFF7E7FF40210A
:1002E0001448FFF7E1FF322000F0BEF912A11648D2
:1002F00000F0D0FB322000F0B7F914A1124800F052
:10030000C9FB322000F0B0F913A10F4800F0C2FB86
:10031000322000F0A9F914A10B4800F0BBFB3220F9
:1003200000F0A2F913A1084800F0B4FB322000F05D
:100330009BF910BD000C014041542B4E414D453DF1
:10034000484330350D0A00000044004041542B5210
:100350004F4C453D300D0A0041542B434D4F444511
:100360003D310D0A0000000041542B5354415445C7
:100370003F0D0A0041542B52455345540D0A0000CD
:1003800000BFFEE700BFFEE77047000070B5002128
:1003900000230F22C47804B3154C246804F4E064ED
:1003A000C4F5E064210AC1F10403CA40447804FAA8
:1003B00003F184781440214309010E4C0678A155BD
:1003C000047804F01F050124AC4005786D11AD00E0
:1003D00005F1E025C5F8004109E0047804F01F05A7
:1003E0000124AC40044D0678761145F8264070BDD6
:1003F0000CED00E000E400E080E100E00249014390
:10040000024A1160704700000000FA050CED00E0A0
:100410007047000029B1064AD2690243044BDA61F1
:1004200004E0034AD2698243014BDA61704700005D
:100430000010024029B1064A92690243044B9A61B6
:1004400004E0034A92698243014B9A6170470000BD
:100450000010024030B500210022002400232D4D61
:100460006D6805F00C0121B1042905D0082923D1BC
:1004700005E0294D056022E0274D05601FE0254D70
:100480006D6805F47012234D6D6805F48034022503
:1004900005EB92421CB9214D554305600BE01D4D03
:1004A0006D6805F400351DB11C4D5543056002E033
:1004B000194D5543056002E0174D056000BF00BFB0
:1004C000144D6D6805F0F0010909154D6B5C056868
:1004D000DD4045600F4D6D6805F4E061090A104D7F
:1004E0006B5C4568DD4085600A4D6D6805F46051C0
:1004F000C90A0B4D6B5C4568DD40C560054D6D68F4
:1005000005F44041890B074D6B5CC568B5FBF3F5FD
:10051000056130BD0010024000127A0000093D0064
:100520001400002024000020704710B500F002F8ED
:1005300010BD00000CB50020019000903348006809
:1005400040F480303149086000BF3048006800F452
:10055000003000900198401C0190009818B9019853
:10056000B0F5A06FF1D12948006800F4003010B157
:100570000120009001E0002000900098012843D164
:100580002348006840F010002149086008460068D0
:1005900020F0030008600846006840F00200086090
:1005A0001A4840681949486008464068486008464B
:1005B000406840F4806048600846406820F47C1041
:1005C00048600846406840F4E81048600846006803
:1005D00040F08070086000BF0C48006800F00070B8
:1005E0000028F9D00948406820F003000749486016
:1005F0000846406840F00200486000BF0348406879
:1006000000F00C000828F9D10CBD000000100240D9
:100610000020024030B50146B1F1807F01D30120B6
:1006200030BD21F07F40401E4FF0E0225061501756
:100630000F22002807DA13071D0E094B00F00F04E4
:10064000241F1D5503E013071C0E064B1C5400BF4E
:1006500000204FF0E0229061072010610020DFE7CA
:1006600018ED00E000E400E031B5104800684FF4F8
:100670007A71B0FBF1F52846FFF7CCFF002408E0C3
:1006800000BF4FF0E020006900F480300028F8D06F
:10069000641C00988442F3D34FF0E020006920F0FE
:1006A00001004FF0E021086138BD0000000000208B
:1006B00010B500F031F810BD10B51348006840F0D7
:1006C00001001149086008464068104908400E4979
:1006D0004860084600680E4908400B490860084613
:1006E000006820F4802008600846406820F4FE007E
:1006F00048604FF41F008860FFF717FF4FF000605D
:100700000449086010BD0000001002400000FFF81E
:10071000FFFFF6FE08ED00E00448006820B1034842
:100720000068401E01490860704700002800002052
:100730001FB501218803FFF77DFE4FF4E1300090E3
:100740000020ADF80C000C20ADF80A000020ADF838
:100750000800ADF80600ADF804006946034800F053
:1007600013F90121014800F0A7F81FBD003801402E
:1007700008B501210420FFF75DFE18208DF8030065
:100780004FF40070ADF8000003208DF802006946B8
:100790000648FFF7FEFC04208DF803000002ADF8C8
:1007A000000069460148FFF7F4FC08BD000801405D
:1007B00010B5FFF7BDFFFFF7DBFF10BD00B585B03B
:1007C00001214804FFF726FE4FF4A060FFF716FE54
:1007D00026208DF8100001208DF811008DF81200F0
:1007E0008DF8130004A8FFF7D1FD012240F2255136
:1007F0000E4800F0A4F84FF4E13000900020ADF86E
:100800000C000C20ADF80A000020ADF80800ADF88F
:100810000600ADF804006946044800F0B5F801216F
:10082000024800F049F805B000BD00000044004057
:1008300008B501210420FFF7FDFD18208DF8030005
:100840000420ADF8000003208DF802006946074837
:10085000FFF79FFC04208DF803000820ADF800008E
:1008600069460248FFF795FC08BD000000080140FA
:1008700008B50020009040F225510A4800F035F8F4
:1008800078B108E0074800F0EBF8C0B20090694684
:10089000054800F0FFF82021024800F019F8002870
:1008A000F0D108BD004400400038014010B5FFF70A
:1008B00085FFFFF7BDFF10BD21B1828942F40052D0
:1008C000828104E082894DF6FF731A40828170476D
:1008D00002460020B1F5007F00D100BF13880B4015
:1008E0000BB1012000E00020704770B502460024E3
:1008F00000230025002040F66A16B14200D100BF57
:10090000C1F3421501F01F03012606FA03F3012D7E
:1009100002D19689334006E0022D02D1168A334077
:1009200001E0968A33400C12012606FA04F4168878
:10093000344013B10CB1012000E0002070BDF0B5CF
:100940000346002400260025002040F66A17B9421D
:1009500000D100BF1846C1F3421401F01F06012761
:1009600007FA06F5012C01D10C3004E0022C01D16C
:10097000103000E014301AB107682F43076002E01E
:100980000768AF430760F0BD2DE9F04786B0054624
:100990000E460024A24600BFA1460027B08900B140
:1009A00000BF2F462C8A4CF6FF700440F0880443A9
:1009B0002C82AC894EF6F3100440B088318908438C
:1009C000718908430443AC81AC8A4FF6FF40044070
:1009D000B0890443AC8201A8FFF73CFD1F48874261
:1009E00002D1DDF810A001E0DDF80CA0A88900F428
:1009F000004040B10AEBCA0000EB0A103168490020
:100A0000B0FBF1F807E00AEBCA0000EB0A1031680E
:100A10008900B0FBF1F86420B8FBF0F00401200974
:100A2000642101FB1089A88900F4004040B1322004
:100A300000EBC900B0FBF1F000F00700044308E050
:100A4000322000EB09106421B0FBF1F000F00F0040
:100A500004432C8106B0BDE8F08700000038014057
:100A600001468888C0F308007047C1F308028280FD
:100A7000704700BFFEE770B504460D462946204684
:100A8000FFF7F3FF00BF80212046FFF721FF00287A
:100A9000F9D070BD70B506460C46002500BF615DFB
:100AA0003046FFF7E8FF6D1C605D0028F7D100BFFE
:100AB00040213046FFF70CFF0028F9D070BD02E05E
:100AC00008C8121F08C1002AFAD1704770470020D9
:100AD00001E001C1121F002AFBD17047FFF768FE39
:100AE000FFF7E4FEFFF7F8FB00BFFEE70C0B000882
:100AF000000000202C000000BE0A0008380B00088F
:100B00002C00002004040000CE0A000800A24A04C1
:100B100000000000000000000102030406070809AD
:100B20000000000001020304010203040607080993
:080B30000204060800000000A9
:0400000508000131BD
:00000001FF
