:030000000200AE4D
:0C00AE00787FE4F6D8FD75810A0200831B
:0B00BA0048656C6C6F20576F6C640091
:0E0074007FB07E15EF1FAC0670011E4C70F6BB
:01008200225B
:100063007580FFC2B5D2B6C2B4D2B4E58020E7FB37
:01007300226A
:0E0092001200638F80C2B5C2B6C2B4D2B422CF
:0E00A0001200638F80D2B5C2B6C2B4D2B422B1
:100051007F381200921200747F0C1200927F01020D
:0200610000920B
:10003700AE07AC03530501ED60034306404306805A
:0A004700AF06120092AF040200A001
:080003008D088A098B0AA90788
:10000B00E4FA53080153010FE50A2AF582E4350996
:10001B00F583E493FBC394204011E9D3940F50E88C
:0B002B00AF01AD081200370A0980DDAC
:0100360022A7
:0F0083001200517A007BBAE4FDFF12000380FEE9
:00000001FF
